{"fileName":"App.sol","contractName":"App","source":"pragma solidity ^0.5.0;\n\nimport \"./ImplementationProvider.sol\";\nimport \"./Package.sol\";\nimport \"../upgradeability/AdminUpgradeabilityProxy.sol\";\nimport \"../ownership/Ownable.sol\";\n\n/**\n * @title App\n * @dev Contract for upgradeable applications.\n * It handles the creation of proxies.\n */\ncontract App is ZOSLibOwnable {\n  /**\n   * @dev Emitted when a new proxy is created.\n   * @param proxy Address of the created proxy.\n   */\n  event ProxyCreated(address proxy);\n\n  /**\n   * @dev Emitted when a package dependency is changed in the application.\n   * @param providerName Name of the package that changed.\n   * @param package Address of the package associated to the name.\n   * @param version Version of the package in use.\n   */\n  event PackageChanged(string providerName, address package, uint64[3] version);\n\n  /**\n   * @dev Tracks a package in a particular version, used for retrieving implementations\n   */\n  struct ProviderInfo {\n    Package package;\n    uint64[3] version;\n  }\n\n  /**\n   * @dev Maps from dependency name to a tuple of package and version\n   */\n  mapping(string => ProviderInfo) internal providers;\n\n  /**\n   * @dev Constructor function.\n   */\n  constructor() public { }\n\n  /**\n   * @dev Returns the provider for a given package name, or zero if not set.\n   * @param packageName Name of the package to be retrieved.\n   * @return The provider.\n   */\n  function getProvider(string memory packageName) public view returns (ImplementationProvider provider) {\n    ProviderInfo storage info = providers[packageName];\n    if (address(info.package) == address(0)) return ImplementationProvider(0);\n    return ImplementationProvider(info.package.getContract(info.version));\n  }\n\n  /**\n   * @dev Returns information on a package given its name.\n   * @param packageName Name of the package to be queried.\n   * @return A tuple with the package address and pinned version given a package name, or zero if not set\n   */\n  function getPackage(string memory packageName) public view returns (Package, uint64[3] memory) {\n    ProviderInfo storage info = providers[packageName];\n    return (info.package, info.version);\n  }\n\n  /**\n   * @dev Sets a package in a specific version as a dependency for this application.\n   * Requires the version to be present in the package.\n   * @param packageName Name of the package to set or overwrite.\n   * @param package Address of the package to register.\n   * @param version Version of the package to use in this application.\n   */\n  function setPackage(string memory packageName, Package package, uint64[3] memory version) public onlyOwner {\n    require(package.hasVersion(version), \"The requested version must be registered in the given package\");\n    providers[packageName] = ProviderInfo(package, version);\n    emit PackageChanged(packageName, address(package), version);\n  }\n\n  /**\n   * @dev Unsets a package given its name.\n   * Reverts if the package is not set in the application.\n   * @param packageName Name of the package to remove.\n   */\n  function unsetPackage(string memory packageName) public onlyOwner {\n    require(address(providers[packageName].package) != address(0), \"Package to unset not found\");\n    delete providers[packageName];\n    emit PackageChanged(packageName, address(0), [uint64(0), uint64(0), uint64(0)]);\n  }\n\n  /**\n   * @dev Returns the implementation address for a given contract name, provided by the `ImplementationProvider`.\n   * @param packageName Name of the package where the contract is contained.\n   * @param contractName Name of the contract.\n   * @return Address where the contract is implemented.\n   */\n  function getImplementation(string memory packageName, string memory contractName) public view returns (address) {\n    ImplementationProvider provider = getProvider(packageName);\n    if (address(provider) == address(0)) return address(0);\n    return provider.getImplementation(contractName);\n  }\n\n  /**\n   * @dev Creates a new proxy for the given contract and forwards a function call to it.\n   * This is useful to initialize the proxied contract.\n   * @param packageName Name of the package where the contract is contained.\n   * @param contractName Name of the contract.\n   * @param admin Address of the proxy administrator.\n   * @param data Data to send as msg.data to the corresponding implementation to initialize the proxied contract.\n   * It should include the signature and the parameters of the function to be called, as described in\n   * https://solidity.readthedocs.io/en/v0.4.24/abi-spec.html#function-selector-and-argument-encoding.\n   * This parameter is optional, if no data is given the initialization call to proxied contract will be skipped.\n   * @return Address of the new proxy.\n   */\n   function create(string memory packageName, string memory contractName, address admin, bytes memory data) payable public returns (AdminUpgradeabilityProxy) {\n     address implementation = getImplementation(packageName, contractName);\n     AdminUpgradeabilityProxy proxy = (new AdminUpgradeabilityProxy).value(msg.value)(implementation, admin, data);\n     emit ProxyCreated(address(proxy));\n     return proxy;\n  }\n}\n","sourcePath":"zos-lib/contracts/application/App.sol","abi":[{"constant":true,"inputs":[{"internalType":"string","name":"packageName","type":"string"},{"internalType":"string","name":"contractName","type":"string"}],"name":"getImplementation","outputs":[{"internalType":"address","name":"","type":"address"}],"payable":false,"stateMutability":"view","type":"function"},{"constant":true,"inputs":[{"internalType":"string","name":"packageName","type":"string"}],"name":"getProvider","outputs":[{"internalType":"contract ImplementationProvider","name":"provider","type":"address"}],"payable":false,"stateMutability":"view","type":"function"},{"constant":false,"inputs":[],"name":"renounceOwnership","outputs":[],"payable":false,"stateMutability":"nonpayable","type":"function"},{"constant":false,"inputs":[{"internalType":"string","name":"packageName","type":"string"},{"internalType":"contract Package","name":"package","type":"address"},{"internalType":"uint64[3]","name":"version","type":"uint64[3]"}],"name":"setPackage","outputs":[],"payable":false,"stateMutability":"nonpayable","type":"function"},{"constant":true,"inputs":[{"internalType":"string","name":"packageName","type":"string"}],"name":"getPackage","outputs":[{"internalType":"contract Package","name":"","type":"address"},{"internalType":"uint64[3]","name":"","type":"uint64[3]"}],"payable":false,"stateMutability":"view","type":"function"},{"constant":true,"inputs":[],"name":"owner","outputs":[{"internalType":"address","name":"","type":"address"}],"payable":false,"stateMutability":"view","type":"function"},{"constant":true,"inputs":[],"name":"isOwner","outputs":[{"internalType":"bool","name":"","type":"bool"}],"payable":false,"stateMutability":"view","type":"function"},{"constant":false,"inputs":[{"internalType":"string","name":"packageName","type":"string"}],"name":"unsetPackage","outputs":[],"payable":false,"stateMutability":"nonpayable","type":"function"},{"constant":false,"inputs":[{"internalType":"string","name":"packageName","type":"string"},{"internalType":"string","name":"contractName","type":"string"},{"internalType":"address","name":"admin","type":"address"},{"internalType":"bytes","name":"data","type":"bytes"}],"name":"create","outputs":[{"internalType":"contract AdminUpgradeabilityProxy","name":"","type":"address"}],"payable":true,"stateMutability":"payable","type":"function"},{"constant":false,"inputs":[{"internalType":"address","name":"newOwner","type":"address"}],"name":"transferOwnership","outputs":[],"payable":false,"stateMutability":"nonpayable","type":"function"},{"inputs":[],"payable":false,"stateMutability":"nonpayable","type":"constructor"},{"anonymous":false,"inputs":[{"indexed":false,"internalType":"address","name":"proxy","type":"address"}],"name":"ProxyCreated","type":"event"},{"anonymous":false,"inputs":[{"indexed":false,"internalType":"string","name":"providerName","type":"string"},{"indexed":false,"internalType":"address","name":"package","type":"address"},{"indexed":false,"internalType":"uint64[3]","name":"version","type":"uint64[3]"}],"name":"PackageChanged","type":"event"},{"anonymous":false,"inputs":[{"indexed":true,"internalType":"address","name":"previousOwner","type":"address"},{"indexed":true,"internalType":"address","name":"newOwner","type":"address"}],"name":"OwnershipTransferred","type":"event"}],"bytecode":"0x60806040523480156100115760006000fd5b505b5b33600060006101000a81548173ffffffffffffffffffffffffffffffffffffffff021916908373ffffffffffffffffffffffffffffffffffffffff160217905550600060009054906101000a900473ffffffffffffffffffffffffffffffffffffffff1673ffffffffffffffffffffffffffffffffffffffff16600073ffffffffffffffffffffffffffffffffffffffff167f8be0079c531659141344cd1fd0a4f28419497f9722a3daafe3b4186f6b6457e060405160405180910390a35b5b6100d9565b612924806100e86000396000f3fe608060405260043610620000a35760003560e01c80638da5cb5b11620000615780638da5cb5b146200061c5780638f32d59b1462000677578063ad358d9914620006aa578063cd3e318a1462000782578063f2fde38b14620009ed57620000a3565b806327a0d66914620000a957806350cadc851462000262578063715018a6146200037a57806371eb64cc146200039557806387c6048314620004d257620000a3565b60006000fd5b348015620000b75760006000fd5b506200022060048036036040811015620000d15760006000fd5b8101908080359060200190640100000000811115620000f05760006000fd5b820183602082011115620001045760006000fd5b80359060200191846001830284011164010000000083111715620001285760006000fd5b91908080601f016020809104026020016040519081016040528093929190818152602001838380828437600081840152601f19601f8201169050808301925050505050505090909192909091929080359060200190640100000000811115620001915760006000fd5b820183602082011115620001a55760006000fd5b80359060200191846001830284011164010000000083111715620001c95760006000fd5b91908080601f016020809104026020016040519081016040528093929190818152602001838380828437600081840152601f19601f8201169050808301925050505050505090909192909091929050505062000a44565b604051808273ffffffffffffffffffffffffffffffffffffffff1673ffffffffffffffffffffffffffffffffffffffff16815260200191505060405180910390f35b348015620002705760006000fd5b5062000338600480360360208110156200028a5760006000fd5b8101908080359060200190640100000000811115620002a95760006000fd5b820183602082011115620002bd5760006000fd5b80359060200191846001830284011164010000000083111715620002e15760006000fd5b91908080601f016020809104026020016040519081016040528093929190818152602001838380828437600081840152601f19601f8201169050808301925050505050505090909192909091929050505062000ba7565b604051808273ffffffffffffffffffffffffffffffffffffffff1673ffffffffffffffffffffffffffffffffffffffff16815260200191505060405180910390f35b348015620003885760006000fd5b506200039362000da7565b005b348015620003a35760006000fd5b50620004d0600480360360a0811015620003bd5760006000fd5b8101908080359060200190640100000000811115620003dc5760006000fd5b820183602082011115620003f05760006000fd5b80359060200191846001830284011164010000000083111715620004145760006000fd5b91908080601f016020809104026020016040519081016040528093929190818152602001838380828437600081840152601f19601f82011690508083019250505050505050909091929090919290803573ffffffffffffffffffffffffffffffffffffffff16906020019092919080606001906003806020026040519081016040528092919082600360200280828437600081840152601f19601f82011690508083019250505050505090909192909091929050505062000e87565b005b348015620004e05760006000fd5b50620005a860048036036020811015620004fa5760006000fd5b8101908080359060200190640100000000811115620005195760006000fd5b8201836020820111156200052d5760006000fd5b80359060200191846001830284011164010000000083111715620005515760006000fd5b91908080601f016020809104026020016040519081016040528093929190818152602001838380828437600081840152601f19601f82011690508083019250505050505050909091929090919290505050620011d1565b604051808373ffffffffffffffffffffffffffffffffffffffff1673ffffffffffffffffffffffffffffffffffffffff16815260200182600360200280838360005b83811015620006085780820151818401525b602081019050620005ea565b505050509050019250505060405180910390f35b3480156200062a5760006000fd5b506200063562001307565b604051808273ffffffffffffffffffffffffffffffffffffffff1673ffffffffffffffffffffffffffffffffffffffff16815260200191505060405180910390f35b348015620006855760006000fd5b506200069062001337565b604051808215151515815260200191505060405180910390f35b348015620006b85760006000fd5b506200078060048036036020811015620006d25760006000fd5b8101908080359060200190640100000000811115620006f15760006000fd5b820183602082011115620007055760006000fd5b80359060200191846001830284011164010000000083111715620007295760006000fd5b91908080601f016020809104026020016040519081016040528093929190818152602001838380828437600081840152601f19601f8201169050808301925050505050505090909192909091929050505062001395565b005b620009ab600480360360808110156200079b5760006000fd5b8101908080359060200190640100000000811115620007ba5760006000fd5b820183602082011115620007ce5760006000fd5b80359060200191846001830284011164010000000083111715620007f25760006000fd5b91908080601f016020809104026020016040519081016040528093929190818152602001838380828437600081840152601f19601f82011690508083019250505050505050909091929090919290803590602001906401000000008111156200085b5760006000fd5b8201836020820111156200086f5760006000fd5b80359060200191846001830284011164010000000083111715620008935760006000fd5b91908080601f016020809104026020016040519081016040528093929190818152602001838380828437600081840152601f19601f82011690508083019250505050505050909091929090919290803573ffffffffffffffffffffffffffffffffffffffff169060200190929190803590602001906401000000008111156200091c5760006000fd5b820183602082011115620009305760006000fd5b80359060200191846001830284011164010000000083111715620009545760006000fd5b91908080601f016020809104026020016040519081016040528093929190818152602001838380828437600081840152601f19601f8201169050808301925050505050505090909192909091929050505062001709565b604051808273ffffffffffffffffffffffffffffffffffffffff1673ffffffffffffffffffffffffffffffffffffffff16815260200191505060405180910390f35b348015620009fb5760006000fd5b5062000a426004803603602081101562000a155760006000fd5b81019080803573ffffffffffffffffffffffffffffffffffffffff169060200190929190505050620018a7565b005b6000600062000a598462000ba763ffffffff16565b9050600073ffffffffffffffffffffffffffffffffffffffff168173ffffffffffffffffffffffffffffffffffffffff16141562000a9c57600091505062000ba1565b8073ffffffffffffffffffffffffffffffffffffffff16636b683896846040518263ffffffff1660e01b81526004018080602001828103825283818151815260200191508051906020019080838360005b8381101562000b0b5780820151818401525b60208101905062000aed565b50505050905090810190601f16801562000b395780820380516001836020036101000a031916815260200191505b509250505060206040518083038186803b15801562000b585760006000fd5b505afa15801562000b6e573d600060003e3d6000fd5b505050506040513d602081101562000b865760006000fd5b810190808051906020019092919050505091505062000ba156505b92915050565b600060006001600050836040518082805190602001908083835b60208310151562000be957805182525b60208201915060208101905060208303925062000bc1565b6001836020036101000a03801982511681845116808217855250505050505090500191505090815260200160405180910390206000509050600073ffffffffffffffffffffffffffffffffffffffff168160000160009054906101000a900473ffffffffffffffffffffffffffffffffffffffff1673ffffffffffffffffffffffffffffffffffffffff16141562000c8657600091505062000da2565b8060000160009054906101000a900473ffffffffffffffffffffffffffffffffffffffff1673ffffffffffffffffffffffffffffffffffffffff16631df40eaa826001016000506040518263ffffffff1660e01b815260040180826003801562000d3a576020028201916000905b82829054906101000a900467ffffffffffffffff1667ffffffffffffffff168152602001906008019060208260070104928301926001038202915080841162000cf45790505b505091505060206040518083038186803b15801562000d595760006000fd5b505afa15801562000d6f573d600060003e3d6000fd5b505050506040513d602081101562000d875760006000fd5b810190808051906020019092919050505091505062000da256505b919050565b62000db76200133763ffffffff16565b151562000dc45760006000fd5b600073ffffffffffffffffffffffffffffffffffffffff16600060009054906101000a900473ffffffffffffffffffffffffffffffffffffffff1673ffffffffffffffffffffffffffffffffffffffff167f8be0079c531659141344cd1fd0a4f28419497f9722a3daafe3b4186f6b6457e060405160405180910390a36000600060006101000a81548173ffffffffffffffffffffffffffffffffffffffff021916908373ffffffffffffffffffffffffffffffffffffffff1602179055505b5b565b62000e976200133763ffffffff16565b151562000ea45760006000fd5b8173ffffffffffffffffffffffffffffffffffffffff166335ce4016826040518263ffffffff1660e01b81526004018082600360200280838360005b8381101562000efe5780820151818401525b60208101905062000ee0565b5050505090500191505060206040518083038186803b15801562000f225760006000fd5b505afa15801562000f38573d600060003e3d6000fd5b505050506040513d602081101562000f505760006000fd5b8101908080519060200190929190505050151562000fba576040517f08c379a000000000000000000000000000000000000000000000000000000000815260040180806020018281038252603d815260200180620028b3603d913960400191505060405180910390fd5b60405180604001604052808373ffffffffffffffffffffffffffffffffffffffff168152602001828152602001506001600050846040518082805190602001908083835b6020831015156200102657805182525b60208201915060208101905060208303925062000ffe565b6001836020036101000a038019825116818451168082178552505050505050905001915050908152602001604051809103902060005060008201518160000160006101000a81548173ffffffffffffffffffffffffffffffffffffffff021916908373ffffffffffffffffffffffffffffffffffffffff160217905550602082015181600101600050906003620010bf929190620019d9565b509050507f4ca1964bc3cd347906bc558f77fdd636486951cf12238150178be72a4fbb6fab83838360405180806020018473ffffffffffffffffffffffffffffffffffffffff1673ffffffffffffffffffffffffffffffffffffffff16815260200183600360200280838360005b838110156200114b5780820151818401525b6020810190506200112d565b50505050905001828103825285818151815260200191508051906020019080838360005b838110156200118d5780820151818401525b6020810190506200116f565b50505050905090810190601f168015620011bb5780820380516001836020036101000a031916815260200191505b5094505050505060405180910390a15b5b505050565b6000620011dd62001a91565b60006001600050846040518082805190602001908083835b6020831015156200121d57805182525b602082019150602081019050602083039250620011f5565b6001836020036101000a038019825116818451168082178552505050505050905001915050908152602001604051809103902060005090508060000160009054906101000a900473ffffffffffffffffffffffffffffffffffffffff168160010160005080600380602002604051908101604052809291908260038015620012ef576020028201916000905b82829054906101000a900467ffffffffffffffff1667ffffffffffffffff1681526020019060080190602082600701049283019260010382029150808411620012a95790505b5050505050905092509250506200130256505b915091565b6000600060009054906101000a900473ffffffffffffffffffffffffffffffffffffffff16905062001334565b90565b6000600060009054906101000a900473ffffffffffffffffffffffffffffffffffffffff1673ffffffffffffffffffffffffffffffffffffffff163373ffffffffffffffffffffffffffffffffffffffff1614905062001392565b90565b620013a56200133763ffffffff16565b1515620013b25760006000fd5b600073ffffffffffffffffffffffffffffffffffffffff166001600050826040518082805190602001908083835b6020831015156200140857805182525b602082019150602081019050602083039250620013e0565b6001836020036101000a038019825116818451168082178552505050505050905001915050908152602001604051809103902060005060000160009054906101000a900473ffffffffffffffffffffffffffffffffffffffff1673ffffffffffffffffffffffffffffffffffffffff1614151515620014f2576040517f08c379a000000000000000000000000000000000000000000000000000000000815260040180806020018281038252601a8152602001807f5061636b61676520746f20756e736574206e6f7420666f756e6400000000000081526020015060200191505060405180910390fd5b6001600050816040518082805190602001908083835b6020831015156200153057805182525b60208201915060208101905060208303925062001508565b6001836020036101000a038019825116818451168082178552505050505050905001915050908152602001604051809103902060006000820160006101000a81549073ffffffffffffffffffffffffffffffffffffffff02191690556001820160006200159e919062001ab3565b50507f4ca1964bc3cd347906bc558f77fdd636486951cf12238150178be72a4fbb6fab8160006040518060600160405280600067ffffffffffffffff1667ffffffffffffffff168152602001600067ffffffffffffffff1667ffffffffffffffff168152602001600067ffffffffffffffff1667ffffffffffffffff1681526020015060405180806020018473ffffffffffffffffffffffffffffffffffffffff1673ffffffffffffffffffffffffffffffffffffffff16815260200183600360200280838360005b83811015620016855780820151818401525b60208101905062001667565b50505050905001828103825285818151815260200191508051906020019080838360005b83811015620016c75780820151818401525b602081019050620016a9565b50505050905090810190601f168015620016f55780820380516001836020036101000a031916815260200191505b5094505050505060405180910390a15b5b50565b600060006200171f868662000a4463ffffffff16565b9050600034828686604051620017359062001aba565b808473ffffffffffffffffffffffffffffffffffffffff1673ffffffffffffffffffffffffffffffffffffffff1681526020018373ffffffffffffffffffffffffffffffffffffffff1673ffffffffffffffffffffffffffffffffffffffff16815260200180602001828103825283818151815260200191508051906020019080838360005b83811015620017d95780820151818401525b602081019050620017bb565b50505050905090810190601f168015620018075780820380516001836020036101000a031916815260200191505b509450505050506040518091039082f0801580156200182b573d600060003e3d6000fd5b50905090507efffc2da0b561cae30d9826d37709e9421c4725faebc226cbbb7ef5fc5e734981604051808273ffffffffffffffffffffffffffffffffffffffff1673ffffffffffffffffffffffffffffffffffffffff16815260200191505060405180910390a180925050506200189f5650505b949350505050565b620018b76200133763ffffffff16565b1515620018c45760006000fd5b620018d581620018da63ffffffff16565b5b5b50565b600073ffffffffffffffffffffffffffffffffffffffff168173ffffffffffffffffffffffffffffffffffffffff1614151515620019185760006000fd5b8073ffffffffffffffffffffffffffffffffffffffff16600060009054906101000a900473ffffffffffffffffffffffffffffffffffffffff1673ffffffffffffffffffffffffffffffffffffffff167f8be0079c531659141344cd1fd0a4f28419497f9722a3daafe3b4186f6b6457e060405160405180910390a380600060006101000a81548173ffffffffffffffffffffffffffffffffffffffff021916908373ffffffffffffffffffffffffffffffffffffffff1602179055505b50565b826003909060030160049004810192821562001a7e5791602002820160005b8382111562001a4657835183826101000a81548167ffffffffffffffff021916908367ffffffffffffffff1602179055509260200192600801602081600701049283019260010302620019f8565b801562001a7c5782816101000a81549067ffffffffffffffff021916905560080160208160070104928301926001030262001a46565b505b50905062001a8d919062001ac8565b5090565b6040518060600160405280600390602082028038833980820191505090505090565b5060009055565b610dab8062001b0883390190565b62001b04919062001ad4565b8082111562001b0057600081816101000a81549067ffffffffffffffff02191690555060010162001ad4565b5090565b9056fe608060405260405162000dab38038062000dab833981810160405260608110156100295760006000fd5b8101908080519060200190929190805190602001909291908051604051939291908464010000000082111561005e5760006000fd5b838201915060208201858111156100755760006000fd5b82518660018202830111640100000000821117156100935760006000fd5b8083526020830192505050908051906020019080838360005b838110156100c85780820151818401525b6020810190506100ac565b50505050905090810190601f1680156100f55780820380516001836020036101000a031916815260200191505b506040526020015050505b82815b604051808062000d4d6023913960230190506040518091039020600019167f7050c9e0f4ca769c69bd3a8ef740bc37934f8e2c036e5a723fd8ee048ed3f8c360001b6000191614151561015257fe5b610161826102bc60201b60201c565b6000815111156102335760008273ffffffffffffffffffffffffffffffffffffffff16826040518082805190602001908083835b6020831015156101bb57805182525b602082019150602081019050602083039250610195565b6001836020036101000a038019825116818451168082178552505050505050905001915050600060405180830381855af49150503d806000811461021b576040519150601f19603f3d011682016040523d82523d6000602084013e610220565b606091505b505090508015156102315760006000fd5b505b5b505060405180807f6f72672e7a657070656c696e6f732e70726f78792e61646d696e000000000000815260200150601a0190506040518091039020600019167f10d6a54a4754c8869d6886b5f5d7fbfa5b4522237ea5c60d11bc4e7a1ff9390b60001b600019161415156102a457fe5b6102b38261035760201b60201c565b5b5050506103a1565b6102cf8161038760201b6108aa1760201c565b1515610327576040517f08c379a000000000000000000000000000000000000000000000000000000000815260040180806020018281038252603b81526020018062000d70603b913960400191505060405180910390fd5b60007f7050c9e0f4ca769c69bd3a8ef740bc37934f8e2c036e5a723fd8ee048ed3f8c360001b9050818155505b50565b60007f10d6a54a4754c8869d6886b5f5d7fbfa5b4522237ea5c60d11bc4e7a1ff9390b60001b9050818155505b50565b60006000823b90506000811191505061039c56505b919050565b61099c80620003b16000396000f3fe60806040526004361061004e5760003560e01c80633659cfe6146100605780634f1ef286146100b35780635c60da1b146101525780638f283970146101aa578063f851a440146101fd5761004e565b5b61005d61025563ffffffff16565b5b005b34801561006d5760006000fd5b506100b1600480360360208110156100855760006000fd5b81019080803573ffffffffffffffffffffffffffffffffffffffff169060200190929190505050610282565b005b610150600480360360408110156100ca5760006000fd5b81019080803573ffffffffffffffffffffffffffffffffffffffff169060200190929190803590602001906401000000008111156101085760006000fd5b82018360208201111561011b5760006000fd5b8035906020019184600183028401116401000000008311171561013e5760006000fd5b909192939090919293905050506102eb565b005b34801561015f5760006000fd5b506101686103d8565b604051808273ffffffffffffffffffffffffffffffffffffffff1673ffffffffffffffffffffffffffffffffffffffff16815260200191505060405180910390f35b3480156101b75760006000fd5b506101fb600480360360208110156101cf5760006000fd5b81019080803573ffffffffffffffffffffffffffffffffffffffff169060200190929190505050610448565b005b34801561020a5760006000fd5b506102136105dd565b604051808273ffffffffffffffffffffffffffffffffffffffff1673ffffffffffffffffffffffffffffffffffffffff16815260200191505060405180910390f35b61026361064d63ffffffff16565b61027f6102746106f263ffffffff16565b61072563ffffffff16565b5b565b61029061075863ffffffff16565b73ffffffffffffffffffffffffffffffffffffffff163373ffffffffffffffffffffffffffffffffffffffff1614156102d8576102d28161078b63ffffffff16565b5b6102e7565b6102e661025563ffffffff16565b5b5b50565b6102f961075863ffffffff16565b73ffffffffffffffffffffffffffffffffffffffff163373ffffffffffffffffffffffffffffffffffffffff1614156103c35761033b8361078b63ffffffff16565b60008373ffffffffffffffffffffffffffffffffffffffff168383604051808383808284378083019250505092505050600060405180830381855af49150503d80600081146103a6576040519150601f19603f3d011682016040523d82523d6000602084013e6103ab565b606091505b505090508015156103bc5760006000fd5b505b6103d2565b6103d161025563ffffffff16565b5b5b505050565b60006103e861075863ffffffff16565b73ffffffffffffffffffffffffffffffffffffffff163373ffffffffffffffffffffffffffffffffffffffff161415610435576104296106f263ffffffff16565b9050610430565b610444565b61044361025563ffffffff16565b5b5b90565b61045661075863ffffffff16565b73ffffffffffffffffffffffffffffffffffffffff163373ffffffffffffffffffffffffffffffffffffffff1614156105ca57600073ffffffffffffffffffffffffffffffffffffffff168173ffffffffffffffffffffffffffffffffffffffff1614151515610511576040517f08c379a00000000000000000000000000000000000000000000000000000000081526004018080602001828103825260368152602001806108f76036913960400191505060405180910390fd5b7f7e644d79422f17c01e4894b5f4f588d331ebfa28653d42ae832dc59e38c9798f61054061075863ffffffff16565b82604051808373ffffffffffffffffffffffffffffffffffffffff1673ffffffffffffffffffffffffffffffffffffffff1681526020018273ffffffffffffffffffffffffffffffffffffffff1673ffffffffffffffffffffffffffffffffffffffff1681526020019250505060405180910390a16105c4816107e163ffffffff16565b5b6105d9565b6105d861025563ffffffff16565b5b5b50565b60006105ed61075863ffffffff16565b73ffffffffffffffffffffffffffffffffffffffff163373ffffffffffffffffffffffffffffffffffffffff16141561063a5761062e61075863ffffffff16565b9050610635565b610649565b61064861025563ffffffff16565b5b5b90565b61065b61075863ffffffff16565b73ffffffffffffffffffffffffffffffffffffffff163373ffffffffffffffffffffffffffffffffffffffff16141515156106e1576040517f08c379a00000000000000000000000000000000000000000000000000000000081526004018080602001828103825260328152602001806108c56032913960400191505060405180910390fd5b6106ef61081163ffffffff16565b5b565b600060007f7050c9e0f4ca769c69bd3a8ef740bc37934f8e2c036e5a723fd8ee048ed3f8c360001b905080549150505b90565b36600060003760006000366000845af43d600060003e806000811461074d573d6000f3610752565b3d6000fd5b50505b50565b600060007f10d6a54a4754c8869d6886b5f5d7fbfa5b4522237ea5c60d11bc4e7a1ff9390b60001b905080549150505b90565b61079a8161081463ffffffff16565b8073ffffffffffffffffffffffffffffffffffffffff167fbc7cd75a20ee27fd9adebab32041f755214dbc6bffa90cc0225b39da2e5c2d3b60405160405180910390a25b50565b60007f10d6a54a4754c8869d6886b5f5d7fbfa5b4522237ea5c60d11bc4e7a1ff9390b60001b9050818155505b50565b5b565b610823816108aa63ffffffff16565b151561087a576040517f08c379a000000000000000000000000000000000000000000000000000000000815260040180806020018281038252603b81526020018061092d603b913960400191505060405180910390fd5b60007f7050c9e0f4ca769c69bd3a8ef740bc37934f8e2c036e5a723fd8ee048ed3f8c360001b9050818155505b50565b60006000823b9050600081119150506108bf56505b91905056fe43616e6e6f742063616c6c2066616c6c6261636b2066756e6374696f6e2066726f6d207468652070726f78792061646d696e43616e6e6f74206368616e6765207468652061646d696e206f6620612070726f787920746f20746865207a65726f206164647265737343616e6e6f742073657420612070726f787920696d706c656d656e746174696f6e20746f2061206e6f6e2d636f6e74726163742061646472657373a265627a7a7231582063dff6c7117c1889bed5b7d0a6e4d2543d028f257671165037cd5be80dc72bf864736f6c634300050b00326f72672e7a657070656c696e6f732e70726f78792e696d706c656d656e746174696f6e43616e6e6f742073657420612070726f787920696d706c656d656e746174696f6e20746f2061206e6f6e2d636f6e74726163742061646472657373546865207265717565737465642076657273696f6e206d757374206265207265676973746572656420696e2074686520676976656e207061636b616765a265627a7a72315820aa4956c4a1bd1de8482136397844eefb5391e2debb4df60135389a18272266d464736f6c634300050b0032","compiler":{"name":"solc","version":"0.5.11+commit.c082d0b4.Emscripten.clang","optimizer":{},"evmVersion":"constantinople"}}