{
  "fileName": "CrowdloanFactory.sol",
  "contractName": "CrowdloanFactory",
  "source": "pragma solidity 0.5.11;\n\nimport \"zos-lib/contracts/Initializable.sol\";\nimport \"zos-lib/contracts/application/App.sol\";\nimport \"zos-lib/contracts/upgradeability/AdminUpgradeabilityProxy.sol\";\nimport \"openzeppelin-eth/contracts/token/ERC20/IERC20.sol\";\nimport \"openzeppelin-eth/contracts/token/ERC20/StandaloneERC20.sol\";\nimport \"../crowdloan/Crowdloan.sol\";\n\ncontract CrowdloanFactory is Initializable {\n    string constant ENABLE_CREDIT_PACKAGE = \"enable-credit\";\n    string constant TERMS_CONTRACT = \"TermsContract\";\n    string constant CROWDLOAN = \"Crowdloan\";\n    string constant REPAYMENT_ROUTER = \"RepaymentManager\";\n\n    App public app;\n\n    event LoanCreated(\n        address indexed borrower,\n        uint256 indexed principalRequested,\n        uint256 repaymentCap,\n        address crowdloan,\n        string loanMetadataUrl,\n        address contractAdmin\n    );\n\n    function initialize(address _appContractAddress) public initializer {\n        app = App(_appContractAddress);\n    }\n\n    function _createCrowdloan(bytes memory _data, address admin) internal returns (address proxy) {\n        return address(app.create(ENABLE_CREDIT_PACKAGE, CROWDLOAN, admin, _data));\n    }\n\n    function deploy(\n        address borrower,\n        IERC20 principalToken,\n        uint256 principalRequested,\n        uint256 repaymentCap,\n        uint256 crowdfundLength,\n        string calldata loanMetadataUrl,\n        address contractAdmin\n    ) external {\n        address crowdloan = _createCrowdloan(\"\", contractAdmin);\n\n        Crowdloan(crowdloan).initialize(\n            borrower,\n            principalToken,\n            principalRequested,\n            repaymentCap,\n            crowdfundLength,\n            loanMetadataUrl\n        );\n\n        emit LoanCreated(\n            borrower,\n            principalRequested,\n            repaymentCap,\n            crowdloan,\n            loanMetadataUrl,\n            contractAdmin\n        );\n    }\n}\n",
  "sourcePath": "contracts/factory/CrowdloanFactory.sol",
  "abi": [
    {
      "constant": true,
      "inputs": [],
      "name": "app",
      "outputs": [
        {
          "internalType": "contract App",
          "name": "",
          "type": "address"
        }
      ],
      "payable": false,
      "stateMutability": "view",
      "type": "function"
    },
    {
      "constant": false,
      "inputs": [
        {
          "internalType": "address",
          "name": "_appContractAddress",
          "type": "address"
        }
      ],
      "name": "initialize",
      "outputs": [],
      "payable": false,
      "stateMutability": "nonpayable",
      "type": "function"
    },
    {
      "constant": false,
      "inputs": [
        {
          "internalType": "address",
          "name": "borrower",
          "type": "address"
        },
        {
          "internalType": "contract IERC20",
          "name": "principalToken",
          "type": "address"
        },
        {
          "internalType": "uint256",
          "name": "principalRequested",
          "type": "uint256"
        },
        {
          "internalType": "uint256",
          "name": "repaymentCap",
          "type": "uint256"
        },
        {
          "internalType": "uint256",
          "name": "crowdfundLength",
          "type": "uint256"
        },
        {
          "internalType": "string",
          "name": "loanMetadataUrl",
          "type": "string"
        },
        {
          "internalType": "address",
          "name": "contractAdmin",
          "type": "address"
        }
      ],
      "name": "deploy",
      "outputs": [],
      "payable": false,
      "stateMutability": "nonpayable",
      "type": "function"
    },
    {
      "anonymous": false,
      "inputs": [
        {
          "indexed": true,
          "internalType": "address",
          "name": "borrower",
          "type": "address"
        },
        {
          "indexed": true,
          "internalType": "uint256",
          "name": "principalRequested",
          "type": "uint256"
        },
        {
          "indexed": false,
          "internalType": "uint256",
          "name": "repaymentCap",
          "type": "uint256"
        },
        {
          "indexed": false,
          "internalType": "address",
          "name": "crowdloan",
          "type": "address"
        },
        {
          "indexed": false,
          "internalType": "string",
          "name": "loanMetadataUrl",
          "type": "string"
        },
        {
          "indexed": false,
          "internalType": "address",
          "name": "contractAdmin",
          "type": "address"
        }
      ],
      "name": "LoanCreated",
      "type": "event"
    }
  ],
  "bytecode": "0x60806040523480156100115760006000fd5b50610017565b6108a6806100266000396000f3fe60806040523480156100115760006000fd5b50600436106100465760003560e01c8063b76564bd1461004c578063c4d66de814610096578063c84a59a4146100db57610046565b60006000fd5b6100546101d8565b604051808273ffffffffffffffffffffffffffffffffffffffff1673ffffffffffffffffffffffffffffffffffffffff16815260200191505060405180910390f35b6100d9600480360360208110156100ad5760006000fd5b81019080803573ffffffffffffffffffffffffffffffffffffffff1690602001909291905050506101fe565b005b6101d6600480360360e08110156100f25760006000fd5b81019080803573ffffffffffffffffffffffffffffffffffffffff169060200190929190803573ffffffffffffffffffffffffffffffffffffffff1690602001909291908035906020019092919080359060200190929190803590602001909291908035906020019064010000000081111561016e5760006000fd5b8201836020820111156101815760006000fd5b803590602001918460018302840111640100000000831117156101a45760006000fd5b90919293909091929390803573ffffffffffffffffffffffffffffffffffffffff16906020019092919050505061034d565b005b603360009054906101000a900473ffffffffffffffffffffffffffffffffffffffff1681565b600060019054906101000a900460ff1680610223575061022261058363ffffffff16565b5b8061023b5750600060009054906101000a900460ff16155b1515610292576040517f08c379a000000000000000000000000000000000000000000000000000000000815260040180806020018281038252602e815260200180610844602e913960400191505060405180910390fd5b6000600060019054906101000a900460ff1615905080156102e4576001600060016101000a81548160ff0219169083151502179055506001600060006101000a81548160ff0219169083151502179055505b81603360006101000a81548173ffffffffffffffffffffffffffffffffffffffff021916908373ffffffffffffffffffffffffffffffffffffffff1602179055505b8015610348576000600060016101000a81548160ff0219169083151502179055505b505b50565b6000610371604051806020016040528060008152602001508361059b63ffffffff16565b90508073ffffffffffffffffffffffffffffffffffffffff1663b90a762a8a8a8a8a8a8a8a6040518863ffffffff1660e01b8152600401808873ffffffffffffffffffffffffffffffffffffffff1673ffffffffffffffffffffffffffffffffffffffff1681526020018773ffffffffffffffffffffffffffffffffffffffff1673ffffffffffffffffffffffffffffffffffffffff168152602001868152602001858152602001848152602001806020018281038252848482818152602001925080828437600081840152601f19601f82011690508083019250505098505050505050505050600060405180830381600087803b1580156104735760006000fd5b505af1158015610488573d600060003e3d6000fd5b50505050868973ffffffffffffffffffffffffffffffffffffffff167f5c6b209f93f6f9f627e54f76787620404889e45c523c5dec33176a2ba0a000898884888888604051808681526020018573ffffffffffffffffffffffffffffffffffffffff1673ffffffffffffffffffffffffffffffffffffffff168152602001806020018373ffffffffffffffffffffffffffffffffffffffff1673ffffffffffffffffffffffffffffffffffffffff1681526020018281038252858582818152602001925080828437600081840152601f19601f820116905080830192505050965050505050505060405180910390a3505b5050505050505050565b60006000303b90506000811491505061059856505b90565b6000603360009054906101000a900473ffffffffffffffffffffffffffffffffffffffff1673ffffffffffffffffffffffffffffffffffffffff1663cd3e318a6040518060400160405280600d81526020017f656e61626c652d637265646974000000000000000000000000000000000000008152602001506040518060400160405280600981526020017f43726f77646c6f616e000000000000000000000000000000000000000000000081526020015085876040518563ffffffff1660e01b81526004018080602001806020018573ffffffffffffffffffffffffffffffffffffffff1673ffffffffffffffffffffffffffffffffffffffff16815260200180602001848103845288818151815260200191508051906020019080838360005b838110156106d95780820151818401525b6020810190506106bd565b50505050905090810190601f1680156107065780820380516001836020036101000a031916815260200191505b50848103835287818151815260200191508051906020019080838360005b838110156107405780820151818401525b602081019050610724565b50505050905090810190601f16801561076d5780820380516001836020036101000a031916815260200191505b50848103825285818151815260200191508051906020019080838360005b838110156107a75780820151818401525b60208101905061078b565b50505050905090810190601f1680156107d45780820380516001836020036101000a031916815260200191505b50975050505050505050602060405180830381600087803b1580156107f95760006000fd5b505af115801561080e573d600060003e3d6000fd5b505050506040513d60208110156108255760006000fd5b8101908080519060200190929190505050905061083d565b9291505056fe436f6e747261637420696e7374616e63652068617320616c7265616479206265656e20696e697469616c697a6564a265627a7a7231582089e2a17265aec9263cd353cf71bc724db9202e3f2b529c3f966ea7ccc72cf1ff64736f6c634300050b0032",
  "compiler": {
    "name": "solc",
    "version": "0.5.11+commit.22be8592.Darwin.appleclang",
    "optimizer": {},
    "evmVersion": "constantinople"
  }
}