{
  "contractName": "CrowdloanFactory",
  "abi": [
    {
      "constant": true,
      "inputs": [],
      "name": "app",
      "outputs": [
        {
          "internalType": "contract App",
          "name": "",
          "type": "address"
        }
      ],
      "payable": false,
      "stateMutability": "view",
      "type": "function"
    },
    {
      "anonymous": false,
      "inputs": [
        {
          "indexed": true,
          "internalType": "address",
          "name": "borrower",
          "type": "address"
        },
        {
          "indexed": true,
          "internalType": "uint256",
          "name": "amount",
          "type": "uint256"
        },
        {
          "indexed": false,
          "internalType": "address",
          "name": "termsContract",
          "type": "address"
        },
        {
          "indexed": false,
          "internalType": "address",
          "name": "crowdloan",
          "type": "address"
        },
        {
          "indexed": false,
          "internalType": "address",
          "name": "repaymentManager",
          "type": "address"
        },
        {
          "indexed": false,
          "internalType": "address",
          "name": "contractAdmin",
          "type": "address"
        }
      ],
      "name": "LoanCreated",
      "type": "event"
    },
    {
      "constant": false,
      "inputs": [
        {
          "internalType": "address",
          "name": "_appContractAddress",
          "type": "address"
        }
      ],
      "name": "initialize",
      "outputs": [],
      "payable": false,
      "stateMutability": "nonpayable",
      "type": "function"
    },
    {
      "constant": false,
      "inputs": [
        {
          "internalType": "address",
          "name": "principalToken",
          "type": "address"
        },
        {
          "internalType": "uint256",
          "name": "principalRequested",
          "type": "uint256"
        },
        {
          "internalType": "uint256",
          "name": "loanPeriod",
          "type": "uint256"
        },
        {
          "internalType": "uint256",
          "name": "interestRate",
          "type": "uint256"
        },
        {
          "internalType": "uint256",
          "name": "minimumRepayment",
          "type": "uint256"
        },
        {
          "internalType": "uint256",
          "name": "maximumRepayment",
          "type": "uint256"
        },
        {
          "internalType": "uint256",
          "name": "crowdfundLength",
          "type": "uint256"
        },
        {
          "internalType": "uint256",
          "name": "crowdfundStart",
          "type": "uint256"
        },
        {
          "internalType": "address",
          "name": "contractAdmin",
          "type": "address"
        }
      ],
      "name": "deploy",
      "outputs": [],
      "payable": false,
      "stateMutability": "nonpayable",
      "type": "function"
    }
  ],
  "bytecode": "0x608060405234801561001057600080fd5b506112c2806100206000396000f3fe608060405234801561001057600080fd5b50600436106100415760003560e01c8063b76564bd14610046578063c4d66de814610090578063e820dc5f146100d4575b600080fd5b61004e61017f565b604051808273ffffffffffffffffffffffffffffffffffffffff1673ffffffffffffffffffffffffffffffffffffffff16815260200191505060405180910390f35b6100d2600480360360208110156100a657600080fd5b81019080803573ffffffffffffffffffffffffffffffffffffffff1690602001909291905050506101a5565b005b61017d60048036036101208110156100eb57600080fd5b81019080803573ffffffffffffffffffffffffffffffffffffffff16906020019092919080359060200190929190803590602001909291908035906020019092919080359060200190929190803590602001909291908035906020019092919080359060200190929190803573ffffffffffffffffffffffffffffffffffffffff1690602001909291905050506102e6565b005b603360009054906101000a900473ffffffffffffffffffffffffffffffffffffffff1681565b600060019054906101000a900460ff16806101c457506101c3610a89565b5b806101db57506000809054906101000a900460ff16155b610230576040517f08c379a000000000000000000000000000000000000000000000000000000000815260040180806020018281038252602e815260200180611260602e913960400191505060405180910390fd5b60008060019054906101000a900460ff161590508015610280576001600060016101000a81548160ff02191690831515021790555060016000806101000a81548160ff0219169083151502179055505b81603360006101000a81548173ffffffffffffffffffffffffffffffffffffffff021916908373ffffffffffffffffffffffffffffffffffffffff16021790555080156102e25760008060016101000a81548160ff0219169083151502179055505b5050565b606060036040519080825280602002602001820160405280156103185781602001602082028038833980820191505090505b5090506103346040518060200160405280600081525083610a9a565b8160008151811061034157fe5b602002602001019073ffffffffffffffffffffffffffffffffffffffff16908173ffffffffffffffffffffffffffffffffffffffff16815250506103946040518060200160405280600081525083610d31565b816001815181106103a157fe5b602002602001019073ffffffffffffffffffffffffffffffffffffffff16908173ffffffffffffffffffffffffffffffffffffffff16815250506103f46040518060200160405280600081525083610fc8565b8160028151811061040157fe5b602002602001019073ffffffffffffffffffffffffffffffffffffffff16908173ffffffffffffffffffffffffffffffffffffffff16815250506060600260405190808252806020026020018201604052801561046d5781602001602082028038833980820191505090505b5090508160018151811061047d57fe5b60200260200101518160008151811061049257fe5b602002602001019073ffffffffffffffffffffffffffffffffffffffff16908173ffffffffffffffffffffffffffffffffffffffff1681525050816002815181106104d957fe5b6020026020010151816001815181106104ee57fe5b602002602001019073ffffffffffffffffffffffffffffffffffffffff16908173ffffffffffffffffffffffffffffffffffffffff16815250506060600160405190808252806020026020018201604052801561055a5781602001602082028038833980820191505090505b5090508260018151811061056a57fe5b60200260200101518160008151811061057f57fe5b602002602001019073ffffffffffffffffffffffffffffffffffffffff16908173ffffffffffffffffffffffffffffffffffffffff1681525050826000815181106105c657fe5b602002602001015173ffffffffffffffffffffffffffffffffffffffff166384f4d98c338e8e8e8e8e8e8a6040518963ffffffff1660e01b8152600401808973ffffffffffffffffffffffffffffffffffffffff1673ffffffffffffffffffffffffffffffffffffffff1681526020018873ffffffffffffffffffffffffffffffffffffffff1673ffffffffffffffffffffffffffffffffffffffff16815260200187815260200186815260200185815260200184815260200183815260200180602001828103825283818151815260200191508051906020019060200280838360005b838110156106c55780820151818401526020810190506106aa565b505050509050019950505050505050505050600060405180830381600087803b1580156106f157600080fd5b505af1158015610705573d6000803e3d6000fd5b505050508260018151811061071657fe5b602002602001015173ffffffffffffffffffffffffffffffffffffffff1663eb990c598460008151811061074657fe5b60200260200101518560028151811061075b57fe5b602002602001015189896040518563ffffffff1660e01b8152600401808573ffffffffffffffffffffffffffffffffffffffff1673ffffffffffffffffffffffffffffffffffffffff1681526020018473ffffffffffffffffffffffffffffffffffffffff1673ffffffffffffffffffffffffffffffffffffffff168152602001838152602001828152602001945050505050600060405180830381600087803b15801561080857600080fd5b505af115801561081c573d6000803e3d6000fd5b505050508260028151811061082d57fe5b602002602001015173ffffffffffffffffffffffffffffffffffffffff1663946d92048460008151811061085d57fe5b6020026020010151836040518363ffffffff1660e01b8152600401808373ffffffffffffffffffffffffffffffffffffffff1673ffffffffffffffffffffffffffffffffffffffff16815260200180602001828103825283818151815260200191508051906020019060200280838360005b838110156108ea5780820151818401526020810190506108cf565b505050509050019350505050600060405180830381600087803b15801561091057600080fd5b505af1158015610924573d6000803e3d6000fd5b505050508a3373ffffffffffffffffffffffffffffffffffffffff167fa6a12134ab342854e2603d6e1ff21d61bbd3c8f0632f0d013357efebb66488cf8560008151811061096e57fe5b60200260200101518660018151811061098357fe5b60200260200101518760028151811061099857fe5b602002602001015189604051808573ffffffffffffffffffffffffffffffffffffffff1673ffffffffffffffffffffffffffffffffffffffff1681526020018473ffffffffffffffffffffffffffffffffffffffff1673ffffffffffffffffffffffffffffffffffffffff1681526020018373ffffffffffffffffffffffffffffffffffffffff1673ffffffffffffffffffffffffffffffffffffffff1681526020018273ffffffffffffffffffffffffffffffffffffffff1673ffffffffffffffffffffffffffffffffffffffff16815260200194505050505060405180910390a3505050505050505050505050565b600080303b90506000811491505090565b6000603360009054906101000a900473ffffffffffffffffffffffffffffffffffffffff1673ffffffffffffffffffffffffffffffffffffffff1663cd3e318a6040518060400160405280600d81526020017f656e61626c652d637265646974000000000000000000000000000000000000008152506040518060400160405280600d81526020017f5465726d73436f6e74726163740000000000000000000000000000000000000081525085876040518563ffffffff1660e01b81526004018080602001806020018573ffffffffffffffffffffffffffffffffffffffff1673ffffffffffffffffffffffffffffffffffffffff16815260200180602001848103845288818151815260200191508051906020019080838360005b83811015610bd1578082015181840152602081019050610bb6565b50505050905090810190601f168015610bfe5780820380516001836020036101000a031916815260200191505b50848103835287818151815260200191508051906020019080838360005b83811015610c37578082015181840152602081019050610c1c565b50505050905090810190601f168015610c645780820380516001836020036101000a031916815260200191505b50848103825285818151815260200191508051906020019080838360005b83811015610c9d578082015181840152602081019050610c82565b50505050905090810190601f168015610cca5780820380516001836020036101000a031916815260200191505b50975050505050505050602060405180830381600087803b158015610cee57600080fd5b505af1158015610d02573d6000803e3d6000fd5b505050506040513d6020811015610d1857600080fd5b8101908080519060200190929190505050905092915050565b6000603360009054906101000a900473ffffffffffffffffffffffffffffffffffffffff1673ffffffffffffffffffffffffffffffffffffffff1663cd3e318a6040518060400160405280600d81526020017f656e61626c652d637265646974000000000000000000000000000000000000008152506040518060400160405280600981526020017f43726f77646c6f616e000000000000000000000000000000000000000000000081525085876040518563ffffffff1660e01b81526004018080602001806020018573ffffffffffffffffffffffffffffffffffffffff1673ffffffffffffffffffffffffffffffffffffffff16815260200180602001848103845288818151815260200191508051906020019080838360005b83811015610e68578082015181840152602081019050610e4d565b50505050905090810190601f168015610e955780820380516001836020036101000a031916815260200191505b50848103835287818151815260200191508051906020019080838360005b83811015610ece578082015181840152602081019050610eb3565b50505050905090810190601f168015610efb5780820380516001836020036101000a031916815260200191505b50848103825285818151815260200191508051906020019080838360005b83811015610f34578082015181840152602081019050610f19565b50505050905090810190601f168015610f615780820380516001836020036101000a031916815260200191505b50975050505050505050602060405180830381600087803b158015610f8557600080fd5b505af1158015610f99573d6000803e3d6000fd5b505050506040513d6020811015610faf57600080fd5b8101908080519060200190929190505050905092915050565b6000603360009054906101000a900473ffffffffffffffffffffffffffffffffffffffff1673ffffffffffffffffffffffffffffffffffffffff1663cd3e318a6040518060400160405280600d81526020017f656e61626c652d637265646974000000000000000000000000000000000000008152506040518060400160405280601081526020017f52657061796d656e744d616e616765720000000000000000000000000000000081525085876040518563ffffffff1660e01b81526004018080602001806020018573ffffffffffffffffffffffffffffffffffffffff1673ffffffffffffffffffffffffffffffffffffffff16815260200180602001848103845288818151815260200191508051906020019080838360005b838110156110ff5780820151818401526020810190506110e4565b50505050905090810190601f16801561112c5780820380516001836020036101000a031916815260200191505b50848103835287818151815260200191508051906020019080838360005b8381101561116557808201518184015260208101905061114a565b50505050905090810190601f1680156111925780820380516001836020036101000a031916815260200191505b50848103825285818151815260200191508051906020019080838360005b838110156111cb5780820151818401526020810190506111b0565b50505050905090810190601f1680156111f85780820380516001836020036101000a031916815260200191505b50975050505050505050602060405180830381600087803b15801561121c57600080fd5b505af1158015611230573d6000803e3d6000fd5b505050506040513d602081101561124657600080fd5b810190808051906020019092919050505090509291505056fe436f6e747261637420696e7374616e63652068617320616c7265616479206265656e20696e697469616c697a6564a265627a7a72315820966364ab29b2ce30ea62d915d38ed652dbbc68c027e22c6de6e456767d27a78b64736f6c634300050b0032",
  "source": "pragma solidity 0.5.11;\n\nimport \"zos-lib/contracts/Initializable.sol\";\nimport \"zos-lib/contracts/application/App.sol\";\nimport \"zos-lib/contracts/upgradeability/AdminUpgradeabilityProxy.sol\";\nimport \"openzeppelin-eth/contracts/token/ERC20/StandaloneERC20.sol\";\nimport \"../crowdloan/Crowdloan.sol\";\nimport \"../debt-contracts/RepaymentManager.sol\";\nimport \"../debt-contracts/TermsContract.sol\";\n\ncontract CrowdloanFactory is Initializable {\n    string constant ENABLE_CREDIT_PACKAGE = \"enable-credit\";\n    string constant TERMS_CONTRACT = \"TermsContract\";\n    string constant CROWDLOAN = \"Crowdloan\";\n    string constant REPAYMENT_ROUTER = \"RepaymentManager\";\n\n    App public app;\n\n    event LoanCreated(\n        address indexed borrower,\n        uint256 indexed amount,\n        address termsContract,\n        address crowdloan,\n        address repaymentManager,\n        address contractAdmin\n    );\n\n    function initialize(address _appContractAddress) public initializer {\n        app = App(_appContractAddress);\n    }\n\n    function _createTermsContract(bytes memory _data, address admin)\n        internal\n        returns (address proxy)\n    {\n        return address(app.create(ENABLE_CREDIT_PACKAGE, TERMS_CONTRACT, admin, _data));\n    }\n\n    function _createCrowdloan(bytes memory _data, address admin) internal returns (address proxy) {\n        return address(app.create(ENABLE_CREDIT_PACKAGE, CROWDLOAN, admin, _data));\n    }\n\n    function _createRepaymentManager(bytes memory _data, address admin)\n        internal\n        returns (address proxy)\n    {\n        return address(app.create(ENABLE_CREDIT_PACKAGE, REPAYMENT_ROUTER, admin, _data));\n    }\n\n    function deploy(\n        address principalToken,\n        uint256 principalRequested,\n        uint256 loanPeriod,\n        uint256 interestRate,\n        uint256 minimumRepayment,\n        uint256 maximumRepayment,\n        uint256 crowdfundLength,\n        uint256 crowdfundStart,\n        address contractAdmin\n    ) public {\n        address[] memory proxies = new address[](3);\n\n        proxies[0] = _createTermsContract(\"\", contractAdmin);\n        proxies[1] = _createCrowdloan(\"\", contractAdmin);\n        proxies[2] = _createRepaymentManager(\"\", contractAdmin);\n\n        address[] memory controllers = new address[](2);\n        controllers[0] = proxies[1];\n        controllers[1] = proxies[2];\n\n        address[] memory loanInstanceAsController = new address[](1);\n        loanInstanceAsController[0] = proxies[1];\n\n        TermsContract(proxies[0]).initialize(\n            msg.sender,\n            principalToken,\n            principalRequested,\n            loanPeriod,\n            interestRate,\n            minimumRepayment,\n            maximumRepayment,\n            controllers\n        );\n\n        Crowdloan(address(uint160(proxies[1]))).initialize(\n            proxies[0],\n            proxies[2],\n            crowdfundLength,\n            crowdfundStart\n        );\n\n        RepaymentManager(address(uint160(proxies[2]))).initialize(\n            proxies[0],\n            loanInstanceAsController\n        );\n\n        emit LoanCreated(\n            msg.sender,\n            principalRequested,\n            proxies[0],\n            proxies[1],\n            proxies[2],\n            contractAdmin\n        );\n    }\n}\n",
  "sourcePath": "contracts/factory/CrowdloanFactory.sol",
  "compiler": {
    "name": "solc",
    "version": "0.5.11+commit.c082d0b4.Emscripten.clang"
  },
  "schemaVersion": "3.0.11",
  "updatedAt": "2019-09-13T10:05:56.862Z",
  "devdoc": {
    "methods": {}
  },
  "userdoc": {
    "methods": {}
  }
}