{"fileName":"Crowdloan.sol","contractName":"Crowdloan","source":"import \"zos-lib/contracts/Initializable.sol\";\nimport \"openzeppelin-eth/contracts/math/SafeMath.sol\";\nimport \"openzeppelin-eth/contracts/token/ERC20/IERC20.sol\";\nimport \"openzeppelin-eth/contracts/token/ERC20/SafeERC20.sol\";\n\ncontract Crowdloan is Initializable {\n    using SafeMath for uint256;\n    using SafeERC20 for IERC20;\n\n    // Loan terms\n    uint256 public crowdFundEnd; // Last time contributions are accepted\n    address public borrower;\n    IERC20 public token;\n    uint256 public principalRequested;\n    string public loanMetadataUrl;\n\n    // Contributor tracking\n    mapping(address => uint256) public amountContributed;\n    uint256 public totalContributed;\n    uint256 public principalWithdrawn;\n\n    // Repayment tracking\n    uint256 public amountRepaid;\n    mapping(address => uint256) public repaymentWithdrawn;\n\n    // Events\n    event Fund(address sender, uint256 amount);\n    event WithdrawPrincipal(address sender, uint256 amount);\n    event WithdrawRepayment(address sender, uint256 amount);\n    event Repay(uint256 amount);\n\n    function initialize(uint256 duration, IERC20 _token, uint256 _principalRequested)\n        external\n        initializer\n    {\n        borrower = msg.sender;\n        crowdFundEnd = now + duration;\n        token = _token;\n        principalRequested = _principalRequested;\n    }\n\n    function fund(uint256 amount) external {\n        require(now <= crowdFundEnd, \"The contribution period has ended.\");\n\n        totalContributed = totalContributed.add(amount);\n        require(\n            totalContributed <= principalRequested,\n            \"Your contribution would exceed the total amount requested.\"\n        );\n\n        amountContributed[msg.sender] = amountContributed[msg.sender].add(amount);\n\n        require(token.transferFrom(msg.sender, address(this), amount));\n\n        emit Fund(msg.sender, amount);\n    }\n\n    function withdrawPrincipal() external {\n        require(msg.sender == borrower, \"Only the borrower can withdraw principal.\");\n        uint256 amount = totalContributed.sub(principalWithdrawn);\n        principalWithdrawn = totalContributed;\n        require(token.transfer(msg.sender, amount));\n\n        emit WithdrawPrincipal(msg.sender, amount);\n    }\n\n    function repay(uint256 amount) external {\n        amountRepaid = amountRepaid.add(amount);\n        token.safeTransferFrom(msg.sender, address(this), amount);\n\n        emit Repay(amount);\n    }\n\n    function withdrawRepayment() external {\n        uint256 totalOwed = amountRepaid.mul(amountContributed[msg.sender]).div(totalContributed);\n        uint256 amount = totalOwed.sub(repaymentWithdrawn[msg.sender]);\n        repaymentWithdrawn[msg.sender] = totalOwed;\n\n        token.safeTransfer(msg.sender, amount);\n\n        emit WithdrawRepayment(msg.sender, amount);\n    }\n}\n","sourcePath":"contracts/crowdloan/Crowdloan.sol","abi":[{"constant":true,"inputs":[],"name":"totalContributed","outputs":[{"internalType":"uint256","name":"","type":"uint256"}],"payable":false,"stateMutability":"view","type":"function"},{"constant":true,"inputs":[{"internalType":"address","name":"","type":"address"}],"name":"amountContributed","outputs":[{"internalType":"uint256","name":"","type":"uint256"}],"payable":false,"stateMutability":"view","type":"function"},{"constant":false,"inputs":[{"internalType":"uint256","name":"amount","type":"uint256"}],"name":"repay","outputs":[],"payable":false,"stateMutability":"nonpayable","type":"function"},{"constant":false,"inputs":[],"name":"withdrawRepayment","outputs":[],"payable":false,"stateMutability":"nonpayable","type":"function"},{"constant":true,"inputs":[{"internalType":"address","name":"","type":"address"}],"name":"repaymentWithdrawn","outputs":[{"internalType":"uint256","name":"","type":"uint256"}],"payable":false,"stateMutability":"view","type":"function"},{"constant":true,"inputs":[],"name":"borrower","outputs":[{"internalType":"address","name":"","type":"address"}],"payable":false,"stateMutability":"view","type":"function"},{"constant":true,"inputs":[],"name":"principalRequested","outputs":[{"internalType":"uint256","name":"","type":"uint256"}],"payable":false,"stateMutability":"view","type":"function"},{"constant":true,"inputs":[],"name":"crowdFundEnd","outputs":[{"internalType":"uint256","name":"","type":"uint256"}],"payable":false,"stateMutability":"view","type":"function"},{"constant":true,"inputs":[],"name":"principalWithdrawn","outputs":[{"internalType":"uint256","name":"","type":"uint256"}],"payable":false,"stateMutability":"view","type":"function"},{"constant":false,"inputs":[{"internalType":"uint256","name":"amount","type":"uint256"}],"name":"fund","outputs":[],"payable":false,"stateMutability":"nonpayable","type":"function"},{"constant":true,"inputs":[],"name":"loanMetadataUrl","outputs":[{"internalType":"string","name":"","type":"string"}],"payable":false,"stateMutability":"view","type":"function"},{"constant":false,"inputs":[],"name":"withdrawPrincipal","outputs":[],"payable":false,"stateMutability":"nonpayable","type":"function"},{"constant":true,"inputs":[],"name":"amountRepaid","outputs":[{"internalType":"uint256","name":"","type":"uint256"}],"payable":false,"stateMutability":"view","type":"function"},{"constant":true,"inputs":[],"name":"token","outputs":[{"internalType":"contract IERC20","name":"","type":"address"}],"payable":false,"stateMutability":"view","type":"function"},{"constant":false,"inputs":[{"internalType":"uint256","name":"duration","type":"uint256"},{"internalType":"contract IERC20","name":"_token","type":"address"},{"internalType":"uint256","name":"_principalRequested","type":"uint256"}],"name":"initialize","outputs":[],"payable":false,"stateMutability":"nonpayable","type":"function"},{"anonymous":false,"inputs":[{"indexed":false,"internalType":"address","name":"sender","type":"address"},{"indexed":false,"internalType":"uint256","name":"amount","type":"uint256"}],"name":"Fund","type":"event"},{"anonymous":false,"inputs":[{"indexed":false,"internalType":"address","name":"sender","type":"address"},{"indexed":false,"internalType":"uint256","name":"amount","type":"uint256"}],"name":"WithdrawPrincipal","type":"event"},{"anonymous":false,"inputs":[{"indexed":false,"internalType":"address","name":"sender","type":"address"},{"indexed":false,"internalType":"uint256","name":"amount","type":"uint256"}],"name":"WithdrawRepayment","type":"event"},{"anonymous":false,"inputs":[{"indexed":false,"internalType":"uint256","name":"amount","type":"uint256"}],"name":"Repay","type":"event"}],"bytecode":"0x60806040523480156100115760006000fd5b50610017565b611419806100266000396000f3fe60806040523480156100115760006000fd5b50600436106100fa5760003560e01c8063af8f4fcd11610098578063e1f06f5411610067578063e1f06f5414610360578063ee86afd81461036a578063fc0c546a14610388578063fffb5183146103d2576100fa565b8063af8f4fcd14610271578063c95cbe741461028f578063ca1d209d146102ad578063dad8671b146102dc576100fa565b80637489b451116100d45780637489b451146101a65780637dd99395146101b05780637df1f1b9146102095780638ffc921514610253576100fa565b8063023f41471461010057806336aec5a31461011e578063371fd8e614610177576100fa565b60006000fd5b61010861042b565b6040518082815260200191505060405180910390f35b610161600480360360208110156101355760006000fd5b81019080803573ffffffffffffffffffffffffffffffffffffffff169060200190929190505050610434565b6040518082815260200191505060405180910390f35b6101a46004803603602081101561018e5760006000fd5b810190808035906020019092919050505061044f565b005b6101ae6104fc565b005b6101f3600480360360208110156101c75760006000fd5b81019080803573ffffffffffffffffffffffffffffffffffffffff1690602001909291905050506106d9565b6040518082815260200191505060405180910390f35b6102116106f4565b604051808273ffffffffffffffffffffffffffffffffffffffff1673ffffffffffffffffffffffffffffffffffffffff16815260200191505060405180910390f35b61025b61071a565b6040518082815260200191505060405180910390f35b610279610723565b6040518082815260200191505060405180910390f35b61029761072c565b6040518082815260200191505060405180910390f35b6102da600480360360208110156102c45760006000fd5b8101908080359060200190929190505050610735565b005b6102e4610a56565b6040518080602001828103825283818151815260200191508051906020019080838360005b838110156103255780820151818401525b602081019050610309565b50505050905090810190601f1680156103525780820380516001836020036101000a031916815260200191505b509250505060405180910390f35b610368610af7565b005b610372610d33565b6040518082815260200191505060405180910390f35b610390610d3c565b604051808273ffffffffffffffffffffffffffffffffffffffff1673ffffffffffffffffffffffffffffffffffffffff16815260200191505060405180910390f35b610429600480360360608110156103e95760006000fd5b8101908080359060200190929190803573ffffffffffffffffffffffffffffffffffffffff16906020019092919080359060200190929190505050610d62565b005b60396000505481565b60386000506020528060005260406000206000915090505481565b61046781603b60005054610f0e90919063ffffffff16565b603b6000508190909055506104c1333083603560009054906101000a900473ffffffffffffffffffffffffffffffffffffffff1673ffffffffffffffffffffffffffffffffffffffff16610f37909392919063ffffffff16565b7fa6ffc78a660e4971a47a0f916a0abae483804e6f42c9292ed06aa64f8fe46230816040518082815260200191505060405180910390a15b50565b6000610572603960005054610564603860005060003373ffffffffffffffffffffffffffffffffffffffff1673ffffffffffffffffffffffffffffffffffffffff16815260200190815260200160002060005054603b6000505461104490919063ffffffff16565b61108990919063ffffffff16565b905060006105ce603c60005060003373ffffffffffffffffffffffffffffffffffffffff1673ffffffffffffffffffffffffffffffffffffffff16815260200190815260200160002060005054836110bb90919063ffffffff16565b905081603c60005060003373ffffffffffffffffffffffffffffffffffffffff1673ffffffffffffffffffffffffffffffffffffffff1681526020019081526020016000206000508190909055506106693382603560009054906101000a900473ffffffffffffffffffffffffffffffffffffffff1673ffffffffffffffffffffffffffffffffffffffff166110e49092919063ffffffff16565b7f99a5f076bd438fcb3b84841caf48b7c7f0033ba32847d8b8d34ba0d65a369b593382604051808373ffffffffffffffffffffffffffffffffffffffff1673ffffffffffffffffffffffffffffffffffffffff1681526020018281526020019250505060405180910390a150505b565b603c6000506020528060005260406000206000915090505481565b603460009054906101000a900473ffffffffffffffffffffffffffffffffffffffff1681565b60366000505481565b60336000505481565b603a6000505481565b6033600050544211151515610795576040517f08c379a00000000000000000000000000000000000000000000000000000000081526004018080602001828103825260228152602001806113326022913960400191505060405180910390fd5b6107ad81603960005054610f0e90919063ffffffff16565b60396000508190909055506036600050546039600050541115151561081d576040517f08c379a000000000000000000000000000000000000000000000000000000000815260040180806020018281038252603a815260200180611354603a913960400191505060405180910390fd5b61087581603860005060003373ffffffffffffffffffffffffffffffffffffffff1673ffffffffffffffffffffffffffffffffffffffff16815260200190815260200160002060005054610f0e90919063ffffffff16565b603860005060003373ffffffffffffffffffffffffffffffffffffffff1673ffffffffffffffffffffffffffffffffffffffff168152602001908152602001600020600050819090905550603560009054906101000a900473ffffffffffffffffffffffffffffffffffffffff1673ffffffffffffffffffffffffffffffffffffffff166323b872dd3330846040518463ffffffff1660e01b8152600401808473ffffffffffffffffffffffffffffffffffffffff1673ffffffffffffffffffffffffffffffffffffffff1681526020018373ffffffffffffffffffffffffffffffffffffffff1673ffffffffffffffffffffffffffffffffffffffff1681526020018281526020019350505050602060405180830381600087803b15801561099e5760006000fd5b505af11580156109b3573d600060003e3d6000fd5b505050506040513d60208110156109ca5760006000fd5b810190808051906020019092919050505015156109e75760006000fd5b7fda8220a878ff7a89474ccffdaa31ea1ed1ffbb0207d5051afccc4fbaf81f9bcd3382604051808373ffffffffffffffffffffffffffffffffffffffff1673ffffffffffffffffffffffffffffffffffffffff1681526020018281526020019250505060405180910390a15b50565b60376000508054600181600116156101000203166002900480601f016020809104026020016040519081016040528092919081815260200182805460018160011615610100020316600290048015610aef5780601f10610ac457610100808354040283529160200191610aef565b820191906000526020600020905b815481529060010190602001808311610ad257829003601f168201915b505050505081565b603460009054906101000a900473ffffffffffffffffffffffffffffffffffffffff1673ffffffffffffffffffffffffffffffffffffffff163373ffffffffffffffffffffffffffffffffffffffff16141515610b9f576040517f08c379a00000000000000000000000000000000000000000000000000000000081526004018080602001828103825260298152602001806113bc6029913960400191505060405180910390fd5b6000610bbe603a600050546039600050546110bb90919063ffffffff16565b9050603960005054603a600050819090905550603560009054906101000a900473ffffffffffffffffffffffffffffffffffffffff1673ffffffffffffffffffffffffffffffffffffffff1663a9059cbb33836040518363ffffffff1660e01b8152600401808373ffffffffffffffffffffffffffffffffffffffff1673ffffffffffffffffffffffffffffffffffffffff16815260200182815260200192505050602060405180830381600087803b158015610c7b5760006000fd5b505af1158015610c90573d600060003e3d6000fd5b505050506040513d6020811015610ca75760006000fd5b81019080805190602001909291905050501515610cc45760006000fd5b7fee1b5abe14e43ee34008f06f51efca5382c42fb48b0a040fd7a5f5c630cb55803382604051808373ffffffffffffffffffffffffffffffffffffffff1673ffffffffffffffffffffffffffffffffffffffff1681526020018281526020019250505060405180910390a1505b565b603b6000505481565b603560009054906101000a900473ffffffffffffffffffffffffffffffffffffffff1681565b600060019054906101000a900460ff1680610d875750610d866111bc63ffffffff16565b5b80610d9f5750600060009054906101000a900460ff16155b1515610df6576040517f08c379a000000000000000000000000000000000000000000000000000000000815260040180806020018281038252602e81526020018061138e602e913960400191505060405180910390fd5b6000600060019054906101000a900460ff161590508015610e48576001600060016101000a81548160ff0219169083151502179055506001600060006101000a81548160ff0219169083151502179055505b33603460006101000a81548173ffffffffffffffffffffffffffffffffffffffff021916908373ffffffffffffffffffffffffffffffffffffffff160217905550834201603360005081909090555082603560006101000a81548173ffffffffffffffffffffffffffffffffffffffff021916908373ffffffffffffffffffffffffffffffffffffffff1602179055508160366000508190909055505b8015610f07576000600060016101000a81548160ff0219169083151502179055505b505b505050565b600060008284019050838110151515610f275760006000fd5b80915050610f3156505b92915050565b61103d848573ffffffffffffffffffffffffffffffffffffffff166323b872dd905060e01b858585604051602401808473ffffffffffffffffffffffffffffffffffffffff1673ffffffffffffffffffffffffffffffffffffffff1681526020018373ffffffffffffffffffffffffffffffffffffffff1673ffffffffffffffffffffffffffffffffffffffff1681526020018281526020019350505050604051602081830303815290604052907bffffffffffffffffffffffffffffffffffffffffffffffffffffffff19166020820180517bffffffffffffffffffffffffffffffffffffffffffffffffffffffff83818316178352505050506111d463ffffffff16565b5b50505050565b600060008314156110585760009050611083565b6000828402905082848281151561106b57fe5b041415156110795760006000fd5b8091505061108356505b92915050565b600060008211151561109b5760006000fd5b600082848115156110a857fe5b049050809150506110b556505b92915050565b60008282111515156110cd5760006000fd5b60008284039050809150506110de56505b92915050565b6111b6838473ffffffffffffffffffffffffffffffffffffffff1663a9059cbb905060e01b8484604051602401808373ffffffffffffffffffffffffffffffffffffffff1673ffffffffffffffffffffffffffffffffffffffff16815260200182815260200192505050604051602081830303815290604052907bffffffffffffffffffffffffffffffffffffffffffffffffffffffff19166020820180517bffffffffffffffffffffffffffffffffffffffffffffffffffffffff83818316178352505050506111d463ffffffff16565b5b505050565b60006000303b9050600081149150506111d156505b90565b6111fb8273ffffffffffffffffffffffffffffffffffffffff16611317909063ffffffff16565b15156112075760006000fd5b600060608373ffffffffffffffffffffffffffffffffffffffff16836040518082805190602001908083835b60208310151561125957805182525b602082019150602081019050602083039250611233565b6001836020036101000a0380198251168184511680821785525050505050509050019150506000604051808303816000865af19150503d80600081146112bb576040519150601f19603f3d011682016040523d82523d6000602084013e6112c0565b606091505b50915091508115156112d25760006000fd5b600081511115611310578080602001905160208110156112f25760006000fd5b8101908080519060200190929190505050151561130f5760006000fd5b5b50505b5050565b60006000823b90506000811191505061132c56505b91905056fe54686520636f6e747269627574696f6e20706572696f642068617320656e6465642e596f757220636f6e747269627574696f6e20776f756c64206578636565642074686520746f74616c20616d6f756e74207265717565737465642e436f6e747261637420696e7374616e63652068617320616c7265616479206265656e20696e697469616c697a65644f6e6c792074686520626f72726f7765722063616e207769746864726177207072696e636970616c2ea265627a7a7231582042d4ec668fd1510d9e135d86c0b2625bf9d149fb3e34f7e87f10484a0420435764736f6c634300050b0032","compiler":{"name":"solc","version":"0.5.11+commit.c082d0b4.Emscripten.clang","optimizer":{},"evmVersion":"constantinople"}}