{"fileName":"Crowdloan.sol","contractName":"Crowdloan","source":"pragma solidity 0.5.11;\n\nimport \"zos-lib/contracts/Initializable.sol\";\nimport \"openzeppelin-eth/contracts/math/SafeMath.sol\";\nimport \"openzeppelin-eth/contracts/token/ERC20/IERC20.sol\";\nimport \"openzeppelin-eth/contracts/token/ERC20/SafeERC20.sol\";\n\ncontract Crowdloan is Initializable {\n    using SafeMath for uint256;\n    using SafeERC20 for IERC20;\n\n    // Loan terms\n    uint256 public crowdFundEnd; // Last time contributions are accepted\n    address public borrower;\n    IERC20 public token;\n    uint256 public principalRequested;\n    string public loanMetadataUrl;\n\n    // Contributor tracking\n    mapping(address => uint256) public amountContributed;\n    uint256 public totalContributed;\n    uint256 public principalWithdrawn;\n\n    // Repayment tracking\n    uint256 public amountRepaid;\n    mapping(address => uint256) public repaymentWithdrawn;\n\n    // Events\n    event Fund(address sender, uint256 amount);\n    event WithdrawPrincipal(address sender, uint256 amount);\n    event WithdrawRepayment(address sender, uint256 amount);\n    event Repay(uint256 amount);\n\n    function initialize(\n        address _borrower,\n        uint256 duration,\n        IERC20 _token,\n        uint256 _principalRequested,\n        string calldata _loanMetadataUrl\n    ) external initializer {\n        borrower = _borrower;\n        crowdFundEnd = now + duration;\n        token = _token;\n        principalRequested = _principalRequested;\n        loanMetadataUrl = _loanMetadataUrl;\n    }\n\n    function fund(uint256 amount) external {\n        require(now <= crowdFundEnd, \"The contribution period has ended.\");\n\n        totalContributed = totalContributed.add(amount);\n        require(\n            totalContributed <= principalRequested,\n            \"Your contribution would exceed the total amount requested.\"\n        );\n\n        amountContributed[msg.sender] = amountContributed[msg.sender].add(amount);\n\n        require(token.transferFrom(msg.sender, address(this), amount));\n\n        emit Fund(msg.sender, amount);\n    }\n\n    function withdrawPrincipal() external {\n        require(msg.sender == borrower, \"Only the borrower can withdraw principal.\");\n        uint256 amount = totalContributed.sub(principalWithdrawn);\n        principalWithdrawn = totalContributed;\n        require(token.transfer(msg.sender, amount));\n\n        emit WithdrawPrincipal(msg.sender, amount);\n    }\n\n    function repay(uint256 amount) external {\n        amountRepaid = amountRepaid.add(amount);\n        token.safeTransferFrom(msg.sender, address(this), amount);\n\n        emit Repay(amount);\n    }\n\n    function withdrawRepayment() external {\n        uint256 totalOwed = amountRepaid.mul(amountContributed[msg.sender]).div(totalContributed);\n        uint256 amount = totalOwed.sub(repaymentWithdrawn[msg.sender]);\n        repaymentWithdrawn[msg.sender] = totalOwed;\n\n        token.safeTransfer(msg.sender, amount);\n\n        emit WithdrawRepayment(msg.sender, amount);\n    }\n}\n","sourcePath":"contracts/crowdloan/Crowdloan.sol","abi":[{"constant":true,"inputs":[],"name":"totalContributed","outputs":[{"internalType":"uint256","name":"","type":"uint256"}],"payable":false,"stateMutability":"view","type":"function"},{"constant":false,"inputs":[{"internalType":"address","name":"_borrower","type":"address"},{"internalType":"uint256","name":"duration","type":"uint256"},{"internalType":"contract IERC20","name":"_token","type":"address"},{"internalType":"uint256","name":"_principalRequested","type":"uint256"},{"internalType":"string","name":"_loanMetadataUrl","type":"string"}],"name":"initialize","outputs":[],"payable":false,"stateMutability":"nonpayable","type":"function"},{"constant":true,"inputs":[{"internalType":"address","name":"","type":"address"}],"name":"amountContributed","outputs":[{"internalType":"uint256","name":"","type":"uint256"}],"payable":false,"stateMutability":"view","type":"function"},{"constant":false,"inputs":[{"internalType":"uint256","name":"amount","type":"uint256"}],"name":"repay","outputs":[],"payable":false,"stateMutability":"nonpayable","type":"function"},{"constant":false,"inputs":[],"name":"withdrawRepayment","outputs":[],"payable":false,"stateMutability":"nonpayable","type":"function"},{"constant":true,"inputs":[{"internalType":"address","name":"","type":"address"}],"name":"repaymentWithdrawn","outputs":[{"internalType":"uint256","name":"","type":"uint256"}],"payable":false,"stateMutability":"view","type":"function"},{"constant":true,"inputs":[],"name":"borrower","outputs":[{"internalType":"address","name":"","type":"address"}],"payable":false,"stateMutability":"view","type":"function"},{"constant":true,"inputs":[],"name":"principalRequested","outputs":[{"internalType":"uint256","name":"","type":"uint256"}],"payable":false,"stateMutability":"view","type":"function"},{"constant":true,"inputs":[],"name":"crowdFundEnd","outputs":[{"internalType":"uint256","name":"","type":"uint256"}],"payable":false,"stateMutability":"view","type":"function"},{"constant":true,"inputs":[],"name":"principalWithdrawn","outputs":[{"internalType":"uint256","name":"","type":"uint256"}],"payable":false,"stateMutability":"view","type":"function"},{"constant":false,"inputs":[{"internalType":"uint256","name":"amount","type":"uint256"}],"name":"fund","outputs":[],"payable":false,"stateMutability":"nonpayable","type":"function"},{"constant":true,"inputs":[],"name":"loanMetadataUrl","outputs":[{"internalType":"string","name":"","type":"string"}],"payable":false,"stateMutability":"view","type":"function"},{"constant":false,"inputs":[],"name":"withdrawPrincipal","outputs":[],"payable":false,"stateMutability":"nonpayable","type":"function"},{"constant":true,"inputs":[],"name":"amountRepaid","outputs":[{"internalType":"uint256","name":"","type":"uint256"}],"payable":false,"stateMutability":"view","type":"function"},{"constant":true,"inputs":[],"name":"token","outputs":[{"internalType":"contract IERC20","name":"","type":"address"}],"payable":false,"stateMutability":"view","type":"function"},{"anonymous":false,"inputs":[{"indexed":false,"internalType":"address","name":"sender","type":"address"},{"indexed":false,"internalType":"uint256","name":"amount","type":"uint256"}],"name":"Fund","type":"event"},{"anonymous":false,"inputs":[{"indexed":false,"internalType":"address","name":"sender","type":"address"},{"indexed":false,"internalType":"uint256","name":"amount","type":"uint256"}],"name":"WithdrawPrincipal","type":"event"},{"anonymous":false,"inputs":[{"indexed":false,"internalType":"address","name":"sender","type":"address"},{"indexed":false,"internalType":"uint256","name":"amount","type":"uint256"}],"name":"WithdrawRepayment","type":"event"},{"anonymous":false,"inputs":[{"indexed":false,"internalType":"uint256","name":"amount","type":"uint256"}],"name":"Repay","type":"event"}],"bytecode":"0x60806040523480156100115760006000fd5b50610017565b61155b806100266000396000f3fe60806040523480156100115760006000fd5b50600436106100fa5760003560e01c80638ffc921511610098578063dad8671b11610067578063dad8671b146103af578063e1f06f5414610433578063ee86afd81461043d578063fc0c546a1461045b576100fa565b80638ffc921514610326578063af8f4fcd14610344578063c95cbe7414610362578063ca1d209d14610380576100fa565b8063371fd8e6116100d4578063371fd8e61461024a5780637489b451146102795780637dd99395146102835780637df1f1b9146102dc576100fa565b8063023f4147146101005780632b9779291461011e57806336aec5a3146101f1576100fa565b60006000fd5b6101086104a5565b6040518082815260200191505060405180910390f35b6101ef600480360360a08110156101355760006000fd5b81019080803573ffffffffffffffffffffffffffffffffffffffff16906020019092919080359060200190929190803573ffffffffffffffffffffffffffffffffffffffff16906020019092919080359060200190929190803590602001906401000000008111156101a75760006000fd5b8201836020820111156101ba5760006000fd5b803590602001918460018302840111640100000000831117156101dd5760006000fd5b909192939090919293905050506104ae565b005b610234600480360360208110156102085760006000fd5b81019080803573ffffffffffffffffffffffffffffffffffffffff169060200190929190505050610672565b6040518082815260200191505060405180910390f35b610277600480360360208110156102615760006000fd5b810190808035906020019092919050505061068d565b005b61028161073a565b005b6102c66004803603602081101561029a5760006000fd5b81019080803573ffffffffffffffffffffffffffffffffffffffff169060200190929190505050610917565b6040518082815260200191505060405180910390f35b6102e4610932565b604051808273ffffffffffffffffffffffffffffffffffffffff1673ffffffffffffffffffffffffffffffffffffffff16815260200191505060405180910390f35b61032e610958565b6040518082815260200191505060405180910390f35b61034c610961565b6040518082815260200191505060405180910390f35b61036a61096a565b6040518082815260200191505060405180910390f35b6103ad600480360360208110156103975760006000fd5b8101908080359060200190929190505050610973565b005b6103b7610c94565b6040518080602001828103825283818151815260200191508051906020019080838360005b838110156103f85780820151818401525b6020810190506103dc565b50505050905090810190601f1680156104255780820380516001836020036101000a031916815260200191505b509250505060405180910390f35b61043b610d35565b005b610445610f71565b6040518082815260200191505060405180910390f35b610463610f7a565b604051808273ffffffffffffffffffffffffffffffffffffffff1673ffffffffffffffffffffffffffffffffffffffff16815260200191505060405180910390f35b60396000505481565b600060019054906101000a900460ff16806104d357506104d2610fa063ffffffff16565b5b806104eb5750600060009054906101000a900460ff16155b1515610542576040517f08c379a000000000000000000000000000000000000000000000000000000000815260040180806020018281038252602e8152602001806114d0602e913960400191505060405180910390fd5b6000600060019054906101000a900460ff161590508015610594576001600060016101000a81548160ff0219169083151502179055506001600060006101000a81548160ff0219169083151502179055505b86603460006101000a81548173ffffffffffffffffffffffffffffffffffffffff021916908373ffffffffffffffffffffffffffffffffffffffff160217905550854201603360005081909090555084603560006101000a81548173ffffffffffffffffffffffffffffffffffffffff021916908373ffffffffffffffffffffffffffffffffffffffff1602179055508360366000508190909055508282603760005091906106449291906113c3565b505b8015610668576000600060016101000a81548160ff0219169083151502179055505b505b505050505050565b60386000506020528060005260406000206000915090505481565b6106a581603b60005054610fb890919063ffffffff16565b603b6000508190909055506106ff333083603560009054906101000a900473ffffffffffffffffffffffffffffffffffffffff1673ffffffffffffffffffffffffffffffffffffffff16610fe1909392919063ffffffff16565b7fa6ffc78a660e4971a47a0f916a0abae483804e6f42c9292ed06aa64f8fe46230816040518082815260200191505060405180910390a15b50565b60006107b06039600050546107a2603860005060003373ffffffffffffffffffffffffffffffffffffffff1673ffffffffffffffffffffffffffffffffffffffff16815260200190815260200160002060005054603b600050546110ee90919063ffffffff16565b61113390919063ffffffff16565b9050600061080c603c60005060003373ffffffffffffffffffffffffffffffffffffffff1673ffffffffffffffffffffffffffffffffffffffff168152602001908152602001600020600050548361116590919063ffffffff16565b905081603c60005060003373ffffffffffffffffffffffffffffffffffffffff1673ffffffffffffffffffffffffffffffffffffffff1681526020019081526020016000206000508190909055506108a73382603560009054906101000a900473ffffffffffffffffffffffffffffffffffffffff1673ffffffffffffffffffffffffffffffffffffffff1661118e9092919063ffffffff16565b7f99a5f076bd438fcb3b84841caf48b7c7f0033ba32847d8b8d34ba0d65a369b593382604051808373ffffffffffffffffffffffffffffffffffffffff1673ffffffffffffffffffffffffffffffffffffffff1681526020018281526020019250505060405180910390a150505b565b603c6000506020528060005260406000206000915090505481565b603460009054906101000a900473ffffffffffffffffffffffffffffffffffffffff1681565b60366000505481565b60336000505481565b603a6000505481565b60336000505442111515156109d3576040517f08c379a00000000000000000000000000000000000000000000000000000000081526004018080602001828103825260228152602001806114746022913960400191505060405180910390fd5b6109eb81603960005054610fb890919063ffffffff16565b603960005081909090555060366000505460396000505411151515610a5b576040517f08c379a000000000000000000000000000000000000000000000000000000000815260040180806020018281038252603a815260200180611496603a913960400191505060405180910390fd5b610ab381603860005060003373ffffffffffffffffffffffffffffffffffffffff1673ffffffffffffffffffffffffffffffffffffffff16815260200190815260200160002060005054610fb890919063ffffffff16565b603860005060003373ffffffffffffffffffffffffffffffffffffffff1673ffffffffffffffffffffffffffffffffffffffff168152602001908152602001600020600050819090905550603560009054906101000a900473ffffffffffffffffffffffffffffffffffffffff1673ffffffffffffffffffffffffffffffffffffffff166323b872dd3330846040518463ffffffff1660e01b8152600401808473ffffffffffffffffffffffffffffffffffffffff1673ffffffffffffffffffffffffffffffffffffffff1681526020018373ffffffffffffffffffffffffffffffffffffffff1673ffffffffffffffffffffffffffffffffffffffff1681526020018281526020019350505050602060405180830381600087803b158015610bdc5760006000fd5b505af1158015610bf1573d600060003e3d6000fd5b505050506040513d6020811015610c085760006000fd5b81019080805190602001909291905050501515610c255760006000fd5b7fda8220a878ff7a89474ccffdaa31ea1ed1ffbb0207d5051afccc4fbaf81f9bcd3382604051808373ffffffffffffffffffffffffffffffffffffffff1673ffffffffffffffffffffffffffffffffffffffff1681526020018281526020019250505060405180910390a15b50565b60376000508054600181600116156101000203166002900480601f016020809104026020016040519081016040528092919081815260200182805460018160011615610100020316600290048015610d2d5780601f10610d0257610100808354040283529160200191610d2d565b820191906000526020600020905b815481529060010190602001808311610d1057829003601f168201915b505050505081565b603460009054906101000a900473ffffffffffffffffffffffffffffffffffffffff1673ffffffffffffffffffffffffffffffffffffffff163373ffffffffffffffffffffffffffffffffffffffff16141515610ddd576040517f08c379a00000000000000000000000000000000000000000000000000000000081526004018080602001828103825260298152602001806114fe6029913960400191505060405180910390fd5b6000610dfc603a6000505460396000505461116590919063ffffffff16565b9050603960005054603a600050819090905550603560009054906101000a900473ffffffffffffffffffffffffffffffffffffffff1673ffffffffffffffffffffffffffffffffffffffff1663a9059cbb33836040518363ffffffff1660e01b8152600401808373ffffffffffffffffffffffffffffffffffffffff1673ffffffffffffffffffffffffffffffffffffffff16815260200182815260200192505050602060405180830381600087803b158015610eb95760006000fd5b505af1158015610ece573d600060003e3d6000fd5b505050506040513d6020811015610ee55760006000fd5b81019080805190602001909291905050501515610f025760006000fd5b7fee1b5abe14e43ee34008f06f51efca5382c42fb48b0a040fd7a5f5c630cb55803382604051808373ffffffffffffffffffffffffffffffffffffffff1673ffffffffffffffffffffffffffffffffffffffff1681526020018281526020019250505060405180910390a1505b565b603b6000505481565b603560009054906101000a900473ffffffffffffffffffffffffffffffffffffffff1681565b60006000303b905060008114915050610fb556505b90565b600060008284019050838110151515610fd15760006000fd5b80915050610fdb56505b92915050565b6110e7848573ffffffffffffffffffffffffffffffffffffffff166323b872dd905060e01b858585604051602401808473ffffffffffffffffffffffffffffffffffffffff1673ffffffffffffffffffffffffffffffffffffffff1681526020018373ffffffffffffffffffffffffffffffffffffffff1673ffffffffffffffffffffffffffffffffffffffff1681526020018281526020019350505050604051602081830303815290604052907bffffffffffffffffffffffffffffffffffffffffffffffffffffffff19166020820180517bffffffffffffffffffffffffffffffffffffffffffffffffffffffff838183161783525050505061126663ffffffff16565b5b50505050565b60006000831415611102576000905061112d565b6000828402905082848281151561111557fe5b041415156111235760006000fd5b8091505061112d56505b92915050565b60006000821115156111455760006000fd5b6000828481151561115257fe5b0490508091505061115f56505b92915050565b60008282111515156111775760006000fd5b600082840390508091505061118856505b92915050565b611260838473ffffffffffffffffffffffffffffffffffffffff1663a9059cbb905060e01b8484604051602401808373ffffffffffffffffffffffffffffffffffffffff1673ffffffffffffffffffffffffffffffffffffffff16815260200182815260200192505050604051602081830303815290604052907bffffffffffffffffffffffffffffffffffffffffffffffffffffffff19166020820180517bffffffffffffffffffffffffffffffffffffffffffffffffffffffff838183161783525050505061126663ffffffff16565b5b505050565b61128d8273ffffffffffffffffffffffffffffffffffffffff166113a9909063ffffffff16565b15156112995760006000fd5b600060608373ffffffffffffffffffffffffffffffffffffffff16836040518082805190602001908083835b6020831015156112eb57805182525b6020820191506020810190506020830392506112c5565b6001836020036101000a0380198251168184511680821785525050505050509050019150506000604051808303816000865af19150503d806000811461134d576040519150601f19603f3d011682016040523d82523d6000602084013e611352565b606091505b50915091508115156113645760006000fd5b6000815111156113a2578080602001905160208110156113845760006000fd5b810190808051906020019092919050505015156113a15760006000fd5b5b50505b5050565b60006000823b9050600081119150506113be56505b919050565b828054600181600116156101000203166002900490600052602060002090601f016020900481019282601f1061140457803560ff1916838001178555611437565b82800160010185558215611437579182015b828111156114365782358260005090905591602001919060010190611416565b5b5090506114449190611448565b5090565b6114709190611452565b8082111561146c5760008181506000905550600101611452565b5090565b9056fe54686520636f6e747269627574696f6e20706572696f642068617320656e6465642e596f757220636f6e747269627574696f6e20776f756c64206578636565642074686520746f74616c20616d6f756e74207265717565737465642e436f6e747261637420696e7374616e63652068617320616c7265616479206265656e20696e697469616c697a65644f6e6c792074686520626f72726f7765722063616e207769746864726177207072696e636970616c2ea265627a7a7231582036a2063ecf0676276ac8ad22bd401b4a2d509b41d2c133d935772960c3bc4ddb64736f6c634300050b0032","compiler":{"name":"solc","version":"0.5.11+commit.c082d0b4.Emscripten.clang","optimizer":{},"evmVersion":"constantinople"}}