{
  "contractName": "Crowdloan",
  "abi": [
    {
      "constant": true,
      "inputs": [],
      "name": "termsContract",
      "outputs": [
        {
          "name": "",
          "type": "address"
        }
      ],
      "payable": false,
      "stateMutability": "view",
      "type": "function"
    },
    {
      "constant": true,
      "inputs": [],
      "name": "repaymentManager",
      "outputs": [
        {
          "name": "",
          "type": "address"
        }
      ],
      "payable": false,
      "stateMutability": "view",
      "type": "function"
    },
    {
      "payable": true,
      "stateMutability": "payable",
      "type": "fallback"
    },
    {
      "anonymous": false,
      "inputs": [
        {
          "indexed": true,
          "name": "sender",
          "type": "address"
        },
        {
          "indexed": false,
          "name": "amount",
          "type": "uint256"
        }
      ],
      "name": "Fund",
      "type": "event"
    },
    {
      "anonymous": false,
      "inputs": [
        {
          "indexed": true,
          "name": "sender",
          "type": "address"
        },
        {
          "indexed": false,
          "name": "amount",
          "type": "uint256"
        }
      ],
      "name": "Refund",
      "type": "event"
    },
    {
      "anonymous": false,
      "inputs": [
        {
          "indexed": true,
          "name": "borrower",
          "type": "address"
        },
        {
          "indexed": false,
          "name": "amount",
          "type": "uint256"
        }
      ],
      "name": "ReleaseFunds",
      "type": "event"
    },
    {
      "constant": false,
      "inputs": [
        {
          "name": "_termsContract",
          "type": "address"
        },
        {
          "name": "_repaymentManager",
          "type": "address"
        },
        {
          "name": "_crowdfundLength",
          "type": "uint256"
        },
        {
          "name": "_crowdfundStart",
          "type": "uint256"
        }
      ],
      "name": "initialize",
      "outputs": [],
      "payable": false,
      "stateMutability": "nonpayable",
      "type": "function"
    },
    {
      "constant": false,
      "inputs": [],
      "name": "initialize",
      "outputs": [],
      "payable": false,
      "stateMutability": "nonpayable",
      "type": "function"
    },
    {
      "constant": true,
      "inputs": [],
      "name": "getCrowdfundParams",
      "outputs": [
        {
          "name": "",
          "type": "uint256"
        },
        {
          "name": "",
          "type": "uint256"
        }
      ],
      "payable": false,
      "stateMutability": "view",
      "type": "function"
    },
    {
      "constant": true,
      "inputs": [],
      "name": "getCrowdfundEnd",
      "outputs": [
        {
          "name": "",
          "type": "uint256"
        }
      ],
      "payable": false,
      "stateMutability": "view",
      "type": "function"
    },
    {
      "constant": true,
      "inputs": [],
      "name": "getTotalCrowdfunded",
      "outputs": [
        {
          "name": "total",
          "type": "uint256"
        }
      ],
      "payable": false,
      "stateMutability": "view",
      "type": "function"
    },
    {
      "constant": true,
      "inputs": [],
      "name": "getBorrower",
      "outputs": [
        {
          "name": "",
          "type": "address"
        }
      ],
      "payable": false,
      "stateMutability": "view",
      "type": "function"
    },
    {
      "constant": false,
      "inputs": [],
      "name": "startCrowdfund",
      "outputs": [],
      "payable": false,
      "stateMutability": "nonpayable",
      "type": "function"
    },
    {
      "constant": false,
      "inputs": [
        {
          "name": "amount",
          "type": "uint256"
        }
      ],
      "name": "fund",
      "outputs": [
        {
          "name": "",
          "type": "uint256"
        }
      ],
      "payable": false,
      "stateMutability": "nonpayable",
      "type": "function"
    },
    {
      "constant": false,
      "inputs": [
        {
          "name": "amount",
          "type": "uint256"
        }
      ],
      "name": "refund",
      "outputs": [],
      "payable": false,
      "stateMutability": "nonpayable",
      "type": "function"
    },
    {
      "constant": false,
      "inputs": [],
      "name": "withdraw",
      "outputs": [],
      "payable": false,
      "stateMutability": "nonpayable",
      "type": "function"
    },
    {
      "constant": false,
      "inputs": [
        {
          "name": "amount",
          "type": "uint256"
        }
      ],
      "name": "withdraw",
      "outputs": [],
      "payable": false,
      "stateMutability": "nonpayable",
      "type": "function"
    }
  ],
  "bytecode": "0x608060405234801561001057600080fd5b50612710806100206000396000f3fe6080604052600436106100df576000357c0100000000000000000000000000000000000000000000000000000000900480638129fc1c1161009c578063c23d200711610076578063c23d200714610338578063ca1d209d1461036a578063eb990c59146103b9578063f752f3221461043e576100df565b80638129fc1c146102df57806390ec8bb9146102f65780639a593b9a14610321576100df565b8063172a707b1461014d5780631cb0c3e7146101a4578063278ecde1146101fb5780632e1a7d4d146102365780633ccfd60b146102715780635481288e14610288575b6040517f08c379a00000000000000000000000000000000000000000000000000000000081526004018080602001828103825260128152602001807f4574686572206e6f74206163636570746564000000000000000000000000000081525060200191505060405180910390fd5b34801561015957600080fd5b50610162610469565b604051808273ffffffffffffffffffffffffffffffffffffffff1673ffffffffffffffffffffffffffffffffffffffff16815260200191505060405180910390f35b3480156101b057600080fd5b506101b961048f565b604051808273ffffffffffffffffffffffffffffffffffffffff1673ffffffffffffffffffffffffffffffffffffffff16815260200191505060405180910390f35b34801561020757600080fd5b506102346004803603602081101561021e57600080fd5b8101908080359060200190929190505050610555565b005b34801561024257600080fd5b5061026f6004803603602081101561025957600080fd5b8101908080359060200190929190505050610951565b005b34801561027d57600080fd5b5061028661102b565b005b34801561029457600080fd5b5061029d611110565b604051808273ffffffffffffffffffffffffffffffffffffffff1673ffffffffffffffffffffffffffffffffffffffff16815260200191505060405180910390f35b3480156102eb57600080fd5b506102f4611136565b005b34801561030257600080fd5b5061030b61123f565b6040518082815260200191505060405180910390f35b34801561032d57600080fd5b50610336611263565b005b34801561034457600080fd5b5061034d611440565b604051808381526020018281526020019250505060405180910390f35b34801561037657600080fd5b506103a36004803603602081101561038d57600080fd5b8101908080359060200190929190505050611457565b6040518082815260200191505060405180910390f35b3480156103c557600080fd5b5061043c600480360360808110156103dc57600080fd5b81019080803573ffffffffffffffffffffffffffffffffffffffff169060200190929190803573ffffffffffffffffffffffffffffffffffffffff16906020019092919080359060200190929190803590602001909291905050506118f2565b005b34801561044a57600080fd5b50610453611aa7565b6040518082815260200191505060405180910390f35b606860009054906101000a900473ffffffffffffffffffffffffffffffffffffffff1681565b6000606860009054906101000a900473ffffffffffffffffffffffffffffffffffffffff1673ffffffffffffffffffffffffffffffffffffffff16631cb0c3e76040518163ffffffff167c010000000000000000000000000000000000000000000000000000000002815260040160206040518083038186803b15801561051557600080fd5b505afa158015610529573d6000803e3d6000fd5b505050506040513d602081101561053f57600080fd5b8101908080519060200190929190505050905090565b6003600581111561056257fe5b606860009054906101000a900473ffffffffffffffffffffffffffffffffffffffff1673ffffffffffffffffffffffffffffffffffffffff1663acc1ab136040518163ffffffff167c010000000000000000000000000000000000000000000000000000000002815260040160206040518083038186803b1580156105e657600080fd5b505afa1580156105fa573d6000803e3d6000fd5b505050506040513d602081101561061057600080fd5b8101908080519060200190929190505050600581111561062c57fe5b101515610684576040517f08c379a000000000000000000000000000000000000000000000000000000000815260040180806020018281038252602b81526020018061268c602b913960400191505060405180910390fd5b80606960009054906101000a900473ffffffffffffffffffffffffffffffffffffffff1673ffffffffffffffffffffffffffffffffffffffff1663ce7c2ac2336040518263ffffffff167c0100000000000000000000000000000000000000000000000000000000028152600401808273ffffffffffffffffffffffffffffffffffffffff1673ffffffffffffffffffffffffffffffffffffffff16815260200191505060206040518083038186803b15801561074057600080fd5b505afa158015610754573d6000803e3d6000fd5b505050506040513d602081101561076a57600080fd5b8101908080519060200190929190505050101515156107f1576040517f08c379a000000000000000000000000000000000000000000000000000000000815260040180806020018281038252601b8152602001807f416d6f756e742065786365656473206f776e656420736861726573000000000081525060200191505060405180910390fd5b606960009054906101000a900473ffffffffffffffffffffffffffffffffffffffff1673ffffffffffffffffffffffffffffffffffffffff166387983d1333836040518363ffffffff167c0100000000000000000000000000000000000000000000000000000000028152600401808373ffffffffffffffffffffffffffffffffffffffff1673ffffffffffffffffffffffffffffffffffffffff16815260200182815260200192505050600060405180830381600087803b1580156108b657600080fd5b505af11580156108ca573d6000803e3d6000fd5b5050505061090033826108db611b89565b73ffffffffffffffffffffffffffffffffffffffff16611c4f9092919063ffffffff16565b3373ffffffffffffffffffffffffffffffffffffffff167fbb28353e4598c3b9199101a66e0989549b659a59a54d2c27fbb183f1932c8e6d826040518082815260200191505060405180910390a250565b6002600581111561095e57fe5b606860009054906101000a900473ffffffffffffffffffffffffffffffffffffffff1673ffffffffffffffffffffffffffffffffffffffff1663acc1ab136040518163ffffffff167c010000000000000000000000000000000000000000000000000000000002815260040160206040518083038186803b1580156109e257600080fd5b505afa1580156109f6573d6000803e3d6000fd5b505050506040513d6020811015610a0c57600080fd5b81019080805190602001909291905050506005811115610a2857fe5b111515610a9d576040517f08c379a00000000000000000000000000000000000000000000000000000000081526004018080602001828103825260178152602001807f43726f776466756e64206e6f7420636f6d706c6574656400000000000000000081525060200191505060405180910390fd5b6000606860009054906101000a900473ffffffffffffffffffffffffffffffffffffffff1673ffffffffffffffffffffffffffffffffffffffff16631cb0c3e76040518163ffffffff167c010000000000000000000000000000000000000000000000000000000002815260040160206040518083038186803b158015610b2357600080fd5b505afa158015610b37573d6000803e3d6000fd5b505050506040513d6020811015610b4d57600080fd5b81019080805190602001909291905050509050606860009054906101000a900473ffffffffffffffffffffffffffffffffffffffff1673ffffffffffffffffffffffffffffffffffffffff16631cb0c3e76040518163ffffffff167c010000000000000000000000000000000000000000000000000000000002815260040160206040518083038186803b158015610be457600080fd5b505afa158015610bf8573d6000803e3d6000fd5b505050506040513d6020811015610c0e57600080fd5b810190808051906020019092919050505073ffffffffffffffffffffffffffffffffffffffff163373ffffffffffffffffffffffffffffffffffffffff16141515610ca4576040517f08c379a00000000000000000000000000000000000000000000000000000000081526004018080602001828103825260248152602001806126686024913960400191505060405180910390fd5b6000610cae611b89565b73ffffffffffffffffffffffffffffffffffffffff166370a08231306040518263ffffffff167c0100000000000000000000000000000000000000000000000000000000028152600401808273ffffffffffffffffffffffffffffffffffffffff1673ffffffffffffffffffffffffffffffffffffffff16815260200191505060206040518083038186803b158015610d4657600080fd5b505afa158015610d5a573d6000803e3d6000fd5b505050506040513d6020811015610d7057600080fd5b81019080805190602001909291905050509050808311151515610dfb576040517f08c379a00000000000000000000000000000000000000000000000000000000081526004018080602001828103825260208152602001807f416d6f756e74206578636565647320617661696c61626c652062616c616e636581525060200191505060405180910390fd5b60046005811115610e0857fe5b606860009054906101000a900473ffffffffffffffffffffffffffffffffffffffff1673ffffffffffffffffffffffffffffffffffffffff1663acc1ab136040518163ffffffff167c010000000000000000000000000000000000000000000000000000000002815260040160206040518083038186803b158015610e8c57600080fd5b505afa158015610ea0573d6000803e3d6000fd5b505050506040513d6020811015610eb657600080fd5b81019080805190602001909291905050506005811115610ed257fe5b1015610fa657606860009054906101000a900473ffffffffffffffffffffffffffffffffffffffff1673ffffffffffffffffffffffffffffffffffffffff1663d5a3e232826040518263ffffffff167c010000000000000000000000000000000000000000000000000000000002815260040180828152602001915050602060405180830381600087803b158015610f6957600080fd5b505af1158015610f7d573d6000803e3d6000fd5b505050506040513d6020811015610f9357600080fd5b8101908080519060200190929190505050505b610fd88284610fb3611b89565b73ffffffffffffffffffffffffffffffffffffffff16611c4f9092919063ffffffff16565b3373ffffffffffffffffffffffffffffffffffffffff167f56a1572a4a0b9c7b0d647a77d80643a49879137d0d23879c4854d48d8d7d1cd8846040518082815260200191505060405180910390a2505050565b61110e611036611b89565b73ffffffffffffffffffffffffffffffffffffffff166370a08231306040518263ffffffff167c0100000000000000000000000000000000000000000000000000000000028152600401808273ffffffffffffffffffffffffffffffffffffffff1673ffffffffffffffffffffffffffffffffffffffff16815260200191505060206040518083038186803b1580156110ce57600080fd5b505afa1580156110e2573d6000803e3d6000fd5b505050506040513d60208110156110f857600080fd5b8101908080519060200190929190505050610951565b565b606960009054906101000a900473ffffffffffffffffffffffffffffffffffffffff1681565b600060019054906101000a900460ff16806111555750611154611d3c565b5b8061116c57506000809054906101000a900460ff16155b15156111c3576040517f08c379a000000000000000000000000000000000000000000000000000000000815260040180806020018281038252602e8152602001806126b7602e913960400191505060405180910390fd5b60008060019054906101000a900460ff161590508015611213576001600060016101000a81548160ff02191690831515021790555060016000806101000a81548160ff0219169083151502179055505b6001603381905550801561123c5760008060016101000a81548160ff0219169083151502179055505b50565b600061125e606660000154606660010154611d4d90919063ffffffff16565b905090565b6000606660010154148061127b575042606660010154115b15156112ef576040517f08c379a00000000000000000000000000000000000000000000000000000000081526004018080602001828103825260168152602001807f4b69636b4f666620616c7265616479207061737365640000000000000000000081525060200191505060405180910390fd5b6112f761048f565b73ffffffffffffffffffffffffffffffffffffffff163373ffffffffffffffffffffffffffffffffffffffff1614151561137c576040517f08c379a00000000000000000000000000000000000000000000000000000000081526004018080602001828103825260218152602001806126476021913960400191505060405180910390fd5b42606660010181905550606860009054906101000a900473ffffffffffffffffffffffffffffffffffffffff1673ffffffffffffffffffffffffffffffffffffffff1663e38be0c260016040518263ffffffff167c01000000000000000000000000000000000000000000000000000000000281526004018082600581111561140157fe5b60ff168152602001915050600060405180830381600087803b15801561142657600080fd5b505af115801561143a573d6000803e3d6000fd5b50505050565b600080606660000154606660010154915091509091565b6000611461611d6e565b6000600581111561146e57fe5b606860009054906101000a900473ffffffffffffffffffffffffffffffffffffffff1673ffffffffffffffffffffffffffffffffffffffff1663acc1ab136040518163ffffffff167c010000000000000000000000000000000000000000000000000000000002815260040160206040518083038186803b1580156114f257600080fd5b505afa158015611506573d6000803e3d6000fd5b505050506040513d602081101561151c57600080fd5b8101908080519060200190929190505050600581111561153857fe5b118061154957504260666001015410155b15156115bd576040517f08c379a00000000000000000000000000000000000000000000000000000000081526004018080602001828103825260198152602001807f43726f776466756e64206e6f742079657420737461727465640000000000000081525060200191505060405180910390fd5b600260058111156115ca57fe5b606860009054906101000a900473ffffffffffffffffffffffffffffffffffffffff1673ffffffffffffffffffffffffffffffffffffffff1663acc1ab136040518163ffffffff167c010000000000000000000000000000000000000000000000000000000002815260040160206040518083038186803b15801561164e57600080fd5b505afa158015611662573d6000803e3d6000fd5b505050506040513d602081101561167857600080fd5b8101908080519060200190929190505050600581111561169457fe5b101515611709576040517f08c379a000000000000000000000000000000000000000000000000000000000815260040180806020018281038252601d8152602001807f43726f776466756e6420636f6d706c65746564206f72206661696c656400000081525060200191505060405180910390fd5b6117128261223c565b1515611786576040517f08c379a00000000000000000000000000000000000000000000000000000000081526004018080602001828103825260168152602001807f416d6f756e742065786365656473206361706974616c0000000000000000000081525060200191505060405180910390fd5b6117ba333084611794611b89565b73ffffffffffffffffffffffffffffffffffffffff166123dc909392919063ffffffff16565b606960009054906101000a900473ffffffffffffffffffffffffffffffffffffffff1673ffffffffffffffffffffffffffffffffffffffff166386c011db33846040518363ffffffff167c0100000000000000000000000000000000000000000000000000000000028152600401808373ffffffffffffffffffffffffffffffffffffffff1673ffffffffffffffffffffffffffffffffffffffff16815260200182815260200192505050600060405180830381600087803b15801561187f57600080fd5b505af1158015611893573d6000803e3d6000fd5b505050503373ffffffffffffffffffffffffffffffffffffffff167fda8220a878ff7a89474ccffdaa31ea1ed1ffbb0207d5051afccc4fbaf81f9bcd836040518082815260200191505060405180910390a26118ed611d6e565b919050565b600060019054906101000a900460ff16806119115750611910611d3c565b5b8061192857506000809054906101000a900460ff16155b151561197f576040517f08c379a000000000000000000000000000000000000000000000000000000000815260040180806020018281038252602e8152602001806126b7602e913960400191505060405180910390fd5b60008060019054906101000a900460ff1615905080156119cf576001600060016101000a81548160ff02191690831515021790555060016000806101000a81548160ff0219169083151502179055505b84606860006101000a81548173ffffffffffffffffffffffffffffffffffffffff021916908373ffffffffffffffffffffffffffffffffffffffff16021790555083606960006101000a81548173ffffffffffffffffffffffffffffffffffffffff021916908373ffffffffffffffffffffffffffffffffffffffff160217905550604080519081016040528084815260200183815250606660008201518160000155602082015181600101559050508015611aa05760008060016101000a81548160ff0219169083151502179055505b5050505050565b6000611ab1611b89565b73ffffffffffffffffffffffffffffffffffffffff166370a08231306040518263ffffffff167c0100000000000000000000000000000000000000000000000000000000028152600401808273ffffffffffffffffffffffffffffffffffffffff1673ffffffffffffffffffffffffffffffffffffffff16815260200191505060206040518083038186803b158015611b4957600080fd5b505afa158015611b5d573d6000803e3d6000fd5b505050506040513d6020811015611b7357600080fd5b8101908080519060200190929190505050905090565b6000606860009054906101000a900473ffffffffffffffffffffffffffffffffffffffff1673ffffffffffffffffffffffffffffffffffffffff1663adb724bf6040518163ffffffff167c010000000000000000000000000000000000000000000000000000000002815260040160206040518083038186803b158015611c0f57600080fd5b505afa158015611c23573d6000803e3d6000fd5b505050506040513d6020811015611c3957600080fd5b8101908080519060200190929190505050905090565b611d37838473ffffffffffffffffffffffffffffffffffffffff1663a9059cbb90507c0100000000000000000000000000000000000000000000000000000000028484604051602401808373ffffffffffffffffffffffffffffffffffffffff1673ffffffffffffffffffffffffffffffffffffffff16815260200182815260200192505050604051602081830303815290604052907bffffffffffffffffffffffffffffffffffffffffffffffffffffffff19166020820180517bffffffffffffffffffffffffffffffffffffffffffffffffffffffff83818316178352505050506124fe565b505050565b600080303b90506000811491505090565b6000808284019050838110151515611d6457600080fd5b8091505092915050565b6000606860009054906101000a900473ffffffffffffffffffffffffffffffffffffffff1673ffffffffffffffffffffffffffffffffffffffff16637340435b6040518163ffffffff167c010000000000000000000000000000000000000000000000000000000002815260040160206040518083038186803b158015611df457600080fd5b505afa158015611e08573d6000803e3d6000fd5b505050506040513d6020811015611e1e57600080fd5b810190808051906020019092919050505090506000606960009054906101000a900473ffffffffffffffffffffffffffffffffffffffff1673ffffffffffffffffffffffffffffffffffffffff16633a98ef396040518163ffffffff167c010000000000000000000000000000000000000000000000000000000002815260040160206040518083038186803b158015611eb757600080fd5b505afa158015611ecb573d6000803e3d6000fd5b505050506040513d6020811015611ee157600080fd5b810190808051906020019092919050505090506000606960009054906101000a900473ffffffffffffffffffffffffffffffffffffffff1673ffffffffffffffffffffffffffffffffffffffff1663e7b0f6666040518163ffffffff167c010000000000000000000000000000000000000000000000000000000002815260040160206040518083038186803b158015611f7a57600080fd5b505afa158015611f8e573d6000803e3d6000fd5b505050506040513d6020811015611fa457600080fd5b81019080805190602001909291905050509050600082118015611fc657508282105b80156120a6575060026005811115611fda57fe5b606860009054906101000a900473ffffffffffffffffffffffffffffffffffffffff1673ffffffffffffffffffffffffffffffffffffffff1663acc1ab136040518163ffffffff167c010000000000000000000000000000000000000000000000000000000002815260040160206040518083038186803b15801561205e57600080fd5b505afa158015612072573d6000803e3d6000fd5b505050506040513d602081101561208857600080fd5b810190808051906020019092919050505060058111156120a457fe5b105b1561216857606860009054906101000a900473ffffffffffffffffffffffffffffffffffffffff1673ffffffffffffffffffffffffffffffffffffffff1663e38be0c260016040518263ffffffff167c01000000000000000000000000000000000000000000000000000000000281526004018082600581111561212657fe5b60ff168152602001915050600060405180830381600087803b15801561214b57600080fd5b505af115801561215f573d6000803e3d6000fd5b50505050612237565b8282101580156121785750600081145b1561223657606860009054906101000a900473ffffffffffffffffffffffffffffffffffffffff1673ffffffffffffffffffffffffffffffffffffffff1663e38be0c260036040518263ffffffff167c0100000000000000000000000000000000000000000000000000000000028152600401808260058111156121f857fe5b60ff168152602001915050600060405180830381600087803b15801561221d57600080fd5b505af1158015612231573d6000803e3d6000fd5b505050505b5b505050565b600080606860009054906101000a900473ffffffffffffffffffffffffffffffffffffffff1673ffffffffffffffffffffffffffffffffffffffff16637340435b6040518163ffffffff167c010000000000000000000000000000000000000000000000000000000002815260040160206040518083038186803b1580156122c357600080fd5b505afa1580156122d7573d6000803e3d6000fd5b505050506040513d60208110156122ed57600080fd5b81019080805190602001909291905050509050806123d284606960009054906101000a900473ffffffffffffffffffffffffffffffffffffffff1673ffffffffffffffffffffffffffffffffffffffff16633a98ef396040518163ffffffff167c010000000000000000000000000000000000000000000000000000000002815260040160206040518083038186803b15801561238957600080fd5b505afa15801561239d573d6000803e3d6000fd5b505050506040513d60208110156123b357600080fd5b8101908080519060200190929190505050611d4d90919063ffffffff16565b1115915050919050565b6124f8848573ffffffffffffffffffffffffffffffffffffffff166323b872dd90507c010000000000000000000000000000000000000000000000000000000002858585604051602401808473ffffffffffffffffffffffffffffffffffffffff1673ffffffffffffffffffffffffffffffffffffffff1681526020018373ffffffffffffffffffffffffffffffffffffffff1673ffffffffffffffffffffffffffffffffffffffff1681526020018281526020019350505050604051602081830303815290604052907bffffffffffffffffffffffffffffffffffffffffffffffffffffffff19166020820180517bffffffffffffffffffffffffffffffffffffffffffffffffffffffff83818316178352505050506124fe565b50505050565b61251d8273ffffffffffffffffffffffffffffffffffffffff16612633565b151561252857600080fd5b600060608373ffffffffffffffffffffffffffffffffffffffff16836040518082805190602001908083835b6020831015156125795780518252602082019150602081019050602083039250612554565b6001836020036101000a0380198251168184511680821785525050505050509050019150506000604051808303816000865af19150503d80600081146125db576040519150601f19603f3d011682016040523d82523d6000602084013e6125e0565b606091505b50915091508115156125f157600080fd5b60008151111561262d5780806020019051602081101561261057600080fd5b8101908080519060200190929190505050151561262c57600080fd5b5b50505050565b600080823b90506000811191505091905056fe4f6e6c7920626f72726f7765722063616e2073746172742063726f776466756e645769746864726177616c206f6e6c7920616c6c6f77656420666f7220426f72726f77657246756e64696e6720616c726561647920636f6d706c6574652e20526566756e6420496d706f737369626c65436f6e747261637420696e7374616e63652068617320616c7265616479206265656e20696e697469616c697a6564a165627a7a7230582030c64bc32b405001c9244bbb000e6c636d6afe74e04193138527e3ed741c9e290029",
  "source": "pragma solidity >=0.4.22 <0.6.0;\n\nimport \"openzeppelin-eth/contracts/math/SafeMath.sol\";\nimport \"openzeppelin-eth/contracts/token/ERC20/IERC20.sol\";\nimport \"openzeppelin-eth/contracts/token/ERC20/SafeERC20.sol\";\nimport \"openzeppelin-eth/contracts/utils/ReentrancyGuard.sol\";\nimport \"zos-lib/contracts/Initializable.sol\";\nimport \"../interface/ITermsContract.sol\";\nimport \"../interface/ICrowdloan.sol\";\nimport \"../interface/IRepaymentManager.sol\";\nimport \"../debt-contracts/TermsContractLib.sol\";\n\ncontract Crowdloan is Initializable, ICrowdloan, ReentrancyGuard {\n    using SafeMath for uint256;\n    using SafeERC20 for IERC20;\n\n    using TermsContractLib for TermsContractLib.LoanParams;\n    using TermsContractLib for TermsContractLib.LoanStatus;\n\n    struct CrowdfundParams {\n        uint256 crowdfundLength;\n        uint256 crowdfundStart;\n    }\n\n    CrowdfundParams crowdfundParams;\n\n    ITermsContract public termsContract;\n    IRepaymentManager public repaymentManager;\n\n    modifier trackCrowdfundStatus() {\n        _updateCrowdfundStatus();\n        _;\n        _updateCrowdfundStatus();\n    }\n\n    function initialize(\n        address _termsContract,\n        address _repaymentManager,\n        uint256 _crowdfundLength,\n        uint256 _crowdfundStart\n    ) public initializer {\n        termsContract = ITermsContract(_termsContract);\n        repaymentManager = IRepaymentManager(_repaymentManager);\n        crowdfundParams = CrowdfundParams(_crowdfundLength, _crowdfundStart);\n    }\n\n    function getCrowdfundParams() public view returns (uint256, uint256) {\n        return (crowdfundParams.crowdfundLength, crowdfundParams.crowdfundStart);\n    }\n\n    function getCrowdfundEnd() public view returns (uint256) {\n        return (crowdfundParams.crowdfundStart.add(crowdfundParams.crowdfundLength));\n    }\n\n    /** TODO(Dan): Refactor while implementing Donation capability */\n    function getTotalCrowdfunded() public view returns (uint256 total) {\n        /** Note: this may return more than principalRequested because of native ERC20 transfers */\n        total = _getPrincipalToken().balanceOf(address(this));\n    }\n\n    function getBorrower() public view returns (address) {\n        return termsContract.getBorrower();\n    }\n\n    // @notice additional payment does not exceed the pricipal Amount\n    function _isBelowMaxSupply(uint256 amount) internal view returns (bool) {\n        uint256 principalRequested = termsContract.getPrincipalRequested();\n        return repaymentManager.totalShares().add(amount) <= principalRequested;\n    }\n\n    // @notice reconcile the loans funding status\n    function _updateCrowdfundStatus() internal {\n        uint256 principalRequested = termsContract.getPrincipalRequested();\n        uint256 totalShares = repaymentManager.totalShares();\n        uint256 totalPaid = repaymentManager.totalPaid();\n\n        if (\n            totalShares > 0 &&\n            totalShares < principalRequested &&\n            termsContract.getLoanStatus() < TermsContractLib.LoanStatus.FUNDING_FAILED\n        ) {\n            termsContract.setLoanStatus(TermsContractLib.LoanStatus.FUNDING_STARTED);\n        } else if (totalShares >= principalRequested && totalPaid == 0) {\n            termsContract.setLoanStatus(TermsContractLib.LoanStatus.FUNDING_COMPLETE);\n        }\n    }\n\n    function _getPrincipalToken() internal view returns (IERC20 token) {\n        return IERC20(termsContract.getPrincipalToken());\n    }\n\n    function startCrowdfund() public {\n        require(\n            crowdfundParams.crowdfundStart == 0 || crowdfundParams.crowdfundStart > now,\n            \"KickOff already passed\"\n        );\n        require(msg.sender == getBorrower(), \"Only borrower can start crowdfund\");\n        crowdfundParams.crowdfundStart = now;\n        termsContract.setLoanStatus(TermsContractLib.LoanStatus.FUNDING_STARTED);\n    }\n\n    /// @notice Fund the loan in exchange for a debt token\n    /// @return repaymentManagerId Issued debt token ID\n    function fund(uint256 amount) public trackCrowdfundStatus returns (uint256) {\n        require(\n            termsContract.getLoanStatus() > TermsContractLib.LoanStatus.NOT_STARTED ||\n                crowdfundParams.crowdfundStart >= now,\n            \"Crowdfund not yet started\"\n        );\n        require(\n            termsContract.getLoanStatus() < TermsContractLib.LoanStatus.FUNDING_FAILED,\n            \"Crowdfund completed or failed\"\n        );\n        // require( getCrowdfundEnd() < now, \"Crowdfund period over\");\n        require(_isBelowMaxSupply(amount), \"Amount exceeds capital\");\n        _getPrincipalToken().safeTransferFrom(msg.sender, address(this), amount);\n\n        //Mint new debt token and transfer to sender\n        repaymentManager.increaseShares(msg.sender, amount);\n        emit Fund(msg.sender, amount);\n    }\n\n    /// @notice Get a refund for a debt token owned by the sender\n    function refund(uint256 amount) public {\n        require(\n            termsContract.getLoanStatus() < TermsContractLib.LoanStatus.FUNDING_COMPLETE,\n            \"Funding already complete. Refund Impossible\"\n        );\n\n        require(repaymentManager.shares(msg.sender) >= amount, \"Amount exceeds owned shares\");\n\n        repaymentManager.decreaseShares(msg.sender, amount);\n        _getPrincipalToken().safeTransfer(msg.sender, amount);\n\n        emit Refund(msg.sender, amount);\n    }\n\n    /**\n     * @notice Withdraw method\n     */\n    function withdraw() public {\n        withdraw(_getPrincipalToken().balanceOf(address(this)));\n    }\n\n    // @notice Withdraw loan\n    function withdraw(uint256 amount) public {\n        require(\n            termsContract.getLoanStatus() > TermsContractLib.LoanStatus.FUNDING_FAILED,\n            \"Crowdfund not completed\"\n        );\n\n        address borrower = termsContract.getBorrower();\n\n        require(msg.sender == termsContract.getBorrower(), \"Withdrawal only allowed for Borrower\");\n\n        uint256 contractBalance = _getPrincipalToken().balanceOf(address(this));\n        require(amount <= contractBalance, \"Amount exceeds available balance\");\n        if (termsContract.getLoanStatus() < TermsContractLib.LoanStatus.REPAYMENT_CYCLE) {\n            termsContract.startRepaymentCycle(contractBalance);\n        }\n\n        _getPrincipalToken().safeTransfer(borrower, amount);\n        emit ReleaseFunds(msg.sender, amount);\n    }\n\n    /**\n     * @dev fallback function ***DO NOT OVERRIDE***\n     * Revert all native Ether payments\n     */\n    function() external payable {\n        revert(\"Ether not accepted\");\n    }\n}\n",
  "sourcePath": "/Users/thomas/Code/client/enable/test/enable-contracts/contracts/crowdloan/Crowdloan.sol",
  "compiler": {
    "name": "solc",
    "version": "0.5.2+commit.1df8f40c.Emscripten.clang"
  },
  "schemaVersion": "3.0.11",
  "updatedAt": "2019-09-11T09:56:23.954Z",
  "devdoc": {
    "methods": {
      "fund(uint256)": {
        "return": "repaymentManagerId Issued debt token ID"
      }
    }
  },
  "userdoc": {
    "methods": {
      "fund(uint256)": {
        "notice": "Fund the loan in exchange for a debt token"
      },
      "getTotalCrowdfunded()": {
        "notice": "TODO(Dan): Refactor while implementing Donation capability "
      },
      "refund(uint256)": {
        "notice": "Get a refund for a debt token owned by the sender"
      },
      "withdraw()": {
        "notice": "Withdraw method"
      }
    }
  }
}