{
  "contractName": "CrowdloanFactory",
  "abi": [
    {
      "constant": true,
      "inputs": [],
      "name": "app",
      "outputs": [
        {
          "name": "",
          "type": "address"
        }
      ],
      "payable": false,
      "stateMutability": "view",
      "type": "function"
    },
    {
      "anonymous": false,
      "inputs": [
        {
          "indexed": true,
          "name": "borrower",
          "type": "address"
        },
        {
          "indexed": true,
          "name": "amount",
          "type": "uint256"
        },
        {
          "indexed": false,
          "name": "termsContract",
          "type": "address"
        },
        {
          "indexed": false,
          "name": "crowdloan",
          "type": "address"
        },
        {
          "indexed": false,
          "name": "repaymentManager",
          "type": "address"
        }
      ],
      "name": "LoanCreated",
      "type": "event"
    },
    {
      "constant": false,
      "inputs": [
        {
          "name": "_appContractAddress",
          "type": "address"
        }
      ],
      "name": "initialize",
      "outputs": [],
      "payable": false,
      "stateMutability": "nonpayable",
      "type": "function"
    },
    {
      "constant": false,
      "inputs": [
        {
          "name": "principalToken",
          "type": "address"
        },
        {
          "name": "principalRequested",
          "type": "uint256"
        },
        {
          "name": "loanPeriod",
          "type": "uint256"
        },
        {
          "name": "interestRate",
          "type": "uint256"
        },
        {
          "name": "minimumRepayment",
          "type": "uint256"
        },
        {
          "name": "maximumRepayment",
          "type": "uint256"
        },
        {
          "name": "crowdfundLength",
          "type": "uint256"
        },
        {
          "name": "crowdfundStart",
          "type": "uint256"
        }
      ],
      "name": "deploy",
      "outputs": [],
      "payable": false,
      "stateMutability": "nonpayable",
      "type": "function"
    }
  ],
  "bytecode": "0x608060405234801561001057600080fd5b5061115a806100206000396000f3fe608060405234801561001057600080fd5b506004361061005e576000357c010000000000000000000000000000000000000000000000000000000090048063b76564bd14610063578063bc31e544146100ad578063c4d66de814610138575b600080fd5b61006b61017c565b604051808273ffffffffffffffffffffffffffffffffffffffff1673ffffffffffffffffffffffffffffffffffffffff16815260200191505060405180910390f35b61013660048036036101008110156100c457600080fd5b81019080803573ffffffffffffffffffffffffffffffffffffffff169060200190929190803590602001909291908035906020019092919080359060200190929190803590602001909291908035906020019092919080359060200190929190803590602001909291905050506101a2565b005b61017a6004803603602081101561014e57600080fd5b81019080803573ffffffffffffffffffffffffffffffffffffffff169060200190929190505050610784565b005b603360009054906101000a900473ffffffffffffffffffffffffffffffffffffffff1681565b60006101bd60206040519081016040528060008152506108c7565b905060006101da6020604051908101604052806000815250610b7f565b905060006101f76020604051908101604052806000815250610e37565b90506060600260405190808252806020026020018201604052801561022b5781602001602082028038833980820191505090505b5090508281600081518110151561023e57fe5b9060200190602002019073ffffffffffffffffffffffffffffffffffffffff16908173ffffffffffffffffffffffffffffffffffffffff16815250508181600181518110151561028a57fe5b9060200190602002019073ffffffffffffffffffffffffffffffffffffffff16908173ffffffffffffffffffffffffffffffffffffffff1681525050606060016040519080825280602002602001820160405280156102f85781602001602082028038833980820191505090505b5090508381600081518110151561030b57fe5b9060200190602002019073ffffffffffffffffffffffffffffffffffffffff16908173ffffffffffffffffffffffffffffffffffffffff16815250508473ffffffffffffffffffffffffffffffffffffffff166384f4d98c338f8f8f8f8f8f8a6040518963ffffffff167c0100000000000000000000000000000000000000000000000000000000028152600401808973ffffffffffffffffffffffffffffffffffffffff1673ffffffffffffffffffffffffffffffffffffffff1681526020018873ffffffffffffffffffffffffffffffffffffffff1673ffffffffffffffffffffffffffffffffffffffff16815260200187815260200186815260200185815260200184815260200183815260200180602001828103825283818151815260200191508051906020019060200280838360005b8381101561045b578082015181840152602081019050610440565b505050509050019950505050505050505050600060405180830381600087803b15801561048757600080fd5b505af115801561049b573d6000803e3d6000fd5b505050508373ffffffffffffffffffffffffffffffffffffffff1663eb990c5986858a8a6040518563ffffffff167c0100000000000000000000000000000000000000000000000000000000028152600401808573ffffffffffffffffffffffffffffffffffffffff1673ffffffffffffffffffffffffffffffffffffffff1681526020018473ffffffffffffffffffffffffffffffffffffffff1673ffffffffffffffffffffffffffffffffffffffff168152602001838152602001828152602001945050505050600060405180830381600087803b15801561057e57600080fd5b505af1158015610592573d6000803e3d6000fd5b505050508273ffffffffffffffffffffffffffffffffffffffff1663946d920486836040518363ffffffff167c0100000000000000000000000000000000000000000000000000000000028152600401808373ffffffffffffffffffffffffffffffffffffffff1673ffffffffffffffffffffffffffffffffffffffff16815260200180602001828103825283818151815260200191508051906020019060200280838360005b83811015610654578082015181840152602081019050610639565b505050509050019350505050600060405180830381600087803b15801561067a57600080fd5b505af115801561068e573d6000803e3d6000fd5b505050508b3373ffffffffffffffffffffffffffffffffffffffff167f84a05668f6d40530c7506ddb3f402bf17d70ada888804054620f5b58ce593a1d878787604051808473ffffffffffffffffffffffffffffffffffffffff1673ffffffffffffffffffffffffffffffffffffffff1681526020018373ffffffffffffffffffffffffffffffffffffffff1673ffffffffffffffffffffffffffffffffffffffff1681526020018273ffffffffffffffffffffffffffffffffffffffff1673ffffffffffffffffffffffffffffffffffffffff168152602001935050505060405180910390a350505050505050505050505050565b600060019054906101000a900460ff16806107a357506107a26110ef565b5b806107ba57506000809054906101000a900460ff16155b1515610811576040517f08c379a000000000000000000000000000000000000000000000000000000000815260040180806020018281038252602e815260200180611101602e913960400191505060405180910390fd5b60008060019054906101000a900460ff161590508015610861576001600060016101000a81548160ff02191690831515021790555060016000806101000a81548160ff0219169083151502179055505b81603360006101000a81548173ffffffffffffffffffffffffffffffffffffffff021916908373ffffffffffffffffffffffffffffffffffffffff16021790555080156108c35760008060016101000a81548160ff0219169083151502179055505b5050565b60008060009050603360009054906101000a900473ffffffffffffffffffffffffffffffffffffffff1673ffffffffffffffffffffffffffffffffffffffff1663cd3e318a6040805190810160405280600d81526020017f656e61626c652d637265646974000000000000000000000000000000000000008152506040805190810160405280600d81526020017f5465726d73436f6e74726163740000000000000000000000000000000000000081525084876040518563ffffffff167c01000000000000000000000000000000000000000000000000000000000281526004018080602001806020018573ffffffffffffffffffffffffffffffffffffffff1673ffffffffffffffffffffffffffffffffffffffff16815260200180602001848103845288818151815260200191508051906020019080838360005b83811015610a1f578082015181840152602081019050610a04565b50505050905090810190601f168015610a4c5780820380516001836020036101000a031916815260200191505b50848103835287818151815260200191508051906020019080838360005b83811015610a85578082015181840152602081019050610a6a565b50505050905090810190601f168015610ab25780820380516001836020036101000a031916815260200191505b50848103825285818151815260200191508051906020019080838360005b83811015610aeb578082015181840152602081019050610ad0565b50505050905090810190601f168015610b185780820380516001836020036101000a031916815260200191505b50975050505050505050602060405180830381600087803b158015610b3c57600080fd5b505af1158015610b50573d6000803e3d6000fd5b505050506040513d6020811015610b6657600080fd5b8101908080519060200190929190505050915050919050565b60008060009050603360009054906101000a900473ffffffffffffffffffffffffffffffffffffffff1673ffffffffffffffffffffffffffffffffffffffff1663cd3e318a6040805190810160405280600d81526020017f656e61626c652d637265646974000000000000000000000000000000000000008152506040805190810160405280600981526020017f43726f77646c6f616e000000000000000000000000000000000000000000000081525084876040518563ffffffff167c01000000000000000000000000000000000000000000000000000000000281526004018080602001806020018573ffffffffffffffffffffffffffffffffffffffff1673ffffffffffffffffffffffffffffffffffffffff16815260200180602001848103845288818151815260200191508051906020019080838360005b83811015610cd7578082015181840152602081019050610cbc565b50505050905090810190601f168015610d045780820380516001836020036101000a031916815260200191505b50848103835287818151815260200191508051906020019080838360005b83811015610d3d578082015181840152602081019050610d22565b50505050905090810190601f168015610d6a5780820380516001836020036101000a031916815260200191505b50848103825285818151815260200191508051906020019080838360005b83811015610da3578082015181840152602081019050610d88565b50505050905090810190601f168015610dd05780820380516001836020036101000a031916815260200191505b50975050505050505050602060405180830381600087803b158015610df457600080fd5b505af1158015610e08573d6000803e3d6000fd5b505050506040513d6020811015610e1e57600080fd5b8101908080519060200190929190505050915050919050565b60008060009050603360009054906101000a900473ffffffffffffffffffffffffffffffffffffffff1673ffffffffffffffffffffffffffffffffffffffff1663cd3e318a6040805190810160405280600d81526020017f656e61626c652d637265646974000000000000000000000000000000000000008152506040805190810160405280601081526020017f52657061796d656e744d616e616765720000000000000000000000000000000081525084876040518563ffffffff167c01000000000000000000000000000000000000000000000000000000000281526004018080602001806020018573ffffffffffffffffffffffffffffffffffffffff1673ffffffffffffffffffffffffffffffffffffffff16815260200180602001848103845288818151815260200191508051906020019080838360005b83811015610f8f578082015181840152602081019050610f74565b50505050905090810190601f168015610fbc5780820380516001836020036101000a031916815260200191505b50848103835287818151815260200191508051906020019080838360005b83811015610ff5578082015181840152602081019050610fda565b50505050905090810190601f1680156110225780820380516001836020036101000a031916815260200191505b50848103825285818151815260200191508051906020019080838360005b8381101561105b578082015181840152602081019050611040565b50505050905090810190601f1680156110885780820380516001836020036101000a031916815260200191505b50975050505050505050602060405180830381600087803b1580156110ac57600080fd5b505af11580156110c0573d6000803e3d6000fd5b505050506040513d60208110156110d657600080fd5b8101908080519060200190929190505050915050919050565b600080303b9050600081149150509056fe436f6e747261637420696e7374616e63652068617320616c7265616479206265656e20696e697469616c697a6564a165627a7a72305820decd57f44ccfa8e2dad8b3799b8c4dadbb62be9df8c3844be8396d7ae0b23dd20029",
  "source": "pragma solidity ^0.5.2;\n\nimport \"zos-lib/contracts/Initializable.sol\";\nimport \"zos-lib/contracts/application/App.sol\";\nimport \"zos-lib/contracts/upgradeability/AdminUpgradeabilityProxy.sol\";\nimport \"openzeppelin-eth/contracts/token/ERC20/StandaloneERC20.sol\";\nimport \"../crowdloan/Crowdloan.sol\";\nimport \"../debt-contracts/RepaymentManager.sol\";\nimport \"../debt-contracts/TermsContract.sol\";\n\ncontract CrowdloanFactory is Initializable {\n    string constant ENABLE_CREDIT_PACKAGE = \"enable-credit\";\n    string constant TERMS_CONTRACT = \"TermsContract\";\n    string constant CROWDLOAN = \"Crowdloan\";\n    string constant REPAYMENT_ROUTER = \"RepaymentManager\";\n\n    App public app;\n\n    event LoanCreated(\n        address indexed borrower,\n        uint256 indexed amount,\n        address termsContract,\n        address crowdloan,\n        address repaymentManager\n    );\n\n    function initialize(address _appContractAddress) public initializer {\n        app = App(_appContractAddress);\n    }\n\n    function _createTermsContract(bytes memory _data) internal returns (address proxy) {\n        address admin = address(0);\n        return address(app.create(ENABLE_CREDIT_PACKAGE, TERMS_CONTRACT, admin, _data));\n    }\n\n    function _createCrowdloan(bytes memory _data) internal returns (address proxy) {\n        address admin = address(0);\n        return address(app.create(ENABLE_CREDIT_PACKAGE, CROWDLOAN, admin, _data));\n    }\n\n    function _createRepaymentManager(bytes memory _data) internal returns (address proxy) {\n        address admin = address(0);\n        return address(app.create(ENABLE_CREDIT_PACKAGE, REPAYMENT_ROUTER, admin, _data));\n    }\n\n    function deploy(\n        address principalToken,\n        uint256 principalRequested,\n        uint256 loanPeriod,\n        uint256 interestRate,\n        uint256 minimumRepayment,\n        uint256 maximumRepayment,\n        uint256 crowdfundLength,\n        uint256 crowdfundStart\n    ) public {\n        // TODO(Dan): Asserts and require statements\n\n        address termsContractInstance = _createTermsContract(\"\");\n        address crowdloanInstance = _createCrowdloan(\"\");\n        address repaymentManagerInstance = _createRepaymentManager(\"\");\n\n        // address(uint160(addr))\n\n        address[] memory controllers = new address[](2);\n        controllers[0] = crowdloanInstance;\n        controllers[1] = repaymentManagerInstance;\n\n        address[] memory loanInstanceAsController = new address[](1);\n        loanInstanceAsController[0] = crowdloanInstance;\n\n        TermsContract(termsContractInstance).initialize(\n            msg.sender,\n            principalToken,\n            principalRequested,\n            loanPeriod,\n            interestRate,\n            minimumRepayment,\n            maximumRepayment,\n            controllers\n        );\n\n        Crowdloan(address(uint160(crowdloanInstance))).initialize(\n            termsContractInstance,\n            repaymentManagerInstance,\n            crowdfundLength,\n            crowdfundStart\n        );\n\n        RepaymentManager(address(uint160(repaymentManagerInstance))).initialize(\n            termsContractInstance,\n            loanInstanceAsController\n        );\n\n        emit LoanCreated(\n            msg.sender,\n            principalRequested,\n            termsContractInstance,\n            crowdloanInstance,\n            repaymentManagerInstance\n        );\n    }\n}\n",
  "sourcePath": "/Users/thomas/Code/client/enable/test/enable-contracts/contracts/factory/CrowdloanFactory.sol",
  "compiler": {
    "name": "solc",
    "version": "0.5.2+commit.1df8f40c.Emscripten.clang"
  },
  "schemaVersion": "3.0.11",
  "updatedAt": "2019-09-11T10:02:22.387Z",
  "devdoc": {
    "methods": {}
  },
  "userdoc": {
    "methods": {}
  }
}