{"fileName":"CrowdloanFactory.sol","contractName":"CrowdloanFactory","source":"pragma solidity 0.5.11;\n\nimport \"zos-lib/contracts/Initializable.sol\";\nimport \"zos-lib/contracts/application/App.sol\";\nimport \"zos-lib/contracts/upgradeability/AdminUpgradeabilityProxy.sol\";\nimport \"openzeppelin-eth/contracts/token/ERC20/IERC20.sol\";\nimport \"../crowdloan/Crowdloan.sol\";\n\ncontract CrowdloanFactory is Initializable {\n    string constant ENABLE_CREDIT_PACKAGE = \"enable-credit\";\n    string constant TERMS_CONTRACT = \"TermsContract\";\n    string constant CROWDLOAN = \"Crowdloan\";\n    string constant REPAYMENT_ROUTER = \"RepaymentManager\";\n\n    App public app;\n\n    event LoanCreated(\n        address indexed borrower,\n        uint256 indexed principalRequested,\n        address crowdloan,\n        address contractAdmin\n    );\n\n    function initialize(address _appContractAddress) public initializer {\n        app = App(_appContractAddress);\n    }\n\n    function _createCrowdloan(bytes memory _data, address admin) internal returns (address proxy) {\n        return address(app.create(ENABLE_CREDIT_PACKAGE, CROWDLOAN, admin, _data));\n    }\n\n    function deploy(\n        IERC20 principalToken,\n        uint256 principalRequested,\n        uint256 crowdfundLength,\n        uint256 crowdfundStart,\n        address contractAdmin\n    ) public {\n        address crowdloan = _createCrowdloan(\"\", contractAdmin);\n\n        Crowdloan(crowdloan).initialize(crowdfundLength, principalToken, principalRequested);\n\n        emit LoanCreated(msg.sender, principalRequested, crowdloan, contractAdmin);\n    }\n}\n","sourcePath":"contracts/factory/CrowdloanFactory.sol","abi":[{"constant":false,"inputs":[{"internalType":"contract IERC20","name":"principalToken","type":"address"},{"internalType":"uint256","name":"principalRequested","type":"uint256"},{"internalType":"uint256","name":"crowdfundLength","type":"uint256"},{"internalType":"uint256","name":"crowdfundStart","type":"uint256"},{"internalType":"address","name":"contractAdmin","type":"address"}],"name":"deploy","outputs":[],"payable":false,"stateMutability":"nonpayable","type":"function"},{"constant":true,"inputs":[],"name":"app","outputs":[{"internalType":"contract App","name":"","type":"address"}],"payable":false,"stateMutability":"view","type":"function"},{"constant":false,"inputs":[{"internalType":"address","name":"_appContractAddress","type":"address"}],"name":"initialize","outputs":[],"payable":false,"stateMutability":"nonpayable","type":"function"},{"anonymous":false,"inputs":[{"indexed":true,"internalType":"address","name":"borrower","type":"address"},{"indexed":true,"internalType":"uint256","name":"principalRequested","type":"uint256"},{"indexed":false,"internalType":"address","name":"crowdloan","type":"address"},{"indexed":false,"internalType":"address","name":"contractAdmin","type":"address"}],"name":"LoanCreated","type":"event"}],"bytecode":"0x60806040523480156100115760006000fd5b50610017565b61077d806100266000396000f3fe60806040523480156100115760006000fd5b50600436106100465760003560e01c80634f1d95ad1461004c578063b76564bd146100cf578063c4d66de81461011957610046565b60006000fd5b6100cd600480360360a08110156100635760006000fd5b81019080803573ffffffffffffffffffffffffffffffffffffffff169060200190929190803590602001909291908035906020019092919080359060200190929190803573ffffffffffffffffffffffffffffffffffffffff16906020019092919050505061015e565b005b6100d76102e5565b604051808273ffffffffffffffffffffffffffffffffffffffff1673ffffffffffffffffffffffffffffffffffffffff16815260200191505060405180910390f35b61015c600480360360208110156101305760006000fd5b81019080803573ffffffffffffffffffffffffffffffffffffffff16906020019092919050505061030b565b005b6000610182604051806020016040528060008152602001508361045a63ffffffff16565b90508073ffffffffffffffffffffffffffffffffffffffff1663fffb51838588886040518463ffffffff1660e01b8152600401808481526020018373ffffffffffffffffffffffffffffffffffffffff1673ffffffffffffffffffffffffffffffffffffffff1681526020018281526020019350505050600060405180830381600087803b1580156102145760006000fd5b505af1158015610229573d600060003e3d6000fd5b50505050843373ffffffffffffffffffffffffffffffffffffffff167fa019ae2a3f3db5adc12cfe0bed9cba09a144bfd8c2190f1ccc8fbbba5e3bae548385604051808373ffffffffffffffffffffffffffffffffffffffff1673ffffffffffffffffffffffffffffffffffffffff1681526020018273ffffffffffffffffffffffffffffffffffffffff1673ffffffffffffffffffffffffffffffffffffffff1681526020019250505060405180910390a3505b5050505050565b603360009054906101000a900473ffffffffffffffffffffffffffffffffffffffff1681565b600060019054906101000a900460ff1680610330575061032f61070263ffffffff16565b5b806103485750600060009054906101000a900460ff16155b151561039f576040517f08c379a000000000000000000000000000000000000000000000000000000000815260040180806020018281038252602e81526020018061071b602e913960400191505060405180910390fd5b6000600060019054906101000a900460ff1615905080156103f1576001600060016101000a81548160ff0219169083151502179055506001600060006101000a81548160ff0219169083151502179055505b81603360006101000a81548173ffffffffffffffffffffffffffffffffffffffff021916908373ffffffffffffffffffffffffffffffffffffffff1602179055505b8015610455576000600060016101000a81548160ff0219169083151502179055505b505b50565b6000603360009054906101000a900473ffffffffffffffffffffffffffffffffffffffff1673ffffffffffffffffffffffffffffffffffffffff1663cd3e318a6040518060400160405280600d81526020017f656e61626c652d637265646974000000000000000000000000000000000000008152602001506040518060400160405280600981526020017f43726f77646c6f616e000000000000000000000000000000000000000000000081526020015085876040518563ffffffff1660e01b81526004018080602001806020018573ffffffffffffffffffffffffffffffffffffffff1673ffffffffffffffffffffffffffffffffffffffff16815260200180602001848103845288818151815260200191508051906020019080838360005b838110156105985780820151818401525b60208101905061057c565b50505050905090810190601f1680156105c55780820380516001836020036101000a031916815260200191505b50848103835287818151815260200191508051906020019080838360005b838110156105ff5780820151818401525b6020810190506105e3565b50505050905090810190601f16801561062c5780820380516001836020036101000a031916815260200191505b50848103825285818151815260200191508051906020019080838360005b838110156106665780820151818401525b60208101905061064a565b50505050905090810190601f1680156106935780820380516001836020036101000a031916815260200191505b50975050505050505050602060405180830381600087803b1580156106b85760006000fd5b505af11580156106cd573d600060003e3d6000fd5b505050506040513d60208110156106e45760006000fd5b810190808051906020019092919050505090506106fc565b92915050565b60006000303b90506000811491505061071756505b9056fe436f6e747261637420696e7374616e63652068617320616c7265616479206265656e20696e697469616c697a6564a265627a7a72315820c4b41219526a4089b89b5f1a2fbbedabbd9d1f72423a853511cc3c1eae1ec7c864736f6c634300050b0032","compiler":{"name":"solc","version":"0.5.11+commit.c082d0b4.Emscripten.clang","optimizer":{},"evmVersion":"constantinople"}}