{"fileName":"Crowdloan.sol","contractName":"Crowdloan","source":"pragma solidity 0.5.11;\n\nimport \"zos-lib/contracts/Initializable.sol\";\nimport \"openzeppelin-eth/contracts/math/SafeMath.sol\";\nimport \"openzeppelin-eth/contracts/token/ERC20/IERC20.sol\";\nimport \"openzeppelin-eth/contracts/token/ERC20/SafeERC20.sol\";\n\ncontract Crowdloan is Initializable {\n    using SafeMath for uint256;\n    using SafeERC20 for IERC20;\n\n    // Loan terms\n    uint256 public crowdfundStart;\n    uint256 public crowdfundEnd; // Last time contributions are accepted\n    uint256 public crowdfundDuration;\n    address public borrower;\n    IERC20 public token;\n    uint256 public principalRequested;\n    string public loanMetadataUrl;\n\n    // Contributor tracking\n    mapping(address => uint256) public amountContributed;\n    uint256 public totalContributed;\n    uint256 public principalWithdrawn;\n\n    // Repayment tracking\n    uint256 public amountRepaid;\n    mapping(address => uint256) public repaymentWithdrawn;\n\n    // Events\n    event Fund(address sender, uint256 amount);\n    event WithdrawPrincipal(address sender, uint256 amount);\n    event WithdrawRepayment(address sender, uint256 amount);\n    event Repay(uint256 amount);\n    event StartCrowdfund(uint256 crowdfundStart);\n\n    function initialize(\n        address _borrower,\n        IERC20 _token,\n        uint256 _principalRequested,\n        uint256 _duration,\n        string calldata _loanMetadataUrl\n    ) external initializer {\n        borrower = _borrower;\n        crowdfundDuration = _duration;\n        token = _token;\n        principalRequested = _principalRequested;\n        loanMetadataUrl = _loanMetadataUrl;\n    }\n\n    function fund(uint256 amount) external {\n        require(now <= crowdfundEnd, \"The contribution period has ended.\");\n        require(amount > 0, \"Fund amount cannot be zero\");\n\n        totalContributed = totalContributed.add(amount);\n        require(\n            totalContributed <= principalRequested,\n            \"Your contribution would exceed the total amount requested.\"\n        );\n\n        amountContributed[msg.sender] = amountContributed[msg.sender].add(amount);\n\n        require(token.transferFrom(msg.sender, address(this), amount));\n\n        emit Fund(msg.sender, amount);\n    }\n\n    function withdrawPrincipal() external {\n        require(msg.sender == borrower, \"Only the borrower can withdraw principal.\");\n        uint256 amount = totalContributed.sub(principalWithdrawn);\n        principalWithdrawn = totalContributed;\n        require(token.transfer(msg.sender, amount));\n\n        emit WithdrawPrincipal(msg.sender, amount);\n    }\n\n    function repay(uint256 amount) external {\n        amountRepaid = amountRepaid.add(amount);\n        token.safeTransferFrom(msg.sender, address(this), amount);\n\n        emit Repay(amount);\n    }\n\n    function withdrawRepayment() external {\n        uint256 totalOwed = amountRepaid.mul(amountContributed[msg.sender]).div(totalContributed);\n        uint256 amount = totalOwed.sub(repaymentWithdrawn[msg.sender]);\n        repaymentWithdrawn[msg.sender] = totalOwed;\n\n        token.safeTransfer(msg.sender, amount);\n\n        emit WithdrawRepayment(msg.sender, amount);\n    }\n\n    function startCrowdfund() external {\n        require(msg.sender == borrower, \"Only the borrower can start crowdfund.\");\n        require(crowdfundStart == 0, \"Crowdfund must not have already been started.\");\n\n        crowdfundStart = now;\n        crowdfundEnd = now + crowdfundDuration;\n\n        emit StartCrowdfund(now);\n    }\n}\n","sourcePath":"contracts/crowdloan/Crowdloan.sol","abi":[{"constant":true,"inputs":[],"name":"totalContributed","outputs":[{"internalType":"uint256","name":"","type":"uint256"}],"payable":false,"stateMutability":"view","type":"function"},{"constant":true,"inputs":[{"internalType":"address","name":"","type":"address"}],"name":"amountContributed","outputs":[{"internalType":"uint256","name":"","type":"uint256"}],"payable":false,"stateMutability":"view","type":"function"},{"constant":false,"inputs":[{"internalType":"uint256","name":"amount","type":"uint256"}],"name":"repay","outputs":[],"payable":false,"stateMutability":"nonpayable","type":"function"},{"constant":false,"inputs":[],"name":"withdrawRepayment","outputs":[],"payable":false,"stateMutability":"nonpayable","type":"function"},{"constant":true,"inputs":[{"internalType":"address","name":"","type":"address"}],"name":"repaymentWithdrawn","outputs":[{"internalType":"uint256","name":"","type":"uint256"}],"payable":false,"stateMutability":"view","type":"function"},{"constant":true,"inputs":[],"name":"borrower","outputs":[{"internalType":"address","name":"","type":"address"}],"payable":false,"stateMutability":"view","type":"function"},{"constant":true,"inputs":[],"name":"crowdfundEnd","outputs":[{"internalType":"uint256","name":"","type":"uint256"}],"payable":false,"stateMutability":"view","type":"function"},{"constant":true,"inputs":[],"name":"crowdfundStart","outputs":[{"internalType":"uint256","name":"","type":"uint256"}],"payable":false,"stateMutability":"view","type":"function"},{"constant":false,"inputs":[{"internalType":"address","name":"_borrower","type":"address"},{"internalType":"contract IERC20","name":"_token","type":"address"},{"internalType":"uint256","name":"_principalRequested","type":"uint256"},{"internalType":"uint256","name":"_duration","type":"uint256"},{"internalType":"string","name":"_loanMetadataUrl","type":"string"}],"name":"initialize","outputs":[],"payable":false,"stateMutability":"nonpayable","type":"function"},{"constant":true,"inputs":[],"name":"principalRequested","outputs":[{"internalType":"uint256","name":"","type":"uint256"}],"payable":false,"stateMutability":"view","type":"function"},{"constant":false,"inputs":[],"name":"startCrowdfund","outputs":[],"payable":false,"stateMutability":"nonpayable","type":"function"},{"constant":true,"inputs":[],"name":"principalWithdrawn","outputs":[{"internalType":"uint256","name":"","type":"uint256"}],"payable":false,"stateMutability":"view","type":"function"},{"constant":false,"inputs":[{"internalType":"uint256","name":"amount","type":"uint256"}],"name":"fund","outputs":[],"payable":false,"stateMutability":"nonpayable","type":"function"},{"constant":true,"inputs":[],"name":"crowdfundDuration","outputs":[{"internalType":"uint256","name":"","type":"uint256"}],"payable":false,"stateMutability":"view","type":"function"},{"constant":true,"inputs":[],"name":"loanMetadataUrl","outputs":[{"internalType":"string","name":"","type":"string"}],"payable":false,"stateMutability":"view","type":"function"},{"constant":false,"inputs":[],"name":"withdrawPrincipal","outputs":[],"payable":false,"stateMutability":"nonpayable","type":"function"},{"constant":true,"inputs":[],"name":"amountRepaid","outputs":[{"internalType":"uint256","name":"","type":"uint256"}],"payable":false,"stateMutability":"view","type":"function"},{"constant":true,"inputs":[],"name":"token","outputs":[{"internalType":"contract IERC20","name":"","type":"address"}],"payable":false,"stateMutability":"view","type":"function"},{"anonymous":false,"inputs":[{"indexed":false,"internalType":"address","name":"sender","type":"address"},{"indexed":false,"internalType":"uint256","name":"amount","type":"uint256"}],"name":"Fund","type":"event"},{"anonymous":false,"inputs":[{"indexed":false,"internalType":"address","name":"sender","type":"address"},{"indexed":false,"internalType":"uint256","name":"amount","type":"uint256"}],"name":"WithdrawPrincipal","type":"event"},{"anonymous":false,"inputs":[{"indexed":false,"internalType":"address","name":"sender","type":"address"},{"indexed":false,"internalType":"uint256","name":"amount","type":"uint256"}],"name":"WithdrawRepayment","type":"event"},{"anonymous":false,"inputs":[{"indexed":false,"internalType":"uint256","name":"amount","type":"uint256"}],"name":"Repay","type":"event"},{"anonymous":false,"inputs":[{"indexed":false,"internalType":"uint256","name":"crowdfundStart","type":"uint256"}],"name":"StartCrowdfund","type":"event"}],"bytecode":"0x60806040523480156100115760006000fd5b50610017565b611801806100266000396000f3fe60806040523480156100115760006000fd5b506004361061011b5760003560e01c80638ffc9215116100a3578063d2e3966011610072578063d2e39660146103f8578063dad8671b14610416578063e1f06f541461049a578063ee86afd8146104a4578063fc0c546a146104c25761011b565b80638ffc9215146103835780639a593b9a146103a1578063c95cbe74146103ab578063ca1d209d146103c95761011b565b80637dd99395116100ea5780637dd99395146101d15780637df1f1b91461022a578063859e0015146102745780638c3f0e5d146102925780638e737af2146102b05761011b565b8063023f41471461012157806336aec5a31461013f578063371fd8e6146101985780637489b451146101c75761011b565b60006000fd5b61012961050c565b6040518082815260200191505060405180910390f35b610182600480360360208110156101565760006000fd5b81019080803573ffffffffffffffffffffffffffffffffffffffff169060200190929190505050610515565b6040518082815260200191505060405180910390f35b6101c5600480360360208110156101af5760006000fd5b8101908080359060200190929190505050610530565b005b6101cf6105dd565b005b610214600480360360208110156101e85760006000fd5b81019080803573ffffffffffffffffffffffffffffffffffffffff1690602001909291905050506107ba565b6040518082815260200191505060405180910390f35b6102326107d5565b604051808273ffffffffffffffffffffffffffffffffffffffff1673ffffffffffffffffffffffffffffffffffffffff16815260200191505060405180910390f35b61027c6107fb565b6040518082815260200191505060405180910390f35b61029a610804565b6040518082815260200191505060405180910390f35b610381600480360360a08110156102c75760006000fd5b81019080803573ffffffffffffffffffffffffffffffffffffffff169060200190929190803573ffffffffffffffffffffffffffffffffffffffff1690602001909291908035906020019092919080359060200190929190803590602001906401000000008111156103395760006000fd5b82018360208201111561034c5760006000fd5b8035906020019184600183028401116401000000008311171561036f5760006000fd5b9091929390909192939050505061080d565b005b61038b6109cf565b6040518082815260200191505060405180910390f35b6103a96109d8565b005b6103b3610b39565b6040518082815260200191505060405180910390f35b6103f6600480360360208110156103e05760006000fd5b8101908080359060200190929190505050610b42565b005b610400610ede565b6040518082815260200191505060405180910390f35b61041e610ee7565b6040518080602001828103825283818151815260200191508051906020019080838360005b8381101561045f5780820151818401525b602081019050610443565b50505050905090810190601f16801561048c5780820380516001836020036101000a031916815260200191505b509250505060405180910390f35b6104a2610f88565b005b6104ac6111c4565b6040518082815260200191505060405180910390f35b6104ca6111cd565b604051808273ffffffffffffffffffffffffffffffffffffffff1673ffffffffffffffffffffffffffffffffffffffff16815260200191505060405180910390f35b603b6000505481565b603a6000506020528060005260406000206000915090505481565b61054881603d600050546111f390919063ffffffff16565b603d6000508190909055506105a2333083603760009054906101000a900473ffffffffffffffffffffffffffffffffffffffff1673ffffffffffffffffffffffffffffffffffffffff1661121c909392919063ffffffff16565b7fa6ffc78a660e4971a47a0f916a0abae483804e6f42c9292ed06aa64f8fe46230816040518082815260200191505060405180910390a15b50565b6000610653603b60005054610645603a60005060003373ffffffffffffffffffffffffffffffffffffffff1673ffffffffffffffffffffffffffffffffffffffff16815260200190815260200160002060005054603d6000505461132990919063ffffffff16565b61136e90919063ffffffff16565b905060006106af603e60005060003373ffffffffffffffffffffffffffffffffffffffff1673ffffffffffffffffffffffffffffffffffffffff16815260200190815260200160002060005054836113a090919063ffffffff16565b905081603e60005060003373ffffffffffffffffffffffffffffffffffffffff1673ffffffffffffffffffffffffffffffffffffffff16815260200190815260200160002060005081909090555061074a3382603760009054906101000a900473ffffffffffffffffffffffffffffffffffffffff1673ffffffffffffffffffffffffffffffffffffffff166113c99092919063ffffffff16565b7f99a5f076bd438fcb3b84841caf48b7c7f0033ba32847d8b8d34ba0d65a369b593382604051808373ffffffffffffffffffffffffffffffffffffffff1673ffffffffffffffffffffffffffffffffffffffff1681526020018281526020019250505060405180910390a150505b565b603e6000506020528060005260406000206000915090505481565b603660009054906101000a900473ffffffffffffffffffffffffffffffffffffffff1681565b60346000505481565b60336000505481565b600060019054906101000a900460ff168061083257506108316114a163ffffffff16565b5b8061084a5750600060009054906101000a900460ff16155b15156108a1576040517f08c379a000000000000000000000000000000000000000000000000000000000815260040180806020018281038252602e815260200180611749602e913960400191505060405180910390fd5b6000600060019054906101000a900460ff1615905080156108f3576001600060016101000a81548160ff0219169083151502179055506001600060006101000a81548160ff0219169083151502179055505b86603660006101000a81548173ffffffffffffffffffffffffffffffffffffffff021916908373ffffffffffffffffffffffffffffffffffffffff16021790555083603560005081909090555085603760006101000a81548173ffffffffffffffffffffffffffffffffffffffff021916908373ffffffffffffffffffffffffffffffffffffffff1602179055508460386000508190909055508282603960005091906109a1929190611616565b505b80156109c5576000600060016101000a81548160ff0219169083151502179055505b505b505050505050565b60386000505481565b603660009054906101000a900473ffffffffffffffffffffffffffffffffffffffff1673ffffffffffffffffffffffffffffffffffffffff163373ffffffffffffffffffffffffffffffffffffffff16141515610a80576040517f08c379a00000000000000000000000000000000000000000000000000000000081526004018080602001828103825260268152602001806117236026913960400191505060405180910390fd5b6000603360005054141515610ae0576040517f08c379a000000000000000000000000000000000000000000000000000000000815260040180806020018281038252602d8152602001806117a0602d913960400191505060405180910390fd5b426033600050819090905550603560005054420160346000508190909055507f7cbc4c855be831448c84ab8db17649938de7e94a1a1dc9b803e6c07acc3cb03b426040518082815260200191505060405180910390a15b565b603c6000505481565b6034600050544211151515610ba2576040517f08c379a00000000000000000000000000000000000000000000000000000000081526004018080602001828103825260228152602001806116c76022913960400191505060405180910390fd5b600081111515610c1d576040517f08c379a000000000000000000000000000000000000000000000000000000000815260040180806020018281038252601a8152602001807f46756e6420616d6f756e742063616e6e6f74206265207a65726f00000000000081526020015060200191505060405180910390fd5b610c3581603b600050546111f390919063ffffffff16565b603b600050819090905550603860005054603b6000505411151515610ca5576040517f08c379a000000000000000000000000000000000000000000000000000000000815260040180806020018281038252603a8152602001806116e9603a913960400191505060405180910390fd5b610cfd81603a60005060003373ffffffffffffffffffffffffffffffffffffffff1673ffffffffffffffffffffffffffffffffffffffff168152602001908152602001600020600050546111f390919063ffffffff16565b603a60005060003373ffffffffffffffffffffffffffffffffffffffff1673ffffffffffffffffffffffffffffffffffffffff168152602001908152602001600020600050819090905550603760009054906101000a900473ffffffffffffffffffffffffffffffffffffffff1673ffffffffffffffffffffffffffffffffffffffff166323b872dd3330846040518463ffffffff1660e01b8152600401808473ffffffffffffffffffffffffffffffffffffffff1673ffffffffffffffffffffffffffffffffffffffff1681526020018373ffffffffffffffffffffffffffffffffffffffff1673ffffffffffffffffffffffffffffffffffffffff1681526020018281526020019350505050602060405180830381600087803b158015610e265760006000fd5b505af1158015610e3b573d600060003e3d6000fd5b505050506040513d6020811015610e525760006000fd5b81019080805190602001909291905050501515610e6f5760006000fd5b7fda8220a878ff7a89474ccffdaa31ea1ed1ffbb0207d5051afccc4fbaf81f9bcd3382604051808373ffffffffffffffffffffffffffffffffffffffff1673ffffffffffffffffffffffffffffffffffffffff1681526020018281526020019250505060405180910390a15b50565b60356000505481565b60396000508054600181600116156101000203166002900480601f016020809104026020016040519081016040528092919081815260200182805460018160011615610100020316600290048015610f805780601f10610f5557610100808354040283529160200191610f80565b820191906000526020600020905b815481529060010190602001808311610f6357829003601f168201915b505050505081565b603660009054906101000a900473ffffffffffffffffffffffffffffffffffffffff1673ffffffffffffffffffffffffffffffffffffffff163373ffffffffffffffffffffffffffffffffffffffff16141515611030576040517f08c379a00000000000000000000000000000000000000000000000000000000081526004018080602001828103825260298152602001806117776029913960400191505060405180910390fd5b600061104f603c60005054603b600050546113a090919063ffffffff16565b9050603b60005054603c600050819090905550603760009054906101000a900473ffffffffffffffffffffffffffffffffffffffff1673ffffffffffffffffffffffffffffffffffffffff1663a9059cbb33836040518363ffffffff1660e01b8152600401808373ffffffffffffffffffffffffffffffffffffffff1673ffffffffffffffffffffffffffffffffffffffff16815260200182815260200192505050602060405180830381600087803b15801561110c5760006000fd5b505af1158015611121573d600060003e3d6000fd5b505050506040513d60208110156111385760006000fd5b810190808051906020019092919050505015156111555760006000fd5b7fee1b5abe14e43ee34008f06f51efca5382c42fb48b0a040fd7a5f5c630cb55803382604051808373ffffffffffffffffffffffffffffffffffffffff1673ffffffffffffffffffffffffffffffffffffffff1681526020018281526020019250505060405180910390a1505b565b603d6000505481565b603760009054906101000a900473ffffffffffffffffffffffffffffffffffffffff1681565b60006000828401905083811015151561120c5760006000fd5b8091505061121656505b92915050565b611322848573ffffffffffffffffffffffffffffffffffffffff166323b872dd905060e01b858585604051602401808473ffffffffffffffffffffffffffffffffffffffff1673ffffffffffffffffffffffffffffffffffffffff1681526020018373ffffffffffffffffffffffffffffffffffffffff1673ffffffffffffffffffffffffffffffffffffffff1681526020018281526020019350505050604051602081830303815290604052907bffffffffffffffffffffffffffffffffffffffffffffffffffffffff19166020820180517bffffffffffffffffffffffffffffffffffffffffffffffffffffffff83818316178352505050506114b963ffffffff16565b5b50505050565b6000600083141561133d5760009050611368565b6000828402905082848281151561135057fe5b0414151561135e5760006000fd5b8091505061136856505b92915050565b60006000821115156113805760006000fd5b6000828481151561138d57fe5b0490508091505061139a56505b92915050565b60008282111515156113b25760006000fd5b60008284039050809150506113c356505b92915050565b61149b838473ffffffffffffffffffffffffffffffffffffffff1663a9059cbb905060e01b8484604051602401808373ffffffffffffffffffffffffffffffffffffffff1673ffffffffffffffffffffffffffffffffffffffff16815260200182815260200192505050604051602081830303815290604052907bffffffffffffffffffffffffffffffffffffffffffffffffffffffff19166020820180517bffffffffffffffffffffffffffffffffffffffffffffffffffffffff83818316178352505050506114b963ffffffff16565b5b505050565b60006000303b9050600081149150506114b656505b90565b6114e08273ffffffffffffffffffffffffffffffffffffffff166115fc909063ffffffff16565b15156114ec5760006000fd5b600060608373ffffffffffffffffffffffffffffffffffffffff16836040518082805190602001908083835b60208310151561153e57805182525b602082019150602081019050602083039250611518565b6001836020036101000a0380198251168184511680821785525050505050509050019150506000604051808303816000865af19150503d80600081146115a0576040519150601f19603f3d011682016040523d82523d6000602084013e6115a5565b606091505b50915091508115156115b75760006000fd5b6000815111156115f5578080602001905160208110156115d75760006000fd5b810190808051906020019092919050505015156115f45760006000fd5b5b50505b5050565b60006000823b90506000811191505061161156505b919050565b828054600181600116156101000203166002900490600052602060002090601f016020900481019282601f1061165757803560ff191683800117855561168a565b8280016001018555821561168a579182015b828111156116895782358260005090905591602001919060010190611669565b5b509050611697919061169b565b5090565b6116c391906116a5565b808211156116bf57600081815060009055506001016116a5565b5090565b9056fe54686520636f6e747269627574696f6e20706572696f642068617320656e6465642e596f757220636f6e747269627574696f6e20776f756c64206578636565642074686520746f74616c20616d6f756e74207265717565737465642e4f6e6c792074686520626f72726f7765722063616e2073746172742063726f776466756e642e436f6e747261637420696e7374616e63652068617320616c7265616479206265656e20696e697469616c697a65644f6e6c792074686520626f72726f7765722063616e207769746864726177207072696e636970616c2e43726f776466756e64206d757374206e6f74206861766520616c7265616479206265656e20737461727465642ea265627a7a72315820d31e14f8dc79f5c9a1fe27f99af6af3b3e6f6b0fb1ac798b7d6245be4c95256964736f6c634300050b0032","compiler":{"name":"solc","version":"0.5.11+commit.c082d0b4.Emscripten.clang","optimizer":{},"evmVersion":"constantinople"}}