{"fileName":"CrowdloanFactory.sol","contractName":"CrowdloanFactory","source":"pragma solidity 0.5.11;\n\nimport \"zos-lib/contracts/Initializable.sol\";\nimport \"zos-lib/contracts/application/App.sol\";\nimport \"zos-lib/contracts/upgradeability/AdminUpgradeabilityProxy.sol\";\nimport \"openzeppelin-eth/contracts/token/ERC20/IERC20.sol\";\nimport \"openzeppelin-eth/contracts/token/ERC20/StandaloneERC20.sol\";\nimport \"../crowdloan/Crowdloan.sol\";\n\ncontract CrowdloanFactory is Initializable {\n    string constant ENABLE_CREDIT_PACKAGE = \"enable-credit\";\n    string constant TERMS_CONTRACT = \"TermsContract\";\n    string constant CROWDLOAN = \"Crowdloan\";\n    string constant REPAYMENT_ROUTER = \"RepaymentManager\";\n\n    App public app;\n\n    event LoanCreated(\n        address indexed borrower,\n        uint256 indexed principalRequested,\n        address crowdloan,\n        string loanMetadataUrl,\n        address contractAdmin\n    );\n\n    function initialize(address _appContractAddress) public initializer {\n        app = App(_appContractAddress);\n    }\n\n    function _createCrowdloan(bytes memory _data, address admin) internal returns (address proxy) {\n        return address(app.create(ENABLE_CREDIT_PACKAGE, CROWDLOAN, admin, _data));\n    }\n\n    function deploy(\n        IERC20 principalToken,\n        uint256 principalRequested,\n        uint256 crowdfundLength,\n        uint256 crowdfundStart,\n        string calldata loanMetadataUrl,\n        address contractAdmin\n    ) external {\n        address crowdloan = _createCrowdloan(\"\", contractAdmin);\n\n        Crowdloan(crowdloan).initialize(\n            msg.sender,\n            crowdfundLength,\n            principalToken,\n            principalRequested,\n            loanMetadataUrl\n        );\n\n        emit LoanCreated(msg.sender, principalRequested, crowdloan, loanMetadataUrl, contractAdmin);\n    }\n}\n","sourcePath":"contracts/factory/CrowdloanFactory.sol","abi":[{"constant":false,"inputs":[{"internalType":"contract IERC20","name":"principalToken","type":"address"},{"internalType":"uint256","name":"principalRequested","type":"uint256"},{"internalType":"uint256","name":"crowdfundLength","type":"uint256"},{"internalType":"uint256","name":"crowdfundStart","type":"uint256"},{"internalType":"string","name":"loanMetadataUrl","type":"string"},{"internalType":"address","name":"contractAdmin","type":"address"}],"name":"deploy","outputs":[],"payable":false,"stateMutability":"nonpayable","type":"function"},{"constant":true,"inputs":[],"name":"app","outputs":[{"internalType":"contract App","name":"","type":"address"}],"payable":false,"stateMutability":"view","type":"function"},{"constant":false,"inputs":[{"internalType":"address","name":"_appContractAddress","type":"address"}],"name":"initialize","outputs":[],"payable":false,"stateMutability":"nonpayable","type":"function"},{"anonymous":false,"inputs":[{"indexed":true,"internalType":"address","name":"borrower","type":"address"},{"indexed":true,"internalType":"uint256","name":"principalRequested","type":"uint256"},{"indexed":false,"internalType":"address","name":"crowdloan","type":"address"},{"indexed":false,"internalType":"string","name":"loanMetadataUrl","type":"string"},{"indexed":false,"internalType":"address","name":"contractAdmin","type":"address"}],"name":"LoanCreated","type":"event"}],"bytecode":"0x60806040523480156100115760006000fd5b50610017565b610875806100266000396000f3fe60806040523480156100115760006000fd5b50600436106100465760003560e01c806329dbdf2c1461004c578063b76564bd14610129578063c4d66de81461017357610046565b60006000fd5b610127600480360360c08110156100635760006000fd5b81019080803573ffffffffffffffffffffffffffffffffffffffff169060200190929190803590602001909291908035906020019092919080359060200190929190803590602001906401000000008111156100bf5760006000fd5b8201836020820111156100d25760006000fd5b803590602001918460018302840111640100000000831117156100f55760006000fd5b90919293909091929390803573ffffffffffffffffffffffffffffffffffffffff1690602001909291905050506101b8565b005b6101316103dd565b604051808273ffffffffffffffffffffffffffffffffffffffff1673ffffffffffffffffffffffffffffffffffffffff16815260200191505060405180910390f35b6101b66004803603602081101561018a5760006000fd5b81019080803573ffffffffffffffffffffffffffffffffffffffff169060200190929190505050610403565b005b60006101dc604051806020016040528060008152602001508361055263ffffffff16565b90508073ffffffffffffffffffffffffffffffffffffffff16632b97792933888b8b89896040518763ffffffff1660e01b8152600401808773ffffffffffffffffffffffffffffffffffffffff1673ffffffffffffffffffffffffffffffffffffffff1681526020018681526020018573ffffffffffffffffffffffffffffffffffffffff1673ffffffffffffffffffffffffffffffffffffffff168152602001848152602001806020018281038252848482818152602001925080828437600081840152601f19601f820116905080830192505050975050505050505050600060405180830381600087803b1580156102d65760006000fd5b505af11580156102eb573d600060003e3d6000fd5b50505050863373ffffffffffffffffffffffffffffffffffffffff167f584cc7caa695038ed0d1644604cf95492114cef0d370c7ac0632f2999b05636f83878787604051808573ffffffffffffffffffffffffffffffffffffffff1673ffffffffffffffffffffffffffffffffffffffff168152602001806020018373ffffffffffffffffffffffffffffffffffffffff1673ffffffffffffffffffffffffffffffffffffffff1681526020018281038252858582818152602001925080828437600081840152601f19601f8201169050808301925050509550505050505060405180910390a3505b50505050505050565b603360009054906101000a900473ffffffffffffffffffffffffffffffffffffffff1681565b600060019054906101000a900460ff168061042857506104276107fa63ffffffff16565b5b806104405750600060009054906101000a900460ff16155b1515610497576040517f08c379a000000000000000000000000000000000000000000000000000000000815260040180806020018281038252602e815260200180610813602e913960400191505060405180910390fd5b6000600060019054906101000a900460ff1615905080156104e9576001600060016101000a81548160ff0219169083151502179055506001600060006101000a81548160ff0219169083151502179055505b81603360006101000a81548173ffffffffffffffffffffffffffffffffffffffff021916908373ffffffffffffffffffffffffffffffffffffffff1602179055505b801561054d576000600060016101000a81548160ff0219169083151502179055505b505b50565b6000603360009054906101000a900473ffffffffffffffffffffffffffffffffffffffff1673ffffffffffffffffffffffffffffffffffffffff1663cd3e318a6040518060400160405280600d81526020017f656e61626c652d637265646974000000000000000000000000000000000000008152602001506040518060400160405280600981526020017f43726f77646c6f616e000000000000000000000000000000000000000000000081526020015085876040518563ffffffff1660e01b81526004018080602001806020018573ffffffffffffffffffffffffffffffffffffffff1673ffffffffffffffffffffffffffffffffffffffff16815260200180602001848103845288818151815260200191508051906020019080838360005b838110156106905780820151818401525b602081019050610674565b50505050905090810190601f1680156106bd5780820380516001836020036101000a031916815260200191505b50848103835287818151815260200191508051906020019080838360005b838110156106f75780820151818401525b6020810190506106db565b50505050905090810190601f1680156107245780820380516001836020036101000a031916815260200191505b50848103825285818151815260200191508051906020019080838360005b8381101561075e5780820151818401525b602081019050610742565b50505050905090810190601f16801561078b5780820380516001836020036101000a031916815260200191505b50975050505050505050602060405180830381600087803b1580156107b05760006000fd5b505af11580156107c5573d600060003e3d6000fd5b505050506040513d60208110156107dc5760006000fd5b810190808051906020019092919050505090506107f4565b92915050565b60006000303b90506000811491505061080f56505b9056fe436f6e747261637420696e7374616e63652068617320616c7265616479206265656e20696e697469616c697a6564a265627a7a72315820ed1b0d4c26e8615d5225c6d3111ac3654083cb551f21ed565cb2c61a013ea65764736f6c634300050b0032","compiler":{"name":"solc","version":"0.5.11+commit.c082d0b4.Emscripten.clang","optimizer":{},"evmVersion":"constantinople"}}