{"fileName":"Crowdloan.sol","contractName":"Crowdloan","source":"pragma solidity ^0.5.2;\n\nimport \"openzeppelin-eth/contracts/math/SafeMath.sol\";\nimport \"openzeppelin-eth/contracts/token/ERC20/IERC20.sol\";\nimport \"openzeppelin-eth/contracts/utils/ReentrancyGuard.sol\";\nimport \"zos-lib/contracts/Initializable.sol\";\nimport \"../interface/ITermsContract.sol\";\nimport \"../interface/ICrowdloan.sol\";\nimport \"../interface/IRepaymentManager.sol\";\nimport \"../debt-contracts/TermsContractLib.sol\";\n\ncontract Crowdloan is Initializable, ICrowdloan, ReentrancyGuard {\n    using SafeMath for uint256;\n\n    using TermsContractLib for TermsContractLib.LoanParams;\n    using TermsContractLib for TermsContractLib.LoanStatus;\n\n    struct CrowdfundParams {\n        uint256 crowdfundLength;\n        uint256 crowdfundStart;\n    }\n\n    CrowdfundParams crowdfundParams;\n\n    ITermsContract public termsContract;\n    IRepaymentManager public repaymentManager;\n\n    modifier trackCrowdfundStatus() {\n        _updateCrowdfundStatus();\n        _;\n        _updateCrowdfundStatus();\n    }\n\n    function initialize(\n        address _termsContract,\n        address _repaymentManager,\n        uint256 _crowdfundLength,\n        uint256 _crowdfundStart\n    ) public initializer {\n        termsContract = ITermsContract(_termsContract);\n        repaymentManager = IRepaymentManager(_repaymentManager);\n        crowdfundParams = CrowdfundParams(_crowdfundLength, _crowdfundStart);\n    }\n\n    function getCrowdfundParams() public view returns (uint256, uint256) {\n        return (crowdfundParams.crowdfundLength, crowdfundParams.crowdfundStart);\n    }\n\n    function getCrowdfundEnd() public view returns (uint256) {\n        return (crowdfundParams.crowdfundStart.add(crowdfundParams.crowdfundLength));\n    }\n\n    /** TODO(Dan): Refactor while implementing Donation capability */\n    function getTotalCrowdfunded() public view returns (uint256 total) {\n        /** Note: this may return more than principalRequested because of native ERC20 transfers */\n        total = _getPrincipalToken().balanceOf(address(this));\n    }\n\n    function getBorrower() public view returns (address) {\n        return termsContract.borrower();\n    }\n\n    // @notice additional payment does not exceed the pricipal Amount\n    function _isBelowMaxSupply(uint256 amount) internal view returns (bool) {\n        uint256 principalRequested = termsContract.getPrincipalRequested();\n        return repaymentManager.totalShares().add(amount) <= principalRequested;\n    }\n\n    // @notice reconcile the loans funding status\n    function _updateCrowdfundStatus() internal {\n        uint256 principalRequested = termsContract.getPrincipalRequested();\n        uint256 totalShares = repaymentManager.totalShares();\n\n        if (\n            totalShares > 0 &&\n            totalShares < principalRequested &&\n            termsContract.getLoanStatus() < TermsContractLib.LoanStatus.FUNDING_FAILED\n        ) {\n            termsContract.setLoanStatus(TermsContractLib.LoanStatus.FUNDING_STARTED);\n        }\n    }\n\n    function _validatedERC20Transfer(IERC20 token, address _from, address _to, uint256 _amount)\n        internal\n    {\n        uint256 balance = token.balanceOf(_to);\n        if (_from == address(this)) {\n            token.transfer(_to, _amount);\n        } else {\n            token.transferFrom(_from, _to, _amount);\n        }\n        require(\n            token.balanceOf(_to) >= balance.add(_amount),\n            \"Recipient's token count did not increase\"\n        );\n    }\n\n    function _getPrincipalToken() internal view returns (IERC20 token) {\n        return IERC20(termsContract.getPrincipalToken());\n    }\n\n    function startCrowdfund() public {\n        require(msg.sender == getBorrower(), \"Only borrower can start crowdfund\");\n        require(\n            crowdfundParams.crowdfundStart == 0 || crowdfundParams.crowdfundStart > now,\n            \"KickOff already passed\"\n        );\n        crowdfundParams.crowdfundStart = now;\n        termsContract.setLoanStatus(TermsContractLib.LoanStatus.FUNDING_STARTED);\n    }\n\n    /// @notice Fund the loan in exchange for a debt token\n    /// @return repaymentManagerId Issued debt token ID\n    function fund(uint256 amount) public trackCrowdfundStatus returns (uint256) {\n        require(\n            termsContract.getLoanStatus() > TermsContractLib.LoanStatus.NOT_STARTED ||\n                crowdfundParams.crowdfundStart >= now,\n            \"Crowdfund not yet started\"\n        );\n        require(\n            termsContract.getLoanStatus() < TermsContractLib.LoanStatus.FUNDING_FAILED,\n            \"Crowdfund completed or failed\"\n        );\n        // require( getCrowdfundEnd() < now, \"Crowdfund period over\");\n        require(_isBelowMaxSupply(amount), \"Amount exceeds capital\");\n        _validatedERC20Transfer(_getPrincipalToken(), msg.sender, address(this), amount);\n        //Mint new debt token and transfer to sender\n        repaymentManager.increaseShares(msg.sender, amount);\n        emit Fund(msg.sender, amount);\n    }\n\n    /**\n     * @notice Withdraw method\n     */\n    function withdraw() public {\n        withdraw(_getPrincipalToken().balanceOf(address(this)));\n    }\n\n    // @notice Withdraw loan\n    function withdraw(uint256 amount) public {\n        require(\n            termsContract.getLoanStatus() > TermsContractLib.LoanStatus.FUNDING_FAILED,\n            \"Crowdfund not completed\"\n        );\n        require(msg.sender == termsContract.borrower(), \"Withdrawal only allowed for Borrower\");\n        uint256 contractBalance = _getPrincipalToken().balanceOf(address(this));\n        require(amount <= contractBalance, \"Amount exceeds available balance\");\n        if (termsContract.getLoanStatus() < TermsContractLib.LoanStatus.REPAYMENT_CYCLE) {\n            termsContract.startLoan(contractBalance);\n        }\n        _validatedERC20Transfer(_getPrincipalToken(), address(this), msg.sender, amount);\n        emit ReleaseFunds(msg.sender, amount);\n    }\n\n    /**\n     * @dev fallback function ***DO NOT OVERRIDE***\n     * Revert all native Ether payments\n     */\n    function() external payable {\n        revert(\"Ether not accepted\");\n    }\n}\n","sourcePath":"contracts/crowdloan/Crowdloan.sol","abi":[{"constant":true,"inputs":[],"name":"termsContract","outputs":[{"name":"","type":"address"}],"payable":false,"stateMutability":"view","type":"function"},{"constant":true,"inputs":[],"name":"getBorrower","outputs":[{"name":"","type":"address"}],"payable":false,"stateMutability":"view","type":"function"},{"constant":false,"inputs":[{"name":"amount","type":"uint256"}],"name":"withdraw","outputs":[],"payable":false,"stateMutability":"nonpayable","type":"function"},{"constant":false,"inputs":[],"name":"withdraw","outputs":[],"payable":false,"stateMutability":"nonpayable","type":"function"},{"constant":true,"inputs":[],"name":"repaymentManager","outputs":[{"name":"","type":"address"}],"payable":false,"stateMutability":"view","type":"function"},{"constant":false,"inputs":[],"name":"initialize","outputs":[],"payable":false,"stateMutability":"nonpayable","type":"function"},{"constant":true,"inputs":[],"name":"getCrowdfundEnd","outputs":[{"name":"","type":"uint256"}],"payable":false,"stateMutability":"view","type":"function"},{"constant":false,"inputs":[],"name":"startCrowdfund","outputs":[],"payable":false,"stateMutability":"nonpayable","type":"function"},{"constant":true,"inputs":[],"name":"getCrowdfundParams","outputs":[{"name":"","type":"uint256"},{"name":"","type":"uint256"}],"payable":false,"stateMutability":"view","type":"function"},{"constant":false,"inputs":[{"name":"amount","type":"uint256"}],"name":"fund","outputs":[{"name":"","type":"uint256"}],"payable":false,"stateMutability":"nonpayable","type":"function"},{"constant":false,"inputs":[{"name":"_termsContract","type":"address"},{"name":"_repaymentManager","type":"address"},{"name":"_crowdfundLength","type":"uint256"},{"name":"_crowdfundStart","type":"uint256"}],"name":"initialize","outputs":[],"payable":false,"stateMutability":"nonpayable","type":"function"},{"constant":true,"inputs":[],"name":"getTotalCrowdfunded","outputs":[{"name":"total","type":"uint256"}],"payable":false,"stateMutability":"view","type":"function"},{"payable":true,"stateMutability":"payable","type":"fallback"},{"anonymous":false,"inputs":[{"indexed":true,"name":"sender","type":"address"},{"indexed":false,"name":"amount","type":"uint256"}],"name":"Fund","type":"event"},{"anonymous":false,"inputs":[{"indexed":true,"name":"sender","type":"address"},{"indexed":false,"name":"amount","type":"uint256"}],"name":"Refund","type":"event"},{"anonymous":false,"inputs":[{"indexed":true,"name":"borrower","type":"address"},{"indexed":false,"name":"amount","type":"uint256"}],"name":"ReleaseFunds","type":"event"}],"bytecode":"0x60806040523480156100115760006000fd5b50610017565b611fc5806100266000396000f3fe6080604052600436106100ab5760003560e01c806390ec8bb91161006457806390ec8bb9146102945780639a593b9a146102c0578063c23d2007146102d8578063ca1d209d1461030b578063eb990c591461035c578063f752f322146103e3576100ab565b8063172a707b1461011f5780631cb0c3e7146101775780632e1a7d4d146101cf5780633ccfd60b1461020c5780635481288e146102245780638129fc1c1461027c576100ab565b5b6040517f08c379a00000000000000000000000000000000000000000000000000000000081526004018080602001828103825260128152602001807f4574686572206e6f74206163636570746564000000000000000000000000000081526020015060200191505060405180910390fd5b005b34801561012c5760006000fd5b5061013561040f565b604051808273ffffffffffffffffffffffffffffffffffffffff1673ffffffffffffffffffffffffffffffffffffffff16815260200191505060405180910390f35b3480156101845760006000fd5b5061018d610435565b604051808273ffffffffffffffffffffffffffffffffffffffff1673ffffffffffffffffffffffffffffffffffffffff16815260200191505060405180910390f35b3480156101dc5760006000fd5b5061020a600480360360208110156101f45760006000fd5b81019080803590602001909291905050506104e7565b005b3480156102195760006000fd5b50610222610a7a565b005b3480156102315760006000fd5b5061023a610b53565b604051808273ffffffffffffffffffffffffffffffffffffffff1673ffffffffffffffffffffffffffffffffffffffff16815260200191505060405180910390f35b3480156102895760006000fd5b50610292610b79565b005b3480156102a15760006000fd5b506102aa610c93565b6040518082815260200191505060405180910390f35b3480156102cd5760006000fd5b506102d6610cc8565b005b3480156102e55760006000fd5b506102ee610ea9565b604051808381526020018281526020019250505060405180910390f35b3480156103185760006000fd5b50610346600480360360208110156103305760006000fd5b8101908080359060200190929190505050610ed2565b6040518082815260200191505060405180910390f35b3480156103695760006000fd5b506103e1600480360360808110156103815760006000fd5b81019080803573ffffffffffffffffffffffffffffffffffffffff169060200190929190803573ffffffffffffffffffffffffffffffffffffffff169060200190929190803590602001909291908035906020019092919050505061132f565b005b3480156103f05760006000fd5b506103f9611500565b6040518082815260200191505060405180910390f35b606860009054906101000a900473ffffffffffffffffffffffffffffffffffffffff1681565b6000606860009054906101000a900473ffffffffffffffffffffffffffffffffffffffff1673ffffffffffffffffffffffffffffffffffffffff16637df1f1b96040518163ffffffff1660e01b815260040160206040518083038186803b1580156104a05760006000fd5b505afa1580156104b5573d600060003e3d6000fd5b505050506040513d60208110156104cc5760006000fd5b810190808051906020019092919050505090506104e4565b90565b600260058111156104f457fe5b606860009054906101000a900473ffffffffffffffffffffffffffffffffffffffff1673ffffffffffffffffffffffffffffffffffffffff1663acc1ab136040518163ffffffff1660e01b815260040160206040518083038186803b15801561055d5760006000fd5b505afa158015610572573d600060003e3d6000fd5b505050506040513d60208110156105895760006000fd5b810190808051906020019092919050505060058111156105a557fe5b11151561061d576040517f08c379a00000000000000000000000000000000000000000000000000000000081526004018080602001828103825260178152602001807f43726f776466756e64206e6f7420636f6d706c6574656400000000000000000081526020015060200191505060405180910390fd5b606860009054906101000a900473ffffffffffffffffffffffffffffffffffffffff1673ffffffffffffffffffffffffffffffffffffffff16637df1f1b96040518163ffffffff1660e01b815260040160206040518083038186803b1580156106865760006000fd5b505afa15801561069b573d600060003e3d6000fd5b505050506040513d60208110156106b25760006000fd5b810190808051906020019092919050505073ffffffffffffffffffffffffffffffffffffffff163373ffffffffffffffffffffffffffffffffffffffff16141515610748576040517f08c379a0000000000000000000000000000000000000000000000000000000008152600401808060200182810382526024815260200180611f176024913960400191505060405180910390fd5b60006107586115d263ffffffff16565b73ffffffffffffffffffffffffffffffffffffffff166370a08231306040518263ffffffff1660e01b8152600401808273ffffffffffffffffffffffffffffffffffffffff1673ffffffffffffffffffffffffffffffffffffffff16815260200191505060206040518083038186803b1580156107d55760006000fd5b505afa1580156107ea573d600060003e3d6000fd5b505050506040513d60208110156108015760006000fd5b8101908080519060200190929190505050905080821115151561088f576040517f08c379a00000000000000000000000000000000000000000000000000000000081526004018080602001828103825260208152602001807f416d6f756e74206578636565647320617661696c61626c652062616c616e636581526020015060200191505060405180910390fd5b6004600581111561089c57fe5b606860009054906101000a900473ffffffffffffffffffffffffffffffffffffffff1673ffffffffffffffffffffffffffffffffffffffff1663acc1ab136040518163ffffffff1660e01b815260040160206040518083038186803b1580156109055760006000fd5b505afa15801561091a573d600060003e3d6000fd5b505050506040513d60208110156109315760006000fd5b8101908080519060200190929190505050600581111561094d57fe5b1015610a0857606860009054906101000a900473ffffffffffffffffffffffffffffffffffffffff1673ffffffffffffffffffffffffffffffffffffffff1663b2f5db01826040518263ffffffff1660e01b815260040180828152602001915050602060405180830381600087803b1580156109c95760006000fd5b505af11580156109de573d600060003e3d6000fd5b505050506040513d60208110156109f55760006000fd5b8101908080519060200190929190505050505b610a27610a196115d263ffffffff16565b30338561168463ffffffff16565b3373ffffffffffffffffffffffffffffffffffffffff167f56a1572a4a0b9c7b0d647a77d80643a49879137d0d23879c4854d48d8d7d1cd8836040518082815260200191505060405180910390a2505b50565b610b50610a8b6115d263ffffffff16565b73ffffffffffffffffffffffffffffffffffffffff166370a08231306040518263ffffffff1660e01b8152600401808273ffffffffffffffffffffffffffffffffffffffff1673ffffffffffffffffffffffffffffffffffffffff16815260200191505060206040518083038186803b158015610b085760006000fd5b505afa158015610b1d573d600060003e3d6000fd5b505050506040513d6020811015610b345760006000fd5b81019080805190602001909291905050506104e763ffffffff16565b5b565b606960009054906101000a900473ffffffffffffffffffffffffffffffffffffffff1681565b600060019054906101000a900460ff1680610b9e5750610b9d611a6c63ffffffff16565b5b80610bb65750600060009054906101000a900460ff16155b1515610c0d576040517f08c379a000000000000000000000000000000000000000000000000000000000815260040180806020018281038252602e815260200180611f3b602e913960400191505060405180910390fd5b6000600060019054906101000a900460ff161590508015610c5f576001600060016101000a81548160ff0219169083151502179055506001600060006101000a81548160ff0219169083151502179055505b600160336000508190909055505b8015610c8f576000600060016101000a81548160ff0219169083151502179055505b505b565b6000610cbe606660005060000160005054606660005060010160005054611a8490919063ffffffff16565b9050610cc5565b90565b610cd661043563ffffffff16565b73ffffffffffffffffffffffffffffffffffffffff163373ffffffffffffffffffffffffffffffffffffffff16141515610d5b576040517f08c379a0000000000000000000000000000000000000000000000000000000008152600401808060200182810382526021815260200180611ef66021913960400191505060405180910390fd5b60006066600050600101600050541480610d7f575042606660005060010160005054115b1515610df6576040517f08c379a00000000000000000000000000000000000000000000000000000000081526004018080602001828103825260168152602001807f4b69636b4f666620616c7265616479207061737365640000000000000000000081526020015060200191505060405180910390fd5b426066600050600101600050819090905550606860009054906101000a900473ffffffffffffffffffffffffffffffffffffffff1673ffffffffffffffffffffffffffffffffffffffff1663e38be0c260016040518263ffffffff1660e01b815260040180826005811115610e6757fe5b60ff168152602001915050600060405180830381600087803b158015610e8d5760006000fd5b505af1158015610ea2573d600060003e3d6000fd5b505050505b565b6000600060666000506000016000505460666000506001016000505491509150610ece565b9091565b6000610ee2611aad63ffffffff16565b60006005811115610eef57fe5b606860009054906101000a900473ffffffffffffffffffffffffffffffffffffffff1673ffffffffffffffffffffffffffffffffffffffff1663acc1ab136040518163ffffffff1660e01b815260040160206040518083038186803b158015610f585760006000fd5b505afa158015610f6d573d600060003e3d6000fd5b505050506040513d6020811015610f845760006000fd5b81019080805190602001909291905050506005811115610fa057fe5b1180610fb757504260666000506001016000505410155b151561102e576040517f08c379a00000000000000000000000000000000000000000000000000000000081526004018080602001828103825260198152602001807f43726f776466756e64206e6f742079657420737461727465640000000000000081526020015060200191505060405180910390fd5b6002600581111561103b57fe5b606860009054906101000a900473ffffffffffffffffffffffffffffffffffffffff1673ffffffffffffffffffffffffffffffffffffffff1663acc1ab136040518163ffffffff1660e01b815260040160206040518083038186803b1580156110a45760006000fd5b505afa1580156110b9573d600060003e3d6000fd5b505050506040513d60208110156110d05760006000fd5b810190808051906020019092919050505060058111156110ec57fe5b101515611164576040517f08c379a000000000000000000000000000000000000000000000000000000000815260040180806020018281038252601d8152602001807f43726f776466756e6420636f6d706c65746564206f72206661696c656400000081526020015060200191505060405180910390fd5b61117382611d8063ffffffff16565b15156111ea576040517f08c379a00000000000000000000000000000000000000000000000000000000081526004018080602001828103825260168152602001807f416d6f756e742065786365656473206361706974616c0000000000000000000081526020015060200191505060405180910390fd5b6112096111fb6115d263ffffffff16565b33308561168463ffffffff16565b606960009054906101000a900473ffffffffffffffffffffffffffffffffffffffff1673ffffffffffffffffffffffffffffffffffffffff166386c011db33846040518363ffffffff1660e01b8152600401808373ffffffffffffffffffffffffffffffffffffffff1673ffffffffffffffffffffffffffffffffffffffff16815260200182815260200192505050600060405180830381600087803b1580156112b35760006000fd5b505af11580156112c8573d600060003e3d6000fd5b505050503373ffffffffffffffffffffffffffffffffffffffff167fda8220a878ff7a89474ccffdaa31ea1ed1ffbb0207d5051afccc4fbaf81f9bcd836040518082815260200191505060405180910390a25b611329611aad63ffffffff16565b5b919050565b600060019054906101000a900460ff16806113545750611353611a6c63ffffffff16565b5b8061136c5750600060009054906101000a900460ff16155b15156113c3576040517f08c379a000000000000000000000000000000000000000000000000000000000815260040180806020018281038252602e815260200180611f3b602e913960400191505060405180910390fd5b6000600060019054906101000a900460ff161590508015611415576001600060016101000a81548160ff0219169083151502179055506001600060006101000a81548160ff0219169083151502179055505b84606860006101000a81548173ffffffffffffffffffffffffffffffffffffffff021916908373ffffffffffffffffffffffffffffffffffffffff16021790555083606960006101000a81548173ffffffffffffffffffffffffffffffffffffffff021916908373ffffffffffffffffffffffffffffffffffffffff16021790555060405180604001604052808481526020018381526020015060666000506000820151816000016000509090556020820151816001016000509090559050505b80156114f8576000600060016101000a81548160ff0219169083151502179055505b505b50505050565b60006115106115d263ffffffff16565b73ffffffffffffffffffffffffffffffffffffffff166370a08231306040518263ffffffff1660e01b8152600401808273ffffffffffffffffffffffffffffffffffffffff1673ffffffffffffffffffffffffffffffffffffffff16815260200191505060206040518083038186803b15801561158d5760006000fd5b505afa1580156115a2573d600060003e3d6000fd5b505050506040513d60208110156115b95760006000fd5b8101908080519060200190929190505050905080505b90565b6000606860009054906101000a900473ffffffffffffffffffffffffffffffffffffffff1673ffffffffffffffffffffffffffffffffffffffff1663adb724bf6040518163ffffffff1660e01b815260040160206040518083038186803b15801561163d5760006000fd5b505afa158015611652573d600060003e3d6000fd5b505050506040513d60208110156116695760006000fd5b81019080805190602001909291905050509050611681565b90565b60008473ffffffffffffffffffffffffffffffffffffffff166370a08231846040518263ffffffff1660e01b8152600401808273ffffffffffffffffffffffffffffffffffffffff1673ffffffffffffffffffffffffffffffffffffffff16815260200191505060206040518083038186803b1580156117045760006000fd5b505afa158015611719573d600060003e3d6000fd5b505050506040513d60208110156117305760006000fd5b810190808051906020019092919050505090503073ffffffffffffffffffffffffffffffffffffffff168473ffffffffffffffffffffffffffffffffffffffff161415611842578473ffffffffffffffffffffffffffffffffffffffff1663a9059cbb84846040518363ffffffff1660e01b8152600401808373ffffffffffffffffffffffffffffffffffffffff1673ffffffffffffffffffffffffffffffffffffffff16815260200182815260200192505050602060405180830381600087803b1580156117ff5760006000fd5b505af1158015611814573d600060003e3d6000fd5b505050506040513d602081101561182b5760006000fd5b81019080805190602001909291905050505061193d565b8473ffffffffffffffffffffffffffffffffffffffff166323b872dd8585856040518463ffffffff1660e01b8152600401808473ffffffffffffffffffffffffffffffffffffffff1673ffffffffffffffffffffffffffffffffffffffff1681526020018373ffffffffffffffffffffffffffffffffffffffff1673ffffffffffffffffffffffffffffffffffffffff1681526020018281526020019350505050602060405180830381600087803b1580156118fe5760006000fd5b505af1158015611913573d600060003e3d6000fd5b505050506040513d602081101561192a5760006000fd5b8101908080519060200190929190505050505b6119508282611a8490919063ffffffff16565b8573ffffffffffffffffffffffffffffffffffffffff166370a08231856040518263ffffffff1660e01b8152600401808273ffffffffffffffffffffffffffffffffffffffff1673ffffffffffffffffffffffffffffffffffffffff16815260200191505060206040518083038186803b1580156119ce5760006000fd5b505afa1580156119e3573d600060003e3d6000fd5b505050506040513d60208110156119fa5760006000fd5b810190808051906020019092919050505010151515611a64576040517f08c379a0000000000000000000000000000000000000000000000000000000008152600401808060200182810382526028815260200180611f696028913960400191505060405180910390fd5b505b50505050565b60006000303b905060008114915050611a8156505b90565b600060008284019050838110151515611a9d5760006000fd5b80915050611aa756505b92915050565b6000606860009054906101000a900473ffffffffffffffffffffffffffffffffffffffff1673ffffffffffffffffffffffffffffffffffffffff16637340435b6040518163ffffffff1660e01b815260040160206040518083038186803b158015611b185760006000fd5b505afa158015611b2d573d600060003e3d6000fd5b505050506040513d6020811015611b445760006000fd5b810190808051906020019092919050505090506000606960009054906101000a900473ffffffffffffffffffffffffffffffffffffffff1673ffffffffffffffffffffffffffffffffffffffff16633a98ef396040518163ffffffff1660e01b815260040160206040518083038186803b158015611bc25760006000fd5b505afa158015611bd7573d600060003e3d6000fd5b505050506040513d6020811015611bee5760006000fd5b81019080805190602001909291905050509050600081118015611c1057508181105b8015611cd7575060026005811115611c2457fe5b606860009054906101000a900473ffffffffffffffffffffffffffffffffffffffff1673ffffffffffffffffffffffffffffffffffffffff1663acc1ab136040518163ffffffff1660e01b815260040160206040518083038186803b158015611c8d5760006000fd5b505afa158015611ca2573d600060003e3d6000fd5b505050506040513d6020811015611cb95760006000fd5b81019080805190602001909291905050506005811115611cd557fe5b105b15611d7b57606860009054906101000a900473ffffffffffffffffffffffffffffffffffffffff1673ffffffffffffffffffffffffffffffffffffffff1663e38be0c260016040518263ffffffff1660e01b815260040180826005811115611d3b57fe5b60ff168152602001915050600060405180830381600087803b158015611d615760006000fd5b505af1158015611d76573d600060003e3d6000fd5b505050505b50505b565b60006000606860009054906101000a900473ffffffffffffffffffffffffffffffffffffffff1673ffffffffffffffffffffffffffffffffffffffff16637340435b6040518163ffffffff1660e01b815260040160206040518083038186803b158015611ded5760006000fd5b505afa158015611e02573d600060003e3d6000fd5b505050506040513d6020811015611e195760006000fd5b8101908080519060200190929190505050905080611ee584606960009054906101000a900473ffffffffffffffffffffffffffffffffffffffff1673ffffffffffffffffffffffffffffffffffffffff16633a98ef396040518163ffffffff1660e01b815260040160206040518083038186803b158015611e9a5760006000fd5b505afa158015611eaf573d600060003e3d6000fd5b505050506040513d6020811015611ec65760006000fd5b8101908080519060200190929190505050611a8490919063ffffffff16565b1115915050611ef056505b91905056fe4f6e6c7920626f72726f7765722063616e2073746172742063726f776466756e645769746864726177616c206f6e6c7920616c6c6f77656420666f7220426f72726f776572436f6e747261637420696e7374616e63652068617320616c7265616479206265656e20696e697469616c697a6564526563697069656e74277320746f6b656e20636f756e7420646964206e6f7420696e637265617365a265627a7a72305820fcd32d7f869e2d146b47d8b37789ef6f5f63db51bf1fcb676ec68a0641bbabff64736f6c634300050a0032","compiler":{"name":"solc","version":"0.5.10+commit.5a6ea5b1.Emscripten.clang","optimizer":{},"evmVersion":"constantinople"}}