{
  "contractName": "Crowdloan",
  "abi": [
    {
      "constant": true,
      "inputs": [],
      "name": "termsContract",
      "outputs": [
        {
          "internalType": "contract ITermsContract",
          "name": "",
          "type": "address"
        }
      ],
      "payable": false,
      "stateMutability": "view",
      "type": "function"
    },
    {
      "constant": true,
      "inputs": [],
      "name": "WITHDRAW_WINDOW",
      "outputs": [
        {
          "internalType": "uint256",
          "name": "",
          "type": "uint256"
        }
      ],
      "payable": false,
      "stateMutability": "view",
      "type": "function"
    },
    {
      "constant": true,
      "inputs": [],
      "name": "repaymentManager",
      "outputs": [
        {
          "internalType": "contract IRepaymentManager",
          "name": "",
          "type": "address"
        }
      ],
      "payable": false,
      "stateMutability": "view",
      "type": "function"
    },
    {
      "payable": true,
      "stateMutability": "payable",
      "type": "fallback"
    },
    {
      "anonymous": false,
      "inputs": [
        {
          "indexed": true,
          "internalType": "address",
          "name": "sender",
          "type": "address"
        },
        {
          "indexed": false,
          "internalType": "uint256",
          "name": "amount",
          "type": "uint256"
        }
      ],
      "name": "Fund",
      "type": "event"
    },
    {
      "anonymous": false,
      "inputs": [
        {
          "indexed": true,
          "internalType": "address",
          "name": "sender",
          "type": "address"
        },
        {
          "indexed": false,
          "internalType": "uint256",
          "name": "amount",
          "type": "uint256"
        }
      ],
      "name": "Refund",
      "type": "event"
    },
    {
      "anonymous": false,
      "inputs": [
        {
          "indexed": true,
          "internalType": "address",
          "name": "borrower",
          "type": "address"
        },
        {
          "indexed": false,
          "internalType": "uint256",
          "name": "amount",
          "type": "uint256"
        }
      ],
      "name": "ReleaseFunds",
      "type": "event"
    },
    {
      "constant": false,
      "inputs": [
        {
          "internalType": "address",
          "name": "_termsContract",
          "type": "address"
        },
        {
          "internalType": "address",
          "name": "_repaymentManager",
          "type": "address"
        },
        {
          "internalType": "uint256",
          "name": "_crowdfundLength",
          "type": "uint256"
        },
        {
          "internalType": "uint256",
          "name": "_crowdfundStart",
          "type": "uint256"
        }
      ],
      "name": "initialize",
      "outputs": [],
      "payable": false,
      "stateMutability": "nonpayable",
      "type": "function"
    },
    {
      "constant": false,
      "inputs": [],
      "name": "initialize",
      "outputs": [],
      "payable": false,
      "stateMutability": "nonpayable",
      "type": "function"
    },
    {
      "constant": true,
      "inputs": [],
      "name": "getCrowdfundParams",
      "outputs": [
        {
          "internalType": "uint256",
          "name": "",
          "type": "uint256"
        },
        {
          "internalType": "uint256",
          "name": "",
          "type": "uint256"
        }
      ],
      "payable": false,
      "stateMutability": "view",
      "type": "function"
    },
    {
      "constant": true,
      "inputs": [],
      "name": "getCrowdfundEnd",
      "outputs": [
        {
          "internalType": "uint256",
          "name": "",
          "type": "uint256"
        }
      ],
      "payable": false,
      "stateMutability": "view",
      "type": "function"
    },
    {
      "constant": true,
      "inputs": [],
      "name": "getBorrower",
      "outputs": [
        {
          "internalType": "address",
          "name": "",
          "type": "address"
        }
      ],
      "payable": false,
      "stateMutability": "view",
      "type": "function"
    },
    {
      "constant": false,
      "inputs": [],
      "name": "startCrowdfund",
      "outputs": [],
      "payable": false,
      "stateMutability": "nonpayable",
      "type": "function"
    },
    {
      "constant": false,
      "inputs": [],
      "name": "rejectCrowdfund",
      "outputs": [],
      "payable": false,
      "stateMutability": "nonpayable",
      "type": "function"
    },
    {
      "constant": false,
      "inputs": [
        {
          "internalType": "uint256",
          "name": "amount",
          "type": "uint256"
        }
      ],
      "name": "fund",
      "outputs": [
        {
          "internalType": "uint256",
          "name": "",
          "type": "uint256"
        }
      ],
      "payable": false,
      "stateMutability": "nonpayable",
      "type": "function"
    },
    {
      "constant": false,
      "inputs": [
        {
          "internalType": "uint256",
          "name": "amount",
          "type": "uint256"
        }
      ],
      "name": "refund",
      "outputs": [],
      "payable": false,
      "stateMutability": "nonpayable",
      "type": "function"
    },
    {
      "constant": false,
      "inputs": [],
      "name": "withdraw",
      "outputs": [],
      "payable": false,
      "stateMutability": "nonpayable",
      "type": "function"
    },
    {
      "constant": false,
      "inputs": [
        {
          "internalType": "uint256",
          "name": "amount",
          "type": "uint256"
        }
      ],
      "name": "withdraw",
      "outputs": [],
      "payable": false,
      "stateMutability": "nonpayable",
      "type": "function"
    }
  ],
  "bytecode": "0x608060405234801561001057600080fd5b50612950806100206000396000f3fe6080604052600436106100dd5760003560e01c80638129fc1c1161007f578063c23d200711610059578063c23d200714610361578063ca1d209d14610393578063df895e59146103e2578063eb990c59146103f9576100dd565b80638129fc1c1461030857806390ec8bb91461031f5780639a593b9a1461034a576100dd565b80632e1a7d4d116100bb5780632e1a7d4d1461023457806330f812501461026f5780633ccfd60b1461029a5780635481288e146102b1576100dd565b8063172a707b1461014b5780631cb0c3e7146101a2578063278ecde1146101f9575b6040517f08c379a00000000000000000000000000000000000000000000000000000000081526004018080602001828103825260128152602001807f4574686572206e6f74206163636570746564000000000000000000000000000081525060200191505060405180910390fd5b34801561015757600080fd5b5061016061047e565b604051808273ffffffffffffffffffffffffffffffffffffffff1673ffffffffffffffffffffffffffffffffffffffff16815260200191505060405180910390f35b3480156101ae57600080fd5b506101b76104a4565b604051808273ffffffffffffffffffffffffffffffffffffffff1673ffffffffffffffffffffffffffffffffffffffff16815260200191505060405180910390f35b34801561020557600080fd5b506102326004803603602081101561021c57600080fd5b810190808035906020019092919050505061054e565b005b34801561024057600080fd5b5061026d6004803603602081101561025757600080fd5b8101908080359060200190929190505050610a0b565b005b34801561027b57600080fd5b50610284611037565b6040518082815260200191505060405180910390f35b3480156102a657600080fd5b506102af61103e565b005b3480156102bd57600080fd5b506102c6611107565b604051808273ffffffffffffffffffffffffffffffffffffffff1673ffffffffffffffffffffffffffffffffffffffff16815260200191505060405180910390f35b34801561031457600080fd5b5061031d61112d565b005b34801561032b57600080fd5b50610334611234565b6040518082815260200191505060405180910390f35b34801561035657600080fd5b5061035f611258565b005b34801561036d57600080fd5b50610376611415565b604051808381526020018281526020019250505060405180910390f35b34801561039f57600080fd5b506103cc600480360360208110156103b657600080fd5b810190808035906020019092919050505061142c565b6040518082815260200191505060405180910390f35b3480156103ee57600080fd5b506103f761186d565b005b34801561040557600080fd5b5061047c6004803603608081101561041c57600080fd5b81019080803573ffffffffffffffffffffffffffffffffffffffff169060200190929190803573ffffffffffffffffffffffffffffffffffffffff1690602001909291908035906020019092919080359060200190929190505050611b24565b005b606860009054906101000a900473ffffffffffffffffffffffffffffffffffffffff1681565b6000606860009054906101000a900473ffffffffffffffffffffffffffffffffffffffff1673ffffffffffffffffffffffffffffffffffffffff16631cb0c3e76040518163ffffffff1660e01b815260040160206040518083038186803b15801561050e57600080fd5b505afa158015610522573d6000803e3d6000fd5b505050506040513d602081101561053857600080fd5b8101908080519060200190929190505050905090565b6004600581111561055b57fe5b606860009054906101000a900473ffffffffffffffffffffffffffffffffffffffff1673ffffffffffffffffffffffffffffffffffffffff1663acc1ab136040518163ffffffff1660e01b815260040160206040518083038186803b1580156105c357600080fd5b505afa1580156105d7573d6000803e3d6000fd5b505050506040513d60208110156105ed57600080fd5b8101908080519060200190929190505050600581111561060957fe5b1061065f576040517f08c379a000000000000000000000000000000000000000000000000000000000815260040180806020018281038252602b815260200180612824602b913960400191505060405180910390fd5b610667611cd7565b6002600581111561067457fe5b606860009054906101000a900473ffffffffffffffffffffffffffffffffffffffff1673ffffffffffffffffffffffffffffffffffffffff1663acc1ab136040518163ffffffff1660e01b815260040160206040518083038186803b1580156106dc57600080fd5b505afa1580156106f0573d6000803e3d6000fd5b505050506040513d602081101561070657600080fd5b8101908080519060200190929190505050600581111561072257fe5b14610778576040517f08c379a00000000000000000000000000000000000000000000000000000000081526004018080602001828103825260258152602001806128946025913960400191505060405180910390fd5b80606960009054906101000a900473ffffffffffffffffffffffffffffffffffffffff1673ffffffffffffffffffffffffffffffffffffffff1663ce7c2ac2336040518263ffffffff1660e01b8152600401808273ffffffffffffffffffffffffffffffffffffffff1673ffffffffffffffffffffffffffffffffffffffff16815260200191505060206040518083038186803b15801561081857600080fd5b505afa15801561082c573d6000803e3d6000fd5b505050506040513d602081101561084257600080fd5b810190808051906020019092919050505010156108c7576040517f08c379a000000000000000000000000000000000000000000000000000000000815260040180806020018281038252601b8152602001807f416d6f756e742065786365656473206f776e656420736861726573000000000081525060200191505060405180910390fd5b606960009054906101000a900473ffffffffffffffffffffffffffffffffffffffff1673ffffffffffffffffffffffffffffffffffffffff166387983d1333836040518363ffffffff1660e01b8152600401808373ffffffffffffffffffffffffffffffffffffffff1673ffffffffffffffffffffffffffffffffffffffff16815260200182815260200192505050600060405180830381600087803b15801561097057600080fd5b505af1158015610984573d6000803e3d6000fd5b505050506109ba3382610995611e5f565b73ffffffffffffffffffffffffffffffffffffffff16611f099092919063ffffffff16565b3373ffffffffffffffffffffffffffffffffffffffff167fbb28353e4598c3b9199101a66e0989549b659a59a54d2c27fbb183f1932c8e6d826040518082815260200191505060405180910390a250565b60026005811115610a1857fe5b606860009054906101000a900473ffffffffffffffffffffffffffffffffffffffff1673ffffffffffffffffffffffffffffffffffffffff1663acc1ab136040518163ffffffff1660e01b815260040160206040518083038186803b158015610a8057600080fd5b505afa158015610a94573d6000803e3d6000fd5b505050506040513d6020811015610aaa57600080fd5b81019080805190602001909291905050506005811115610ac657fe5b11610b39576040517f08c379a00000000000000000000000000000000000000000000000000000000081526004018080602001828103825260178152602001807f43726f776466756e64206e6f7420636f6d706c6574656400000000000000000081525060200191505060405180910390fd5b6000606860009054906101000a900473ffffffffffffffffffffffffffffffffffffffff1673ffffffffffffffffffffffffffffffffffffffff16631cb0c3e76040518163ffffffff1660e01b815260040160206040518083038186803b158015610ba357600080fd5b505afa158015610bb7573d6000803e3d6000fd5b505050506040513d6020811015610bcd57600080fd5b81019080805190602001909291905050509050606860009054906101000a900473ffffffffffffffffffffffffffffffffffffffff1673ffffffffffffffffffffffffffffffffffffffff16631cb0c3e76040518163ffffffff1660e01b815260040160206040518083038186803b158015610c4857600080fd5b505afa158015610c5c573d6000803e3d6000fd5b505050506040513d6020811015610c7257600080fd5b810190808051906020019092919050505073ffffffffffffffffffffffffffffffffffffffff163373ffffffffffffffffffffffffffffffffffffffff1614610d06576040517f08c379a00000000000000000000000000000000000000000000000000000000081526004018080602001828103825260248152602001806128006024913960400191505060405180910390fd5b6000610d10611e5f565b73ffffffffffffffffffffffffffffffffffffffff166370a08231306040518263ffffffff1660e01b8152600401808273ffffffffffffffffffffffffffffffffffffffff1673ffffffffffffffffffffffffffffffffffffffff16815260200191505060206040518083038186803b158015610d8c57600080fd5b505afa158015610da0573d6000803e3d6000fd5b505050506040513d6020811015610db657600080fd5b8101908080519060200190929190505050905080831115610e3f576040517f08c379a00000000000000000000000000000000000000000000000000000000081526004018080602001828103825260208152602001807f416d6f756e74206578636565647320617661696c61626c652062616c616e636581525060200191505060405180910390fd5b60046005811115610e4c57fe5b606860009054906101000a900473ffffffffffffffffffffffffffffffffffffffff1673ffffffffffffffffffffffffffffffffffffffff1663acc1ab136040518163ffffffff1660e01b815260040160206040518083038186803b158015610eb457600080fd5b505afa158015610ec8573d6000803e3d6000fd5b505050506040513d6020811015610ede57600080fd5b81019080805190602001909291905050506005811115610efa57fe5b1015610fb257606860009054906101000a900473ffffffffffffffffffffffffffffffffffffffff1673ffffffffffffffffffffffffffffffffffffffff1663d5a3e232826040518263ffffffff1660e01b815260040180828152602001915050602060405180830381600087803b158015610f7557600080fd5b505af1158015610f89573d6000803e3d6000fd5b505050506040513d6020811015610f9f57600080fd5b8101908080519060200190929190505050505b610fe48284610fbf611e5f565b73ffffffffffffffffffffffffffffffffffffffff16611f099092919063ffffffff16565b3373ffffffffffffffffffffffffffffffffffffffff167f56a1572a4a0b9c7b0d647a77d80643a49879137d0d23879c4854d48d8d7d1cd8846040518082815260200191505060405180910390a2505050565b6203f48081565b611105611049611e5f565b73ffffffffffffffffffffffffffffffffffffffff166370a08231306040518263ffffffff1660e01b8152600401808273ffffffffffffffffffffffffffffffffffffffff1673ffffffffffffffffffffffffffffffffffffffff16815260200191505060206040518083038186803b1580156110c557600080fd5b505afa1580156110d9573d6000803e3d6000fd5b505050506040513d60208110156110ef57600080fd5b8101908080519060200190929190505050610a0b565b565b606960009054906101000a900473ffffffffffffffffffffffffffffffffffffffff1681565b600060019054906101000a900460ff168061114c575061114b611fda565b5b8061116357506000809054906101000a900460ff16155b6111b8576040517f08c379a000000000000000000000000000000000000000000000000000000000815260040180806020018281038252602e8152602001806128b9602e913960400191505060405180910390fd5b60008060019054906101000a900460ff161590508015611208576001600060016101000a81548160ff02191690831515021790555060016000806101000a81548160ff0219169083151502179055505b600160338190555080156112315760008060016101000a81548160ff0219169083151502179055505b50565b6000611253606660000154606660010154611feb90919063ffffffff16565b905090565b60006066600101541480611270575042606660010154115b6112e2576040517f08c379a00000000000000000000000000000000000000000000000000000000081526004018080602001828103825260168152602001807f4b69636b4f666620616c7265616479207061737365640000000000000000000081525060200191505060405180910390fd5b6112ea6104a4565b73ffffffffffffffffffffffffffffffffffffffff163373ffffffffffffffffffffffffffffffffffffffff161461136d576040517f08c379a00000000000000000000000000000000000000000000000000000000081526004018080602001828103825260218152602001806127df6021913960400191505060405180910390fd5b42606660010181905550606860009054906101000a900473ffffffffffffffffffffffffffffffffffffffff1673ffffffffffffffffffffffffffffffffffffffff1663e38be0c260016040518263ffffffff1660e01b8152600401808260058111156113d657fe5b60ff168152602001915050600060405180830381600087803b1580156113fb57600080fd5b505af115801561140f573d6000803e3d6000fd5b50505050565b600080606660000154606660010154915091509091565b600061143661200a565b6000600581111561144357fe5b606860009054906101000a900473ffffffffffffffffffffffffffffffffffffffff1673ffffffffffffffffffffffffffffffffffffffff1663acc1ab136040518163ffffffff1660e01b815260040160206040518083038186803b1580156114ab57600080fd5b505afa1580156114bf573d6000803e3d6000fd5b505050506040513d60208110156114d557600080fd5b810190808051906020019092919050505060058111156114f157fe5b118061150257504260666001015410155b611574576040517f08c379a00000000000000000000000000000000000000000000000000000000081526004018080602001828103825260198152602001807f43726f776466756e64206e6f742079657420737461727465640000000000000081525060200191505060405180910390fd5b6002600581111561158157fe5b606860009054906101000a900473ffffffffffffffffffffffffffffffffffffffff1673ffffffffffffffffffffffffffffffffffffffff1663acc1ab136040518163ffffffff1660e01b815260040160206040518083038186803b1580156115e957600080fd5b505afa1580156115fd573d6000803e3d6000fd5b505050506040513d602081101561161357600080fd5b8101908080519060200190929190505050600581111561162f57fe5b106116a2576040517f08c379a000000000000000000000000000000000000000000000000000000000815260040180806020018281038252601d8152602001807f43726f776466756e6420636f6d706c65746564206f72206661696c656400000081525060200191505060405180910390fd5b6116ab82612430565b61171d576040517f08c379a00000000000000000000000000000000000000000000000000000000081526004018080602001828103825260168152602001807f416d6f756e742065786365656473206361706974616c0000000000000000000081525060200191505060405180910390fd5b61175133308461172b611e5f565b73ffffffffffffffffffffffffffffffffffffffff16612598909392919063ffffffff16565b606960009054906101000a900473ffffffffffffffffffffffffffffffffffffffff1673ffffffffffffffffffffffffffffffffffffffff166386c011db33846040518363ffffffff1660e01b8152600401808373ffffffffffffffffffffffffffffffffffffffff1673ffffffffffffffffffffffffffffffffffffffff16815260200182815260200192505050600060405180830381600087803b1580156117fa57600080fd5b505af115801561180e573d6000803e3d6000fd5b505050503373ffffffffffffffffffffffffffffffffffffffff167fda8220a878ff7a89474ccffdaa31ea1ed1ffbb0207d5051afccc4fbaf81f9bcd836040518082815260200191505060405180910390a261186861200a565b919050565b6118756104a4565b73ffffffffffffffffffffffffffffffffffffffff163373ffffffffffffffffffffffffffffffffffffffff16146118f8576040517f08c379a000000000000000000000000000000000000000000000000000000000815260040180806020018281038252602281526020018061284f6022913960400191505060405180910390fd5b6004600581111561190557fe5b606860009054906101000a900473ffffffffffffffffffffffffffffffffffffffff1673ffffffffffffffffffffffffffffffffffffffff1663acc1ab136040518163ffffffff1660e01b815260040160206040518083038186803b15801561196d57600080fd5b505afa158015611981573d6000803e3d6000fd5b505050506040513d602081101561199757600080fd5b810190808051906020019092919050505060058111156119b357fe5b10611a09576040517f08c379a00000000000000000000000000000000000000000000000000000000081526004018080602001828103825260358152602001806128e76035913960400191505060405180910390fd5b611a11611cd7565b60026005811115611a1e57fe5b606860009054906101000a900473ffffffffffffffffffffffffffffffffffffffff1673ffffffffffffffffffffffffffffffffffffffff1663acc1ab136040518163ffffffff1660e01b815260040160206040518083038186803b158015611a8657600080fd5b505afa158015611a9a573d6000803e3d6000fd5b505050506040513d6020811015611ab057600080fd5b81019080805190602001909291905050506005811115611acc57fe5b14611b22576040517f08c379a00000000000000000000000000000000000000000000000000000000081526004018080602001828103825260238152602001806128716023913960400191505060405180910390fd5b565b600060019054906101000a900460ff1680611b435750611b42611fda565b5b80611b5a57506000809054906101000a900460ff16155b611baf576040517f08c379a000000000000000000000000000000000000000000000000000000000815260040180806020018281038252602e8152602001806128b9602e913960400191505060405180910390fd5b60008060019054906101000a900460ff161590508015611bff576001600060016101000a81548160ff02191690831515021790555060016000806101000a81548160ff0219169083151502179055505b84606860006101000a81548173ffffffffffffffffffffffffffffffffffffffff021916908373ffffffffffffffffffffffffffffffffffffffff16021790555083606960006101000a81548173ffffffffffffffffffffffffffffffffffffffff021916908373ffffffffffffffffffffffffffffffffffffffff160217905550604051806040016040528084815260200183815250606660008201518160000155602082015181600101559050508015611cd05760008060016101000a81548160ff0219169083151502179055505b5050505050565b60046005811115611ce457fe5b606860009054906101000a900473ffffffffffffffffffffffffffffffffffffffff1673ffffffffffffffffffffffffffffffffffffffff1663acc1ab136040518163ffffffff1660e01b815260040160206040518083038186803b158015611d4c57600080fd5b505afa158015611d60573d6000803e3d6000fd5b505050506040513d6020811015611d7657600080fd5b81019080805190602001909291905050506005811115611d9257fe5b108015611dbb5750611db76203f480611da9611234565b611feb90919063ffffffff16565b4210155b15611e5d57606860009054906101000a900473ffffffffffffffffffffffffffffffffffffffff1673ffffffffffffffffffffffffffffffffffffffff1663e38be0c260026040518263ffffffff1660e01b815260040180826005811115611e1f57fe5b60ff168152602001915050600060405180830381600087803b158015611e4457600080fd5b505af1158015611e58573d6000803e3d6000fd5b505050505b565b6000606860009054906101000a900473ffffffffffffffffffffffffffffffffffffffff1673ffffffffffffffffffffffffffffffffffffffff1663adb724bf6040518163ffffffff1660e01b815260040160206040518083038186803b158015611ec957600080fd5b505afa158015611edd573d6000803e3d6000fd5b505050506040513d6020811015611ef357600080fd5b8101908080519060200190929190505050905090565b611fd5838473ffffffffffffffffffffffffffffffffffffffff1663a9059cbb905060e01b8484604051602401808373ffffffffffffffffffffffffffffffffffffffff1673ffffffffffffffffffffffffffffffffffffffff16815260200182815260200192505050604051602081830303815290604052907bffffffffffffffffffffffffffffffffffffffffffffffffffffffff19166020820180517bffffffffffffffffffffffffffffffffffffffffffffffffffffffff838183161783525050505061269e565b505050565b600080303b90506000811491505090565b60008082840190508381101561200057600080fd5b8091505092915050565b6000606860009054906101000a900473ffffffffffffffffffffffffffffffffffffffff1673ffffffffffffffffffffffffffffffffffffffff16637340435b6040518163ffffffff1660e01b815260040160206040518083038186803b15801561207457600080fd5b505afa158015612088573d6000803e3d6000fd5b505050506040513d602081101561209e57600080fd5b810190808051906020019092919050505090506000606960009054906101000a900473ffffffffffffffffffffffffffffffffffffffff1673ffffffffffffffffffffffffffffffffffffffff16633a98ef396040518163ffffffff1660e01b815260040160206040518083038186803b15801561211b57600080fd5b505afa15801561212f573d6000803e3d6000fd5b505050506040513d602081101561214557600080fd5b810190808051906020019092919050505090506000606960009054906101000a900473ffffffffffffffffffffffffffffffffffffffff1673ffffffffffffffffffffffffffffffffffffffff1663e7b0f6666040518163ffffffff1660e01b815260040160206040518083038186803b1580156121c257600080fd5b505afa1580156121d6573d6000803e3d6000fd5b505050506040513d60208110156121ec57600080fd5b8101908080519060200190929190505050905060008211801561220e57508282105b80156122d257506002600581111561222257fe5b606860009054906101000a900473ffffffffffffffffffffffffffffffffffffffff1673ffffffffffffffffffffffffffffffffffffffff1663acc1ab136040518163ffffffff1660e01b815260040160206040518083038186803b15801561228a57600080fd5b505afa15801561229e573d6000803e3d6000fd5b505050506040513d60208110156122b457600080fd5b810190808051906020019092919050505060058111156122d057fe5b105b1561237857606860009054906101000a900473ffffffffffffffffffffffffffffffffffffffff1673ffffffffffffffffffffffffffffffffffffffff1663e38be0c260016040518263ffffffff1660e01b81526004018082600581111561233657fe5b60ff168152602001915050600060405180830381600087803b15801561235b57600080fd5b505af115801561236f573d6000803e3d6000fd5b5050505061242b565b8282101580156123885750600081145b1561242a57606860009054906101000a900473ffffffffffffffffffffffffffffffffffffffff1673ffffffffffffffffffffffffffffffffffffffff1663e38be0c260036040518263ffffffff1660e01b8152600401808260058111156123ec57fe5b60ff168152602001915050600060405180830381600087803b15801561241157600080fd5b505af1158015612425573d6000803e3d6000fd5b505050505b5b505050565b600080606860009054906101000a900473ffffffffffffffffffffffffffffffffffffffff1673ffffffffffffffffffffffffffffffffffffffff16637340435b6040518163ffffffff1660e01b815260040160206040518083038186803b15801561249b57600080fd5b505afa1580156124af573d6000803e3d6000fd5b505050506040513d60208110156124c557600080fd5b810190808051906020019092919050505090508061258e84606960009054906101000a900473ffffffffffffffffffffffffffffffffffffffff1673ffffffffffffffffffffffffffffffffffffffff16633a98ef396040518163ffffffff1660e01b815260040160206040518083038186803b15801561254557600080fd5b505afa158015612559573d6000803e3d6000fd5b505050506040513d602081101561256f57600080fd5b8101908080519060200190929190505050611feb90919063ffffffff16565b1115915050919050565b612698848573ffffffffffffffffffffffffffffffffffffffff166323b872dd905060e01b858585604051602401808473ffffffffffffffffffffffffffffffffffffffff1673ffffffffffffffffffffffffffffffffffffffff1681526020018373ffffffffffffffffffffffffffffffffffffffff1673ffffffffffffffffffffffffffffffffffffffff1681526020018281526020019350505050604051602081830303815290604052907bffffffffffffffffffffffffffffffffffffffffffffffffffffffff19166020820180517bffffffffffffffffffffffffffffffffffffffffffffffffffffffff838183161783525050505061269e565b50505050565b6126bd8273ffffffffffffffffffffffffffffffffffffffff166127cb565b6126c657600080fd5b600060608373ffffffffffffffffffffffffffffffffffffffff16836040518082805190602001908083835b6020831061271557805182526020820191506020810190506020830392506126f2565b6001836020036101000a0380198251168184511680821785525050505050509050019150506000604051808303816000865af19150503d8060008114612777576040519150601f19603f3d011682016040523d82523d6000602084013e61277c565b606091505b50915091508161278b57600080fd5b6000815111156127c5578080602001905160208110156127aa57600080fd5b81019080805190602001909291905050506127c457600080fd5b5b50505050565b600080823b90506000811191505091905056fe4f6e6c7920626f72726f7765722063616e2073746172742063726f776466756e645769746864726177616c206f6e6c7920616c6c6f77656420666f7220426f72726f77657246756e64696e6720616c726561647920636f6d706c6574652e20526566756e6420496d706f737369626c654f6e6c7920626f72726f7765722063616e2072656a6563742063726f776466756e6443726f776466756e64206e6f74207375636365737366756c6c792072656a6563746564526566756e64206f6e6c7920616c6c6f7765642069662066756e64696e67206661696c6564436f6e747261637420696e7374616e63652068617320616c7265616479206265656e20696e697469616c697a656443726f776466756e642063616e206f6e6c792062652072656a6563746564206265666f72652072657061796d656e74206379636c65a265627a7a72315820566f662d4b7436ac324b93e33846ca148a3b822316c3059fc2e8f95a26d7fd6564736f6c634300050b0032",
  "source": "pragma solidity 0.5.11;\n\nimport \"openzeppelin-eth/contracts/math/SafeMath.sol\";\nimport \"openzeppelin-eth/contracts/token/ERC20/IERC20.sol\";\nimport \"openzeppelin-eth/contracts/token/ERC20/SafeERC20.sol\";\nimport \"openzeppelin-eth/contracts/utils/ReentrancyGuard.sol\";\nimport \"zos-lib/contracts/Initializable.sol\";\nimport \"../interface/ITermsContract.sol\";\nimport \"../interface/ICrowdloan.sol\";\nimport \"../interface/IRepaymentManager.sol\";\nimport \"../debt-contracts/TermsContractLib.sol\";\n\ncontract Crowdloan is Initializable, ICrowdloan, ReentrancyGuard {\n    using SafeMath for uint256;\n    using SafeERC20 for IERC20;\n\n    using TermsContractLib for TermsContractLib.LoanParams;\n    using TermsContractLib for TermsContractLib.LoanStatus;\n\n    struct CrowdfundParams {\n        uint256 crowdfundLength;\n        uint256 crowdfundStart;\n    }\n\n    CrowdfundParams crowdfundParams;\n\n    ITermsContract public termsContract;\n    IRepaymentManager public repaymentManager;\n\n    uint256 public constant WITHDRAW_WINDOW = 259200; //72 hours (3 days) wait time after crowdfund End, to allow borrower accept loan, otherwise allow refund from lenders\n\n    modifier trackCrowdfundStatus() {\n        _updateCrowdfundStatus();\n        _;\n        _updateCrowdfundStatus();\n    }\n\n    function initialize(\n        address _termsContract,\n        address _repaymentManager,\n        uint256 _crowdfundLength,\n        uint256 _crowdfundStart\n    ) public initializer {\n        termsContract = ITermsContract(_termsContract);\n        repaymentManager = IRepaymentManager(_repaymentManager);\n        crowdfundParams = CrowdfundParams(_crowdfundLength, _crowdfundStart);\n    }\n\n    function getCrowdfundParams() public view returns (uint256, uint256) {\n        return (crowdfundParams.crowdfundLength, crowdfundParams.crowdfundStart);\n    }\n\n    function getCrowdfundEnd() public view returns (uint256) {\n        return (crowdfundParams.crowdfundStart.add(crowdfundParams.crowdfundLength));\n    }\n\n    function getBorrower() public view returns (address) {\n        return termsContract.getBorrower();\n    }\n\n    // @notice additional payment does not exceed the pricipal Amount\n    function _isBelowMaxSupply(uint256 amount) internal view returns (bool) {\n        uint256 principalRequested = termsContract.getPrincipalRequested();\n        return repaymentManager.totalShares().add(amount) <= principalRequested;\n    }\n\n    function _rejectCrowdfund() internal {\n        if (\n            termsContract.getLoanStatus() < TermsContractLib.LoanStatus.REPAYMENT_CYCLE &&\n            now >= getCrowdfundEnd().add(WITHDRAW_WINDOW)\n        ) {\n            termsContract.setLoanStatus(TermsContractLib.LoanStatus.FUNDING_FAILED);\n        }\n    }\n\n    // @notice reconcile the loans funding status\n    function _updateCrowdfundStatus() internal {\n        uint256 principalRequested = termsContract.getPrincipalRequested();\n        uint256 totalShares = repaymentManager.totalShares();\n        uint256 totalPaid = repaymentManager.totalPaid();\n\n        if (\n            totalShares > 0 &&\n            totalShares < principalRequested &&\n            termsContract.getLoanStatus() < TermsContractLib.LoanStatus.FUNDING_FAILED\n        ) {\n            termsContract.setLoanStatus(TermsContractLib.LoanStatus.FUNDING_STARTED);\n        } else if (totalShares >= principalRequested && totalPaid == 0) {\n            termsContract.setLoanStatus(TermsContractLib.LoanStatus.FUNDING_COMPLETE);\n        }\n    }\n\n    function _getPrincipalToken() internal view returns (IERC20 token) {\n        return IERC20(termsContract.getPrincipalToken());\n    }\n\n    function startCrowdfund() public {\n        require(\n            crowdfundParams.crowdfundStart == 0 || crowdfundParams.crowdfundStart > now,\n            \"KickOff already passed\"\n        );\n        require(msg.sender == getBorrower(), \"Only borrower can start crowdfund\");\n        crowdfundParams.crowdfundStart = now;\n        termsContract.setLoanStatus(TermsContractLib.LoanStatus.FUNDING_STARTED);\n    }\n\n    function rejectCrowdfund() public {\n        require(msg.sender == getBorrower(), \"Only borrower can reject crowdfund\");\n        require(\n            termsContract.getLoanStatus() < TermsContractLib.LoanStatus.REPAYMENT_CYCLE,\n            \"Crowdfund can only be rejected before repayment cycle\"\n        );\n\n        _rejectCrowdfund();\n        require(\n            termsContract.getLoanStatus() == TermsContractLib.LoanStatus.FUNDING_FAILED,\n            \"Crowdfund not successfully rejected\"\n        );\n    }\n\n    /// @notice Fund the loan in exchange for a debt token\n    /// @return repaymentManagerId Issued debt token ID\n    function fund(uint256 amount) public trackCrowdfundStatus returns (uint256) {\n        require(\n            termsContract.getLoanStatus() > TermsContractLib.LoanStatus.NOT_STARTED ||\n                crowdfundParams.crowdfundStart >= now,\n            \"Crowdfund not yet started\"\n        );\n\n        require(\n            termsContract.getLoanStatus() < TermsContractLib.LoanStatus.FUNDING_FAILED,\n            \"Crowdfund completed or failed\"\n        );\n        // require( getCrowdfundEnd() < now, \"Crowdfund period over\");\n        require(_isBelowMaxSupply(amount), \"Amount exceeds capital\");\n        _getPrincipalToken().safeTransferFrom(msg.sender, address(this), amount);\n\n        //Mint new debt token and transfer to sender\n        repaymentManager.increaseShares(msg.sender, amount);\n        emit Fund(msg.sender, amount);\n    }\n\n    /// @notice Get a refund for a debt token owned by the sender\n    function refund(uint256 amount) public {\n        require(\n            termsContract.getLoanStatus() < TermsContractLib.LoanStatus.REPAYMENT_CYCLE,\n            \"Funding already complete. Refund Impossible\"\n        );\n\n        _rejectCrowdfund();\n\n        require(\n            termsContract.getLoanStatus() == TermsContractLib.LoanStatus.FUNDING_FAILED,\n            \"Refund only allowed if funding failed\"\n        );\n\n        require(repaymentManager.shares(msg.sender) >= amount, \"Amount exceeds owned shares\");\n\n        repaymentManager.decreaseShares(msg.sender, amount);\n        _getPrincipalToken().safeTransfer(msg.sender, amount);\n\n        emit Refund(msg.sender, amount);\n    }\n\n    /**\n     * @notice Withdraw method\n     */\n    function withdraw() public {\n        withdraw(_getPrincipalToken().balanceOf(address(this)));\n    }\n\n    // @notice Withdraw loan\n    function withdraw(uint256 amount) public {\n        require(\n            termsContract.getLoanStatus() > TermsContractLib.LoanStatus.FUNDING_FAILED,\n            \"Crowdfund not completed\"\n        );\n\n        address borrower = termsContract.getBorrower();\n\n        require(msg.sender == termsContract.getBorrower(), \"Withdrawal only allowed for Borrower\");\n\n        uint256 contractBalance = _getPrincipalToken().balanceOf(address(this));\n        require(amount <= contractBalance, \"Amount exceeds available balance\");\n        if (termsContract.getLoanStatus() < TermsContractLib.LoanStatus.REPAYMENT_CYCLE) {\n            termsContract.startRepaymentCycle(contractBalance);\n        }\n\n        _getPrincipalToken().safeTransfer(borrower, amount);\n        emit ReleaseFunds(msg.sender, amount);\n    }\n\n    /**\n     * @dev fallback function ***DO NOT OVERRIDE***\n     * Revert all native Ether payments\n     */\n    function() external payable {\n        revert(\"Ether not accepted\");\n    }\n}\n",
  "sourcePath": "contracts/crowdloan/Crowdloan.sol",
  "compiler": {
    "name": "solc",
    "version": "0.5.11+commit.c082d0b4.Emscripten.clang"
  },
  "schemaVersion": "3.0.11",
  "updatedAt": "2019-09-13T10:05:56.848Z",
  "devdoc": {
    "methods": {
      "fund(uint256)": {
        "return": "repaymentManagerId Issued debt token ID"
      }
    }
  },
  "userdoc": {
    "methods": {
      "fund(uint256)": {
        "notice": "Fund the loan in exchange for a debt token"
      },
      "refund(uint256)": {
        "notice": "Get a refund for a debt token owned by the sender"
      },
      "withdraw()": {
        "notice": "Withdraw method"
      }
    }
  }
}