{
  "contractName": "CrowdloanFactory",
  "abi": [
    {
      "anonymous": false,
      "inputs": [
        {
          "indexed": true,
          "name": "loanId",
          "type": "uint256"
        },
        {
          "indexed": true,
          "name": "borrower",
          "type": "address"
        },
        {
          "indexed": true,
          "name": "amount",
          "type": "uint256"
        },
        {
          "indexed": false,
          "name": "termsContract",
          "type": "address"
        },
        {
          "indexed": false,
          "name": "crowdloan",
          "type": "address"
        },
        {
          "indexed": false,
          "name": "repaymentManager",
          "type": "address"
        }
      ],
      "name": "LoanCreated",
      "type": "event"
    },
    {
      "constant": false,
      "inputs": [
        {
          "name": "_appContractAddress",
          "type": "address"
        }
      ],
      "name": "initialize",
      "outputs": [],
      "payable": false,
      "stateMutability": "nonpayable",
      "type": "function"
    },
    {
      "constant": false,
      "inputs": [
        {
          "name": "_principalTokenAddr",
          "type": "address"
        },
        {
          "name": "_principalRequested",
          "type": "uint256"
        },
        {
          "name": "_loanPeriod",
          "type": "uint256"
        },
        {
          "name": "_interestRate",
          "type": "uint256"
        },
        {
          "name": "_crowdfundLength",
          "type": "uint256"
        },
        {
          "name": "_crowdfundStart",
          "type": "uint256"
        }
      ],
      "name": "deploy",
      "outputs": [],
      "payable": false,
      "stateMutability": "nonpayable",
      "type": "function"
    },
    {
      "constant": true,
      "inputs": [],
      "name": "getApp",
      "outputs": [
        {
          "name": "",
          "type": "address"
        }
      ],
      "payable": false,
      "stateMutability": "view",
      "type": "function"
    },
    {
      "constant": true,
      "inputs": [],
      "name": "getLoanCount",
      "outputs": [
        {
          "name": "",
          "type": "uint256"
        }
      ],
      "payable": false,
      "stateMutability": "view",
      "type": "function"
    }
  ],
  "bytecode": "0x608060405234801561001057600080fd5b50611133806100206000396000f3fe608060405234801561001057600080fd5b506004361061005e576000357c0100000000000000000000000000000000000000000000000000000000900480637f6ba62114610063578063b76564bd146100d9578063c4d66de814610123575b600080fd5b6100d7600480360360c081101561007957600080fd5b81019080803573ffffffffffffffffffffffffffffffffffffffff1690602001909291908035906020019092919080359060200190929190803590602001909291908035906020019092919080359060200190929190505050610167565b005b6100e1610737565b604051808273ffffffffffffffffffffffffffffffffffffffff1673ffffffffffffffffffffffffffffffffffffffff16815260200191505060405180910390f35b6101656004803603602081101561013957600080fd5b81019080803573ffffffffffffffffffffffffffffffffffffffff16906020019092919050505061075d565b005b600061018260206040519081016040528060008152506108a0565b9050600061019f6020604051908101604052806000815250610b58565b905060006101bc6020604051908101604052806000815250610e10565b9050606060026040519080825280602002602001820160405280156101f05781602001602082028038833980820191505090505b5090508281600081518110151561020357fe5b9060200190602002019073ffffffffffffffffffffffffffffffffffffffff16908173ffffffffffffffffffffffffffffffffffffffff16815250508181600181518110151561024f57fe5b9060200190602002019073ffffffffffffffffffffffffffffffffffffffff16908173ffffffffffffffffffffffffffffffffffffffff1681525050606060016040519080825280602002602001820160405280156102bd5781602001602082028038833980820191505090505b509050838160008151811015156102d057fe5b9060200190602002019073ffffffffffffffffffffffffffffffffffffffff16908173ffffffffffffffffffffffffffffffffffffffff16815250508473ffffffffffffffffffffffffffffffffffffffff16638de87cd2338d8d8d8d886040518763ffffffff167c0100000000000000000000000000000000000000000000000000000000028152600401808773ffffffffffffffffffffffffffffffffffffffff1673ffffffffffffffffffffffffffffffffffffffff1681526020018673ffffffffffffffffffffffffffffffffffffffff1673ffffffffffffffffffffffffffffffffffffffff16815260200185815260200184815260200183815260200180602001828103825283818151815260200191508051906020019060200280838360005b838110156104125780820151818401526020810190506103f7565b50505050905001975050505050505050600060405180830381600087803b15801561043c57600080fd5b505af1158015610450573d6000803e3d6000fd5b505050508373ffffffffffffffffffffffffffffffffffffffff1663eb990c5986858a8a6040518563ffffffff167c0100000000000000000000000000000000000000000000000000000000028152600401808573ffffffffffffffffffffffffffffffffffffffff1673ffffffffffffffffffffffffffffffffffffffff1681526020018473ffffffffffffffffffffffffffffffffffffffff1673ffffffffffffffffffffffffffffffffffffffff168152602001838152602001828152602001945050505050600060405180830381600087803b15801561053357600080fd5b505af1158015610547573d6000803e3d6000fd5b505050508273ffffffffffffffffffffffffffffffffffffffff1663946d920486836040518363ffffffff167c0100000000000000000000000000000000000000000000000000000000028152600401808373ffffffffffffffffffffffffffffffffffffffff1673ffffffffffffffffffffffffffffffffffffffff16815260200180602001828103825283818151815260200191508051906020019060200280838360005b838110156106095780820151818401526020810190506105ee565b505050509050019350505050600060405180830381600087803b15801561062f57600080fd5b505af1158015610643573d6000803e3d6000fd5b50505050893373ffffffffffffffffffffffffffffffffffffffff167f84a05668f6d40530c7506ddb3f402bf17d70ada888804054620f5b58ce593a1d878787604051808473ffffffffffffffffffffffffffffffffffffffff1673ffffffffffffffffffffffffffffffffffffffff1681526020018373ffffffffffffffffffffffffffffffffffffffff1673ffffffffffffffffffffffffffffffffffffffff1681526020018273ffffffffffffffffffffffffffffffffffffffff1673ffffffffffffffffffffffffffffffffffffffff168152602001935050505060405180910390a35050505050505050505050565b603360009054906101000a900473ffffffffffffffffffffffffffffffffffffffff1681565b600060019054906101000a900460ff168061077c575061077b6110c8565b5b8061079357506000809054906101000a900460ff16155b15156107ea576040517f08c379a000000000000000000000000000000000000000000000000000000000815260040180806020018281038252602e8152602001806110da602e913960400191505060405180910390fd5b60008060019054906101000a900460ff16159050801561083a576001600060016101000a81548160ff02191690831515021790555060016000806101000a81548160ff0219169083151502179055505b81603360006101000a81548173ffffffffffffffffffffffffffffffffffffffff021916908373ffffffffffffffffffffffffffffffffffffffff160217905550801561089c5760008060016101000a81548160ff0219169083151502179055505b5050565b60008060009050603360009054906101000a900473ffffffffffffffffffffffffffffffffffffffff1673ffffffffffffffffffffffffffffffffffffffff1663cd3e318a6040805190810160405280600d81526020017f656e61626c652d637265646974000000000000000000000000000000000000008152506040805190810160405280600d81526020017f5465726d73436f6e74726163740000000000000000000000000000000000000081525084876040518563ffffffff167c01000000000000000000000000000000000000000000000000000000000281526004018080602001806020018573ffffffffffffffffffffffffffffffffffffffff1673ffffffffffffffffffffffffffffffffffffffff16815260200180602001848103845288818151815260200191508051906020019080838360005b838110156109f85780820151818401526020810190506109dd565b50505050905090810190601f168015610a255780820380516001836020036101000a031916815260200191505b50848103835287818151815260200191508051906020019080838360005b83811015610a5e578082015181840152602081019050610a43565b50505050905090810190601f168015610a8b5780820380516001836020036101000a031916815260200191505b50848103825285818151815260200191508051906020019080838360005b83811015610ac4578082015181840152602081019050610aa9565b50505050905090810190601f168015610af15780820380516001836020036101000a031916815260200191505b50975050505050505050602060405180830381600087803b158015610b1557600080fd5b505af1158015610b29573d6000803e3d6000fd5b505050506040513d6020811015610b3f57600080fd5b8101908080519060200190929190505050915050919050565b60008060009050603360009054906101000a900473ffffffffffffffffffffffffffffffffffffffff1673ffffffffffffffffffffffffffffffffffffffff1663cd3e318a6040805190810160405280600d81526020017f656e61626c652d637265646974000000000000000000000000000000000000008152506040805190810160405280600981526020017f43726f77646c6f616e000000000000000000000000000000000000000000000081525084876040518563ffffffff167c01000000000000000000000000000000000000000000000000000000000281526004018080602001806020018573ffffffffffffffffffffffffffffffffffffffff1673ffffffffffffffffffffffffffffffffffffffff16815260200180602001848103845288818151815260200191508051906020019080838360005b83811015610cb0578082015181840152602081019050610c95565b50505050905090810190601f168015610cdd5780820380516001836020036101000a031916815260200191505b50848103835287818151815260200191508051906020019080838360005b83811015610d16578082015181840152602081019050610cfb565b50505050905090810190601f168015610d435780820380516001836020036101000a031916815260200191505b50848103825285818151815260200191508051906020019080838360005b83811015610d7c578082015181840152602081019050610d61565b50505050905090810190601f168015610da95780820380516001836020036101000a031916815260200191505b50975050505050505050602060405180830381600087803b158015610dcd57600080fd5b505af1158015610de1573d6000803e3d6000fd5b505050506040513d6020811015610df757600080fd5b8101908080519060200190929190505050915050919050565b60008060009050603360009054906101000a900473ffffffffffffffffffffffffffffffffffffffff1673ffffffffffffffffffffffffffffffffffffffff1663cd3e318a6040805190810160405280600d81526020017f656e61626c652d637265646974000000000000000000000000000000000000008152506040805190810160405280601081526020017f52657061796d656e744d616e616765720000000000000000000000000000000081525084876040518563ffffffff167c01000000000000000000000000000000000000000000000000000000000281526004018080602001806020018573ffffffffffffffffffffffffffffffffffffffff1673ffffffffffffffffffffffffffffffffffffffff16815260200180602001848103845288818151815260200191508051906020019080838360005b83811015610f68578082015181840152602081019050610f4d565b50505050905090810190601f168015610f955780820380516001836020036101000a031916815260200191505b50848103835287818151815260200191508051906020019080838360005b83811015610fce578082015181840152602081019050610fb3565b50505050905090810190601f168015610ffb5780820380516001836020036101000a031916815260200191505b50848103825285818151815260200191508051906020019080838360005b83811015611034578082015181840152602081019050611019565b50505050905090810190601f1680156110615780820380516001836020036101000a031916815260200191505b50975050505050505050602060405180830381600087803b15801561108557600080fd5b505af1158015611099573d6000803e3d6000fd5b505050506040513d60208110156110af57600080fd5b8101908080519060200190929190505050915050919050565b600080303b9050600081149150509056fe436f6e747261637420696e7374616e63652068617320616c7265616479206265656e20696e697469616c697a6564a165627a7a723058200f76ed5ed60075431e99676c251fa59f9fabdd742158288ec88b15053602058b0029",
  "source": "pragma solidity ^0.5.2;\n\nimport \"zos-lib/contracts/Initializable.sol\";\nimport \"zos-lib/contracts/application/App.sol\";\nimport \"zos-lib/contracts/upgradeability/AdminUpgradeabilityProxy.sol\";\nimport \"openzeppelin-eth/contracts/token/ERC20/StandaloneERC20.sol\";\nimport \"../crowdloan/Crowdloan.sol\";\nimport \"../debt-contracts/RepaymentManager.sol\";\nimport \"../debt-contracts/TermsContract.sol\";\n\ncontract CrowdloanFactory is Initializable {\n    string constant ENABLE_CREDIT_PACKAGE = \"enable-credit\";\n    string constant TERMS_CONTRACT = \"TermsContract\";\n    string constant CROWDLOAN = \"Crowdloan\";\n    string constant REPAYMENT_ROUTER = \"RepaymentManager\";\n\n    App public app;\n\n    event LoanCreated(\n        address indexed borrower,\n        uint256 indexed amount,\n        address termsContract,\n        address crowdloan,\n        address repaymentManager\n    );\n\n    function initialize(address _appContractAddress) public initializer {\n        app = App(_appContractAddress);\n    }\n\n    function _createTermsContract(bytes memory _data) internal returns (address proxy) {\n        address admin = address(0);\n        return address(app.create(ENABLE_CREDIT_PACKAGE, TERMS_CONTRACT, admin, _data));\n    }\n\n    function _createCrowdloan(bytes memory _data) internal returns (address proxy) {\n        address admin = address(0);\n        return address(app.create(ENABLE_CREDIT_PACKAGE, CROWDLOAN, admin, _data));\n    }\n\n    function _createRepaymentManager(bytes memory _data) internal returns (address proxy) {\n        address admin = address(0);\n        return address(app.create(ENABLE_CREDIT_PACKAGE, REPAYMENT_ROUTER, admin, _data));\n    }\n\n    function deploy(\n        address _principalTokenAddr,\n        uint256 _principalRequested,\n        uint256 _loanPeriod,\n        uint256 _interestRate,\n        uint256 _crowdfundLength,\n        uint256 _crowdfundStart\n    ) public {\n        // TODO(Dan): Asserts and require statements\n\n        address termsContractInstance = _createTermsContract(\"\");\n        address crowdloanInstance = _createCrowdloan(\"\");\n        address repaymentManagerInstance = _createRepaymentManager(\"\");\n\n        // address(uint160(addr))\n\n        address[] memory _controllers = new address[](2);\n        _controllers[0] = crowdloanInstance;\n        _controllers[1] = repaymentManagerInstance;\n\n        address[] memory _loanInstanceAsController = new address[](1);\n        _loanInstanceAsController[0] = crowdloanInstance;\n\n        TermsContract(termsContractInstance).initialize(\n            msg.sender,\n            _principalTokenAddr,\n            _principalRequested,\n            _loanPeriod,\n            _interestRate,\n            _controllers\n        );\n\n        Crowdloan(address(uint160(crowdloanInstance))).initialize(\n            termsContractInstance,\n            repaymentManagerInstance,\n            _crowdfundLength,\n            _crowdfundStart\n        );\n\n        RepaymentManager(address(uint160(repaymentManagerInstance))).initialize(\n            termsContractInstance,\n            _loanInstanceAsController\n        );\n\n        emit LoanCreated(\n            msg.sender,\n            _principalRequested,\n            termsContractInstance,\n            crowdloanInstance,\n            repaymentManagerInstance\n        );\n    }\n}\n",
  "sourcePath": "/media/brvhrt/Vault/Store/New-folder/ebc/contracts/factory/CrowdloanFactory.sol",
  "compiler": {
    "name": "solc",
    "version": "0.5.2+commit.1df8f40c.Emscripten.clang"
  },
  "schemaVersion": "3.0.11",
  "updatedAt": "2019-08-04T09:45:47.416Z",
  "devdoc": {
    "methods": {}
  },
  "userdoc": {
    "methods": {}
  }
}