{"fileName":"CrowdloanFactory.sol","contractName":"CrowdloanFactory","source":"pragma solidity ^0.5.2;\n\nimport \"zos-lib/contracts/Initializable.sol\";\nimport \"zos-lib/contracts/application/App.sol\";\nimport \"zos-lib/contracts/upgradeability/AdminUpgradeabilityProxy.sol\";\nimport \"openzeppelin-eth/contracts/token/ERC20/StandaloneERC20.sol\";\nimport \"openzeppelin-eth/contracts/math/SafeMath.sol\";\nimport \"../crowdloan/Crowdloan.sol\";\nimport \"../debt-contracts/RepaymentManager.sol\";\nimport \"../debt-contracts/TermsContract.sol\";\n\ncontract CrowdloanFactory is Initializable {\n    using SafeMath for uint256;\n    \n    string constant ENABLE_CREDIT_PACKAGE = \"enable-credit\";\n    string constant TERMS_CONTRACT = \"TermsContract\";\n    string constant CROWDLOAN = \"Crowdloan\";\n    string constant REPAYMENT_ROUTER = \"RepaymentManager\";\n\n    App internal _app;\n    uint256 internal _loanCount;\n\n    event LoanCreated(\n        uint256 indexed loanId,\n        address indexed borrower,\n        uint256 indexed amount,\n        address termsContract,\n        address crowdloan,\n        address repaymentManager\n    );\n\n    function initialize(address _appContractAddress) public initializer {\n        _app = App(_appContractAddress);\n    }\n\n    function _createTermsContract(bytes memory _data) internal returns (address proxy) {\n        address admin = address(0);\n        return address(_app.create(ENABLE_CREDIT_PACKAGE, TERMS_CONTRACT, admin, _data));\n    }\n\n    function _createCrowdloan(bytes memory _data) internal returns (address proxy) {\n        address admin = address(0);\n        return address(_app.create(ENABLE_CREDIT_PACKAGE, CROWDLOAN, admin, _data));\n    }\n\n    function _createRepaymentManager(bytes memory _data) internal returns (address proxy) {\n        address admin = address(0);\n        return address(_app.create(ENABLE_CREDIT_PACKAGE, REPAYMENT_ROUTER, admin, _data));\n    }\n\n    function deploy(\n        address _principalTokenAddr,\n        uint256 _principalRequested,\n        uint256 _loanPeriod,\n        uint256 _interestRate,\n        uint256 _crowdfundLength,\n        uint256 _crowdfundStart\n    ) public {\n        // TODO(Dan): Asserts and require statements\n\n        address termsContractInstance = _createTermsContract(\"\");\n        address crowdloanInstance = _createCrowdloan(\"\");\n        address repaymentManagerInstance = _createRepaymentManager(\"\");\n\n        // address(uint160(addr))\n\n        address[] memory _controllers = new address[](2);\n        _controllers[0] = crowdloanInstance;\n        _controllers[1] = repaymentManagerInstance;\n\n        address[] memory _loanInstanceAsController = new address[](1);\n        _loanInstanceAsController[0] = crowdloanInstance;\n\n        TermsContract(termsContractInstance).initialize(\n            msg.sender,\n            _principalTokenAddr,\n            _principalRequested,\n            _loanPeriod,\n            _interestRate,\n            _controllers\n        );\n\n        Crowdloan(address(uint160(crowdloanInstance))).initialize(\n            termsContractInstance,\n            repaymentManagerInstance,\n            _crowdfundLength,\n            _crowdfundStart\n        );\n\n        RepaymentManager(address(uint160(repaymentManagerInstance))).initialize(\n            termsContractInstance,\n            _loanInstanceAsController\n        );\n\n        emit LoanCreated(\n            _loanCount,\n            msg.sender,\n            _principalRequested,\n            termsContractInstance,\n            crowdloanInstance,\n            repaymentManagerInstance\n        );\n\n        _loanCount = _loanCount.add(1);\n    }\n\n    function getApp() public view returns (App) {\n        return _app;\n    }\n\n    function getLoanCount() public view returns (uint256) {\n        return _loanCount;\n    }\n}\n","sourcePath":"contracts/factory/CrowdloanFactory.sol","abi":[{"constant":true,"inputs":[],"name":"getApp","outputs":[{"name":"","type":"address"}],"payable":false,"stateMutability":"view","type":"function"},{"constant":true,"inputs":[],"name":"getLoanCount","outputs":[{"name":"","type":"uint256"}],"payable":false,"stateMutability":"view","type":"function"},{"constant":false,"inputs":[{"name":"_principalTokenAddr","type":"address"},{"name":"_principalRequested","type":"uint256"},{"name":"_loanPeriod","type":"uint256"},{"name":"_interestRate","type":"uint256"},{"name":"_crowdfundLength","type":"uint256"},{"name":"_crowdfundStart","type":"uint256"}],"name":"deploy","outputs":[],"payable":false,"stateMutability":"nonpayable","type":"function"},{"constant":false,"inputs":[{"name":"_appContractAddress","type":"address"}],"name":"initialize","outputs":[],"payable":false,"stateMutability":"nonpayable","type":"function"},{"anonymous":false,"inputs":[{"indexed":true,"name":"loanId","type":"uint256"},{"indexed":true,"name":"borrower","type":"address"},{"indexed":true,"name":"amount","type":"uint256"},{"indexed":false,"name":"termsContract","type":"address"},{"indexed":false,"name":"crowdloan","type":"address"},{"indexed":false,"name":"repaymentManager","type":"address"}],"name":"LoanCreated","type":"event"}],"bytecode":"0x60806040523480156100115760006000fd5b50610017565b611186806100266000396000f3fe60806040523480156100115760006000fd5b50600436106100515760003560e01c80633a43db6f1461005757806352196812146100a15780637f6ba621146100bf578063c4d66de81461013657610051565b60006000fd5b61005f61017b565b604051808273ffffffffffffffffffffffffffffffffffffffff1673ffffffffffffffffffffffffffffffffffffffff16815260200191505060405180910390f35b6100a96101aa565b6040518082815260200191505060405180910390f35b610134600480360360c08110156100d65760006000fd5b81019080803573ffffffffffffffffffffffffffffffffffffffff16906020019092919080359060200190929190803590602001909291908035906020019092919080359060200190929190803590602001909291905050506101bc565b005b6101796004803603602081101561014d5760006000fd5b81019080803573ffffffffffffffffffffffffffffffffffffffff169060200190929190505050610786565b005b6000603360009054906101000a900473ffffffffffffffffffffffffffffffffffffffff1690506101a7565b90565b600060346000505490506101b9565b90565b60006101df604051806020016040528060008152602001506108d563ffffffff16565b9050600061020460405180602001604052806000815260200150610b8463ffffffff16565b9050600061022960405180602001604052806000815260200150610e3363ffffffff16565b90506060600260405190808252806020026020018201604052801561025d5781602001602082028038833980820191505090505b5090508281600081518110151561027057fe5b602002602001019073ffffffffffffffffffffffffffffffffffffffff16908173ffffffffffffffffffffffffffffffffffffffff1681526020015050818160018151811015156102bd57fe5b602002602001019073ffffffffffffffffffffffffffffffffffffffff16908173ffffffffffffffffffffffffffffffffffffffff16815260200150506060600160405190808252806020026020018201604052801561032c5781602001602082028038833980820191505090505b5090508381600081518110151561033f57fe5b602002602001019073ffffffffffffffffffffffffffffffffffffffff16908173ffffffffffffffffffffffffffffffffffffffff16815260200150508473ffffffffffffffffffffffffffffffffffffffff16638de87cd2338d8d8d8d886040518763ffffffff1660e01b8152600401808773ffffffffffffffffffffffffffffffffffffffff1673ffffffffffffffffffffffffffffffffffffffff1681526020018673ffffffffffffffffffffffffffffffffffffffff1673ffffffffffffffffffffffffffffffffffffffff16815260200185815260200184815260200183815260200180602001828103825283818151815260200191508051906020019060200280838360005b838110156104675780820151818401525b60208101905061044b565b50505050905001975050505050505050600060405180830381600087803b1580156104925760006000fd5b505af11580156104a7573d600060003e3d6000fd5b505050508373ffffffffffffffffffffffffffffffffffffffff1663eb990c5986858a8a6040518563ffffffff1660e01b8152600401808573ffffffffffffffffffffffffffffffffffffffff1673ffffffffffffffffffffffffffffffffffffffff1681526020018473ffffffffffffffffffffffffffffffffffffffff1673ffffffffffffffffffffffffffffffffffffffff168152602001838152602001828152602001945050505050600060405180830381600087803b15801561056f5760006000fd5b505af1158015610584573d600060003e3d6000fd5b505050508273ffffffffffffffffffffffffffffffffffffffff1663946d920486836040518363ffffffff1660e01b8152600401808373ffffffffffffffffffffffffffffffffffffffff1673ffffffffffffffffffffffffffffffffffffffff16815260200180602001828103825283818151815260200191508051906020019060200280838360005b8381101561062b5780820151818401525b60208101905061060f565b505050509050019350505050600060405180830381600087803b1580156106525760006000fd5b505af1158015610667573d600060003e3d6000fd5b50505050893373ffffffffffffffffffffffffffffffffffffffff166034600050547f4e4016d2c9344f1288d5becd16866c0f58ee7a45b991502969c052eb5fa6f5c0888888604051808473ffffffffffffffffffffffffffffffffffffffff1673ffffffffffffffffffffffffffffffffffffffff1681526020018373ffffffffffffffffffffffffffffffffffffffff1673ffffffffffffffffffffffffffffffffffffffff1681526020018273ffffffffffffffffffffffffffffffffffffffff1673ffffffffffffffffffffffffffffffffffffffff168152602001935050505060405180910390a461076d60016034600050546110e290919063ffffffff16565b603460005081909090555050505050505b505050505050565b600060019054906101000a900460ff16806107ab57506107aa61110b63ffffffff16565b5b806107c35750600060009054906101000a900460ff16155b151561081a576040517f08c379a000000000000000000000000000000000000000000000000000000000815260040180806020018281038252602e815260200180611124602e913960400191505060405180910390fd5b6000600060019054906101000a900460ff16159050801561086c576001600060016101000a81548160ff0219169083151502179055506001600060006101000a81548160ff0219169083151502179055505b81603360006101000a81548173ffffffffffffffffffffffffffffffffffffffff021916908373ffffffffffffffffffffffffffffffffffffffff1602179055505b80156108d0576000600060016101000a81548160ff0219169083151502179055505b505b50565b6000600060009050603360009054906101000a900473ffffffffffffffffffffffffffffffffffffffff1673ffffffffffffffffffffffffffffffffffffffff1663cd3e318a6040518060400160405280600d81526020017f656e61626c652d637265646974000000000000000000000000000000000000008152602001506040518060400160405280600d81526020017f5465726d73436f6e74726163740000000000000000000000000000000000000081526020015084876040518563ffffffff1660e01b81526004018080602001806020018573ffffffffffffffffffffffffffffffffffffffff1673ffffffffffffffffffffffffffffffffffffffff16815260200180602001848103845288818151815260200191508051906020019080838360005b83811015610a195780820151818401525b6020810190506109fd565b50505050905090810190601f168015610a465780820380516001836020036101000a031916815260200191505b50848103835287818151815260200191508051906020019080838360005b83811015610a805780820151818401525b602081019050610a64565b50505050905090810190601f168015610aad5780820380516001836020036101000a031916815260200191505b50848103825285818151815260200191508051906020019080838360005b83811015610ae75780820151818401525b602081019050610acb565b50505050905090810190601f168015610b145780820380516001836020036101000a031916815260200191505b50975050505050505050602060405180830381600087803b158015610b395760006000fd5b505af1158015610b4e573d600060003e3d6000fd5b505050506040513d6020811015610b655760006000fd5b8101908080519060200190929190505050915050610b7f56505b919050565b6000600060009050603360009054906101000a900473ffffffffffffffffffffffffffffffffffffffff1673ffffffffffffffffffffffffffffffffffffffff1663cd3e318a6040518060400160405280600d81526020017f656e61626c652d637265646974000000000000000000000000000000000000008152602001506040518060400160405280600981526020017f43726f77646c6f616e000000000000000000000000000000000000000000000081526020015084876040518563ffffffff1660e01b81526004018080602001806020018573ffffffffffffffffffffffffffffffffffffffff1673ffffffffffffffffffffffffffffffffffffffff16815260200180602001848103845288818151815260200191508051906020019080838360005b83811015610cc85780820151818401525b602081019050610cac565b50505050905090810190601f168015610cf55780820380516001836020036101000a031916815260200191505b50848103835287818151815260200191508051906020019080838360005b83811015610d2f5780820151818401525b602081019050610d13565b50505050905090810190601f168015610d5c5780820380516001836020036101000a031916815260200191505b50848103825285818151815260200191508051906020019080838360005b83811015610d965780820151818401525b602081019050610d7a565b50505050905090810190601f168015610dc35780820380516001836020036101000a031916815260200191505b50975050505050505050602060405180830381600087803b158015610de85760006000fd5b505af1158015610dfd573d600060003e3d6000fd5b505050506040513d6020811015610e145760006000fd5b8101908080519060200190929190505050915050610e2e56505b919050565b6000600060009050603360009054906101000a900473ffffffffffffffffffffffffffffffffffffffff1673ffffffffffffffffffffffffffffffffffffffff1663cd3e318a6040518060400160405280600d81526020017f656e61626c652d637265646974000000000000000000000000000000000000008152602001506040518060400160405280601081526020017f52657061796d656e744d616e616765720000000000000000000000000000000081526020015084876040518563ffffffff1660e01b81526004018080602001806020018573ffffffffffffffffffffffffffffffffffffffff1673ffffffffffffffffffffffffffffffffffffffff16815260200180602001848103845288818151815260200191508051906020019080838360005b83811015610f775780820151818401525b602081019050610f5b565b50505050905090810190601f168015610fa45780820380516001836020036101000a031916815260200191505b50848103835287818151815260200191508051906020019080838360005b83811015610fde5780820151818401525b602081019050610fc2565b50505050905090810190601f16801561100b5780820380516001836020036101000a031916815260200191505b50848103825285818151815260200191508051906020019080838360005b838110156110455780820151818401525b602081019050611029565b50505050905090810190601f1680156110725780820380516001836020036101000a031916815260200191505b50975050505050505050602060405180830381600087803b1580156110975760006000fd5b505af11580156110ac573d600060003e3d6000fd5b505050506040513d60208110156110c35760006000fd5b81019080805190602001909291905050509150506110dd56505b919050565b6000600082840190508381101515156110fb5760006000fd5b8091505061110556505b92915050565b60006000303b90506000811491505061112056505b9056fe436f6e747261637420696e7374616e63652068617320616c7265616479206265656e20696e697469616c697a6564a265627a7a723058209898aec3caacf4808065c70d3e7f1bdb1df05f87daa9c6de76ed9f52fcca3b1b64736f6c634300050a0032","compiler":{"name":"solc","version":"0.5.10+commit.5a6ea5b1.Emscripten.clang","optimizer":{},"evmVersion":"constantinople"}}