{"fileName":"Crowdloan.sol","contractName":"Crowdloan","source":"pragma solidity 0.5.11;\n\nimport \"zos-lib/contracts/Initializable.sol\";\nimport \"openzeppelin-eth/contracts/math/SafeMath.sol\";\nimport \"openzeppelin-eth/contracts/token/ERC20/IERC20.sol\";\nimport \"openzeppelin-eth/contracts/token/ERC20/SafeERC20.sol\";\n\ncontract Crowdloan is Initializable {\n    using SafeMath for uint256;\n    using SafeERC20 for IERC20;\n\n    // Loan terms\n    uint256 public crowdfundStart;\n    uint256 public crowdfundEnd; // Last time contributions are accepted\n    uint256 public crowdfundDuration;\n    address public borrower;\n    IERC20 public token;\n    uint256 public principalRequested;\n    uint256 public repaymentCap;\n    string public loanMetadataUrl;\n\n    // Contributor tracking\n    mapping(address => uint256) public amountContributed;\n    uint256 public totalContributed;\n    uint256 public principalWithdrawn;\n\n    // Repayment tracking\n    uint256 public amountRepaid;\n    mapping(address => uint256) public repaymentWithdrawn;\n    uint256 public totalRepaymentWithdrawn;\n\n    // Events\n    event Fund(address sender, uint256 amount);\n    event WithdrawPrincipal(address borrower, uint256 amount);\n    event WithdrawRepayment(address lender, uint256 amount);\n    event Repay(uint256 amount);\n    event StartCrowdfund(uint256 crowdfundStart);\n\n    function initialize(\n        address _borrower,\n        IERC20 _token,\n        uint256 _principalRequested,\n        uint256 _repaymentCap,\n        uint256 _duration,\n        string calldata _loanMetadataUrl\n    ) external initializer {\n        borrower = _borrower;\n        crowdfundDuration = _duration;\n        token = _token;\n        principalRequested = _principalRequested;\n        loanMetadataUrl = _loanMetadataUrl;\n        repaymentCap = _repaymentCap;\n    }\n\n    /// @dev During the crowdfund, anyone can fund and get repayment rights in proportion to their contribution\n    function fund(uint256 amount) external {\n        _onlyAfterCrowdfundStart();\n        _onlyBeforeCrowdfundEnd();\n\n        require(amount > 0, \"Fund amount cannot be zero\");\n\n        totalContributed = totalContributed.add(amount);\n        require(\n            totalContributed <= principalRequested,\n            \"Your contribution would exceed the total amount requested.\"\n        );\n\n        amountContributed[msg.sender] = amountContributed[msg.sender].add(amount);\n\n        token.safeTransferFrom(msg.sender, address(this), amount);\n\n        emit Fund(msg.sender, amount);\n    }\n\n    /// @dev Borrower can withdraw currently aquired principal in any proportion, and any time during the crowdfund for flexibility.\n    /// This DOES NOT affect the total principal that can be raised or the loan terms, it merely provides cash flow.\n    function withdrawPrincipal(uint256 amount) external {\n        _onlyBorrower();\n\n        // FIX DONATIONS!\n        uint256 tokenBalance = token.balanceOf(address(this));\n\n        require(amount <= tokenBalance, \"Insufficent tokens to withdraw\");\n\n        if (amountRepaid > 0) {\n            require(\n                tokenBalance.sub(amount) >= amountRepaid.sub(totalRepaymentWithdrawn),\n                \"Withdrawal will lead to repayment inbalance\"\n            );\n        }\n\n        principalWithdrawn = principalWithdrawn.add(amount);\n        token.safeTransfer(msg.sender, amount);\n\n        emit WithdrawPrincipal(msg.sender, amount);\n    }\n\n    /// @dev Anyone can make repayments on behalf of the borrower\n    function repay(uint256 amount) external {\n        _onlyAfterCrowdfundEnd();\n\n        require(amount > 0, \"Repayment amount cannot be zero\");\n        require(amountRepaid.add(amount) <= repaymentCap, \"Must not exceed repayment cap\");\n\n        amountRepaid = amountRepaid.add(amount);\n        token.safeTransferFrom(msg.sender, address(this), amount);\n\n        emit Repay(amount);\n    }\n\n    /// @dev Lenders can withdraw their proportional stake from repayments after the crowdfund ends\n    function withdrawRepayment() external {\n        _onlyAfterCrowdfundEnd();\n\n        uint256 totalOwed = amountRepaid.mul(amountContributed[msg.sender]).div(totalContributed);\n        uint256 amount = totalOwed.sub(repaymentWithdrawn[msg.sender]);\n        require(amount > 0, \"Withdrawal amount cannot be zero\");\n\n        repaymentWithdrawn[msg.sender] = totalOwed;\n        totalRepaymentWithdrawn = totalRepaymentWithdrawn.add(amount);\n\n        token.safeTransfer(msg.sender, amount);\n\n        emit WithdrawRepayment(msg.sender, amount);\n    }\n\n    /// @dev Borrower can start the crowdfund once\n    function startCrowdfund() external {\n        _onlyBorrower();\n        _onlyBeforeCrowdfundStart();\n\n        crowdfundStart = now;\n        crowdfundEnd = now + crowdfundDuration;\n\n        emit StartCrowdfund(now);\n    }\n\n    function _onlyBorrower() internal view {\n        require(msg.sender == borrower, \"Only the borrower can call function.\");\n    }\n\n    function _onlyBeforeCrowdfundStart() internal view {\n        require(crowdfundStart == 0, \"Only before crowdfund start\");\n    }\n\n    function _onlyAfterCrowdfundStart() internal view {\n        require(crowdfundStart != 0, \"Only after crowdfund start\");\n    }\n\n    function _onlyBeforeCrowdfundEnd() internal view {\n        require(now <= crowdfundEnd, \"Only before crowdfund end\");\n    }\n\n    function _onlyAfterCrowdfundEnd() internal view {\n        require(crowdfundStart != 0 && now > crowdfundEnd, \"Only after crowdfund end.\");\n    }\n}\n","sourcePath":"contracts/crowdloan/Crowdloan.sol","abi":[{"constant":true,"inputs":[],"name":"totalContributed","outputs":[{"internalType":"uint256","name":"","type":"uint256"}],"payable":false,"stateMutability":"view","type":"function"},{"constant":true,"inputs":[],"name":"totalRepaymentWithdrawn","outputs":[{"internalType":"uint256","name":"","type":"uint256"}],"payable":false,"stateMutability":"view","type":"function"},{"constant":true,"inputs":[],"name":"repaymentCap","outputs":[{"internalType":"uint256","name":"","type":"uint256"}],"payable":false,"stateMutability":"view","type":"function"},{"constant":true,"inputs":[{"internalType":"address","name":"","type":"address"}],"name":"amountContributed","outputs":[{"internalType":"uint256","name":"","type":"uint256"}],"payable":false,"stateMutability":"view","type":"function"},{"constant":false,"inputs":[{"internalType":"uint256","name":"amount","type":"uint256"}],"name":"repay","outputs":[],"payable":false,"stateMutability":"nonpayable","type":"function"},{"constant":false,"inputs":[{"internalType":"uint256","name":"amount","type":"uint256"}],"name":"withdrawPrincipal","outputs":[],"payable":false,"stateMutability":"nonpayable","type":"function"},{"constant":false,"inputs":[],"name":"withdrawRepayment","outputs":[],"payable":false,"stateMutability":"nonpayable","type":"function"},{"constant":true,"inputs":[{"internalType":"address","name":"","type":"address"}],"name":"repaymentWithdrawn","outputs":[{"internalType":"uint256","name":"","type":"uint256"}],"payable":false,"stateMutability":"view","type":"function"},{"constant":true,"inputs":[],"name":"borrower","outputs":[{"internalType":"address","name":"","type":"address"}],"payable":false,"stateMutability":"view","type":"function"},{"constant":true,"inputs":[],"name":"crowdfundEnd","outputs":[{"internalType":"uint256","name":"","type":"uint256"}],"payable":false,"stateMutability":"view","type":"function"},{"constant":true,"inputs":[],"name":"crowdfundStart","outputs":[{"internalType":"uint256","name":"","type":"uint256"}],"payable":false,"stateMutability":"view","type":"function"},{"constant":true,"inputs":[],"name":"principalRequested","outputs":[{"internalType":"uint256","name":"","type":"uint256"}],"payable":false,"stateMutability":"view","type":"function"},{"constant":false,"inputs":[],"name":"startCrowdfund","outputs":[],"payable":false,"stateMutability":"nonpayable","type":"function"},{"constant":false,"inputs":[{"internalType":"address","name":"_borrower","type":"address"},{"internalType":"contract IERC20","name":"_token","type":"address"},{"internalType":"uint256","name":"_principalRequested","type":"uint256"},{"internalType":"uint256","name":"_repaymentCap","type":"uint256"},{"internalType":"uint256","name":"_duration","type":"uint256"},{"internalType":"string","name":"_loanMetadataUrl","type":"string"}],"name":"initialize","outputs":[],"payable":false,"stateMutability":"nonpayable","type":"function"},{"constant":true,"inputs":[],"name":"principalWithdrawn","outputs":[{"internalType":"uint256","name":"","type":"uint256"}],"payable":false,"stateMutability":"view","type":"function"},{"constant":false,"inputs":[{"internalType":"uint256","name":"amount","type":"uint256"}],"name":"fund","outputs":[],"payable":false,"stateMutability":"nonpayable","type":"function"},{"constant":true,"inputs":[],"name":"crowdfundDuration","outputs":[{"internalType":"uint256","name":"","type":"uint256"}],"payable":false,"stateMutability":"view","type":"function"},{"constant":true,"inputs":[],"name":"loanMetadataUrl","outputs":[{"internalType":"string","name":"","type":"string"}],"payable":false,"stateMutability":"view","type":"function"},{"constant":true,"inputs":[],"name":"amountRepaid","outputs":[{"internalType":"uint256","name":"","type":"uint256"}],"payable":false,"stateMutability":"view","type":"function"},{"constant":true,"inputs":[],"name":"token","outputs":[{"internalType":"contract IERC20","name":"","type":"address"}],"payable":false,"stateMutability":"view","type":"function"},{"anonymous":false,"inputs":[{"indexed":false,"internalType":"address","name":"sender","type":"address"},{"indexed":false,"internalType":"uint256","name":"amount","type":"uint256"}],"name":"Fund","type":"event"},{"anonymous":false,"inputs":[{"indexed":false,"internalType":"address","name":"borrower","type":"address"},{"indexed":false,"internalType":"uint256","name":"amount","type":"uint256"}],"name":"WithdrawPrincipal","type":"event"},{"anonymous":false,"inputs":[{"indexed":false,"internalType":"address","name":"lender","type":"address"},{"indexed":false,"internalType":"uint256","name":"amount","type":"uint256"}],"name":"WithdrawRepayment","type":"event"},{"anonymous":false,"inputs":[{"indexed":false,"internalType":"uint256","name":"amount","type":"uint256"}],"name":"Repay","type":"event"},{"anonymous":false,"inputs":[{"indexed":false,"internalType":"uint256","name":"crowdfundStart","type":"uint256"}],"name":"StartCrowdfund","type":"event"}],"bytecode":"0x60806040523480156100115760006000fd5b50610017565b611b85806100266000396000f3fe60806040523480156100115760006000fd5b50600436106101315760003560e01c80638c3f0e5d116100ae578063ca1d209d11610072578063ca1d209d14610454578063d2e3966014610483578063dad8671b146104a1578063ee86afd814610525578063fc0c546a1461054357610131565b80638c3f0e5d146103135780638ffc9215146103315780639a593b9a1461034f578063b90a762a14610359578063c95cbe741461043657610131565b8063658e28a4116100f5578063658e28a4146102195780637489b451146102485780637dd99395146102525780637df1f1b9146102ab578063859e0015146102f557610131565b8063023f4147146101375780630dbd9376146101555780632c52af3d1461017357806336aec5a314610191578063371fd8e6146101ea57610131565b60006000fd5b61013f61058d565b6040518082815260200191505060405180910390f35b61015d610596565b6040518082815260200191505060405180910390f35b61017b61059f565b6040518082815260200191505060405180910390f35b6101d4600480360360208110156101a85760006000fd5b81019080803573ffffffffffffffffffffffffffffffffffffffff1690602001909291905050506105a8565b6040518082815260200191505060405180910390f35b610217600480360360208110156102015760006000fd5b81019080803590602001909291905050506105c3565b005b610246600480360360208110156102305760006000fd5b8101908080359060200190929190505050610790565b005b610250610a72565b005b610295600480360360208110156102695760006000fd5b81019080803573ffffffffffffffffffffffffffffffffffffffff169060200190929190505050610cfb565b6040518082815260200191505060405180910390f35b6102b3610d16565b604051808273ffffffffffffffffffffffffffffffffffffffff1673ffffffffffffffffffffffffffffffffffffffff16815260200191505060405180910390f35b6102fd610d3c565b6040518082815260200191505060405180910390f35b61031b610d45565b6040518082815260200191505060405180910390f35b610339610d4e565b6040518082815260200191505060405180910390f35b610357610d57565b005b610434600480360360c08110156103705760006000fd5b81019080803573ffffffffffffffffffffffffffffffffffffffff169060200190929190803573ffffffffffffffffffffffffffffffffffffffff169060200190929190803590602001909291908035906020019092919080359060200190929190803590602001906401000000008111156103ec5760006000fd5b8201836020820111156103ff5760006000fd5b803590602001918460018302840111640100000000831117156104225760006000fd5b90919293909091929390505050610dcc565b005b61043e610f9b565b6040518082815260200191505060405180910390f35b6104816004803603602081101561046b5760006000fd5b8101908080359060200190929190505050610fa4565b005b61048b611224565b6040518082815260200191505060405180910390f35b6104a961122d565b6040518080602001828103825283818151815260200191508051906020019080838360005b838110156104ea5780820151818401525b6020810190506104ce565b50505050905090810190601f1680156105175780820380516001836020036101000a031916815260200191505b509250505060405180910390f35b61052d6112ce565b6040518082815260200191505060405180910390f35b61054b6112d7565b604051808273ffffffffffffffffffffffffffffffffffffffff1673ffffffffffffffffffffffffffffffffffffffff16815260200191505060405180910390f35b603c6000505481565b60406000505481565b60396000505481565b603b6000506020528060005260406000206000915090505481565b6105d16112fd63ffffffff16565b60008111151561064c576040517f08c379a000000000000000000000000000000000000000000000000000000000815260040180806020018281038252601f8152602001807f52657061796d656e7420616d6f756e742063616e6e6f74206265207a65726f0081526020015060200191505060405180910390fd5b60396000505461066a82603e6000505461139190919063ffffffff16565b111515156106e3576040517f08c379a000000000000000000000000000000000000000000000000000000000815260040180806020018281038252601d8152602001807f4d757374206e6f74206578636565642072657061796d656e742063617000000081526020015060200191505060405180910390fd5b6106fb81603e6000505461139190919063ffffffff16565b603e600050819090905550610755333083603760009054906101000a900473ffffffffffffffffffffffffffffffffffffffff1673ffffffffffffffffffffffffffffffffffffffff166113ba909392919063ffffffff16565b7fa6ffc78a660e4971a47a0f916a0abae483804e6f42c9292ed06aa64f8fe46230816040518082815260200191505060405180910390a15b50565b61079e6114c763ffffffff16565b6000603760009054906101000a900473ffffffffffffffffffffffffffffffffffffffff1673ffffffffffffffffffffffffffffffffffffffff166370a08231306040518263ffffffff1660e01b8152600401808273ffffffffffffffffffffffffffffffffffffffff1673ffffffffffffffffffffffffffffffffffffffff16815260200191505060206040518083038186803b1580156108405760006000fd5b505afa158015610855573d600060003e3d6000fd5b505050506040513d602081101561086c5760006000fd5b810190808051906020019092919050505090508082111515156108fa576040517f08c379a000000000000000000000000000000000000000000000000000000000815260040180806020018281038252601e8152602001807f496e737566666963656e7420746f6b656e7320746f207769746864726177000081526020015060200191505060405180910390fd5b6000603e60005054111561099257610925604060005054603e6000505461157290919063ffffffff16565b610938838361157290919063ffffffff16565b10151515610991576040517f08c379a000000000000000000000000000000000000000000000000000000000815260040180806020018281038252602b815260200180611b26602b913960400191505060405180910390fd5b5b6109aa82603d6000505461139190919063ffffffff16565b603d600050819090905550610a023383603760009054906101000a900473ffffffffffffffffffffffffffffffffffffffff1673ffffffffffffffffffffffffffffffffffffffff1661159b9092919063ffffffff16565b7fee1b5abe14e43ee34008f06f51efca5382c42fb48b0a040fd7a5f5c630cb55803383604051808373ffffffffffffffffffffffffffffffffffffffff1673ffffffffffffffffffffffffffffffffffffffff1681526020018281526020019250505060405180910390a1505b50565b610a806112fd63ffffffff16565b6000610af6603c60005054610ae8603b60005060003373ffffffffffffffffffffffffffffffffffffffff1673ffffffffffffffffffffffffffffffffffffffff16815260200190815260200160002060005054603e6000505461167390919063ffffffff16565b6116b890919063ffffffff16565b90506000610b52603f60005060003373ffffffffffffffffffffffffffffffffffffffff1673ffffffffffffffffffffffffffffffffffffffff168152602001908152602001600020600050548361157290919063ffffffff16565b9050600081111515610bcf576040517f08c379a00000000000000000000000000000000000000000000000000000000081526004018080602001828103825260208152602001807f5769746864726177616c20616d6f756e742063616e6e6f74206265207a65726f81526020015060200191505060405180910390fd5b81603f60005060003373ffffffffffffffffffffffffffffffffffffffff1673ffffffffffffffffffffffffffffffffffffffff168152602001908152602001600020600050819090905550610c338160406000505461139190919063ffffffff16565b6040600050819090905550610c8b3382603760009054906101000a900473ffffffffffffffffffffffffffffffffffffffff1673ffffffffffffffffffffffffffffffffffffffff1661159b9092919063ffffffff16565b7f99a5f076bd438fcb3b84841caf48b7c7f0033ba32847d8b8d34ba0d65a369b593382604051808373ffffffffffffffffffffffffffffffffffffffff1673ffffffffffffffffffffffffffffffffffffffff1681526020018281526020019250505060405180910390a150505b565b603f6000506020528060005260406000206000915090505481565b603660009054906101000a900473ffffffffffffffffffffffffffffffffffffffff1681565b60346000505481565b60336000505481565b60386000505481565b610d656114c763ffffffff16565b610d736116ea63ffffffff16565b426033600050819090905550603560005054420160346000508190909055507f7cbc4c855be831448c84ab8db17649938de7e94a1a1dc9b803e6c07acc3cb03b426040518082815260200191505060405180910390a15b565b600060019054906101000a900460ff1680610df15750610df061176d63ffffffff16565b5b80610e095750600060009054906101000a900460ff16155b1515610e60576040517f08c379a000000000000000000000000000000000000000000000000000000000815260040180806020018281038252602e815260200180611af8602e913960400191505060405180910390fd5b6000600060019054906101000a900460ff161590508015610eb2576001600060016101000a81548160ff0219169083151502179055506001600060006101000a81548160ff0219169083151502179055505b87603660006101000a81548173ffffffffffffffffffffffffffffffffffffffff021916908373ffffffffffffffffffffffffffffffffffffffff16021790555083603560005081909090555086603760006101000a81548173ffffffffffffffffffffffffffffffffffffffff021916908373ffffffffffffffffffffffffffffffffffffffff1602179055508560386000508190909055508282603a6000509190610f609291906119e9565b508460396000508190909055505b8015610f90576000600060016101000a81548160ff0219169083151502179055505b505b50505050505050565b603d6000505481565b610fb261178563ffffffff16565b610fc061180963ffffffff16565b60008111151561103b576040517f08c379a000000000000000000000000000000000000000000000000000000000815260040180806020018281038252601a8152602001807f46756e6420616d6f756e742063616e6e6f74206265207a65726f00000000000081526020015060200191505060405180910390fd5b61105381603c6000505461139190919063ffffffff16565b603c600050819090905550603860005054603c60005054111515156110c3576040517f08c379a000000000000000000000000000000000000000000000000000000000815260040180806020018281038252603a815260200180611a9a603a913960400191505060405180910390fd5b61111b81603b60005060003373ffffffffffffffffffffffffffffffffffffffff1673ffffffffffffffffffffffffffffffffffffffff1681526020019081526020016000206000505461139190919063ffffffff16565b603b60005060003373ffffffffffffffffffffffffffffffffffffffff1673ffffffffffffffffffffffffffffffffffffffff1681526020019081526020016000206000508190909055506111b5333083603760009054906101000a900473ffffffffffffffffffffffffffffffffffffffff1673ffffffffffffffffffffffffffffffffffffffff166113ba909392919063ffffffff16565b7fda8220a878ff7a89474ccffdaa31ea1ed1ffbb0207d5051afccc4fbaf81f9bcd3382604051808373ffffffffffffffffffffffffffffffffffffffff1673ffffffffffffffffffffffffffffffffffffffff1681526020018281526020019250505060405180910390a15b50565b60356000505481565b603a6000508054600181600116156101000203166002900480601f0160208091040260200160405190810160405280929190818152602001828054600181600116156101000203166002900480156112c65780601f1061129b576101008083540402835291602001916112c6565b820191906000526020600020905b8154815290600101906020018083116112a957829003601f168201915b505050505081565b603e6000505481565b603760009054906101000a900473ffffffffffffffffffffffffffffffffffffffff1681565b600060336000505414158015611317575060346000505442115b151561138e576040517f08c379a00000000000000000000000000000000000000000000000000000000081526004018080602001828103825260198152602001807f4f6e6c792061667465722063726f776466756e6420656e642e0000000000000081526020015060200191505060405180910390fd5b5b565b6000600082840190508381101515156113aa5760006000fd5b809150506113b456505b92915050565b6114c0848573ffffffffffffffffffffffffffffffffffffffff166323b872dd905060e01b858585604051602401808473ffffffffffffffffffffffffffffffffffffffff1673ffffffffffffffffffffffffffffffffffffffff1681526020018373ffffffffffffffffffffffffffffffffffffffff1673ffffffffffffffffffffffffffffffffffffffff1681526020018281526020019350505050604051602081830303815290604052907bffffffffffffffffffffffffffffffffffffffffffffffffffffffff19166020820180517bffffffffffffffffffffffffffffffffffffffffffffffffffffffff838183161783525050505061188c63ffffffff16565b5b50505050565b603660009054906101000a900473ffffffffffffffffffffffffffffffffffffffff1673ffffffffffffffffffffffffffffffffffffffff163373ffffffffffffffffffffffffffffffffffffffff1614151561156f576040517f08c379a0000000000000000000000000000000000000000000000000000000008152600401808060200182810382526024815260200180611ad46024913960400191505060405180910390fd5b5b565b60008282111515156115845760006000fd5b600082840390508091505061159556505b92915050565b61166d838473ffffffffffffffffffffffffffffffffffffffff1663a9059cbb905060e01b8484604051602401808373ffffffffffffffffffffffffffffffffffffffff1673ffffffffffffffffffffffffffffffffffffffff16815260200182815260200192505050604051602081830303815290604052907bffffffffffffffffffffffffffffffffffffffffffffffffffffffff19166020820180517bffffffffffffffffffffffffffffffffffffffffffffffffffffffff838183161783525050505061188c63ffffffff16565b5b505050565b6000600083141561168757600090506116b2565b6000828402905082848281151561169a57fe5b041415156116a85760006000fd5b809150506116b256505b92915050565b60006000821115156116ca5760006000fd5b600082848115156116d757fe5b049050809150506116e456505b92915050565b600060336000505414151561176a576040517f08c379a000000000000000000000000000000000000000000000000000000000815260040180806020018281038252601b8152602001807f4f6e6c79206265666f72652063726f776466756e64207374617274000000000081526020015060200191505060405180910390fd5b5b565b60006000303b90506000811491505061178256505b90565b600060336000505414151515611806576040517f08c379a000000000000000000000000000000000000000000000000000000000815260040180806020018281038252601a8152602001807f4f6e6c792061667465722063726f776466756e6420737461727400000000000081526020015060200191505060405180910390fd5b5b565b6034600050544211151515611889576040517f08c379a00000000000000000000000000000000000000000000000000000000081526004018080602001828103825260198152602001807f4f6e6c79206265666f72652063726f776466756e6420656e640000000000000081526020015060200191505060405180910390fd5b5b565b6118b38273ffffffffffffffffffffffffffffffffffffffff166119cf909063ffffffff16565b15156118bf5760006000fd5b600060608373ffffffffffffffffffffffffffffffffffffffff16836040518082805190602001908083835b60208310151561191157805182525b6020820191506020810190506020830392506118eb565b6001836020036101000a0380198251168184511680821785525050505050509050019150506000604051808303816000865af19150503d8060008114611973576040519150601f19603f3d011682016040523d82523d6000602084013e611978565b606091505b509150915081151561198a5760006000fd5b6000815111156119c8578080602001905160208110156119aa5760006000fd5b810190808051906020019092919050505015156119c75760006000fd5b5b50505b5050565b60006000823b9050600081119150506119e456505b919050565b828054600181600116156101000203166002900490600052602060002090601f016020900481019282601f10611a2a57803560ff1916838001178555611a5d565b82800160010185558215611a5d579182015b82811115611a5c5782358260005090905591602001919060010190611a3c565b5b509050611a6a9190611a6e565b5090565b611a969190611a78565b80821115611a925760008181506000905550600101611a78565b5090565b9056fe596f757220636f6e747269627574696f6e20776f756c64206578636565642074686520746f74616c20616d6f756e74207265717565737465642e4f6e6c792074686520626f72726f7765722063616e2063616c6c2066756e6374696f6e2e436f6e747261637420696e7374616e63652068617320616c7265616479206265656e20696e697469616c697a65645769746864726177616c2077696c6c206c65616420746f2072657061796d656e7420696e62616c616e6365a265627a7a72315820e74bded1e4818bde30f7635ff047df951d8556a4cc8926888695b31fc10baec664736f6c634300050b0032","compiler":{"name":"solc","version":"0.5.11+commit.c082d0b4.Emscripten.clang","optimizer":{},"evmVersion":"constantinople"}}