{"fileName":"Crowdloan.sol","contractName":"Crowdloan","source":"pragma solidity 0.5.11;\n\nimport \"zos-lib/contracts/Initializable.sol\";\nimport \"openzeppelin-eth/contracts/math/SafeMath.sol\";\nimport \"openzeppelin-eth/contracts/token/ERC20/IERC20.sol\";\nimport \"openzeppelin-eth/contracts/token/ERC20/SafeERC20.sol\";\n\ncontract Crowdloan is Initializable {\n    using SafeMath for uint256;\n    using SafeERC20 for IERC20;\n\n    // Loan terms\n    uint256 public crowdfundStart;\n    uint256 public crowdfundEnd; // Last time contributions are accepted\n    uint256 public crowdfundDuration;\n    address public borrower;\n    IERC20 public token;\n    uint256 public principalRequested;\n    string public loanMetadataUrl;\n\n    // Contributor tracking\n    mapping(address => uint256) public amountContributed;\n    uint256 public totalContributed;\n    uint256 public principalWithdrawn;\n\n    // Repayment tracking\n    uint256 public amountRepaid;\n    mapping(address => uint256) public repaymentWithdrawn;\n\n    // Events\n    event Fund(address sender, uint256 amount);\n    event WithdrawPrincipal(address sender, uint256 amount);\n    event WithdrawRepayment(address sender, uint256 amount);\n    event Repay(uint256 amount);\n    event StartCrowdfund(uint256 crowdfundStart);\n\n    function initialize(\n        address _borrower,\n        IERC20 _token,\n        uint256 _principalRequested,\n        uint256 _duration,\n        string calldata _loanMetadataUrl\n    ) external initializer {\n        borrower = _borrower;\n        crowdfundDuration = _duration;\n        token = _token;\n        principalRequested = _principalRequested;\n        loanMetadataUrl = _loanMetadataUrl;\n    }\n\n    /// @dev During the crowdfund, anyone can fund and get repayment rights in proportion to their contribution\n    function fund(uint256 amount) external {\n        _onlyAfterCrowdfundStart();\n        _onlyBeforeCrowdfundEnd();\n\n        require(amount > 0, \"Fund amount cannot be zero\");\n\n        totalContributed = totalContributed.add(amount);\n        require(\n            totalContributed <= principalRequested,\n            \"Your contribution would exceed the total amount requested.\"\n        );\n\n        amountContributed[msg.sender] = amountContributed[msg.sender].add(amount);\n\n        require(token.transferFrom(msg.sender, address(this), amount));\n\n        emit Fund(msg.sender, amount);\n    }\n\n    /// @dev Borrower can withdraw currently aquired principal in any proportion, and any time during the crowdfund for flexibility.\n    /// This DOES NOT affect the total principal that can be raised or the loan terms, it merely provides cash flow.\n    function withdrawPrincipal(uint256 amount) external {\n        _onlyBorrower();\n        _onlyAfterCrowdfundStart();\n\n        require(\n            amount <= totalContributed.sub(principalWithdrawn),\n            \"Insufficent principal to withdraw\"\n        );\n\n        principalWithdrawn = principalWithdrawn.add(amount);\n\n        token.safeTransfer(msg.sender, amount);\n\n        emit WithdrawPrincipal(msg.sender, amount);\n    }\n\n    /// @dev Anyone can make repayments on behalf of the borrower\n    function repay(uint256 amount) external {\n        _onlyAfterCrowdfundStart();\n\n        amountRepaid = amountRepaid.add(amount);\n        token.safeTransferFrom(msg.sender, address(this), amount);\n\n        emit Repay(amount);\n    }\n\n    /// @dev Lenders can withdraw their proportional stake from repayments after the crowdfund ends\n    function withdrawRepayment() external {\n        _onlyAfterCrowdfundEnd();\n\n        uint256 totalOwed = amountRepaid.mul(amountContributed[msg.sender]).div(totalContributed);\n        uint256 amount = totalOwed.sub(repaymentWithdrawn[msg.sender]);\n        repaymentWithdrawn[msg.sender] = totalOwed;\n\n        token.safeTransfer(msg.sender, amount);\n\n        emit WithdrawRepayment(msg.sender, amount);\n    }\n\n    /// @dev Borrower can start the crowdfund once\n    function startCrowdfund() external {\n        _onlyBorrower();\n        _onlyBeforeCrowdfundStart();\n\n        crowdfundStart = now;\n        crowdfundEnd = now + crowdfundDuration;\n\n        emit StartCrowdfund(now);\n    }\n\n    function _onlyBorrower() internal {\n        require(msg.sender == borrower, \"Only the borrower can call function.\");\n    }\n\n    function _onlyBeforeCrowdfundStart() internal {\n        require(crowdfundStart == 0, \"Only before crowdfund start\");\n    }\n\n    function _onlyAfterCrowdfundStart() internal {\n        require(crowdfundStart != 0, \"Only after crowdfund start\");\n    }\n\n    function _onlyBeforeCrowdfundEnd() internal {\n        require(now <= crowdfundEnd, \"Only before crowdfund end\");\n    }\n\n    function _onlyAfterCrowdfundEnd() internal {\n        require(crowdfundStart != 0 && now > crowdfundEnd, \"Only after crowdfund end.\");\n    }\n}\n","sourcePath":"contracts/crowdloan/Crowdloan.sol","abi":[{"constant":true,"inputs":[],"name":"totalContributed","outputs":[{"internalType":"uint256","name":"","type":"uint256"}],"payable":false,"stateMutability":"view","type":"function"},{"constant":true,"inputs":[{"internalType":"address","name":"","type":"address"}],"name":"amountContributed","outputs":[{"internalType":"uint256","name":"","type":"uint256"}],"payable":false,"stateMutability":"view","type":"function"},{"constant":false,"inputs":[{"internalType":"uint256","name":"amount","type":"uint256"}],"name":"repay","outputs":[],"payable":false,"stateMutability":"nonpayable","type":"function"},{"constant":false,"inputs":[{"internalType":"uint256","name":"amount","type":"uint256"}],"name":"withdrawPrincipal","outputs":[],"payable":false,"stateMutability":"nonpayable","type":"function"},{"constant":false,"inputs":[],"name":"withdrawRepayment","outputs":[],"payable":false,"stateMutability":"nonpayable","type":"function"},{"constant":true,"inputs":[{"internalType":"address","name":"","type":"address"}],"name":"repaymentWithdrawn","outputs":[{"internalType":"uint256","name":"","type":"uint256"}],"payable":false,"stateMutability":"view","type":"function"},{"constant":true,"inputs":[],"name":"borrower","outputs":[{"internalType":"address","name":"","type":"address"}],"payable":false,"stateMutability":"view","type":"function"},{"constant":true,"inputs":[],"name":"crowdfundEnd","outputs":[{"internalType":"uint256","name":"","type":"uint256"}],"payable":false,"stateMutability":"view","type":"function"},{"constant":true,"inputs":[],"name":"crowdfundStart","outputs":[{"internalType":"uint256","name":"","type":"uint256"}],"payable":false,"stateMutability":"view","type":"function"},{"constant":false,"inputs":[{"internalType":"address","name":"_borrower","type":"address"},{"internalType":"contract IERC20","name":"_token","type":"address"},{"internalType":"uint256","name":"_principalRequested","type":"uint256"},{"internalType":"uint256","name":"_duration","type":"uint256"},{"internalType":"string","name":"_loanMetadataUrl","type":"string"}],"name":"initialize","outputs":[],"payable":false,"stateMutability":"nonpayable","type":"function"},{"constant":true,"inputs":[],"name":"principalRequested","outputs":[{"internalType":"uint256","name":"","type":"uint256"}],"payable":false,"stateMutability":"view","type":"function"},{"constant":false,"inputs":[],"name":"startCrowdfund","outputs":[],"payable":false,"stateMutability":"nonpayable","type":"function"},{"constant":true,"inputs":[],"name":"principalWithdrawn","outputs":[{"internalType":"uint256","name":"","type":"uint256"}],"payable":false,"stateMutability":"view","type":"function"},{"constant":false,"inputs":[{"internalType":"uint256","name":"amount","type":"uint256"}],"name":"fund","outputs":[],"payable":false,"stateMutability":"nonpayable","type":"function"},{"constant":true,"inputs":[],"name":"crowdfundDuration","outputs":[{"internalType":"uint256","name":"","type":"uint256"}],"payable":false,"stateMutability":"view","type":"function"},{"constant":true,"inputs":[],"name":"loanMetadataUrl","outputs":[{"internalType":"string","name":"","type":"string"}],"payable":false,"stateMutability":"view","type":"function"},{"constant":true,"inputs":[],"name":"amountRepaid","outputs":[{"internalType":"uint256","name":"","type":"uint256"}],"payable":false,"stateMutability":"view","type":"function"},{"constant":true,"inputs":[],"name":"token","outputs":[{"internalType":"contract IERC20","name":"","type":"address"}],"payable":false,"stateMutability":"view","type":"function"},{"anonymous":false,"inputs":[{"indexed":false,"internalType":"address","name":"sender","type":"address"},{"indexed":false,"internalType":"uint256","name":"amount","type":"uint256"}],"name":"Fund","type":"event"},{"anonymous":false,"inputs":[{"indexed":false,"internalType":"address","name":"sender","type":"address"},{"indexed":false,"internalType":"uint256","name":"amount","type":"uint256"}],"name":"WithdrawPrincipal","type":"event"},{"anonymous":false,"inputs":[{"indexed":false,"internalType":"address","name":"sender","type":"address"},{"indexed":false,"internalType":"uint256","name":"amount","type":"uint256"}],"name":"WithdrawRepayment","type":"event"},{"anonymous":false,"inputs":[{"indexed":false,"internalType":"uint256","name":"amount","type":"uint256"}],"name":"Repay","type":"event"},{"anonymous":false,"inputs":[{"indexed":false,"internalType":"uint256","name":"crowdfundStart","type":"uint256"}],"name":"StartCrowdfund","type":"event"}],"bytecode":"0x60806040523480156100115760006000fd5b50610017565b6118b8806100266000396000f3fe60806040523480156100115760006000fd5b506004361061011b5760003560e01c80638e737af2116100a3578063ca1d209d11610072578063ca1d209d146103f8578063d2e3966014610427578063dad8671b14610445578063ee86afd8146104c9578063fc0c546a146104e75761011b565b80638e737af2146102df5780638ffc9215146103b25780639a593b9a146103d0578063c95cbe74146103da5761011b565b80637489b451116100ea5780637489b451146101f65780637dd99395146102005780637df1f1b914610259578063859e0015146102a35780638c3f0e5d146102c15761011b565b8063023f41471461012157806336aec5a31461013f578063371fd8e614610198578063658e28a4146101c75761011b565b60006000fd5b610129610531565b6040518082815260200191505060405180910390f35b610182600480360360208110156101565760006000fd5b81019080803573ffffffffffffffffffffffffffffffffffffffff16906020019092919050505061053a565b6040518082815260200191505060405180910390f35b6101c5600480360360208110156101af5760006000fd5b8101908080359060200190929190505050610555565b005b6101f4600480360360208110156101de5760006000fd5b8101908080359060200190929190505050610610565b005b6101fe610782565b005b610243600480360360208110156102175760006000fd5b81019080803573ffffffffffffffffffffffffffffffffffffffff16906020019092919050505061096d565b6040518082815260200191505060405180910390f35b610261610988565b604051808273ffffffffffffffffffffffffffffffffffffffff1673ffffffffffffffffffffffffffffffffffffffff16815260200191505060405180910390f35b6102ab6109ae565b6040518082815260200191505060405180910390f35b6102c96109b7565b6040518082815260200191505060405180910390f35b6103b0600480360360a08110156102f65760006000fd5b81019080803573ffffffffffffffffffffffffffffffffffffffff169060200190929190803573ffffffffffffffffffffffffffffffffffffffff1690602001909291908035906020019092919080359060200190929190803590602001906401000000008111156103685760006000fd5b82018360208201111561037b5760006000fd5b8035906020019184600183028401116401000000008311171561039e5760006000fd5b909192939090919293905050506109c0565b005b6103ba610b82565b6040518082815260200191505060405180910390f35b6103d8610b8b565b005b6103e2610c00565b6040518082815260200191505060405180910390f35b6104256004803603602081101561040f5760006000fd5b8101908080359060200190929190505050610c09565b005b61042f610f61565b6040518082815260200191505060405180910390f35b61044d610f6a565b6040518080602001828103825283818151815260200191508051906020019080838360005b8381101561048e5780820151818401525b602081019050610472565b50505050905090810190601f1680156104bb5780820380516001836020036101000a031916815260200191505b509250505060405180910390f35b6104d161100b565b6040518082815260200191505060405180910390f35b6104ef611014565b604051808273ffffffffffffffffffffffffffffffffffffffff1673ffffffffffffffffffffffffffffffffffffffff16815260200191505060405180910390f35b603b6000505481565b603a6000506020528060005260406000206000915090505481565b61056361103a63ffffffff16565b61057b81603d600050546110be90919063ffffffff16565b603d6000508190909055506105d5333083603760009054906101000a900473ffffffffffffffffffffffffffffffffffffffff1673ffffffffffffffffffffffffffffffffffffffff166110e7909392919063ffffffff16565b7fa6ffc78a660e4971a47a0f916a0abae483804e6f42c9292ed06aa64f8fe46230816040518082815260200191505060405180910390a15b50565b61061e6111f463ffffffff16565b61062c61103a63ffffffff16565b610649603c60005054603b6000505461129f90919063ffffffff16565b81111515156106a3576040517f08c379a00000000000000000000000000000000000000000000000000000000081526004018080602001828103825260218152602001806118116021913960400191505060405180910390fd5b6106bb81603c600050546110be90919063ffffffff16565b603c6000508190909055506107133382603760009054906101000a900473ffffffffffffffffffffffffffffffffffffffff1673ffffffffffffffffffffffffffffffffffffffff166112c89092919063ffffffff16565b7fee1b5abe14e43ee34008f06f51efca5382c42fb48b0a040fd7a5f5c630cb55803382604051808373ffffffffffffffffffffffffffffffffffffffff1673ffffffffffffffffffffffffffffffffffffffff1681526020018281526020019250505060405180910390a15b50565b6107906113a063ffffffff16565b6000610806603b600050546107f8603a60005060003373ffffffffffffffffffffffffffffffffffffffff1673ffffffffffffffffffffffffffffffffffffffff16815260200190815260200160002060005054603d6000505461143490919063ffffffff16565b61147990919063ffffffff16565b90506000610862603e60005060003373ffffffffffffffffffffffffffffffffffffffff1673ffffffffffffffffffffffffffffffffffffffff168152602001908152602001600020600050548361129f90919063ffffffff16565b905081603e60005060003373ffffffffffffffffffffffffffffffffffffffff1673ffffffffffffffffffffffffffffffffffffffff1681526020019081526020016000206000508190909055506108fd3382603760009054906101000a900473ffffffffffffffffffffffffffffffffffffffff1673ffffffffffffffffffffffffffffffffffffffff166112c89092919063ffffffff16565b7f99a5f076bd438fcb3b84841caf48b7c7f0033ba32847d8b8d34ba0d65a369b593382604051808373ffffffffffffffffffffffffffffffffffffffff1673ffffffffffffffffffffffffffffffffffffffff1681526020018281526020019250505060405180910390a150505b565b603e6000506020528060005260406000206000915090505481565b603660009054906101000a900473ffffffffffffffffffffffffffffffffffffffff1681565b60346000505481565b60336000505481565b600060019054906101000a900460ff16806109e557506109e46114ab63ffffffff16565b5b806109fd5750600060009054906101000a900460ff16155b1515610a54576040517f08c379a000000000000000000000000000000000000000000000000000000000815260040180806020018281038252602e815260200180611856602e913960400191505060405180910390fd5b6000600060019054906101000a900460ff161590508015610aa6576001600060016101000a81548160ff0219169083151502179055506001600060006101000a81548160ff0219169083151502179055505b86603660006101000a81548173ffffffffffffffffffffffffffffffffffffffff021916908373ffffffffffffffffffffffffffffffffffffffff16021790555083603560005081909090555085603760006101000a81548173ffffffffffffffffffffffffffffffffffffffff021916908373ffffffffffffffffffffffffffffffffffffffff160217905550846038600050819090905550828260396000509190610b54929190611726565b505b8015610b78576000600060016101000a81548160ff0219169083151502179055505b505b505050505050565b60386000505481565b610b996111f463ffffffff16565b610ba76114c363ffffffff16565b426033600050819090905550603560005054420160346000508190909055507f7cbc4c855be831448c84ab8db17649938de7e94a1a1dc9b803e6c07acc3cb03b426040518082815260200191505060405180910390a15b565b603c6000505481565b610c1761103a63ffffffff16565b610c2561154663ffffffff16565b600081111515610ca0576040517f08c379a000000000000000000000000000000000000000000000000000000000815260040180806020018281038252601a8152602001807f46756e6420616d6f756e742063616e6e6f74206265207a65726f00000000000081526020015060200191505060405180910390fd5b610cb881603b600050546110be90919063ffffffff16565b603b600050819090905550603860005054603b6000505411151515610d28576040517f08c379a000000000000000000000000000000000000000000000000000000000815260040180806020018281038252603a8152602001806117d7603a913960400191505060405180910390fd5b610d8081603a60005060003373ffffffffffffffffffffffffffffffffffffffff1673ffffffffffffffffffffffffffffffffffffffff168152602001908152602001600020600050546110be90919063ffffffff16565b603a60005060003373ffffffffffffffffffffffffffffffffffffffff1673ffffffffffffffffffffffffffffffffffffffff168152602001908152602001600020600050819090905550603760009054906101000a900473ffffffffffffffffffffffffffffffffffffffff1673ffffffffffffffffffffffffffffffffffffffff166323b872dd3330846040518463ffffffff1660e01b8152600401808473ffffffffffffffffffffffffffffffffffffffff1673ffffffffffffffffffffffffffffffffffffffff1681526020018373ffffffffffffffffffffffffffffffffffffffff1673ffffffffffffffffffffffffffffffffffffffff1681526020018281526020019350505050602060405180830381600087803b158015610ea95760006000fd5b505af1158015610ebe573d600060003e3d6000fd5b505050506040513d6020811015610ed55760006000fd5b81019080805190602001909291905050501515610ef25760006000fd5b7fda8220a878ff7a89474ccffdaa31ea1ed1ffbb0207d5051afccc4fbaf81f9bcd3382604051808373ffffffffffffffffffffffffffffffffffffffff1673ffffffffffffffffffffffffffffffffffffffff1681526020018281526020019250505060405180910390a15b50565b60356000505481565b60396000508054600181600116156101000203166002900480601f0160208091040260200160405190810160405280929190818152602001828054600181600116156101000203166002900480156110035780601f10610fd857610100808354040283529160200191611003565b820191906000526020600020905b815481529060010190602001808311610fe657829003601f168201915b505050505081565b603d6000505481565b603760009054906101000a900473ffffffffffffffffffffffffffffffffffffffff1681565b6000603360005054141515156110bb576040517f08c379a000000000000000000000000000000000000000000000000000000000815260040180806020018281038252601a8152602001807f4f6e6c792061667465722063726f776466756e6420737461727400000000000081526020015060200191505060405180910390fd5b5b565b6000600082840190508381101515156110d75760006000fd5b809150506110e156505b92915050565b6111ed848573ffffffffffffffffffffffffffffffffffffffff166323b872dd905060e01b858585604051602401808473ffffffffffffffffffffffffffffffffffffffff1673ffffffffffffffffffffffffffffffffffffffff1681526020018373ffffffffffffffffffffffffffffffffffffffff1673ffffffffffffffffffffffffffffffffffffffff1681526020018281526020019350505050604051602081830303815290604052907bffffffffffffffffffffffffffffffffffffffffffffffffffffffff19166020820180517bffffffffffffffffffffffffffffffffffffffffffffffffffffffff83818316178352505050506115c963ffffffff16565b5b50505050565b603660009054906101000a900473ffffffffffffffffffffffffffffffffffffffff1673ffffffffffffffffffffffffffffffffffffffff163373ffffffffffffffffffffffffffffffffffffffff1614151561129c576040517f08c379a00000000000000000000000000000000000000000000000000000000081526004018080602001828103825260248152602001806118326024913960400191505060405180910390fd5b5b565b60008282111515156112b15760006000fd5b60008284039050809150506112c256505b92915050565b61139a838473ffffffffffffffffffffffffffffffffffffffff1663a9059cbb905060e01b8484604051602401808373ffffffffffffffffffffffffffffffffffffffff1673ffffffffffffffffffffffffffffffffffffffff16815260200182815260200192505050604051602081830303815290604052907bffffffffffffffffffffffffffffffffffffffffffffffffffffffff19166020820180517bffffffffffffffffffffffffffffffffffffffffffffffffffffffff83818316178352505050506115c963ffffffff16565b5b505050565b6000603360005054141580156113ba575060346000505442115b1515611431576040517f08c379a00000000000000000000000000000000000000000000000000000000081526004018080602001828103825260198152602001807f4f6e6c792061667465722063726f776466756e6420656e642e0000000000000081526020015060200191505060405180910390fd5b5b565b600060008314156114485760009050611473565b6000828402905082848281151561145b57fe5b041415156114695760006000fd5b8091505061147356505b92915050565b600060008211151561148b5760006000fd5b6000828481151561149857fe5b049050809150506114a556505b92915050565b60006000303b9050600081149150506114c056505b90565b6000603360005054141515611543576040517f08c379a000000000000000000000000000000000000000000000000000000000815260040180806020018281038252601b8152602001807f4f6e6c79206265666f72652063726f776466756e64207374617274000000000081526020015060200191505060405180910390fd5b5b565b60346000505442111515156115c6576040517f08c379a00000000000000000000000000000000000000000000000000000000081526004018080602001828103825260198152602001807f4f6e6c79206265666f72652063726f776466756e6420656e640000000000000081526020015060200191505060405180910390fd5b5b565b6115f08273ffffffffffffffffffffffffffffffffffffffff1661170c909063ffffffff16565b15156115fc5760006000fd5b600060608373ffffffffffffffffffffffffffffffffffffffff16836040518082805190602001908083835b60208310151561164e57805182525b602082019150602081019050602083039250611628565b6001836020036101000a0380198251168184511680821785525050505050509050019150506000604051808303816000865af19150503d80600081146116b0576040519150601f19603f3d011682016040523d82523d6000602084013e6116b5565b606091505b50915091508115156116c75760006000fd5b600081511115611705578080602001905160208110156116e75760006000fd5b810190808051906020019092919050505015156117045760006000fd5b5b50505b5050565b60006000823b90506000811191505061172156505b919050565b828054600181600116156101000203166002900490600052602060002090601f016020900481019282601f1061176757803560ff191683800117855561179a565b8280016001018555821561179a579182015b828111156117995782358260005090905591602001919060010190611779565b5b5090506117a791906117ab565b5090565b6117d391906117b5565b808211156117cf57600081815060009055506001016117b5565b5090565b9056fe596f757220636f6e747269627574696f6e20776f756c64206578636565642074686520746f74616c20616d6f756e74207265717565737465642e496e737566666963656e74207072696e636970616c20746f2077697468647261774f6e6c792074686520626f72726f7765722063616e2063616c6c2066756e6374696f6e2e436f6e747261637420696e7374616e63652068617320616c7265616479206265656e20696e697469616c697a6564a265627a7a7231582098372e937fef6300ee2be5e6e29127a3bcf6dc09baf0cd55dbe0770e1b71438464736f6c634300050b0032","compiler":{"name":"solc","version":"0.5.11+commit.c082d0b4.Emscripten.clang","optimizer":{},"evmVersion":"constantinople"}}