{
  "contractName": "CrowdloanFactory",
  "abi": [
    {
      "anonymous": false,
      "inputs": [
        {
          "indexed": true,
          "name": "loanId",
          "type": "uint256"
        },
        {
          "indexed": true,
          "name": "borrower",
          "type": "address"
        },
        {
          "indexed": true,
          "name": "amount",
          "type": "uint256"
        },
        {
          "indexed": false,
          "name": "termsContract",
          "type": "address"
        },
        {
          "indexed": false,
          "name": "crowdloan",
          "type": "address"
        },
        {
          "indexed": false,
          "name": "repaymentManager",
          "type": "address"
        }
      ],
      "name": "LoanCreated",
      "type": "event"
    },
    {
      "constant": false,
      "inputs": [
        {
          "name": "_appContractAddress",
          "type": "address"
        }
      ],
      "name": "initialize",
      "outputs": [],
      "payable": false,
      "stateMutability": "nonpayable",
      "type": "function"
    },
    {
      "constant": false,
      "inputs": [
        {
          "name": "_principalTokenAddr",
          "type": "address"
        },
        {
          "name": "_principalRequested",
          "type": "uint256"
        },
        {
          "name": "_loanPeriod",
          "type": "uint256"
        },
        {
          "name": "_interestRate",
          "type": "uint256"
        },
        {
          "name": "_crowdfundLength",
          "type": "uint256"
        },
        {
          "name": "_crowdfundStart",
          "type": "uint256"
        }
      ],
      "name": "deploy",
      "outputs": [],
      "payable": false,
      "stateMutability": "nonpayable",
      "type": "function"
    },
    {
      "constant": true,
      "inputs": [],
      "name": "getApp",
      "outputs": [
        {
          "name": "",
          "type": "address"
        }
      ],
      "payable": false,
      "stateMutability": "view",
      "type": "function"
    },
    {
      "constant": true,
      "inputs": [],
      "name": "getLoanCount",
      "outputs": [
        {
          "name": "",
          "type": "uint256"
        }
      ],
      "payable": false,
      "stateMutability": "view",
      "type": "function"
    }
  ],
  "bytecode": "0x608060405234801561001057600080fd5b506111aa806100206000396000f3fe608060405234801561001057600080fd5b5060043610610069576000357c0100000000000000000000000000000000000000000000000000000000900480633a43db6f1461006e57806352196812146100b85780637f6ba621146100d6578063c4d66de81461014c575b600080fd5b610076610190565b604051808273ffffffffffffffffffffffffffffffffffffffff1673ffffffffffffffffffffffffffffffffffffffff16815260200191505060405180910390f35b6100c06101ba565b6040518082815260200191505060405180910390f35b61014a600480360360c08110156100ec57600080fd5b81019080803573ffffffffffffffffffffffffffffffffffffffff16906020019092919080359060200190929190803590602001909291908035906020019092919080359060200190929190803590602001909291905050506101c4565b005b61018e6004803603602081101561016257600080fd5b81019080803573ffffffffffffffffffffffffffffffffffffffff1690602001909291905050506107b3565b005b6000603360009054906101000a900473ffffffffffffffffffffffffffffffffffffffff16905090565b6000603454905090565b60006101df60206040519081016040528060008152506108f6565b905060006101fc6020604051908101604052806000815250610bae565b905060006102196020604051908101604052806000815250610e66565b90506060600260405190808252806020026020018201604052801561024d5781602001602082028038833980820191505090505b5090508281600081518110151561026057fe5b9060200190602002019073ffffffffffffffffffffffffffffffffffffffff16908173ffffffffffffffffffffffffffffffffffffffff1681525050818160018151811015156102ac57fe5b9060200190602002019073ffffffffffffffffffffffffffffffffffffffff16908173ffffffffffffffffffffffffffffffffffffffff16815250506060600160405190808252806020026020018201604052801561031a5781602001602082028038833980820191505090505b5090508381600081518110151561032d57fe5b9060200190602002019073ffffffffffffffffffffffffffffffffffffffff16908173ffffffffffffffffffffffffffffffffffffffff16815250508473ffffffffffffffffffffffffffffffffffffffff16638de87cd2338d8d8d8d886040518763ffffffff167c0100000000000000000000000000000000000000000000000000000000028152600401808773ffffffffffffffffffffffffffffffffffffffff1673ffffffffffffffffffffffffffffffffffffffff1681526020018673ffffffffffffffffffffffffffffffffffffffff1673ffffffffffffffffffffffffffffffffffffffff16815260200185815260200184815260200183815260200180602001828103825283818151815260200191508051906020019060200280838360005b8381101561046f578082015181840152602081019050610454565b50505050905001975050505050505050600060405180830381600087803b15801561049957600080fd5b505af11580156104ad573d6000803e3d6000fd5b505050508373ffffffffffffffffffffffffffffffffffffffff1663eb990c5986858a8a6040518563ffffffff167c0100000000000000000000000000000000000000000000000000000000028152600401808573ffffffffffffffffffffffffffffffffffffffff1673ffffffffffffffffffffffffffffffffffffffff1681526020018473ffffffffffffffffffffffffffffffffffffffff1673ffffffffffffffffffffffffffffffffffffffff168152602001838152602001828152602001945050505050600060405180830381600087803b15801561059057600080fd5b505af11580156105a4573d6000803e3d6000fd5b505050508273ffffffffffffffffffffffffffffffffffffffff1663946d920486836040518363ffffffff167c0100000000000000000000000000000000000000000000000000000000028152600401808373ffffffffffffffffffffffffffffffffffffffff1673ffffffffffffffffffffffffffffffffffffffff16815260200180602001828103825283818151815260200191508051906020019060200280838360005b8381101561066657808201518184015260208101905061064b565b505050509050019350505050600060405180830381600087803b15801561068c57600080fd5b505af11580156106a0573d6000803e3d6000fd5b50505050893373ffffffffffffffffffffffffffffffffffffffff166034547f4e4016d2c9344f1288d5becd16866c0f58ee7a45b991502969c052eb5fa6f5c0888888604051808473ffffffffffffffffffffffffffffffffffffffff1673ffffffffffffffffffffffffffffffffffffffff1681526020018373ffffffffffffffffffffffffffffffffffffffff1673ffffffffffffffffffffffffffffffffffffffff1681526020018273ffffffffffffffffffffffffffffffffffffffff1673ffffffffffffffffffffffffffffffffffffffff168152602001935050505060405180910390a46107a0600160345461111e90919063ffffffff16565b6034819055505050505050505050505050565b600060019054906101000a900460ff16806107d257506107d161113f565b5b806107e957506000809054906101000a900460ff16155b1515610840576040517f08c379a000000000000000000000000000000000000000000000000000000000815260040180806020018281038252602e815260200180611151602e913960400191505060405180910390fd5b60008060019054906101000a900460ff161590508015610890576001600060016101000a81548160ff02191690831515021790555060016000806101000a81548160ff0219169083151502179055505b81603360006101000a81548173ffffffffffffffffffffffffffffffffffffffff021916908373ffffffffffffffffffffffffffffffffffffffff16021790555080156108f25760008060016101000a81548160ff0219169083151502179055505b5050565b60008060009050603360009054906101000a900473ffffffffffffffffffffffffffffffffffffffff1673ffffffffffffffffffffffffffffffffffffffff1663cd3e318a6040805190810160405280600d81526020017f656e61626c652d637265646974000000000000000000000000000000000000008152506040805190810160405280600d81526020017f5465726d73436f6e74726163740000000000000000000000000000000000000081525084876040518563ffffffff167c01000000000000000000000000000000000000000000000000000000000281526004018080602001806020018573ffffffffffffffffffffffffffffffffffffffff1673ffffffffffffffffffffffffffffffffffffffff16815260200180602001848103845288818151815260200191508051906020019080838360005b83811015610a4e578082015181840152602081019050610a33565b50505050905090810190601f168015610a7b5780820380516001836020036101000a031916815260200191505b50848103835287818151815260200191508051906020019080838360005b83811015610ab4578082015181840152602081019050610a99565b50505050905090810190601f168015610ae15780820380516001836020036101000a031916815260200191505b50848103825285818151815260200191508051906020019080838360005b83811015610b1a578082015181840152602081019050610aff565b50505050905090810190601f168015610b475780820380516001836020036101000a031916815260200191505b50975050505050505050602060405180830381600087803b158015610b6b57600080fd5b505af1158015610b7f573d6000803e3d6000fd5b505050506040513d6020811015610b9557600080fd5b8101908080519060200190929190505050915050919050565b60008060009050603360009054906101000a900473ffffffffffffffffffffffffffffffffffffffff1673ffffffffffffffffffffffffffffffffffffffff1663cd3e318a6040805190810160405280600d81526020017f656e61626c652d637265646974000000000000000000000000000000000000008152506040805190810160405280600981526020017f43726f77646c6f616e000000000000000000000000000000000000000000000081525084876040518563ffffffff167c01000000000000000000000000000000000000000000000000000000000281526004018080602001806020018573ffffffffffffffffffffffffffffffffffffffff1673ffffffffffffffffffffffffffffffffffffffff16815260200180602001848103845288818151815260200191508051906020019080838360005b83811015610d06578082015181840152602081019050610ceb565b50505050905090810190601f168015610d335780820380516001836020036101000a031916815260200191505b50848103835287818151815260200191508051906020019080838360005b83811015610d6c578082015181840152602081019050610d51565b50505050905090810190601f168015610d995780820380516001836020036101000a031916815260200191505b50848103825285818151815260200191508051906020019080838360005b83811015610dd2578082015181840152602081019050610db7565b50505050905090810190601f168015610dff5780820380516001836020036101000a031916815260200191505b50975050505050505050602060405180830381600087803b158015610e2357600080fd5b505af1158015610e37573d6000803e3d6000fd5b505050506040513d6020811015610e4d57600080fd5b8101908080519060200190929190505050915050919050565b60008060009050603360009054906101000a900473ffffffffffffffffffffffffffffffffffffffff1673ffffffffffffffffffffffffffffffffffffffff1663cd3e318a6040805190810160405280600d81526020017f656e61626c652d637265646974000000000000000000000000000000000000008152506040805190810160405280601081526020017f52657061796d656e744d616e616765720000000000000000000000000000000081525084876040518563ffffffff167c01000000000000000000000000000000000000000000000000000000000281526004018080602001806020018573ffffffffffffffffffffffffffffffffffffffff1673ffffffffffffffffffffffffffffffffffffffff16815260200180602001848103845288818151815260200191508051906020019080838360005b83811015610fbe578082015181840152602081019050610fa3565b50505050905090810190601f168015610feb5780820380516001836020036101000a031916815260200191505b50848103835287818151815260200191508051906020019080838360005b83811015611024578082015181840152602081019050611009565b50505050905090810190601f1680156110515780820380516001836020036101000a031916815260200191505b50848103825285818151815260200191508051906020019080838360005b8381101561108a57808201518184015260208101905061106f565b50505050905090810190601f1680156110b75780820380516001836020036101000a031916815260200191505b50975050505050505050602060405180830381600087803b1580156110db57600080fd5b505af11580156110ef573d6000803e3d6000fd5b505050506040513d602081101561110557600080fd5b8101908080519060200190929190505050915050919050565b600080828401905083811015151561113557600080fd5b8091505092915050565b600080303b9050600081149150509056fe436f6e747261637420696e7374616e63652068617320616c7265616479206265656e20696e697469616c697a6564a165627a7a72305820f08c1940fea2efb3fdbc0b0fdcba476b7f101f3968f49c34fcfc107cc9e078a70029",
  "source": "pragma solidity ^0.5.2;\n\nimport \"zos-lib/contracts/Initializable.sol\";\nimport \"zos-lib/contracts/application/App.sol\";\nimport \"zos-lib/contracts/upgradeability/AdminUpgradeabilityProxy.sol\";\nimport \"openzeppelin-eth/contracts/token/ERC20/StandaloneERC20.sol\";\nimport \"openzeppelin-eth/contracts/math/SafeMath.sol\";\nimport \"../crowdloan/Crowdloan.sol\";\nimport \"../debt-contracts/RepaymentManager.sol\";\nimport \"../debt-contracts/TermsContract.sol\";\n\ncontract CrowdloanFactory is Initializable {\n    using SafeMath for uint256;\n    \n    string constant ENABLE_CREDIT_PACKAGE = \"enable-credit\";\n    string constant TERMS_CONTRACT = \"TermsContract\";\n    string constant CROWDLOAN = \"Crowdloan\";\n    string constant REPAYMENT_ROUTER = \"RepaymentManager\";\n\n    App internal _app;\n    uint256 internal _loanCount;\n\n    event LoanCreated(\n        uint256 indexed loanId,\n        address indexed borrower,\n        uint256 indexed amount,\n        address termsContract,\n        address crowdloan,\n        address repaymentManager\n    );\n\n    function initialize(address _appContractAddress) public initializer {\n        _app = App(_appContractAddress);\n    }\n\n    function _createTermsContract(bytes memory _data) internal returns (address proxy) {\n        address admin = address(0);\n        return address(_app.create(ENABLE_CREDIT_PACKAGE, TERMS_CONTRACT, admin, _data));\n    }\n\n    function _createCrowdloan(bytes memory _data) internal returns (address proxy) {\n        address admin = address(0);\n        return address(_app.create(ENABLE_CREDIT_PACKAGE, CROWDLOAN, admin, _data));\n    }\n\n    function _createRepaymentManager(bytes memory _data) internal returns (address proxy) {\n        address admin = address(0);\n        return address(_app.create(ENABLE_CREDIT_PACKAGE, REPAYMENT_ROUTER, admin, _data));\n    }\n\n    function deploy(\n        address _principalTokenAddr,\n        uint256 _principalRequested,\n        uint256 _loanPeriod,\n        uint256 _interestRate,\n        uint256 _crowdfundLength,\n        uint256 _crowdfundStart\n    ) public {\n        // TODO(Dan): Asserts and require statements\n\n        address termsContractInstance = _createTermsContract(\"\");\n        address crowdloanInstance = _createCrowdloan(\"\");\n        address repaymentManagerInstance = _createRepaymentManager(\"\");\n\n        // address(uint160(addr))\n\n        address[] memory _controllers = new address[](2);\n        _controllers[0] = crowdloanInstance;\n        _controllers[1] = repaymentManagerInstance;\n\n        address[] memory _loanInstanceAsController = new address[](1);\n        _loanInstanceAsController[0] = crowdloanInstance;\n\n        TermsContract(termsContractInstance).initialize(\n            msg.sender,\n            _principalTokenAddr,\n            _principalRequested,\n            _loanPeriod,\n            _interestRate,\n            _controllers\n        );\n\n        Crowdloan(address(uint160(crowdloanInstance))).initialize(\n            termsContractInstance,\n            repaymentManagerInstance,\n            _crowdfundLength,\n            _crowdfundStart\n        );\n\n        RepaymentManager(address(uint160(repaymentManagerInstance))).initialize(\n            termsContractInstance,\n            _loanInstanceAsController\n        );\n\n        emit LoanCreated(\n            _loanCount,\n            msg.sender,\n            _principalRequested,\n            termsContractInstance,\n            crowdloanInstance,\n            repaymentManagerInstance\n        );\n\n        _loanCount = _loanCount.add(1);\n    }\n\n    function getApp() public view returns (App) {\n        return _app;\n    }\n\n    function getLoanCount() public view returns (uint256) {\n        return _loanCount;\n    }\n}\n",
  "sourcePath": "/Users/thomas/Code/client/enable/enable-contracts/contracts/factory/CrowdloanFactory.sol",
  "compiler": {
    "name": "solc",
    "version": "0.5.2+commit.1df8f40c.Emscripten.clang"
  },
  "schemaVersion": "3.0.11",
  "updatedAt": "2019-07-31T17:23:40.214Z",
  "devdoc": {
    "methods": {}
  },
  "userdoc": {
    "methods": {}
  }
}