{
  "contractName": "RepaymentManager",
  "abi": [
    {
      "constant": true,
      "inputs": [],
      "name": "termsContract",
      "outputs": [
        {
          "internalType": "contract ITermsContract",
          "name": "",
          "type": "address"
        }
      ],
      "payable": false,
      "stateMutability": "view",
      "type": "function"
    },
    {
      "constant": true,
      "inputs": [
        {
          "internalType": "address",
          "name": "account",
          "type": "address"
        }
      ],
      "name": "isController",
      "outputs": [
        {
          "internalType": "bool",
          "name": "",
          "type": "bool"
        }
      ],
      "payable": false,
      "stateMutability": "view",
      "type": "function"
    },
    {
      "payable": true,
      "stateMutability": "payable",
      "type": "fallback"
    },
    {
      "anonymous": false,
      "inputs": [
        {
          "indexed": true,
          "internalType": "address",
          "name": "account",
          "type": "address"
        }
      ],
      "name": "ControllerAdded",
      "type": "event"
    },
    {
      "anonymous": false,
      "inputs": [
        {
          "indexed": true,
          "internalType": "address",
          "name": "account",
          "type": "address"
        }
      ],
      "name": "ControllerRemoved",
      "type": "event"
    },
    {
      "anonymous": false,
      "inputs": [
        {
          "indexed": false,
          "internalType": "address",
          "name": "account",
          "type": "address"
        }
      ],
      "name": "LogAccess",
      "type": "event"
    },
    {
      "anonymous": false,
      "inputs": [
        {
          "indexed": false,
          "internalType": "address",
          "name": "account",
          "type": "address"
        }
      ],
      "name": "PayeeAdded",
      "type": "event"
    },
    {
      "anonymous": false,
      "inputs": [
        {
          "indexed": false,
          "internalType": "address",
          "name": "account",
          "type": "address"
        }
      ],
      "name": "PayeeRemoved",
      "type": "event"
    },
    {
      "anonymous": false,
      "inputs": [
        {
          "indexed": false,
          "internalType": "address",
          "name": "account",
          "type": "address"
        },
        {
          "indexed": false,
          "internalType": "uint256",
          "name": "sharesAdded",
          "type": "uint256"
        }
      ],
      "name": "ShareIncreased",
      "type": "event"
    },
    {
      "anonymous": false,
      "inputs": [
        {
          "indexed": false,
          "internalType": "address",
          "name": "account",
          "type": "address"
        },
        {
          "indexed": false,
          "internalType": "uint256",
          "name": "sharesRemoved",
          "type": "uint256"
        }
      ],
      "name": "ShareDecreased",
      "type": "event"
    },
    {
      "anonymous": false,
      "inputs": [
        {
          "indexed": false,
          "internalType": "address",
          "name": "to",
          "type": "address"
        },
        {
          "indexed": false,
          "internalType": "uint256",
          "name": "amount",
          "type": "uint256"
        }
      ],
      "name": "PaymentReleased",
      "type": "event"
    },
    {
      "anonymous": false,
      "inputs": [
        {
          "indexed": false,
          "internalType": "address",
          "name": "from",
          "type": "address"
        },
        {
          "indexed": false,
          "internalType": "uint256",
          "name": "amount",
          "type": "uint256"
        }
      ],
      "name": "PaymentReceived",
      "type": "event"
    },
    {
      "constant": false,
      "inputs": [
        {
          "internalType": "address",
          "name": "_termsContract",
          "type": "address"
        },
        {
          "internalType": "address[]",
          "name": "_controllers",
          "type": "address[]"
        }
      ],
      "name": "initialize",
      "outputs": [],
      "payable": true,
      "stateMutability": "payable",
      "type": "function"
    },
    {
      "constant": false,
      "inputs": [
        {
          "internalType": "address[]",
          "name": "_controllers",
          "type": "address[]"
        }
      ],
      "name": "initialize",
      "outputs": [],
      "payable": false,
      "stateMutability": "nonpayable",
      "type": "function"
    },
    {
      "constant": true,
      "inputs": [],
      "name": "totalPaid",
      "outputs": [
        {
          "internalType": "uint256",
          "name": "",
          "type": "uint256"
        }
      ],
      "payable": false,
      "stateMutability": "view",
      "type": "function"
    },
    {
      "constant": true,
      "inputs": [],
      "name": "totalShares",
      "outputs": [
        {
          "internalType": "uint256",
          "name": "",
          "type": "uint256"
        }
      ],
      "payable": false,
      "stateMutability": "view",
      "type": "function"
    },
    {
      "constant": true,
      "inputs": [],
      "name": "totalReleased",
      "outputs": [
        {
          "internalType": "uint256",
          "name": "",
          "type": "uint256"
        }
      ],
      "payable": false,
      "stateMutability": "view",
      "type": "function"
    },
    {
      "constant": true,
      "inputs": [
        {
          "internalType": "address",
          "name": "account",
          "type": "address"
        }
      ],
      "name": "shares",
      "outputs": [
        {
          "internalType": "uint256",
          "name": "",
          "type": "uint256"
        }
      ],
      "payable": false,
      "stateMutability": "view",
      "type": "function"
    },
    {
      "constant": true,
      "inputs": [
        {
          "internalType": "address",
          "name": "account",
          "type": "address"
        }
      ],
      "name": "released",
      "outputs": [
        {
          "internalType": "uint256",
          "name": "",
          "type": "uint256"
        }
      ],
      "payable": false,
      "stateMutability": "view",
      "type": "function"
    },
    {
      "constant": true,
      "inputs": [
        {
          "internalType": "address",
          "name": "account",
          "type": "address"
        }
      ],
      "name": "releaseAllowance",
      "outputs": [
        {
          "internalType": "uint256",
          "name": "",
          "type": "uint256"
        }
      ],
      "payable": false,
      "stateMutability": "view",
      "type": "function"
    },
    {
      "constant": false,
      "inputs": [
        {
          "internalType": "uint256",
          "name": "amount",
          "type": "uint256"
        }
      ],
      "name": "pay",
      "outputs": [],
      "payable": false,
      "stateMutability": "nonpayable",
      "type": "function"
    },
    {
      "constant": false,
      "inputs": [
        {
          "internalType": "address payable",
          "name": "account",
          "type": "address"
        }
      ],
      "name": "release",
      "outputs": [],
      "payable": false,
      "stateMutability": "nonpayable",
      "type": "function"
    },
    {
      "constant": false,
      "inputs": [
        {
          "internalType": "address",
          "name": "account",
          "type": "address"
        },
        {
          "internalType": "uint256",
          "name": "shares_",
          "type": "uint256"
        }
      ],
      "name": "increaseShares",
      "outputs": [],
      "payable": false,
      "stateMutability": "nonpayable",
      "type": "function"
    },
    {
      "constant": false,
      "inputs": [
        {
          "internalType": "address",
          "name": "account",
          "type": "address"
        },
        {
          "internalType": "uint256",
          "name": "shares_",
          "type": "uint256"
        }
      ],
      "name": "decreaseShares",
      "outputs": [],
      "payable": false,
      "stateMutability": "nonpayable",
      "type": "function"
    },
    {
      "constant": true,
      "inputs": [],
      "name": "getRepaymentStatus",
      "outputs": [
        {
          "internalType": "enum RepaymentManager.RepaymentStatus",
          "name": "",
          "type": "uint8"
        }
      ],
      "payable": false,
      "stateMutability": "view",
      "type": "function"
    }
  ],
  "bytecode": "0x608060405234801561001057600080fd5b50611f0d806100206000396000f3fe6080604052600436106100e85760003560e01c80639852595c1161008a578063ce7c2ac211610059578063ce7c2ac2146105be578063e33b7de314610623578063e7b0f6661461064e578063f7c0cabb14610679576100e8565b80639852595c146103f0578063a224cee714610455578063b429afeb1461051a578063c290d69114610583576100e8565b806365ac2771116100c657806365ac27711461022957806386c011db1461026257806387983d13146102bd578063946d920414610318576100e8565b8063172a707b1461015657806319165587146101ad5780633a98ef39146101fe575b6040517f08c379a00000000000000000000000000000000000000000000000000000000081526004018080602001828103825260128152602001807f4574686572206e6f74206163636570746564000000000000000000000000000081525060200191505060405180910390fd5b34801561016257600080fd5b5061016b6106de565b604051808273ffffffffffffffffffffffffffffffffffffffff1673ffffffffffffffffffffffffffffffffffffffff16815260200191505060405180910390f35b3480156101b957600080fd5b506101fc600480360360208110156101d057600080fd5b81019080803573ffffffffffffffffffffffffffffffffffffffff169060200190929190505050610704565b005b34801561020a57600080fd5b50610213610819565b6040518082815260200191505060405180910390f35b34801561023557600080fd5b5061023e610823565b6040518082600181111561024e57fe5b60ff16815260200191505060405180910390f35b34801561026e57600080fd5b506102bb6004803603604081101561028557600080fd5b81019080803573ffffffffffffffffffffffffffffffffffffffff169060200190929190803590602001909291905050506108f4565b005b3480156102c957600080fd5b50610316600480360360408110156102e057600080fd5b81019080803573ffffffffffffffffffffffffffffffffffffffff16906020019092919080359060200190929190505050610c5a565b005b6103ee6004803603604081101561032e57600080fd5b81019080803573ffffffffffffffffffffffffffffffffffffffff1690602001909291908035906020019064010000000081111561036b57600080fd5b82018360208201111561037d57600080fd5b8035906020019184602083028401116401000000008311171561039f57600080fd5b919080806020026020016040519081016040528093929190818152602001838360200280828437600081840152601f19601f820116905080830192505050505050509192919290505050610e57565b005b3480156103fc57600080fd5b5061043f6004803603602081101561041357600080fd5b81019080803573ffffffffffffffffffffffffffffffffffffffff169060200190929190505050610fa2565b6040518082815260200191505060405180910390f35b34801561046157600080fd5b506105186004803603602081101561047857600080fd5b810190808035906020019064010000000081111561049557600080fd5b8201836020820111156104a757600080fd5b803590602001918460208302840111640100000000831117156104c957600080fd5b919080806020026020016040519081016040528093929190818152602001838360200280828437600081840152601f19601f820116905080830192505050505050509192919290505050610fa9565b005b34801561052657600080fd5b506105696004803603602081101561053d57600080fd5b81019080803573ffffffffffffffffffffffffffffffffffffffff1690602001909291905050506110e2565b604051808215151515815260200191505060405180910390f35b34801561058f57600080fd5b506105bc600480360360208110156105a657600080fd5b81019080803590602001909291905050506110ff565b005b3480156105ca57600080fd5b5061060d600480360360208110156105e157600080fd5b81019080803573ffffffffffffffffffffffffffffffffffffffff169060200190929190505050611214565b6040518082815260200191505060405180910390f35b34801561062f57600080fd5b5061063861125d565b6040518082815260200191505060405180910390f35b34801561065a57600080fd5b50610663611262565b6040518082815260200191505060405180910390f35b34801561068557600080fd5b506106c86004803603602081101561069c57600080fd5b81019080803573ffffffffffffffffffffffffffffffffffffffff169060200190929190505050611341565b6040518082815260200191505060405180910390f35b606a60009054906101000a900473ffffffffffffffffffffffffffffffffffffffff1681565b6004600581111561071157fe5b606a60009054906101000a900473ffffffffffffffffffffffffffffffffffffffff1673ffffffffffffffffffffffffffffffffffffffff1663acc1ab136040518163ffffffff1660e01b815260040160206040518083038186803b15801561077957600080fd5b505afa15801561078d573d6000803e3d6000fd5b505050506040513d60208110156107a357600080fd5b810190808051906020019092919050505060058111156107bf57fe5b1015610816576040517f08c379a0000000000000000000000000000000000000000000000000000000008152600401808060200182810382526028815260200180611dd16028913960400191505060405180910390fd5b50565b6000606654905090565b600080606a60009054906101000a900473ffffffffffffffffffffffffffffffffffffffff1673ffffffffffffffffffffffffffffffffffffffff16636bca7c7e6040518163ffffffff1660e01b815260040160206040518083038186803b15801561088e57600080fd5b505afa1580156108a2573d6000803e3d6000fd5b505050506040513d60208110156108b857600080fd5b8101908080519060200190929190505050905060006108d5611262565b9050818110156108ea576001925050506108f1565b6000925050505b90565b7ffca6d4e226ce530cdba35a2c75a702b253c239a7068eefc5b041b2519083d2c933604051808273ffffffffffffffffffffffffffffffffffffffff1673ffffffffffffffffffffffffffffffffffffffff16815260200191505060405180910390a1610960336110e2565b6109d2576040517f08c379a00000000000000000000000000000000000000000000000000000000081526004018080602001828103825260118152602001807f5065726d697373696f6e2064656e69656400000000000000000000000000000081525060200191505060405180910390fd5b600360058111156109df57fe5b606a60009054906101000a900473ffffffffffffffffffffffffffffffffffffffff1673ffffffffffffffffffffffffffffffffffffffff1663acc1ab136040518163ffffffff1660e01b815260040160206040518083038186803b158015610a4757600080fd5b505afa158015610a5b573d6000803e3d6000fd5b505050506040513d6020811015610a7157600080fd5b81019080805190602001909291905050506005811115610a8d57fe5b10610ae3576040517f08c379a0000000000000000000000000000000000000000000000000000000008152600401808060200182810382526034815260200180611df96034913960400191505060405180910390fd5b60026005811115610af057fe5b606a60009054906101000a900473ffffffffffffffffffffffffffffffffffffffff1673ffffffffffffffffffffffffffffffffffffffff1663acc1ab136040518163ffffffff1660e01b815260040160206040518083038186803b158015610b5857600080fd5b505afa158015610b6c573d6000803e3d6000fd5b505050506040513d6020811015610b8257600080fd5b81019080805190602001909291905050506005811115610b9e57fe5b10610bf4576040517f08c379a000000000000000000000000000000000000000000000000000000000815260040180806020018281038252602e815260200180611eab602e913960400191505060405180910390fd5b6000606860008473ffffffffffffffffffffffffffffffffffffffff1673ffffffffffffffffffffffffffffffffffffffff168152602001908152602001600020541415610c4b57610c468282611348565b610c56565b610c55828261160d565b5b5050565b7ffca6d4e226ce530cdba35a2c75a702b253c239a7068eefc5b041b2519083d2c933604051808273ffffffffffffffffffffffffffffffffffffffff1673ffffffffffffffffffffffffffffffffffffffff16815260200191505060405180910390a1610cc6336110e2565b610d38576040517f08c379a00000000000000000000000000000000000000000000000000000000081526004018080602001828103825260118152602001807f5065726d697373696f6e2064656e69656400000000000000000000000000000081525060200191505060405180910390fd5b60036005811115610d4557fe5b606a60009054906101000a900473ffffffffffffffffffffffffffffffffffffffff1673ffffffffffffffffffffffffffffffffffffffff1663acc1ab136040518163ffffffff1660e01b815260040160206040518083038186803b158015610dad57600080fd5b505afa158015610dc1573d6000803e3d6000fd5b505050506040513d6020811015610dd757600080fd5b81019080805190602001909291905050506005811115610df357fe5b10610e49576040517f08c379a0000000000000000000000000000000000000000000000000000000008152600401808060200182810382526034815260200180611df96034913960400191505060405180910390fd5b610e53828261184b565b5050565b600060019054906101000a900460ff1680610e765750610e75611b3e565b5b80610e8d57506000809054906101000a900460ff16155b610ee2576040517f08c379a000000000000000000000000000000000000000000000000000000000815260040180806020018281038252602e815260200180611e7d602e913960400191505060405180910390fd5b60008060019054906101000a900460ff161590508015610f32576001600060016101000a81548160ff02191690831515021790555060016000806101000a81548160ff0219169083151502179055505b82606a60006101000a81548173ffffffffffffffffffffffffffffffffffffffff021916908373ffffffffffffffffffffffffffffffffffffffff160217905550610f7c82610fa9565b8015610f9d5760008060016101000a81548160ff0219169083151502179055505b505050565b6000919050565b600060019054906101000a900460ff1680610fc85750610fc7611b3e565b5b80610fdf57506000809054906101000a900460ff16155b611034576040517f08c379a000000000000000000000000000000000000000000000000000000000815260040180806020018281038252602e815260200180611e7d602e913960400191505060405180910390fd5b60008060019054906101000a900460ff161590508015611084576001600060016101000a81548160ff02191690831515021790555060016000806101000a81548160ff0219169083151502179055505b60008090505b82518110156110bc576110af8382815181106110a257fe5b6020026020010151611b4f565b808060010191505061108a565b5080156110de5760008060016101000a81548160ff0219169083151502179055505b5050565b60006110f8826033611ba990919063ffffffff16565b9050919050565b6004600581111561110c57fe5b606a60009054906101000a900473ffffffffffffffffffffffffffffffffffffffff1673ffffffffffffffffffffffffffffffffffffffff1663acc1ab136040518163ffffffff1660e01b815260040160206040518083038186803b15801561117457600080fd5b505afa158015611188573d6000803e3d6000fd5b505050506040513d602081101561119e57600080fd5b810190808051906020019092919050505060058111156111ba57fe5b1015611211576040517f08c379a0000000000000000000000000000000000000000000000000000000008152600401808060200182810382526028815260200180611dd16028913960400191505060405180910390fd5b50565b6000606860008373ffffffffffffffffffffffffffffffffffffffff1673ffffffffffffffffffffffffffffffffffffffff168152602001908152602001600020549050919050565b600090565b60008061126d611c3b565b73ffffffffffffffffffffffffffffffffffffffff166370a08231306040518263ffffffff1660e01b8152600401808273ffffffffffffffffffffffffffffffffffffffff1673ffffffffffffffffffffffffffffffffffffffff16815260200191505060206040518083038186803b1580156112e957600080fd5b505afa1580156112fd573d6000803e3d6000fd5b505050506040513d602081101561131357600080fd5b8101908080519060200190929190505050905061133b60675482611ce590919063ffffffff16565b91505090565b6000919050565b600073ffffffffffffffffffffffffffffffffffffffff168273ffffffffffffffffffffffffffffffffffffffff1614156113eb576040517f08c379a00000000000000000000000000000000000000000000000000000000081526004018080602001828103825260208152602001807f4163636f756e74206d757374206e6f74206265207a65726f206164647265737381525060200191505060405180910390fd5b60008111611444576040517f08c379a0000000000000000000000000000000000000000000000000000000008152600401808060200182810382526022815260200180611e2d6022913960400191505060405180910390fd5b6000606860008473ffffffffffffffffffffffffffffffffffffffff1673ffffffffffffffffffffffffffffffffffffffff16815260200190815260200160002054146114dc576040517f08c379a000000000000000000000000000000000000000000000000000000000815260040180806020018281038252602e815260200180611e4f602e913960400191505060405180910390fd5b80606860008473ffffffffffffffffffffffffffffffffffffffff1673ffffffffffffffffffffffffffffffffffffffff1681526020019081526020016000208190555061153581606654611ce590919063ffffffff16565b6066819055507fe50d60c97c4d4d49c3d404d841de6d02f67b7fef95765960ece08d9cf438fd7282604051808273ffffffffffffffffffffffffffffffffffffffff1673ffffffffffffffffffffffffffffffffffffffff16815260200191505060405180910390a17f41d7bd33938620cb373e6ebd6be2e33d322196c2c255a214d10c2e4aa1c7b1de8282604051808373ffffffffffffffffffffffffffffffffffffffff1673ffffffffffffffffffffffffffffffffffffffff1681526020018281526020019250505060405180910390a15050565b600073ffffffffffffffffffffffffffffffffffffffff168273ffffffffffffffffffffffffffffffffffffffff1614156116b0576040517f08c379a00000000000000000000000000000000000000000000000000000000081526004018080602001828103825260208152602001807f4163636f756e74206d757374206e6f74206265207a65726f206164647265737381525060200191505060405180910390fd5b60008111611726576040517f08c379a000000000000000000000000000000000000000000000000000000000815260040180806020018281038252601f8152602001807f43616e206e6f7420696e637265617365206279207a65726f207368617265730081525060200191505060405180910390fd5b61173b81606654611ce590919063ffffffff16565b606681905550600061179582606860008673ffffffffffffffffffffffffffffffffffffffff1673ffffffffffffffffffffffffffffffffffffffff16815260200190815260200160002054611ce590919063ffffffff16565b905080606860008573ffffffffffffffffffffffffffffffffffffffff1673ffffffffffffffffffffffffffffffffffffffff168152602001908152602001600020819055507f41d7bd33938620cb373e6ebd6be2e33d322196c2c255a214d10c2e4aa1c7b1de8383604051808373ffffffffffffffffffffffffffffffffffffffff1673ffffffffffffffffffffffffffffffffffffffff1681526020018281526020019250505060405180910390a1505050565b600073ffffffffffffffffffffffffffffffffffffffff168273ffffffffffffffffffffffffffffffffffffffff1614156118ee576040517f08c379a00000000000000000000000000000000000000000000000000000000081526004018080602001828103825260208152602001807f4163636f756e74206d757374206e6f74206265207a65726f206164647265737381525060200191505060405180910390fd5b60008111611964576040517f08c379a000000000000000000000000000000000000000000000000000000000815260040180806020018281038252601f8152602001807f43616e206e6f74206465637265617365206279207a65726f207368617265730081525060200191505060405180910390fd5b6000606860008473ffffffffffffffffffffffffffffffffffffffff1673ffffffffffffffffffffffffffffffffffffffff1681526020019081526020016000205411611a19576040517f08c379a00000000000000000000000000000000000000000000000000000000081526004018080602001828103825260178152602001807f4163636f756e7420686173207a65726f2073686172657300000000000000000081525060200191505060405180910390fd5b611a2e81606654611d0490919063ffffffff16565b6066819055506000611a8882606860008673ffffffffffffffffffffffffffffffffffffffff1673ffffffffffffffffffffffffffffffffffffffff16815260200190815260200160002054611d0490919063ffffffff16565b905080606860008573ffffffffffffffffffffffffffffffffffffffff1673ffffffffffffffffffffffffffffffffffffffff168152602001908152602001600020819055507fe08a8f40453f09e6ad2aa114d862bf5ade2fc98bca4679b63d94eae5b97300958383604051808373ffffffffffffffffffffffffffffffffffffffff1673ffffffffffffffffffffffffffffffffffffffff1681526020018281526020019250505060405180910390a1505050565b600080303b90506000811491505090565b611b63816033611d2490919063ffffffff16565b8073ffffffffffffffffffffffffffffffffffffffff167f0a8bb31534c0ed46f380cb867bd5c803a189ced9a764e30b3a4991a9901d747460405160405180910390a250565b60008073ffffffffffffffffffffffffffffffffffffffff168273ffffffffffffffffffffffffffffffffffffffff161415611be457600080fd5b8260000160008373ffffffffffffffffffffffffffffffffffffffff1673ffffffffffffffffffffffffffffffffffffffff16815260200190815260200160002060009054906101000a900460ff16905092915050565b6000606a60009054906101000a900473ffffffffffffffffffffffffffffffffffffffff1673ffffffffffffffffffffffffffffffffffffffff1663adb724bf6040518163ffffffff1660e01b815260040160206040518083038186803b158015611ca557600080fd5b505afa158015611cb9573d6000803e3d6000fd5b505050506040513d6020811015611ccf57600080fd5b8101908080519060200190929190505050905090565b600080828401905083811015611cfa57600080fd5b8091505092915050565b600082821115611d1357600080fd5b600082840390508091505092915050565b600073ffffffffffffffffffffffffffffffffffffffff168173ffffffffffffffffffffffffffffffffffffffff161415611d5e57600080fd5b611d688282611ba9565b15611d7257600080fd5b60018260000160008373ffffffffffffffffffffffffffffffffffffffff1673ffffffffffffffffffffffffffffffffffffffff16815260200190815260200160002060006101000a81548160ff021916908315150217905550505056fe416374696f6e206f6e6c7920616c6c6f776564207768696c65206c6f616e20697320416374697665416374696f6e206f6e6c7920616c6c6f776564206265666f7265206c6f616e2066756e64696e6720697320636f6d706c6574656443616e206e6f74206164642050617965652077697468207a65726f207368617265734163636f756e7420616c726561647920686173207368617265732c2075736520696e637265617365536861726573436f6e747261637420696e7374616e63652068617320616c7265616479206265656e20696e697469616c697a6564416374696f6e206f6e6c7920616c6c6f776564206265666f7265206c6f616e2066756e64696e67206661696c6564a265627a7a72315820054800ac14f195947694fb031bb4dddeeab7f70013907fb69f3b296c6cb9f99d64736f6c634300050b0032",
  "source": "pragma solidity 0.5.11;\n\nimport \"openzeppelin-eth/contracts/math/SafeMath.sol\";\nimport \"openzeppelin-eth/contracts/token/ERC20/IERC20.sol\";\nimport \"zos-lib/contracts/Initializable.sol\";\nimport \"../interface/IRepaymentManager.sol\";\nimport \"../interface/ITermsContract.sol\";\nimport \"../access/ControllerRole.sol\";\nimport \"./TermsContractLib.sol\";\n\n/**\n * @title RepaymentManager\n * @dev This contract is inspired by OpenZeppelin's PaymentSplitter\n *\n * It follows a _pull payment_ model. Payments are not forwarded automatically, and lender will need to\n * trigger the actual transfer by calling the {release} function\n */\ncontract RepaymentManager is Initializable, IRepaymentManager, ControllerRole {\n    using SafeMath for uint256;\n    using TermsContractLib for TermsContractLib.LoanStatus;\n\n    uint256 private _totalShares;\n    uint256 private _totalReleased;\n\n    mapping(address => uint256) private _shares;\n    mapping(address => uint256) private _released;\n\n    ITermsContract public termsContract;\n\n    enum RepaymentStatus {ON_TIME, DEFAULT}\n\n    modifier onlyActiveLoan() {\n        require(\n            termsContract.getLoanStatus() >= TermsContractLib.LoanStatus.REPAYMENT_CYCLE,\n            \"Action only allowed while loan is Active\"\n        );\n        _;\n    }\n\n    modifier beforeLoanFunded() {\n        require(\n            termsContract.getLoanStatus() < TermsContractLib.LoanStatus.FUNDING_COMPLETE,\n            \"Action only allowed before loan funding is completed\"\n        );\n        _;\n    }\n\n    /**\n     * @dev Constructor\n     */\n    function initialize(address _termsContract, address[] memory _controllers)\n        public\n        payable\n        initializer\n    {\n        // address[] memory _controllers = new address[](1);\n        // _controllers[0] = _controller;\n\n        termsContract = ITermsContract(_termsContract);\n        ControllerRole.initialize(_controllers);\n    }\n\n    function() external payable {\n        revert(\"Ether not accepted\");\n    }\n\n    /**\n     * @return the total amount paid to contract.\n     */\n    function totalPaid() public view returns (uint256) {\n        uint256 balance = _getPrincipalToken().balanceOf(address(this));\n        return balance.add(_totalReleased);\n    }\n\n    /**\n     * @return the total shares of the contract.\n     */\n    function totalShares() public view returns (uint256) {\n        return _totalShares;\n    }\n\n    /**\n     * @return the total amount already released.\n     */\n    function totalReleased() public view returns (uint256) {}\n\n    /**\n     * @return the shares of an account.\n     */\n    function shares(address account) public view returns (uint256) {\n        return _shares[account];\n    }\n\n    /**\n     * @return the amount already released to an account.\n     */\n    function released(address account) public view returns (uint256) {}\n\n    /**\n     * @return the release amount that an account could currently claim.\n     */\n    function releaseAllowance(address account) public view returns (uint256) {}\n\n    /**\n     * @notice Send funds\n     * @param amount amount of tokens to send.\n     */\n    function pay(uint256 amount) public onlyActiveLoan {}\n\n    /**\n     * @dev Release one of the payee's proportional payment.\n     * @param account Whose payments will be released.\n     */\n    function release(address payable account) public onlyActiveLoan {}\n\n    /**\n     * @dev Increase shares of a shareholder.\n     */\n    function increaseShares(address account, uint256 shares_)\n        public\n        onlyController\n        beforeLoanFunded\n    {\n        require(\n            termsContract.getLoanStatus() < TermsContractLib.LoanStatus.FUNDING_FAILED,\n            \"Action only allowed before loan funding failed\"\n        );\n        if (_shares[account] == 0) {\n            _addPayee(account, shares_);\n        } else {\n            _increaseShares(account, shares_);\n        }\n    }\n\n    /**\n     * @dev Decrease shares of a shareholder.\n     */\n    function decreaseShares(address account, uint256 shares_)\n        public\n        onlyController\n        beforeLoanFunded\n    {\n        _decreaseShares(account, shares_);\n    }\n\n    /**\n      * Simple repayment status of loan\n      * NOTE: In future, we will be adding more statuses, e.g. late 30, 60, 90, written-off etc\n      */\n    function getRepaymentStatus() public view returns (RepaymentStatus) {\n        uint256 expectedRepaymentValue = termsContract.getExpectedRepaymentValue();\n        uint256 paid = totalPaid();\n        if (paid < expectedRepaymentValue) {\n            return RepaymentStatus.DEFAULT;\n        } else {\n            return RepaymentStatus.ON_TIME;\n        }\n    }\n\n    function _getPrincipalToken() internal view returns (IERC20 token) {\n        return IERC20(termsContract.getPrincipalToken());\n    }\n\n    /**\n     * @dev Increase shares of an existing payee.\n     */\n    function _increaseShares(address account, uint256 shares_) private {\n        require(account != address(0), \"Account must not be zero address\");\n        require(shares_ > 0, \"Can not increase by zero shares\");\n        // require(_shares[account] >= 0, \"Account has zero shares\"); // DAN: this makes no sense\n\n        _totalShares = _totalShares.add(shares_);\n        uint256 newShares_ = _shares[account].add(shares_);\n        _shares[account] = newShares_;\n        emit ShareIncreased(account, shares_);\n    }\n\n    /**\n     * @dev Decrease shares of an existing payee.\n     */\n    function _decreaseShares(address account, uint256 shares_) private {\n        require(account != address(0), \"Account must not be zero address\");\n        require(shares_ > 0, \"Can not decrease by zero shares\");\n        require(_shares[account] > 0, \"Account has zero shares\");\n\n        _totalShares = _totalShares.sub(shares_);\n        uint256 newShares_ = _shares[account].sub(shares_);\n        _shares[account] = newShares_;\n        emit ShareDecreased(account, shares_);\n    }\n\n    /**\n     * @dev Add a new payee to the contract.\n     * @param account The address of the payee to add.\n     * @param shares_ The number of shares owned by the payee.\n     */\n    function _addPayee(address account, uint256 shares_) private {\n        require(account != address(0), \"Account must not be zero address\");\n        require(shares_ > 0, \"Can not add Payee with zero shares\");\n        require(_shares[account] == 0, \"Account already has shares, use increaseShares\");\n\n        _shares[account] = shares_;\n        _totalShares = _totalShares.add(shares_);\n        emit PayeeAdded(account);\n        emit ShareIncreased(account, shares_);\n    }\n}\n",
  "sourcePath": "contracts/debt-contracts/RepaymentManager.sol",
  "compiler": {
    "name": "solc",
    "version": "0.5.11+commit.c082d0b4.Emscripten.clang"
  },
  "schemaVersion": "3.0.11",
  "updatedAt": "2019-09-13T10:05:56.853Z",
  "devdoc": {
    "details": "This contract is inspired by OpenZeppelin's PaymentSplitter * It follows a _pull payment_ model. Payments are not forwarded automatically, and lender will need to trigger the actual transfer by calling the {release} function",
    "methods": {
      "decreaseShares(address,uint256)": {
        "details": "Decrease shares of a shareholder."
      },
      "increaseShares(address,uint256)": {
        "details": "Increase shares of a shareholder."
      },
      "initialize(address,address[])": {
        "details": "Constructor"
      },
      "pay(uint256)": {
        "params": {
          "amount": "amount of tokens to send."
        }
      },
      "release(address)": {
        "details": "Release one of the payee's proportional payment.",
        "params": {
          "account": "Whose payments will be released."
        }
      },
      "releaseAllowance(address)": {
        "return": "the release amount that an account could currently claim."
      },
      "released(address)": {
        "return": "the amount already released to an account."
      },
      "shares(address)": {
        "return": "the shares of an account."
      },
      "totalPaid()": {
        "return": "the total amount paid to contract."
      },
      "totalReleased()": {
        "return": "the total amount already released."
      },
      "totalShares()": {
        "return": "the total shares of the contract."
      }
    },
    "title": "RepaymentManager"
  },
  "userdoc": {
    "methods": {
      "getRepaymentStatus()": {
        "notice": "Simple repayment status of loan NOTE: In future, we will be adding more statuses, e.g. late 30, 60, 90, written-off etc"
      },
      "pay(uint256)": {
        "notice": "Send funds"
      }
    }
  }
}