{"fileName":"RepaymentManager.sol","contractName":"RepaymentManager","source":"pragma solidity ^0.5.2;\n\nimport \"openzeppelin-eth/contracts/math/SafeMath.sol\";\nimport \"openzeppelin-eth/contracts/token/ERC20/IERC20.sol\";\nimport \"zos-lib/contracts/Initializable.sol\";\nimport \"../interface/IRepaymentManager.sol\";\nimport \"../interface/ITermsContract.sol\";\nimport \"../access/ControllerRole.sol\";\nimport \"./TermsContractLib.sol\";\n\n/**\n * @title RepaymentManager\n * @dev This contract is inspired by OpenZeppelin's PaymentSplitter\n *\n * It follows a _pull payment_ model. Payments are not forwarded automatically, and lender will need to\n * trigger the actual transfer by calling the {release} function\n */\ncontract RepaymentManager is Initializable, IRepaymentManager, ControllerRole {\n    using SafeMath for uint256;\n    using TermsContractLib for TermsContractLib.LoanStatus;\n\n    uint256 private _totalShares;\n\n    mapping(address => uint256) private _shares;\n\n    ITermsContract public termsContract;\n\n    modifier beforeLoanFunded() {\n        require(\n            termsContract.getLoanStatus() < TermsContractLib.LoanStatus.FUNDING_COMPLETE,\n            \"Action only allowed before loan funding is completed\"\n        );\n        _;\n    }\n\n    /**\n     * @dev Constructor\n     */\n    function initialize(address _termsContract, address[] memory _controllers)\n        public\n        payable\n        initializer\n    {\n        // address[] memory _controllers = new address[](1);\n        // _controllers[0] = _controller;\n\n        termsContract = ITermsContract(_termsContract);\n        ControllerRole.initialize(_controllers);\n    }\n\n    function() external payable {\n        revert(\"Ether not accepted\");\n    }\n\n    /**\n     * @return the total shares of the contract.\n     */\n    function totalShares() public view returns (uint256) {\n        return _totalShares;\n    }\n\n    /**\n     * @return the shares of an account.\n     */\n    function shares(address account) public view returns (uint256) {\n        return _shares[account];\n    }\n\n    /**\n     * @dev Increase shares of a shareholder.\n     */\n    function increaseShares(address account, uint256 shares_)\n        public\n        onlyController\n        beforeLoanFunded\n    {\n        require(\n            termsContract.getLoanStatus() < TermsContractLib.LoanStatus.FUNDING_FAILED,\n            \"Action only allowed before loan funding failed\"\n        );\n        require(account != address(0), \"Account must not be zero address\");\n        require(shares_ > 0, \"Can not increase by zero shares\");\n\n        _increaseShares(account, shares_);\n\n    }\n    /**\n     * @dev Increase shares of an existing payee.\n     */\n    function _increaseShares(address account, uint256 shares_) internal {\n        _shares[account] = _shares[account].add(shares_);\n        _totalShares = _totalShares.add(shares_);\n\n        emit ShareIncreased(account, shares_);\n    }\n}\n","sourcePath":"contracts/debt-contracts/RepaymentManager.sol","abi":[{"constant":true,"inputs":[],"name":"termsContract","outputs":[{"name":"","type":"address"}],"payable":false,"stateMutability":"view","type":"function"},{"constant":true,"inputs":[],"name":"totalShares","outputs":[{"name":"","type":"uint256"}],"payable":false,"stateMutability":"view","type":"function"},{"constant":false,"inputs":[{"name":"account","type":"address"},{"name":"shares_","type":"uint256"}],"name":"increaseShares","outputs":[],"payable":false,"stateMutability":"nonpayable","type":"function"},{"constant":false,"inputs":[{"name":"_termsContract","type":"address"},{"name":"_controllers","type":"address[]"}],"name":"initialize","outputs":[],"payable":true,"stateMutability":"payable","type":"function"},{"constant":false,"inputs":[{"name":"_controllers","type":"address[]"}],"name":"initialize","outputs":[],"payable":false,"stateMutability":"nonpayable","type":"function"},{"constant":true,"inputs":[{"name":"account","type":"address"}],"name":"isController","outputs":[{"name":"","type":"bool"}],"payable":false,"stateMutability":"view","type":"function"},{"constant":true,"inputs":[{"name":"account","type":"address"}],"name":"shares","outputs":[{"name":"","type":"uint256"}],"payable":false,"stateMutability":"view","type":"function"},{"payable":true,"stateMutability":"payable","type":"fallback"},{"anonymous":false,"inputs":[{"indexed":true,"name":"account","type":"address"}],"name":"ControllerAdded","type":"event"},{"anonymous":false,"inputs":[{"indexed":true,"name":"account","type":"address"}],"name":"ControllerRemoved","type":"event"},{"anonymous":false,"inputs":[{"indexed":false,"name":"account","type":"address"}],"name":"LogAccess","type":"event"},{"anonymous":false,"inputs":[{"indexed":false,"name":"account","type":"address"},{"indexed":false,"name":"sharesAdded","type":"uint256"}],"name":"ShareIncreased","type":"event"}],"bytecode":"0x60806040523480156100115760006000fd5b50610017565b610fed806100266000396000f3fe6080604052600436106100745760003560e01c8063946d92041161004e578063946d9204146101c9578063a224cee7146102a9578063b429afeb14610377578063ce7c2ac2146103e257610074565b8063172a707b146100e85780633a98ef391461014057806386c011db1461016c57610074565b5b6040517f08c379a00000000000000000000000000000000000000000000000000000000081526004018080602001828103825260128152602001807f4574686572206e6f74206163636570746564000000000000000000000000000081526020015060200191505060405180910390fd5b005b3480156100f55760006000fd5b506100fe610449565b604051808273ffffffffffffffffffffffffffffffffffffffff1673ffffffffffffffffffffffffffffffffffffffff16815260200191505060405180910390f35b34801561014d5760006000fd5b5061015661046f565b6040518082815260200191505060405180910390f35b3480156101795760006000fd5b506101c7600480360360408110156101915760006000fd5b81019080803573ffffffffffffffffffffffffffffffffffffffff16906020019092919080359060200190929190505050610481565b005b6102a7600480360360408110156101e05760006000fd5b81019080803573ffffffffffffffffffffffffffffffffffffffff1690602001909291908035906020019064010000000081111561021e5760006000fd5b8201836020820111156102315760006000fd5b803590602001918460208302840111640100000000831117156102545760006000fd5b919080806020026020016040519081016040528093929190818152602001838360200280828437600081840152601f19601f820116905080830192505050505050509090919290909192905050506108d0565b005b3480156102b65760006000fd5b50610375600480360360208110156102ce5760006000fd5b81019080803590602001906401000000008111156102ec5760006000fd5b8201836020820111156102ff5760006000fd5b803590602001918460208302840111640100000000831117156103225760006000fd5b919080806020026020016040519081016040528093929190818152602001838360200280828437600081840152601f19601f82011690508083019250505050505050909091929090919290505050610a2f565b005b3480156103845760006000fd5b506103c86004803603602081101561039c5760006000fd5b81019080803573ffffffffffffffffffffffffffffffffffffffff169060200190929190505050610b80565b604051808215151515815260200191505060405180910390f35b3480156103ef5760006000fd5b50610433600480360360208110156104075760006000fd5b81019080803573ffffffffffffffffffffffffffffffffffffffff169060200190929190505050610ba5565b6040518082815260200191505060405180910390f35b606860009054906101000a900473ffffffffffffffffffffffffffffffffffffffff1681565b6000606660005054905061047e565b90565b7ffca6d4e226ce530cdba35a2c75a702b253c239a7068eefc5b041b2519083d2c933604051808273ffffffffffffffffffffffffffffffffffffffff1673ffffffffffffffffffffffffffffffffffffffff16815260200191505060405180910390a16104f333610b8063ffffffff16565b151561056a576040517f08c379a00000000000000000000000000000000000000000000000000000000081526004018080602001828103825260118152602001807f5065726d697373696f6e2064656e69656400000000000000000000000000000081526020015060200191505060405180910390fd5b6003600581111561057757fe5b606860009054906101000a900473ffffffffffffffffffffffffffffffffffffffff1673ffffffffffffffffffffffffffffffffffffffff1663acc1ab136040518163ffffffff1660e01b815260040160206040518083038186803b1580156105e05760006000fd5b505afa1580156105f5573d600060003e3d6000fd5b505050506040513d602081101561060c5760006000fd5b8101908080519060200190929190505050600581111561062857fe5b101515610680576040517f08c379a0000000000000000000000000000000000000000000000000000000008152600401808060200182810382526034815260200180610f296034913960400191505060405180910390fd5b6002600581111561068d57fe5b606860009054906101000a900473ffffffffffffffffffffffffffffffffffffffff1673ffffffffffffffffffffffffffffffffffffffff1663acc1ab136040518163ffffffff1660e01b815260040160206040518083038186803b1580156106f65760006000fd5b505afa15801561070b573d600060003e3d6000fd5b505050506040513d60208110156107225760006000fd5b8101908080519060200190929190505050600581111561073e57fe5b101515610796576040517f08c379a000000000000000000000000000000000000000000000000000000000815260040180806020018281038252602e815260200180610f8b602e913960400191505060405180910390fd5b600073ffffffffffffffffffffffffffffffffffffffff168273ffffffffffffffffffffffffffffffffffffffff161415151561083e576040517f08c379a00000000000000000000000000000000000000000000000000000000081526004018080602001828103825260208152602001807f4163636f756e74206d757374206e6f74206265207a65726f206164647265737381526020015060200191505060405180910390fd5b6000811115156108b9576040517f08c379a000000000000000000000000000000000000000000000000000000000815260040180806020018281038252601f8152602001807f43616e206e6f7420696e637265617365206279207a65726f207368617265730081526020015060200191505060405180910390fd5b6108c98282610bf963ffffffff16565b5b5b5b5050565b600060019054906101000a900460ff16806108f557506108f4610d2f63ffffffff16565b5b8061090d5750600060009054906101000a900460ff16155b1515610964576040517f08c379a000000000000000000000000000000000000000000000000000000000815260040180806020018281038252602e815260200180610f5d602e913960400191505060405180910390fd5b6000600060019054906101000a900460ff1615905080156109b6576001600060016101000a81548160ff0219169083151502179055506001600060006101000a81548160ff0219169083151502179055505b82606860006101000a81548173ffffffffffffffffffffffffffffffffffffffff021916908373ffffffffffffffffffffffffffffffffffffffff160217905550610a0682610a2f63ffffffff16565b5b8015610a29576000600060016101000a81548160ff0219169083151502179055505b505b5050565b600060019054906101000a900460ff1680610a545750610a53610d2f63ffffffff16565b5b80610a6c5750600060009054906101000a900460ff16155b1515610ac3576040517f08c379a000000000000000000000000000000000000000000000000000000000815260040180806020018281038252602e815260200180610f5d602e913960400191505060405180910390fd5b6000600060019054906101000a900460ff161590508015610b15576001600060016101000a81548160ff0219169083151502179055506001600060006101000a81548160ff0219169083151502179055505b6000600090505b8251811015610b5757610b498382815181101515610b3657fe5b6020026020010151610d4763ffffffff16565b5b8080600101915050610b1c565b505b8015610b7b576000600060016101000a81548160ff0219169083151502179055505b505b50565b6000610b99826033600050610da590919063ffffffff16565b9050610ba0565b919050565b6000606760005060008373ffffffffffffffffffffffffffffffffffffffff1673ffffffffffffffffffffffffffffffffffffffff168152602001908152602001600020600050549050610bf4565b919050565b610c5181606760005060008573ffffffffffffffffffffffffffffffffffffffff1673ffffffffffffffffffffffffffffffffffffffff16815260200190815260200160002060005054610e4390919063ffffffff16565b606760005060008473ffffffffffffffffffffffffffffffffffffffff1673ffffffffffffffffffffffffffffffffffffffff168152602001908152602001600020600050819090905550610cb481606660005054610e4390919063ffffffff16565b60666000508190909055507f41d7bd33938620cb373e6ebd6be2e33d322196c2c255a214d10c2e4aa1c7b1de8282604051808373ffffffffffffffffffffffffffffffffffffffff1673ffffffffffffffffffffffffffffffffffffffff1681526020018281526020019250505060405180910390a15b5050565b60006000303b905060008114915050610d4456505b90565b610d5e816033600050610e6c90919063ffffffff16565b8073ffffffffffffffffffffffffffffffffffffffff167f0a8bb31534c0ed46f380cb867bd5c803a189ced9a764e30b3a4991a9901d747460405160405180910390a25b50565b6000600073ffffffffffffffffffffffffffffffffffffffff168273ffffffffffffffffffffffffffffffffffffffff1614151515610de45760006000fd5b8260000160005060008373ffffffffffffffffffffffffffffffffffffffff1673ffffffffffffffffffffffffffffffffffffffff16815260200190815260200160002060009054906101000a900460ff169050610e3d565b92915050565b600060008284019050838110151515610e5c5760006000fd5b80915050610e6656505b92915050565b600073ffffffffffffffffffffffffffffffffffffffff168173ffffffffffffffffffffffffffffffffffffffff1614151515610ea95760006000fd5b610eb98282610da563ffffffff16565b151515610ec65760006000fd5b60018260000160005060008373ffffffffffffffffffffffffffffffffffffffff1673ffffffffffffffffffffffffffffffffffffffff16815260200190815260200160002060006101000a81548160ff0219169083151502179055505b505056fe416374696f6e206f6e6c7920616c6c6f776564206265666f7265206c6f616e2066756e64696e6720697320636f6d706c65746564436f6e747261637420696e7374616e63652068617320616c7265616479206265656e20696e697469616c697a6564416374696f6e206f6e6c7920616c6c6f776564206265666f7265206c6f616e2066756e64696e67206661696c6564a265627a7a72305820526de8e3b97095bf640f788e4125fa3a541bc393dc977701300fb14fc40841e064736f6c634300050a0032","compiler":{"name":"solc","version":"0.5.10+commit.5a6ea5b1.Emscripten.clang","optimizer":{},"evmVersion":"constantinople"}}