{
  "contractName": "RepaymentManager",
  "abi": [
    {
      "constant": true,
      "inputs": [],
      "name": "termsContract",
      "outputs": [
        {
          "name": "",
          "type": "address"
        }
      ],
      "payable": false,
      "stateMutability": "view",
      "type": "function"
    },
    {
      "constant": true,
      "inputs": [
        {
          "name": "account",
          "type": "address"
        }
      ],
      "name": "isController",
      "outputs": [
        {
          "name": "",
          "type": "bool"
        }
      ],
      "payable": false,
      "stateMutability": "view",
      "type": "function"
    },
    {
      "payable": true,
      "stateMutability": "payable",
      "type": "fallback"
    },
    {
      "anonymous": false,
      "inputs": [
        {
          "indexed": true,
          "name": "account",
          "type": "address"
        }
      ],
      "name": "ControllerAdded",
      "type": "event"
    },
    {
      "anonymous": false,
      "inputs": [
        {
          "indexed": true,
          "name": "account",
          "type": "address"
        }
      ],
      "name": "ControllerRemoved",
      "type": "event"
    },
    {
      "anonymous": false,
      "inputs": [
        {
          "indexed": false,
          "name": "account",
          "type": "address"
        }
      ],
      "name": "LogAccess",
      "type": "event"
    },
    {
      "anonymous": false,
      "inputs": [
        {
          "indexed": false,
          "name": "account",
          "type": "address"
        }
      ],
      "name": "PayeeAdded",
      "type": "event"
    },
    {
      "anonymous": false,
      "inputs": [
        {
          "indexed": false,
          "name": "account",
          "type": "address"
        }
      ],
      "name": "PayeeRemoved",
      "type": "event"
    },
    {
      "anonymous": false,
      "inputs": [
        {
          "indexed": false,
          "name": "account",
          "type": "address"
        },
        {
          "indexed": false,
          "name": "sharesAdded",
          "type": "uint256"
        }
      ],
      "name": "ShareIncreased",
      "type": "event"
    },
    {
      "anonymous": false,
      "inputs": [
        {
          "indexed": false,
          "name": "account",
          "type": "address"
        },
        {
          "indexed": false,
          "name": "sharesRemoved",
          "type": "uint256"
        }
      ],
      "name": "ShareDecreased",
      "type": "event"
    },
    {
      "anonymous": false,
      "inputs": [
        {
          "indexed": false,
          "name": "to",
          "type": "address"
        },
        {
          "indexed": false,
          "name": "amount",
          "type": "uint256"
        }
      ],
      "name": "PaymentReleased",
      "type": "event"
    },
    {
      "anonymous": false,
      "inputs": [
        {
          "indexed": false,
          "name": "from",
          "type": "address"
        },
        {
          "indexed": false,
          "name": "amount",
          "type": "uint256"
        }
      ],
      "name": "PaymentReceived",
      "type": "event"
    },
    {
      "constant": false,
      "inputs": [
        {
          "name": "_termsContract",
          "type": "address"
        },
        {
          "name": "_controllers",
          "type": "address[]"
        }
      ],
      "name": "initialize",
      "outputs": [],
      "payable": true,
      "stateMutability": "payable",
      "type": "function"
    },
    {
      "constant": false,
      "inputs": [
        {
          "name": "_controllers",
          "type": "address[]"
        }
      ],
      "name": "initialize",
      "outputs": [],
      "payable": false,
      "stateMutability": "nonpayable",
      "type": "function"
    },
    {
      "constant": true,
      "inputs": [],
      "name": "totalPaid",
      "outputs": [
        {
          "name": "",
          "type": "uint256"
        }
      ],
      "payable": false,
      "stateMutability": "view",
      "type": "function"
    },
    {
      "constant": true,
      "inputs": [],
      "name": "totalShares",
      "outputs": [
        {
          "name": "",
          "type": "uint256"
        }
      ],
      "payable": false,
      "stateMutability": "view",
      "type": "function"
    },
    {
      "constant": true,
      "inputs": [],
      "name": "totalReleased",
      "outputs": [
        {
          "name": "",
          "type": "uint256"
        }
      ],
      "payable": false,
      "stateMutability": "view",
      "type": "function"
    },
    {
      "constant": true,
      "inputs": [
        {
          "name": "account",
          "type": "address"
        }
      ],
      "name": "shares",
      "outputs": [
        {
          "name": "",
          "type": "uint256"
        }
      ],
      "payable": false,
      "stateMutability": "view",
      "type": "function"
    },
    {
      "constant": true,
      "inputs": [
        {
          "name": "account",
          "type": "address"
        }
      ],
      "name": "released",
      "outputs": [
        {
          "name": "",
          "type": "uint256"
        }
      ],
      "payable": false,
      "stateMutability": "view",
      "type": "function"
    },
    {
      "constant": true,
      "inputs": [
        {
          "name": "account",
          "type": "address"
        }
      ],
      "name": "releaseAllowance",
      "outputs": [
        {
          "name": "",
          "type": "uint256"
        }
      ],
      "payable": false,
      "stateMutability": "view",
      "type": "function"
    },
    {
      "constant": false,
      "inputs": [
        {
          "name": "amount",
          "type": "uint256"
        }
      ],
      "name": "pay",
      "outputs": [],
      "payable": false,
      "stateMutability": "nonpayable",
      "type": "function"
    },
    {
      "constant": false,
      "inputs": [
        {
          "name": "account",
          "type": "address"
        }
      ],
      "name": "release",
      "outputs": [],
      "payable": false,
      "stateMutability": "nonpayable",
      "type": "function"
    },
    {
      "constant": false,
      "inputs": [
        {
          "name": "account",
          "type": "address"
        },
        {
          "name": "shares_",
          "type": "uint256"
        }
      ],
      "name": "increaseShares",
      "outputs": [],
      "payable": false,
      "stateMutability": "nonpayable",
      "type": "function"
    },
    {
      "constant": false,
      "inputs": [
        {
          "name": "account",
          "type": "address"
        },
        {
          "name": "shares_",
          "type": "uint256"
        }
      ],
      "name": "decreaseShares",
      "outputs": [],
      "payable": false,
      "stateMutability": "nonpayable",
      "type": "function"
    },
    {
      "constant": true,
      "inputs": [],
      "name": "getRepaymentStatus",
      "outputs": [
        {
          "name": "",
          "type": "uint8"
        }
      ],
      "payable": false,
      "stateMutability": "view",
      "type": "function"
    }
  ],
  "bytecode": "0x608060405234801561001057600080fd5b50612e07806100206000396000f3fe608060405260043610610105576000357c0100000000000000000000000000000000000000000000000000000000900480639852595c116100a7578063ce7c2ac211610076578063ce7c2ac2146105db578063e33b7de314610640578063e7b0f6661461066b578063f7c0cabb1461069657610105565b80639852595c1461040d578063a224cee714610472578063b429afeb14610537578063c290d691146105a057610105565b806365ac2771116100e357806365ac27711461024657806386c011db1461027f57806387983d13146102da578063946d92041461033557610105565b8063172a707b1461017357806319165587146101ca5780633a98ef391461021b575b6040517f08c379a00000000000000000000000000000000000000000000000000000000081526004018080602001828103825260128152602001807f4574686572206e6f74206163636570746564000000000000000000000000000081525060200191505060405180910390fd5b34801561017f57600080fd5b506101886106fb565b604051808273ffffffffffffffffffffffffffffffffffffffff1673ffffffffffffffffffffffffffffffffffffffff16815260200191505060405180910390f35b3480156101d657600080fd5b50610219600480360360208110156101ed57600080fd5b81019080803573ffffffffffffffffffffffffffffffffffffffff169060200190929190505050610721565b005b34801561022757600080fd5b50610230610b86565b6040518082815260200191505060405180910390f35b34801561025257600080fd5b5061025b610b90565b6040518082600181111561026b57fe5b60ff16815260200191505060405180910390f35b34801561028b57600080fd5b506102d8600480360360408110156102a257600080fd5b81019080803573ffffffffffffffffffffffffffffffffffffffff16906020019092919080359060200190929190505050610c7d565b005b3480156102e657600080fd5b50610333600480360360408110156102fd57600080fd5b81019080803573ffffffffffffffffffffffffffffffffffffffff16906020019092919080359060200190929190505050611021565b005b61040b6004803603604081101561034b57600080fd5b81019080803573ffffffffffffffffffffffffffffffffffffffff1690602001909291908035906020019064010000000081111561038857600080fd5b82018360208201111561039a57600080fd5b803590602001918460208302840111640100000000831117156103bc57600080fd5b919080806020026020016040519081016040528093929190818152602001838360200280828437600081840152601f19601f82011690508083019250505050505050919291929050505061123e565b005b34801561041957600080fd5b5061045c6004803603602081101561043057600080fd5b81019080803573ffffffffffffffffffffffffffffffffffffffff16906020019092919050505061138b565b6040518082815260200191505060405180910390f35b34801561047e57600080fd5b506105356004803603602081101561049557600080fd5b81019080803590602001906401000000008111156104b257600080fd5b8201836020820111156104c457600080fd5b803590602001918460208302840111640100000000831117156104e657600080fd5b919080806020026020016040519081016040528093929190818152602001838360200280828437600081840152601f19601f8201169050808301925050505050505091929192905050506113d4565b005b34801561054357600080fd5b506105866004803603602081101561055a57600080fd5b81019080803573ffffffffffffffffffffffffffffffffffffffff169060200190929190505050611513565b604051808215151515815260200191505060405180910390f35b3480156105ac57600080fd5b506105d9600480360360208110156105c357600080fd5b8101908080359060200190929190505050611530565b005b3480156105e757600080fd5b5061062a600480360360208110156105fe57600080fd5b81019080803573ffffffffffffffffffffffffffffffffffffffff169060200190929190505050611a97565b6040518082815260200191505060405180910390f35b34801561064c57600080fd5b50610655611ae0565b6040518082815260200191505060405180910390f35b34801561067757600080fd5b50610680611aea565b6040518082815260200191505060405180910390f35b3480156106a257600080fd5b506106e5600480360360208110156106b957600080fd5b81019080803573ffffffffffffffffffffffffffffffffffffffff169060200190929190505050611be5565b6040518082815260200191505060405180910390f35b606a60009054906101000a900473ffffffffffffffffffffffffffffffffffffffff1681565b6004600581111561072e57fe5b606a60009054906101000a900473ffffffffffffffffffffffffffffffffffffffff1673ffffffffffffffffffffffffffffffffffffffff1663acc1ab136040518163ffffffff167c010000000000000000000000000000000000000000000000000000000002815260040160206040518083038186803b1580156107b257600080fd5b505afa1580156107c6573d6000803e3d6000fd5b505050506040513d60208110156107dc57600080fd5b810190808051906020019092919050505060058111156107f857fe5b10151515610851576040517f08c379a0000000000000000000000000000000000000000000000000000000008152600401808060200182810382526028815260200180612c906028913960400191505060405180910390fd5b610859611cb1565b6000606860008373ffffffffffffffffffffffffffffffffffffffff1673ffffffffffffffffffffffffffffffffffffffff16815260200190815260200160002054111515610910576040517f08c379a00000000000000000000000000000000000000000000000000000000081526004018080602001828103825260178152602001807f4163636f756e7420686173207a65726f2073686172657300000000000000000081525060200191505060405180910390fd5b600061091b82611be5565b905060008114151515610979576040517f08c379a0000000000000000000000000000000000000000000000000000000008152600401808060200182810382526022815260200180612d0e6022913960400191505060405180910390fd5b6109cb81606960008573ffffffffffffffffffffffffffffffffffffffff1673ffffffffffffffffffffffffffffffffffffffff1681526020019081526020016000205461216990919063ffffffff16565b606960008473ffffffffffffffffffffffffffffffffffffffff1673ffffffffffffffffffffffffffffffffffffffff16815260200190815260200160002081905550610a238160675461216990919063ffffffff16565b606781905550610a3161218a565b73ffffffffffffffffffffffffffffffffffffffff1663a9059cbb83836040518363ffffffff167c0100000000000000000000000000000000000000000000000000000000028152600401808373ffffffffffffffffffffffffffffffffffffffff1673ffffffffffffffffffffffffffffffffffffffff16815260200182815260200192505050602060405180830381600087803b158015610ad357600080fd5b505af1158015610ae7573d6000803e3d6000fd5b505050506040513d6020811015610afd57600080fd5b8101908080519060200190929190505050507fdf20fd1e76bc69d672e4814fafb2c449bba3a5369d8359adf9e05e6fde87b0568282604051808373ffffffffffffffffffffffffffffffffffffffff1673ffffffffffffffffffffffffffffffffffffffff1681526020018281526020019250505060405180910390a150610b83611cb1565b50565b6000606654905090565b600080606a60009054906101000a900473ffffffffffffffffffffffffffffffffffffffff1673ffffffffffffffffffffffffffffffffffffffff16636bca7c7e6040518163ffffffff167c010000000000000000000000000000000000000000000000000000000002815260040160206040518083038186803b158015610c1757600080fd5b505afa158015610c2b573d6000803e3d6000fd5b505050506040513d6020811015610c4157600080fd5b810190808051906020019092919050505090506000610c5e611aea565b905081811015610c7357600192505050610c7a565b6000925050505b90565b7ffca6d4e226ce530cdba35a2c75a702b253c239a7068eefc5b041b2519083d2c933604051808273ffffffffffffffffffffffffffffffffffffffff1673ffffffffffffffffffffffffffffffffffffffff16815260200191505060405180910390a1610ce933611513565b1515610d5d576040517f08c379a00000000000000000000000000000000000000000000000000000000081526004018080602001828103825260118152602001807f5065726d697373696f6e2064656e69656400000000000000000000000000000081525060200191505060405180910390fd5b60036005811115610d6a57fe5b606a60009054906101000a900473ffffffffffffffffffffffffffffffffffffffff1673ffffffffffffffffffffffffffffffffffffffff1663acc1ab136040518163ffffffff167c010000000000000000000000000000000000000000000000000000000002815260040160206040518083038186803b158015610dee57600080fd5b505afa158015610e02573d6000803e3d6000fd5b505050506040513d6020811015610e1857600080fd5b81019080805190602001909291905050506005811115610e3457fe5b101515610e8c576040517f08c379a0000000000000000000000000000000000000000000000000000000008152600401808060200182810382526034815260200180612cb86034913960400191505060405180910390fd5b60026005811115610e9957fe5b606a60009054906101000a900473ffffffffffffffffffffffffffffffffffffffff1673ffffffffffffffffffffffffffffffffffffffff1663acc1ab136040518163ffffffff167c010000000000000000000000000000000000000000000000000000000002815260040160206040518083038186803b158015610f1d57600080fd5b505afa158015610f31573d6000803e3d6000fd5b505050506040513d6020811015610f4757600080fd5b81019080805190602001909291905050506005811115610f6357fe5b101515610fbb576040517f08c379a000000000000000000000000000000000000000000000000000000000815260040180806020018281038252602e815260200180612dae602e913960400191505060405180910390fd5b6000606860008473ffffffffffffffffffffffffffffffffffffffff1673ffffffffffffffffffffffffffffffffffffffff1681526020019081526020016000205414156110125761100d8282612250565b61101d565b61101c828261251b565b5b5050565b7ffca6d4e226ce530cdba35a2c75a702b253c239a7068eefc5b041b2519083d2c933604051808273ffffffffffffffffffffffffffffffffffffffff1673ffffffffffffffffffffffffffffffffffffffff16815260200191505060405180910390a161108d33611513565b1515611101576040517f08c379a00000000000000000000000000000000000000000000000000000000081526004018080602001828103825260118152602001807f5065726d697373696f6e2064656e69656400000000000000000000000000000081525060200191505060405180910390fd5b6003600581111561110e57fe5b606a60009054906101000a900473ffffffffffffffffffffffffffffffffffffffff1673ffffffffffffffffffffffffffffffffffffffff1663acc1ab136040518163ffffffff167c010000000000000000000000000000000000000000000000000000000002815260040160206040518083038186803b15801561119257600080fd5b505afa1580156111a6573d6000803e3d6000fd5b505050506040513d60208110156111bc57600080fd5b810190808051906020019092919050505060058111156111d857fe5b101515611230576040517f08c379a0000000000000000000000000000000000000000000000000000000008152600401808060200182810382526034815260200180612cb86034913960400191505060405180910390fd5b61123a828261275d565b5050565b600060019054906101000a900460ff168061125d575061125c612a56565b5b8061127457506000809054906101000a900460ff16155b15156112cb576040517f08c379a000000000000000000000000000000000000000000000000000000000815260040180806020018281038252602e815260200180612d80602e913960400191505060405180910390fd5b60008060019054906101000a900460ff16159050801561131b576001600060016101000a81548160ff02191690831515021790555060016000806101000a81548160ff0219169083151502179055505b82606a60006101000a81548173ffffffffffffffffffffffffffffffffffffffff021916908373ffffffffffffffffffffffffffffffffffffffff160217905550611365826113d4565b80156113865760008060016101000a81548160ff0219169083151502179055505b505050565b6000606960008373ffffffffffffffffffffffffffffffffffffffff1673ffffffffffffffffffffffffffffffffffffffff168152602001908152602001600020549050919050565b600060019054906101000a900460ff16806113f357506113f2612a56565b5b8061140a57506000809054906101000a900460ff16155b1515611461576040517f08c379a000000000000000000000000000000000000000000000000000000000815260040180806020018281038252602e815260200180612d80602e913960400191505060405180910390fd5b60008060019054906101000a900460ff1615905080156114b1576001600060016101000a81548160ff02191690831515021790555060016000806101000a81548160ff0219169083151502179055505b60008090505b82518110156114ed576114e083828151811015156114d157fe5b90602001906020020151612a67565b80806001019150506114b7565b50801561150f5760008060016101000a81548160ff0219169083151502179055505b5050565b6000611529826033612ac190919063ffffffff16565b9050919050565b6004600581111561153d57fe5b606a60009054906101000a900473ffffffffffffffffffffffffffffffffffffffff1673ffffffffffffffffffffffffffffffffffffffff1663acc1ab136040518163ffffffff167c010000000000000000000000000000000000000000000000000000000002815260040160206040518083038186803b1580156115c157600080fd5b505afa1580156115d5573d6000803e3d6000fd5b505050506040513d60208110156115eb57600080fd5b8101908080519060200190929190505050600581111561160757fe5b10151515611660576040517f08c379a0000000000000000000000000000000000000000000000000000000008152600401808060200182810382526028815260200180612c906028913960400191505060405180910390fd5b611668611cb1565b6000811115156116e0576040517f08c379a00000000000000000000000000000000000000000000000000000000081526004018080602001828103825260148152602001807f4e6f20616d6f756e742073657420746f2070617900000000000000000000000081525060200191505060405180910390fd5b60006116ea61218a565b73ffffffffffffffffffffffffffffffffffffffff166370a08231306040518263ffffffff167c0100000000000000000000000000000000000000000000000000000000028152600401808273ffffffffffffffffffffffffffffffffffffffff1673ffffffffffffffffffffffffffffffffffffffff16815260200191505060206040518083038186803b15801561178257600080fd5b505afa158015611796573d6000803e3d6000fd5b505050506040513d60208110156117ac57600080fd5b810190808051906020019092919050505090506117c761218a565b73ffffffffffffffffffffffffffffffffffffffff166323b872dd3330856040518463ffffffff167c0100000000000000000000000000000000000000000000000000000000028152600401808473ffffffffffffffffffffffffffffffffffffffff1673ffffffffffffffffffffffffffffffffffffffff1681526020018373ffffffffffffffffffffffffffffffffffffffff1673ffffffffffffffffffffffffffffffffffffffff1681526020018281526020019350505050602060405180830381600087803b15801561189d57600080fd5b505af11580156118b1573d6000803e3d6000fd5b505050506040513d60208110156118c757600080fd5b8101908080519060200190929190505050506118ec828261216990919063ffffffff16565b6118f461218a565b73ffffffffffffffffffffffffffffffffffffffff166370a08231306040518263ffffffff167c0100000000000000000000000000000000000000000000000000000000028152600401808273ffffffffffffffffffffffffffffffffffffffff1673ffffffffffffffffffffffffffffffffffffffff16815260200191505060206040518083038186803b15801561198c57600080fd5b505afa1580156119a0573d6000803e3d6000fd5b505050506040513d60208110156119b657600080fd5b810190808051906020019092919050505010151515611a20576040517f08c379a0000000000000000000000000000000000000000000000000000000008152600401808060200182810382526022815260200180612d5e6022913960400191505060405180910390fd5b7f6ef95f06320e7a25a04a175ca677b7052bdd97131872c2192525a629f51be7703383604051808373ffffffffffffffffffffffffffffffffffffffff1673ffffffffffffffffffffffffffffffffffffffff1681526020018281526020019250505060405180910390a150611a94611cb1565b50565b6000606860008373ffffffffffffffffffffffffffffffffffffffff1673ffffffffffffffffffffffffffffffffffffffff168152602001908152602001600020549050919050565b6000606754905090565b600080611af561218a565b73ffffffffffffffffffffffffffffffffffffffff166370a08231306040518263ffffffff167c0100000000000000000000000000000000000000000000000000000000028152600401808273ffffffffffffffffffffffffffffffffffffffff1673ffffffffffffffffffffffffffffffffffffffff16815260200191505060206040518083038186803b158015611b8d57600080fd5b505afa158015611ba1573d6000803e3d6000fd5b505050506040513d6020811015611bb757600080fd5b81019080805190602001909291905050509050611bdf6067548261216990919063ffffffff16565b91505090565b600080611bf0611aea565b9050611ca9606960008573ffffffffffffffffffffffffffffffffffffffff1673ffffffffffffffffffffffffffffffffffffffff16815260200190815260200160002054611c9b606654611c8d606860008973ffffffffffffffffffffffffffffffffffffffff1673ffffffffffffffffffffffffffffffffffffffff1681526020019081526020016000205486612b5590919063ffffffff16565b612b9390919063ffffffff16565b612bbd90919063ffffffff16565b915050919050565b600080611cbc611aea565b90506000606a60009054906101000a900473ffffffffffffffffffffffffffffffffffffffff1673ffffffffffffffffffffffffffffffffffffffff166320600a376040518163ffffffff167c01000000000000000000000000000000000000000000000000000000000281526004016101006040518083038186803b158015611d4557600080fd5b505afa158015611d59573d6000803e3d6000fd5b505050506040513d610100811015611d7057600080fd5b81019080805190602001909291908051906020019092919080519060200190929190805190602001909291908051906020019092919080519060200190929190805190602001909291908051906020019092919050505050505094505050505060008090505b81811015611ee3576000606a60009054906101000a900473ffffffffffffffffffffffffffffffffffffffff1673ffffffffffffffffffffffffffffffffffffffff166378ee5893600184016040518263ffffffff167c01000000000000000000000000000000000000000000000000000000000281526004018082815260200191505060806040518083038186803b158015611e7257600080fd5b505afa158015611e86573d6000803e3d6000fd5b505050506040513d6080811015611e9c57600080fd5b810190808051906020019092919080519060200190929190805190602001909291908051906020019092919050505093505050508085019450508080600101915050611dd6565b50600082118015611ef357508282105b8015611fd3575060046005811115611f0757fe5b606a60009054906101000a900473ffffffffffffffffffffffffffffffffffffffff1673ffffffffffffffffffffffffffffffffffffffff1663acc1ab136040518163ffffffff167c010000000000000000000000000000000000000000000000000000000002815260040160206040518083038186803b158015611f8b57600080fd5b505afa158015611f9f573d6000803e3d6000fd5b505050506040513d6020811015611fb557600080fd5b81019080805190602001909291905050506005811115611fd157fe5b105b1561209557606a60009054906101000a900473ffffffffffffffffffffffffffffffffffffffff1673ffffffffffffffffffffffffffffffffffffffff1663e38be0c260046040518263ffffffff167c01000000000000000000000000000000000000000000000000000000000281526004018082600581111561205357fe5b60ff168152602001915050600060405180830381600087803b15801561207857600080fd5b505af115801561208c573d6000803e3d6000fd5b50505050612164565b6000831180156120a55750828210155b1561216357606a60009054906101000a900473ffffffffffffffffffffffffffffffffffffffff1673ffffffffffffffffffffffffffffffffffffffff1663e38be0c260056040518263ffffffff167c01000000000000000000000000000000000000000000000000000000000281526004018082600581111561212557fe5b60ff168152602001915050600060405180830381600087803b15801561214a57600080fd5b505af115801561215e573d6000803e3d6000fd5b505050505b5b505050565b600080828401905083811015151561218057600080fd5b8091505092915050565b6000606a60009054906101000a900473ffffffffffffffffffffffffffffffffffffffff1673ffffffffffffffffffffffffffffffffffffffff1663adb724bf6040518163ffffffff167c010000000000000000000000000000000000000000000000000000000002815260040160206040518083038186803b15801561221057600080fd5b505afa158015612224573d6000803e3d6000fd5b505050506040513d602081101561223a57600080fd5b8101908080519060200190929190505050905090565b600073ffffffffffffffffffffffffffffffffffffffff168273ffffffffffffffffffffffffffffffffffffffff16141515156122f5576040517f08c379a00000000000000000000000000000000000000000000000000000000081526004018080602001828103825260208152602001807f4163636f756e74206d757374206e6f74206265207a65726f206164647265737381525060200191505060405180910390fd5b600081111515612350576040517f08c379a0000000000000000000000000000000000000000000000000000000008152600401808060200182810382526022815260200180612cec6022913960400191505060405180910390fd5b6000606860008473ffffffffffffffffffffffffffffffffffffffff1673ffffffffffffffffffffffffffffffffffffffff168152602001908152602001600020541415156123ea576040517f08c379a000000000000000000000000000000000000000000000000000000000815260040180806020018281038252602e815260200180612d30602e913960400191505060405180910390fd5b80606860008473ffffffffffffffffffffffffffffffffffffffff1673ffffffffffffffffffffffffffffffffffffffff168152602001908152602001600020819055506124438160665461216990919063ffffffff16565b6066819055507fe50d60c97c4d4d49c3d404d841de6d02f67b7fef95765960ece08d9cf438fd7282604051808273ffffffffffffffffffffffffffffffffffffffff1673ffffffffffffffffffffffffffffffffffffffff16815260200191505060405180910390a17f41d7bd33938620cb373e6ebd6be2e33d322196c2c255a214d10c2e4aa1c7b1de8282604051808373ffffffffffffffffffffffffffffffffffffffff1673ffffffffffffffffffffffffffffffffffffffff1681526020018281526020019250505060405180910390a15050565b600073ffffffffffffffffffffffffffffffffffffffff168273ffffffffffffffffffffffffffffffffffffffff16141515156125c0576040517f08c379a00000000000000000000000000000000000000000000000000000000081526004018080602001828103825260208152602001807f4163636f756e74206d757374206e6f74206265207a65726f206164647265737381525060200191505060405180910390fd5b600081111515612638576040517f08c379a000000000000000000000000000000000000000000000000000000000815260040180806020018281038252601f8152602001807f43616e206e6f7420696e637265617365206279207a65726f207368617265730081525060200191505060405180910390fd5b61264d8160665461216990919063ffffffff16565b60668190555060006126a782606860008673ffffffffffffffffffffffffffffffffffffffff1673ffffffffffffffffffffffffffffffffffffffff1681526020019081526020016000205461216990919063ffffffff16565b905080606860008573ffffffffffffffffffffffffffffffffffffffff1673ffffffffffffffffffffffffffffffffffffffff168152602001908152602001600020819055507f41d7bd33938620cb373e6ebd6be2e33d322196c2c255a214d10c2e4aa1c7b1de8383604051808373ffffffffffffffffffffffffffffffffffffffff1673ffffffffffffffffffffffffffffffffffffffff1681526020018281526020019250505060405180910390a1505050565b600073ffffffffffffffffffffffffffffffffffffffff168273ffffffffffffffffffffffffffffffffffffffff1614151515612802576040517f08c379a00000000000000000000000000000000000000000000000000000000081526004018080602001828103825260208152602001807f4163636f756e74206d757374206e6f74206265207a65726f206164647265737381525060200191505060405180910390fd5b60008111151561287a576040517f08c379a000000000000000000000000000000000000000000000000000000000815260040180806020018281038252601f8152602001807f43616e206e6f74206465637265617365206279207a65726f207368617265730081525060200191505060405180910390fd5b6000606860008473ffffffffffffffffffffffffffffffffffffffff1673ffffffffffffffffffffffffffffffffffffffff16815260200190815260200160002054111515612931576040517f08c379a00000000000000000000000000000000000000000000000000000000081526004018080602001828103825260178152602001807f4163636f756e7420686173207a65726f2073686172657300000000000000000081525060200191505060405180910390fd5b61294681606654612bbd90919063ffffffff16565b60668190555060006129a082606860008673ffffffffffffffffffffffffffffffffffffffff1673ffffffffffffffffffffffffffffffffffffffff16815260200190815260200160002054612bbd90919063ffffffff16565b905080606860008573ffffffffffffffffffffffffffffffffffffffff1673ffffffffffffffffffffffffffffffffffffffff168152602001908152602001600020819055507fe08a8f40453f09e6ad2aa114d862bf5ade2fc98bca4679b63d94eae5b97300958383604051808373ffffffffffffffffffffffffffffffffffffffff1673ffffffffffffffffffffffffffffffffffffffff1681526020018281526020019250505060405180910390a1505050565b600080303b90506000811491505090565b612a7b816033612bdf90919063ffffffff16565b8073ffffffffffffffffffffffffffffffffffffffff167f0a8bb31534c0ed46f380cb867bd5c803a189ced9a764e30b3a4991a9901d747460405160405180910390a250565b60008073ffffffffffffffffffffffffffffffffffffffff168273ffffffffffffffffffffffffffffffffffffffff1614151515612afe57600080fd5b8260000160008373ffffffffffffffffffffffffffffffffffffffff1673ffffffffffffffffffffffffffffffffffffffff16815260200190815260200160002060009054906101000a900460ff16905092915050565b600080831415612b685760009050612b8d565b60008284029050828482811515612b7b57fe5b04141515612b8857600080fd5b809150505b92915050565b60008082111515612ba357600080fd5b60008284811515612bb057fe5b0490508091505092915050565b6000828211151515612bce57600080fd5b600082840390508091505092915050565b600073ffffffffffffffffffffffffffffffffffffffff168173ffffffffffffffffffffffffffffffffffffffff1614151515612c1b57600080fd5b612c258282612ac1565b151515612c3157600080fd5b60018260000160008373ffffffffffffffffffffffffffffffffffffffff1673ffffffffffffffffffffffffffffffffffffffff16815260200190815260200160002060006101000a81548160ff021916908315150217905550505056fe416374696f6e206f6e6c7920616c6c6f776564207768696c65206c6f616e20697320416374697665416374696f6e206f6e6c7920616c6c6f776564206265666f7265206c6f616e2066756e64696e6720697320636f6d706c6574656443616e206e6f74206164642050617965652077697468207a65726f207368617265734163636f756e7420686173207a65726f2072656c6561736520616c6c6f77616e63654163636f756e7420616c726561647920686173207368617265732c2075736520696e637265617365536861726573576572652074686520746f6b656e73207375636365737366756c6c792073656e743f436f6e747261637420696e7374616e63652068617320616c7265616479206265656e20696e697469616c697a6564416374696f6e206f6e6c7920616c6c6f776564206265666f7265206c6f616e2066756e64696e67206661696c6564a165627a7a72305820cdbc7ed630be10d1298b8ffa857cca5c57a3d39fc54bfd411e51e8122b32ba200029",
  "source": "pragma solidity ^0.5.2;\n\nimport \"openzeppelin-eth/contracts/math/SafeMath.sol\";\nimport \"openzeppelin-eth/contracts/token/ERC20/IERC20.sol\";\nimport \"zos-lib/contracts/Initializable.sol\";\nimport \"../interface/IRepaymentManager.sol\";\nimport \"../interface/ITermsContract.sol\";\nimport \"../access/ControllerRole.sol\";\nimport \"./TermsContractLib.sol\";\n\n/**\n * @title RepaymentManager\n * @dev This contract is inspired by OpenZeppelin's PaymentSplitter\n *\n * It follows a _pull payment_ model. Payments are not forwarded automatically, and lender will need to\n * trigger the actual transfer by calling the {release} function\n */\ncontract RepaymentManager is Initializable, IRepaymentManager, ControllerRole {\n    using SafeMath for uint256;\n    using TermsContractLib for TermsContractLib.LoanStatus;\n\n    uint256 private _totalShares;\n    uint256 private _totalReleased;\n\n    mapping(address => uint256) private _shares;\n    mapping(address => uint256) private _released;\n\n    ITermsContract public termsContract;\n\n    enum RepaymentStatus {ON_TIME, DEFAULT}\n\n    modifier onlyActiveLoan() {\n        require(\n            termsContract.getLoanStatus() >= TermsContractLib.LoanStatus.REPAYMENT_CYCLE,\n            \"Action only allowed while loan is Active\"\n        );\n        _;\n    }\n\n    modifier beforeLoanFunded() {\n        require(\n            termsContract.getLoanStatus() < TermsContractLib.LoanStatus.FUNDING_COMPLETE,\n            \"Action only allowed before loan funding is completed\"\n        );\n        _;\n    }\n\n    modifier trackRepaymentStatus() {\n        _updateRepaymentStatus();\n        _;\n        _updateRepaymentStatus();\n    }\n\n    /**\n     * @dev Constructor\n     */\n    function initialize(address _termsContract, address[] memory _controllers)\n        public\n        payable\n        initializer\n    {\n        // address[] memory _controllers = new address[](1);\n        // _controllers[0] = _controller;\n\n        termsContract = ITermsContract(_termsContract);\n        ControllerRole.initialize(_controllers);\n    }\n\n    function() external payable {\n        revert(\"Ether not accepted\");\n    }\n\n    /**\n     * @return the total amount paid to contract.\n     */\n    function totalPaid() public view returns (uint256) {\n        uint256 balance = _getPrincipalToken().balanceOf(address(this));\n        return balance.add(_totalReleased);\n    }\n\n    /**\n     * @return the total shares of the contract.\n     */\n    function totalShares() public view returns (uint256) {\n        return _totalShares;\n    }\n\n    /**\n     * @return the total amount already released.\n     */\n    function totalReleased() public view returns (uint256) {\n        return _totalReleased;\n    }\n\n    /**\n     * @return the shares of an account.\n     */\n    function shares(address account) public view returns (uint256) {\n        return _shares[account];\n    }\n\n    /**\n     * @return the amount already released to an account.\n     */\n    function released(address account) public view returns (uint256) {\n        return _released[account];\n    }\n\n    /**\n     * @return the release amount that an account could currently claim.\n     */\n    function releaseAllowance(address account) public view returns (uint256) {\n        uint256 totalReceived = totalPaid();\n        return totalReceived.mul(_shares[account]).div(_totalShares).sub(_released[account]);\n    }\n\n    /**\n     * @notice Send funds\n     * @param amount amount of tokens to send.\n     */\n    function pay(uint256 amount) public onlyActiveLoan trackRepaymentStatus {\n        // TODO Uncomment after late fees implemented\n        // require(\n        //     termsContract.getLoanStatus() < TermsContractLib.LoanStatus.REPAYMENT_COMPLETE,\n        //     \"Action only allowed before Repayment complete\"\n        // );\n        require(amount > 0, \"No amount set to pay\");\n\n        uint256 balance = _getPrincipalToken().balanceOf(address(this));\n        _getPrincipalToken().transferFrom(msg.sender, address(this), amount);\n        require(\n            _getPrincipalToken().balanceOf(address(this)) >= balance.add(amount),\n            \"Were the tokens successfully sent?\"\n        );\n        emit PaymentReceived(msg.sender, amount);\n    }\n\n    /**\n     * @dev Release one of the payee's proportional payment.\n     * @param account Whose payments will be released.\n     */\n    function release(address payable account) public onlyActiveLoan trackRepaymentStatus {\n        require(_shares[account] > 0, \"Account has zero shares\");\n\n        uint256 payment = releaseAllowance(account);\n        require(payment != 0, \"Account has zero release allowance\");\n\n        _released[account] = _released[account].add(payment);\n        _totalReleased = _totalReleased.add(payment);\n\n        _getPrincipalToken().transfer(account, payment);\n        emit PaymentReleased(account, payment);\n    }\n\n    /**\n     * @dev Increase shares of a shareholder.\n     */\n    function increaseShares(address account, uint256 shares_)\n        public\n        onlyController\n        beforeLoanFunded\n    {\n        require(\n            termsContract.getLoanStatus() < TermsContractLib.LoanStatus.FUNDING_FAILED,\n            \"Action only allowed before loan funding failed\"\n        );\n        if (_shares[account] == 0) {\n            _addPayee(account, shares_);\n        } else {\n            _increaseShares(account, shares_);\n        }\n    }\n\n    /**\n     * @dev Decrease shares of a shareholder.\n     */\n    function decreaseShares(address account, uint256 shares_)\n        public\n        onlyController\n        beforeLoanFunded\n    {\n        _decreaseShares(account, shares_);\n    }\n\n    /**\n      * Simple repayment status of loan\n      * NOTE: In future, we will be adding more statuses, e.g. late 30, 60, 90, written-off etc\n      */\n    function getRepaymentStatus() public view returns (RepaymentStatus) {\n        uint256 expectedRepaymentValue = termsContract.getExpectedRepaymentValue();\n        uint256 paid = totalPaid();\n        if (paid < expectedRepaymentValue) {\n            return RepaymentStatus.DEFAULT;\n        } else {\n            return RepaymentStatus.ON_TIME;\n        }\n    }\n\n    function _getPrincipalToken() internal view returns (IERC20 token) {\n        return IERC20(termsContract.getPrincipalToken());\n    }\n\n    // @notice reconcile the loans funding status\n    function _updateRepaymentStatus() internal {\n        uint256 _totalDue;\n        uint256 _totalPaid = totalPaid();\n\n        (, , , , uint256 loanPeriod, , , ) = termsContract.getLoanParams();\n        for (uint256 lp = 0; lp < loanPeriod; lp++) {\n            (, , , uint256 due) = termsContract.getScheduledPayment(lp + 1);\n            _totalDue = _totalDue + due;\n        }\n\n        if (\n            _totalPaid > 0 &&\n            _totalPaid < _totalDue &&\n            termsContract.getLoanStatus() < TermsContractLib.LoanStatus.REPAYMENT_CYCLE\n        ) {\n            termsContract.setLoanStatus(TermsContractLib.LoanStatus.REPAYMENT_CYCLE);\n        } else if (_totalDue > 0 && _totalPaid >= _totalDue) {\n            termsContract.setLoanStatus(TermsContractLib.LoanStatus.REPAYMENT_COMPLETE);\n        }\n    }\n\n    /**\n     * @dev Increase shares of an existing payee.\n     */\n    function _increaseShares(address account, uint256 shares_) private {\n        require(account != address(0), \"Account must not be zero address\");\n        require(shares_ > 0, \"Can not increase by zero shares\");\n        // require(_shares[account] >= 0, \"Account has zero shares\"); // DAN: this makes no sense\n\n        _totalShares = _totalShares.add(shares_);\n        uint256 newShares_ = _shares[account].add(shares_);\n        _shares[account] = newShares_;\n        emit ShareIncreased(account, shares_);\n    }\n\n    /**\n     * @dev Decrease shares of an existing payee.\n     */\n    function _decreaseShares(address account, uint256 shares_) private {\n        require(account != address(0), \"Account must not be zero address\");\n        require(shares_ > 0, \"Can not decrease by zero shares\");\n        require(_shares[account] > 0, \"Account has zero shares\");\n\n        _totalShares = _totalShares.sub(shares_);\n        uint256 newShares_ = _shares[account].sub(shares_);\n        _shares[account] = newShares_;\n        emit ShareDecreased(account, shares_);\n    }\n\n    /**\n     * @dev Add a new payee to the contract.\n     * @param account The address of the payee to add.\n     * @param shares_ The number of shares owned by the payee.\n     */\n    function _addPayee(address account, uint256 shares_) private {\n        require(account != address(0), \"Account must not be zero address\");\n        require(shares_ > 0, \"Can not add Payee with zero shares\");\n        require(_shares[account] == 0, \"Account already has shares, use increaseShares\");\n\n        _shares[account] = shares_;\n        _totalShares = _totalShares.add(shares_);\n        emit PayeeAdded(account);\n        emit ShareIncreased(account, shares_);\n    }\n}\n",
  "sourcePath": "/Users/thomas/Code/client/enable/test/enable-contracts/contracts/debt-contracts/RepaymentManager.sol",
  "compiler": {
    "name": "solc",
    "version": "0.5.2+commit.1df8f40c.Emscripten.clang"
  },
  "schemaVersion": "3.0.11",
  "updatedAt": "2019-09-10T10:40:38.737Z",
  "devdoc": {
    "details": "This contract is inspired by OpenZeppelin's PaymentSplitter * It follows a _pull payment_ model. Payments are not forwarded automatically, and lender will need to trigger the actual transfer by calling the {release} function",
    "methods": {
      "decreaseShares(address,uint256)": {
        "details": "Decrease shares of a shareholder."
      },
      "increaseShares(address,uint256)": {
        "details": "Increase shares of a shareholder."
      },
      "initialize(address,address[])": {
        "details": "Constructor"
      },
      "pay(uint256)": {
        "params": {
          "amount": "amount of tokens to send."
        }
      },
      "release(address)": {
        "details": "Release one of the payee's proportional payment.",
        "params": {
          "account": "Whose payments will be released."
        }
      },
      "releaseAllowance(address)": {
        "return": "the release amount that an account could currently claim."
      },
      "released(address)": {
        "return": "the amount already released to an account."
      },
      "shares(address)": {
        "return": "the shares of an account."
      },
      "totalPaid()": {
        "return": "the total amount paid to contract."
      },
      "totalReleased()": {
        "return": "the total amount already released."
      },
      "totalShares()": {
        "return": "the total shares of the contract."
      }
    },
    "title": "RepaymentManager"
  },
  "userdoc": {
    "methods": {
      "getRepaymentStatus()": {
        "notice": "Simple repayment status of loan NOTE: In future, we will be adding more statuses, e.g. late 30, 60, 90, written-off etc"
      },
      "pay(uint256)": {
        "notice": "Send funds"
      }
    }
  }
}