{
  "contractName": "TermsContract",
  "abi": [
    {
      "constant": true,
      "inputs": [],
      "name": "loanParams",
      "outputs": [
        {
          "internalType": "address",
          "name": "borrower",
          "type": "address"
        },
        {
          "internalType": "address",
          "name": "principalToken",
          "type": "address"
        },
        {
          "internalType": "uint256",
          "name": "principalRequested",
          "type": "uint256"
        },
        {
          "internalType": "enum TermsContractLib.LoanStatus",
          "name": "loanStatus",
          "type": "uint8"
        },
        {
          "internalType": "uint256",
          "name": "loanPeriod",
          "type": "uint256"
        },
        {
          "internalType": "uint256",
          "name": "interestRate",
          "type": "uint256"
        },
        {
          "internalType": "uint256",
          "name": "minimumRepayment",
          "type": "uint256"
        },
        {
          "internalType": "uint256",
          "name": "maximumRepayment",
          "type": "uint256"
        },
        {
          "internalType": "uint256",
          "name": "principalDisbursed",
          "type": "uint256"
        },
        {
          "internalType": "uint256",
          "name": "loanStartTimestamp",
          "type": "uint256"
        }
      ],
      "payable": false,
      "stateMutability": "view",
      "type": "function"
    },
    {
      "constant": true,
      "inputs": [
        {
          "internalType": "address",
          "name": "account",
          "type": "address"
        }
      ],
      "name": "isController",
      "outputs": [
        {
          "internalType": "bool",
          "name": "",
          "type": "bool"
        }
      ],
      "payable": false,
      "stateMutability": "view",
      "type": "function"
    },
    {
      "anonymous": false,
      "inputs": [
        {
          "indexed": true,
          "internalType": "address",
          "name": "account",
          "type": "address"
        }
      ],
      "name": "ControllerAdded",
      "type": "event"
    },
    {
      "anonymous": false,
      "inputs": [
        {
          "indexed": true,
          "internalType": "address",
          "name": "account",
          "type": "address"
        }
      ],
      "name": "ControllerRemoved",
      "type": "event"
    },
    {
      "anonymous": false,
      "inputs": [
        {
          "indexed": false,
          "internalType": "address",
          "name": "account",
          "type": "address"
        }
      ],
      "name": "LogAccess",
      "type": "event"
    },
    {
      "anonymous": false,
      "inputs": [
        {
          "indexed": false,
          "internalType": "enum TermsContractLib.LoanStatus",
          "name": "status",
          "type": "uint8"
        }
      ],
      "name": "LoanStatusUpdated",
      "type": "event"
    },
    {
      "constant": false,
      "inputs": [
        {
          "internalType": "address[]",
          "name": "_controllers",
          "type": "address[]"
        }
      ],
      "name": "initialize",
      "outputs": [],
      "payable": false,
      "stateMutability": "nonpayable",
      "type": "function"
    },
    {
      "constant": false,
      "inputs": [
        {
          "internalType": "address",
          "name": "borrower",
          "type": "address"
        },
        {
          "internalType": "address",
          "name": "principalToken",
          "type": "address"
        },
        {
          "internalType": "uint256",
          "name": "principalRequested",
          "type": "uint256"
        },
        {
          "internalType": "uint256",
          "name": "loanPeriod",
          "type": "uint256"
        },
        {
          "internalType": "uint256",
          "name": "interestRate",
          "type": "uint256"
        },
        {
          "internalType": "uint256",
          "name": "minimumRepayment",
          "type": "uint256"
        },
        {
          "internalType": "uint256",
          "name": "maximumRepayment",
          "type": "uint256"
        },
        {
          "internalType": "address[]",
          "name": "_controllers",
          "type": "address[]"
        }
      ],
      "name": "initialize",
      "outputs": [],
      "payable": false,
      "stateMutability": "nonpayable",
      "type": "function"
    },
    {
      "constant": false,
      "inputs": [
        {
          "internalType": "enum TermsContractLib.LoanStatus",
          "name": "_status",
          "type": "uint8"
        }
      ],
      "name": "setLoanStatus",
      "outputs": [],
      "payable": false,
      "stateMutability": "nonpayable",
      "type": "function"
    },
    {
      "constant": true,
      "inputs": [],
      "name": "getBorrower",
      "outputs": [
        {
          "internalType": "address",
          "name": "",
          "type": "address"
        }
      ],
      "payable": false,
      "stateMutability": "view",
      "type": "function"
    },
    {
      "constant": true,
      "inputs": [],
      "name": "getInterestRate",
      "outputs": [
        {
          "internalType": "uint256",
          "name": "",
          "type": "uint256"
        }
      ],
      "payable": false,
      "stateMutability": "view",
      "type": "function"
    },
    {
      "constant": true,
      "inputs": [],
      "name": "getLoanStatus",
      "outputs": [
        {
          "internalType": "enum TermsContractLib.LoanStatus",
          "name": "loanStatus",
          "type": "uint8"
        }
      ],
      "payable": false,
      "stateMutability": "view",
      "type": "function"
    },
    {
      "constant": true,
      "inputs": [],
      "name": "getLoanStartTimestamp",
      "outputs": [
        {
          "internalType": "uint256",
          "name": "",
          "type": "uint256"
        }
      ],
      "payable": false,
      "stateMutability": "view",
      "type": "function"
    },
    {
      "constant": true,
      "inputs": [],
      "name": "getNumScheduledPayments",
      "outputs": [
        {
          "internalType": "uint256",
          "name": "",
          "type": "uint256"
        }
      ],
      "payable": false,
      "stateMutability": "view",
      "type": "function"
    },
    {
      "constant": true,
      "inputs": [],
      "name": "getPrincipalRequested",
      "outputs": [
        {
          "internalType": "uint256",
          "name": "",
          "type": "uint256"
        }
      ],
      "payable": false,
      "stateMutability": "view",
      "type": "function"
    },
    {
      "constant": true,
      "inputs": [],
      "name": "getPrincipalDisbursed",
      "outputs": [
        {
          "internalType": "uint256",
          "name": "",
          "type": "uint256"
        }
      ],
      "payable": false,
      "stateMutability": "view",
      "type": "function"
    },
    {
      "constant": true,
      "inputs": [],
      "name": "getPrincipalToken",
      "outputs": [
        {
          "internalType": "address",
          "name": "",
          "type": "address"
        }
      ],
      "payable": false,
      "stateMutability": "view",
      "type": "function"
    },
    {
      "constant": true,
      "inputs": [],
      "name": "getMinimumRepayment",
      "outputs": [
        {
          "internalType": "uint256",
          "name": "",
          "type": "uint256"
        }
      ],
      "payable": false,
      "stateMutability": "view",
      "type": "function"
    },
    {
      "constant": true,
      "inputs": [],
      "name": "getMaximumRepayment",
      "outputs": [
        {
          "internalType": "uint256",
          "name": "",
          "type": "uint256"
        }
      ],
      "payable": false,
      "stateMutability": "view",
      "type": "function"
    },
    {
      "constant": true,
      "inputs": [],
      "name": "getLoanEndTimestamp",
      "outputs": [
        {
          "internalType": "uint256",
          "name": "end",
          "type": "uint256"
        }
      ],
      "payable": false,
      "stateMutability": "view",
      "type": "function"
    },
    {
      "constant": true,
      "inputs": [],
      "name": "getLoanParams",
      "outputs": [
        {
          "internalType": "address",
          "name": "borrower",
          "type": "address"
        },
        {
          "internalType": "address",
          "name": "principalToken",
          "type": "address"
        },
        {
          "internalType": "uint256",
          "name": "principalRequested",
          "type": "uint256"
        },
        {
          "internalType": "uint256",
          "name": "loanStatus",
          "type": "uint256"
        },
        {
          "internalType": "uint256",
          "name": "loanPeriod",
          "type": "uint256"
        },
        {
          "internalType": "uint256",
          "name": "interestRate",
          "type": "uint256"
        },
        {
          "internalType": "uint256",
          "name": "minimumRepayment",
          "type": "uint256"
        },
        {
          "internalType": "uint256",
          "name": "maximumRepayment",
          "type": "uint256"
        },
        {
          "internalType": "uint256",
          "name": "principalDisbursed",
          "type": "uint256"
        },
        {
          "internalType": "uint256",
          "name": "loanStartTimestamp",
          "type": "uint256"
        }
      ],
      "payable": false,
      "stateMutability": "view",
      "type": "function"
    },
    {
      "constant": true,
      "inputs": [
        {
          "internalType": "uint256",
          "name": "period",
          "type": "uint256"
        }
      ],
      "name": "getRequestedScheduledPayment",
      "outputs": [
        {
          "internalType": "uint256",
          "name": "principalPayment",
          "type": "uint256"
        },
        {
          "internalType": "uint256",
          "name": "interestPayment",
          "type": "uint256"
        },
        {
          "internalType": "uint256",
          "name": "totalPayment",
          "type": "uint256"
        }
      ],
      "payable": false,
      "stateMutability": "view",
      "type": "function"
    },
    {
      "constant": true,
      "inputs": [
        {
          "internalType": "uint256",
          "name": "period",
          "type": "uint256"
        }
      ],
      "name": "getScheduledPayment",
      "outputs": [
        {
          "internalType": "uint256",
          "name": "dueTimestamp",
          "type": "uint256"
        },
        {
          "internalType": "uint256",
          "name": "principalPayment",
          "type": "uint256"
        },
        {
          "internalType": "uint256",
          "name": "interestPayment",
          "type": "uint256"
        },
        {
          "internalType": "uint256",
          "name": "totalPayment",
          "type": "uint256"
        }
      ],
      "payable": false,
      "stateMutability": "view",
      "type": "function"
    },
    {
      "constant": false,
      "inputs": [
        {
          "internalType": "uint256",
          "name": "totalCrowdfunded",
          "type": "uint256"
        }
      ],
      "name": "startRepaymentCycle",
      "outputs": [
        {
          "internalType": "uint256",
          "name": "startTimestamp",
          "type": "uint256"
        }
      ],
      "payable": false,
      "stateMutability": "nonpayable",
      "type": "function"
    },
    {
      "constant": true,
      "inputs": [],
      "name": "getExpectedRepaymentValue",
      "outputs": [
        {
          "internalType": "uint256",
          "name": "total",
          "type": "uint256"
        }
      ],
      "payable": false,
      "stateMutability": "view",
      "type": "function"
    },
    {
      "constant": true,
      "inputs": [
        {
          "internalType": "uint256",
          "name": "timestamp",
          "type": "uint256"
        }
      ],
      "name": "getExpectedRepaymentValue",
      "outputs": [
        {
          "internalType": "uint256",
          "name": "total",
          "type": "uint256"
        }
      ],
      "payable": false,
      "stateMutability": "view",
      "type": "function"
    },
    {
      "constant": true,
      "inputs": [
        {
          "internalType": "uint256",
          "name": "principal",
          "type": "uint256"
        },
        {
          "internalType": "uint256",
          "name": "interestRate",
          "type": "uint256"
        }
      ],
      "name": "_calcMonthlyInterest",
      "outputs": [
        {
          "internalType": "uint256",
          "name": "result",
          "type": "uint256"
        }
      ],
      "payable": false,
      "stateMutability": "pure",
      "type": "function"
    }
  ],
  "bytecode": "0x608060405234801561001057600080fd5b50611a85806100206000396000f3fe608060405234801561001057600080fd5b506004361061014d5760003560e01c806389026b6a116100c3578063b429afeb1161007c578063b429afeb14610732578063d5a3e2321461078e578063e2d71238146107d0578063e38be0c214610812578063e7b6afc214610843578063f209b970146108615761014d565b806389026b6a1461054a5780638e24ed8b14610568578063a224cee7146105b8578063acc1ab1314610670578063adb724bf1461069c578063adf89a03146106e65761014d565b80634e04bf61116101155780634e04bf61146103505780635257b5661461036e5780636bca7c7e1461038c5780637340435b146103aa57806378ee5893146103c857806384f4d98c1461041f5761014d565b806309e94d9814610152578063170d7dc5146102155780631cb0c3e71461023357806320600a371461027d578063494b383c14610332575b600080fd5b61015a61087f565b604051808b73ffffffffffffffffffffffffffffffffffffffff1673ffffffffffffffffffffffffffffffffffffffff1681526020018a73ffffffffffffffffffffffffffffffffffffffff1673ffffffffffffffffffffffffffffffffffffffff1681526020018981526020018860058111156101d457fe5b60ff1681526020018781526020018681526020018581526020018481526020018381526020018281526020019a505050505050505050505060405180910390f35b61021d61090e565b6040518082815260200191505060405180910390f35b61023b61091b565b604051808273ffffffffffffffffffffffffffffffffffffffff1673ffffffffffffffffffffffffffffffffffffffff16815260200191505060405180910390f35b610285610948565b604051808b73ffffffffffffffffffffffffffffffffffffffff1673ffffffffffffffffffffffffffffffffffffffff1681526020018a73ffffffffffffffffffffffffffffffffffffffff1673ffffffffffffffffffffffffffffffffffffffff1681526020018981526020018881526020018781526020018681526020018581526020018481526020018381526020018281526020019a505050505050505050505060405180910390f35b61033a610a0b565b6040518082815260200191505060405180910390f35b610358610a18565b6040518082815260200191505060405180910390f35b610376610aae565b6040518082815260200191505060405180910390f35b610394610abb565b6040518082815260200191505060405180910390f35b6103b2610ac0565b6040518082815260200191505060405180910390f35b6103f4600480360360208110156103de57600080fd5b8101908080359060200190929190505050610acd565b6040518085815260200184815260200183815260200182815260200194505050505060405180910390f35b610548600480360361010081101561043657600080fd5b81019080803573ffffffffffffffffffffffffffffffffffffffff169060200190929190803573ffffffffffffffffffffffffffffffffffffffff1690602001909291908035906020019092919080359060200190929190803590602001909291908035906020019092919080359060200190929190803590602001906401000000008111156104c557600080fd5b8201836020820111156104d757600080fd5b803590602001918460208302840111640100000000831117156104f957600080fd5b919080806020026020016040519081016040528093929190818152602001838360200280828437600081840152601f19601f820116905080830192505050505050509192919290505050610ada565b005b610552610f5a565b6040518082815260200191505060405180910390f35b6105946004803603602081101561057e57600080fd5b8101908080359060200190929190505050610f67565b60405180848152602001838152602001828152602001935050505060405180910390f35b61066e600480360360208110156105ce57600080fd5b81019080803590602001906401000000008111156105eb57600080fd5b8201836020820111156105fd57600080fd5b8035906020019184602083028401116401000000008311171561061f57600080fd5b919080806020026020016040519081016040528093929190818152602001838360200280828437600081840152601f19601f820116905080830192505050505050509192919290505050610f73565b005b6106786110ac565b6040518082600581111561068857fe5b60ff16815260200191505060405180910390f35b6106a46110c6565b604051808273ffffffffffffffffffffffffffffffffffffffff1673ffffffffffffffffffffffffffffffffffffffff16815260200191505060405180910390f35b61071c600480360360408110156106fc57600080fd5b8101908080359060200190929190803590602001909291905050506110f3565b6040518082815260200191505060405180910390f35b6107746004803603602081101561074857600080fd5b81019080803573ffffffffffffffffffffffffffffffffffffffff1690602001909291905050506110fb565b604051808215151515815260200191505060405180910390f35b6107ba600480360360208110156107a457600080fd5b8101908080359060200190929190505050611118565b6040518082815260200191505060405180910390f35b6107fc600480360360208110156107e657600080fd5b81019080803590602001909291905050506112c0565b6040518082815260200191505060405180910390f35b6108416004803603602081101561082857600080fd5b81019080803560ff1690602001909291905050506112c7565b005b61084b6113b1565b6040518082815260200191505060405180910390f35b6108696113be565b6040518082815260200191505060405180910390f35b60668060000160009054906101000a900473ffffffffffffffffffffffffffffffffffffffff16908060010160009054906101000a900473ffffffffffffffffffffffffffffffffffffffff16908060020154908060030160009054906101000a900460ff1690806004015490806005015490806006015490806007015490806008015490806009015490508a565b6000606660040154905090565b6000606660000160009054906101000a900473ffffffffffffffffffffffffffffffffffffffff16905090565b600080600080600080600080600080606660000160009054906101000a900473ffffffffffffffffffffffffffffffffffffffff16606660010160009054906101000a900473ffffffffffffffffffffffffffffffffffffffff16606660020154606660030160009054906101000a900460ff1660058111156109c757fe5b606660040154606660050154606660060154606660070154606660080154606660090154995099509950995099509950995099509950995090919293949596979899565b6000606660070154905090565b6000806066600901541415610a95576040517f08c379a000000000000000000000000000000000000000000000000000000000815260040180806020018281038252601c8152602001807f4c6f616e206861736e2774206265656e2073746172746564207965740000000081525060200191505060405180910390fd5b610aa96066600901546066600401546113cb565b905090565b6000606660050154905090565b600090565b6000606660020154905090565b6000806000809193509193565b600060019054906101000a900460ff1680610af95750610af861146d565b5b80610b1057506000809054906101000a900460ff16155b610b65576040517f08c379a000000000000000000000000000000000000000000000000000000000815260040180806020018281038252602e8152602001806119a2602e913960400191505060405180910390fd5b60008060019054906101000a900460ff161590508015610bb5576001600060016101000a81548160ff02191690831515021790555060016000806101000a81548160ff0219169083151502179055505b600073ffffffffffffffffffffffffffffffffffffffff168873ffffffffffffffffffffffffffffffffffffffff161415610c3b576040517f08c379a00000000000000000000000000000000000000000000000000000000081526004018080602001828103825260238152602001806119506023913960400191505060405180910390fd5b6000871415610c95576040517f08c379a00000000000000000000000000000000000000000000000000000000081526004018080602001828103825260298152602001806119276029913960400191505060405180910390fd5b60008611610cee576040517f08c379a00000000000000000000000000000000000000000000000000000000081526004018080602001828103825260218152602001806119066021913960400191505060405180910390fd5b60098511610d47576040517f08c379a0000000000000000000000000000000000000000000000000000000008152600401808060200182810382526045815260200180611a0c6045913960600191505060405180910390fd5b6127108510610da1576040517f08c379a000000000000000000000000000000000000000000000000000000000815260040180806020018281038252603c8152602001806119d0603c913960400191505060405180910390fd5b610daa82610f73565b6040518061014001604052808a73ffffffffffffffffffffffffffffffffffffffff1681526020018973ffffffffffffffffffffffffffffffffffffffff16815260200188815260200160006005811115610e0157fe5b8152602001878152602001868152602001858152602001848152602001600081526020016000815250606660008201518160000160006101000a81548173ffffffffffffffffffffffffffffffffffffffff021916908373ffffffffffffffffffffffffffffffffffffffff16021790555060208201518160010160006101000a81548173ffffffffffffffffffffffffffffffffffffffff021916908373ffffffffffffffffffffffffffffffffffffffff1602179055506040820151816002015560608201518160030160006101000a81548160ff02191690836005811115610ee857fe5b02179055506080820151816004015560a0820151816005015560c0820151816006015560e08201518160070155610100820151816008015561012082015181600901559050508015610f4f5760008060016101000a81548160ff0219169083151502179055505b505050505050505050565b6000606660080154905090565b60008060009193909250565b600060019054906101000a900460ff1680610f925750610f9161146d565b5b80610fa957506000809054906101000a900460ff16155b610ffe576040517f08c379a000000000000000000000000000000000000000000000000000000000815260040180806020018281038252602e8152602001806119a2602e913960400191505060405180910390fd5b60008060019054906101000a900460ff16159050801561104e576001600060016101000a81548160ff02191690831515021790555060016000806101000a81548160ff0219169083151502179055505b60008090505b82518110156110865761107983828151811061106c57fe5b602002602001015161147e565b8080600101915050611054565b5080156110a85760008060016101000a81548160ff0219169083151502179055505b5050565b6000606660030160009054906101000a900460ff16905090565b6000606660010160009054906101000a900473ffffffffffffffffffffffffffffffffffffffff16905090565b600092915050565b60006111118260336114d890919063ffffffff16565b9050919050565b60007ffca6d4e226ce530cdba35a2c75a702b253c239a7068eefc5b041b2519083d2c933604051808273ffffffffffffffffffffffffffffffffffffffff1673ffffffffffffffffffffffffffffffffffffffff16815260200191505060405180910390a1611186336110fb565b6111f8576040517f08c379a00000000000000000000000000000000000000000000000000000000081526004018080602001828103825260118152602001807f5065726d697373696f6e2064656e69656400000000000000000000000000000081525060200191505060405180910390fd5b6004600581111561120557fe5b606660030160009054906101000a900460ff16600581111561122357fe5b10611279576040517f08c379a000000000000000000000000000000000000000000000000000000000815260040180806020018281038252602f815260200180611973602f913960400191505060405180910390fd5b6000606660020154831115611295576066600201549050611299565b8290505b42915080606660080181905550816066600901819055506112ba600461156a565b50919050565b6000919050565b7ffca6d4e226ce530cdba35a2c75a702b253c239a7068eefc5b041b2519083d2c933604051808273ffffffffffffffffffffffffffffffffffffffff1673ffffffffffffffffffffffffffffffffffffffff16815260200191505060405180910390a1611333336110fb565b6113a5576040517f08c379a00000000000000000000000000000000000000000000000000000000081526004018080602001828103825260118152602001807f5065726d697373696f6e2064656e69656400000000000000000000000000000081525060200191505060405180910390fd5b6113ae8161156a565b50565b6000606660060154905090565b6000606660090154905090565b6000806000806113e66201518087816113e057fe5b04611608565b8093508194508295505050508482019150600c600183038161140457fe5b04830192506001600c600184038161141857fe5b06019150600061142884846116dc565b905080821115611436578091505b62015180878161144257fe5b0662015180611452868686611767565b020194508685101561146357600080fd5b5050505092915050565b600080303b90506000811491505090565b61149281603361181690919063ffffffff16565b8073ffffffffffffffffffffffffffffffffffffffff167f0a8bb31534c0ed46f380cb867bd5c803a189ced9a764e30b3a4991a9901d747460405160405180910390a250565b60008073ffffffffffffffffffffffffffffffffffffffff168273ffffffffffffffffffffffffffffffffffffffff16141561151357600080fd5b8260000160008373ffffffffffffffffffffffffffffffffffffffff1673ffffffffffffffffffffffffffffffffffffffff16815260200190815260200160002060009054906101000a900460ff16905092915050565b80600581111561157657fe5b606660030160009054906101000a900460ff16600581111561159457fe5b146116055780606660030160006101000a81548160ff021916908360058111156115ba57fe5b02179055507fc081d24eb45b93b7f218e30cf674c5e115ed10644b1d3f03f482bc5d5f528e3981604051808260058111156115f157fe5b60ff16815260200191505060405180910390a15b50565b600080600080849050600062253d8c62010bd98301019050600062023ab1826004028161163157fe5b059050600460038262023ab102018161164657fe5b0582039150600062164b0960018401610fa0028161166057fe5b059050601f6004826105b5028161167357fe5b058403019250600061098f846050028161168957fe5b059050600060508261098f028161169c57fe5b0585039050600b82816116ab57fe5b05945084600c0260028301039150848360318603606402010192508298508197508096505050505050509193909250565b600060018214806116ed5750600382145b806116f85750600582145b806117035750600782145b8061170e5750600882145b806117195750600a82145b806117245750600c82145b1561173257601f9050611761565b6002821461174357601e9050611760565b61174c836118c2565b61175757601c61175a565b601d5b60ff1690505b5b92915050565b60006107b284101561177857600080fd5b600084905060008490506000849050600062253d8c60046064600c600e87038161179e57fe5b05611324880101816117ac57fe5b05600302816117b757fe5b05600c80600c600e8803816117c857fe5b0502600287030361016f02816117da57fe5b056004600c600e8803816117ea57fe5b056112c08901016105b502816117fc57fe5b05617d4b8603010103039050809450505050509392505050565b600073ffffffffffffffffffffffffffffffffffffffff168173ffffffffffffffffffffffffffffffffffffffff16141561185057600080fd5b61185a82826114d8565b1561186457600080fd5b60018260000160008373ffffffffffffffffffffffffffffffffffffffff1673ffffffffffffffffffffffffffffffffffffffff16815260200190815260200160002060006101000a81548160ff0219169083151502179055505050565b600080600483816118cf57fe5b061480156118e857506000606483816118e457fe5b0614155b806118fe5750600061019083816118fb57fe5b06145b905091905056fe4c6f616e20706572696f64206d75737420626520686967686572207468616e20305072696e636970616c526571756573746564206d7573742062652067726561746572207468616e20304c6f616e656420746f6b656e206d75737420626520616e20455243323020746f6b656e5265717569726573206c6f616e53746174757320746f206265206265666f72652052657061796d656e744379636c65436f6e747261637420696e7374616e63652068617320616c7265616479206265656e20696e697469616c697a6564496e746572657374207261746520626520696e20626173697320706f696e747320616e64206c657373207468616e2031302c30303020283130302529496e74657265737420726174652073686f756c6420626520696e20626173697320706f696e747320616e642068617665206d696e696d756d206f662031302028302e312529a265627a7a72315820b32356f5d80c28c461e2958a5af810dbea388f5382dc4fc78f4308a21fe1afdb64736f6c634300050b0032",
  "source": "pragma solidity 0.5.11;\n\nimport \"openzeppelin-eth/contracts/math/SafeMath.sol\";\nimport \"openzeppelin-eth/contracts/token/ERC20/IERC20.sol\";\nimport \"zos-lib/contracts/Initializable.sol\";\nimport \"../interface/ITermsContract.sol\";\nimport \"../access/ControllerRole.sol\";\nimport \"../utils/BokkyPooBahsDateTimeLibrary.sol\";\nimport \"./TermsContractLib.sol\";\n\ncontract TermsContract is Initializable, ITermsContract, ControllerRole {\n    using SafeMath for uint256;\n\n    using TermsContractLib for TermsContractLib.LoanParams;\n    using TermsContractLib for TermsContractLib.LoanStatus;\n\n    TermsContractLib.LoanParams public loanParams;\n    uint256 private constant MONTHSINYEAR = 12;\n    uint256 private constant TENTHOUSAND = 10000;\n\n    modifier onlyBeforeRepaymentCycle() {\n        require(\n            loanParams.loanStatus < TermsContractLib.LoanStatus.REPAYMENT_CYCLE,\n            \"Requires loanStatus to be before RepaymentCycle\"\n        );\n        _;\n    }\n\n    function initialize(\n        address borrower,\n        address principalToken,\n        uint256 principalRequested,\n        uint256 loanPeriod,\n        uint256 interestRate,\n        uint256 minimumRepayment,\n        uint256 maximumRepayment,\n        address[] memory _controllers\n    ) public initializer {\n        require(principalToken != address(0), \"Loaned token must be an ERC20 token\"); //TODO(Dan): More rigorous way of testing ERC20?\n        require(principalRequested != 0, \"PrincipalRequested must be greater than 0\");\n        require(loanPeriod > 0, \"Loan period must be higher than 0\");\n        require(\n            interestRate > 9,\n            \"Interest rate should be in basis points and have minimum of 10 (0.1%)\"\n        );\n        require(\n            interestRate < 10000,\n            \"Interest rate be in basis points and less than 10,000 (100%)\"\n        );\n\n        ControllerRole.initialize(_controllers);\n        loanParams = TermsContractLib.LoanParams({\n            borrower: borrower,\n            principalToken: principalToken,\n            principalRequested: principalRequested,\n            loanStatus: TermsContractLib.LoanStatus.NOT_STARTED,\n            loanPeriod: loanPeriod,\n            interestRate: interestRate,\n            minimumRepayment: minimumRepayment,\n            maximumRepayment: maximumRepayment,\n            principalDisbursed: 0,\n            loanStartTimestamp: 0\n        });\n    }\n\n    function setLoanStatus(TermsContractLib.LoanStatus _status) public onlyController {\n        _setLoanStatus(_status);\n    }\n\n    /** Public view functions\n     */\n    function getBorrower() public view returns (address) {\n        return loanParams.borrower;\n    }\n\n    function getInterestRate() public view returns (uint256) {\n        return loanParams.interestRate;\n    }\n\n    function getLoanStatus() public view returns (TermsContractLib.LoanStatus loanStatus) {\n        return loanParams.loanStatus;\n    }\n\n    function getLoanStartTimestamp() public view returns (uint256) {\n        return loanParams.loanStartTimestamp;\n    }\n\n    function getNumScheduledPayments() public view returns (uint256) {\n        return loanParams.loanPeriod;\n    }\n\n    function getPrincipalRequested() public view returns (uint256) {\n        return loanParams.principalRequested;\n    }\n\n    function getPrincipalDisbursed() public view returns (uint256) {\n        return loanParams.principalDisbursed;\n    }\n\n    function getPrincipalToken() public view returns (address) {\n        return loanParams.principalToken;\n    }\n\n    function getMinimumRepayment() public view returns (uint256) {\n        return loanParams.minimumRepayment;\n    }\n\n    function getMaximumRepayment() public view returns (uint256) {\n        return loanParams.maximumRepayment;\n    }\n\n    function getLoanEndTimestamp() public view returns (uint256 end) {\n        require(loanParams.loanStartTimestamp != 0, \"Loan hasn't been started yet\");\n        end = BokkyPooBahsDateTimeLibrary.addMonths(\n            loanParams.loanStartTimestamp,\n            loanParams.loanPeriod\n        );\n    }\n\n    /**\n     * @dev gets loanParams as a tuple\n     */\n    function getLoanParams()\n        public\n        view\n        returns (\n            address borrower,\n            address principalToken,\n            uint256 principalRequested,\n            uint256 loanStatus,\n            uint256 loanPeriod,\n            uint256 interestRate,\n            uint256 minimumRepayment,\n            uint256 maximumRepayment,\n            uint256 principalDisbursed,\n            uint256 loanStartTimestamp\n        )\n    {\n        return (\n            loanParams.borrower,\n            loanParams.principalToken,\n            loanParams.principalRequested,\n            uint256(loanParams.loanStatus),\n            loanParams.loanPeriod,\n            loanParams.interestRate,\n            loanParams.minimumRepayment,\n            loanParams.maximumRepayment,\n            loanParams.principalDisbursed,\n            loanParams.loanStartTimestamp\n        );\n    }\n\n    /**\n     * @dev Gets proposed payment schedule based on principalRequested\n     * NOTE This should only be used during crowdfund period\n     */\n    function getRequestedScheduledPayment(uint256 period)\n        public\n        view\n        returns (uint256 principalPayment, uint256 interestPayment, uint256 totalPayment)\n    {}\n\n    /**\n     * @dev Gets finalized payment schedule based on principalDisbursed\n     * NOTE This should only be used when repaymentSchedule has started\n     */\n    function getScheduledPayment(uint256 period)\n        public\n        view\n        returns (\n            uint256 dueTimestamp,\n            uint256 principalPayment,\n            uint256 interestPayment,\n            uint256 totalPayment\n        )\n    {}\n\n    /**\n     * @dev Begins loan and writes timestamps to the payment table\n     */\n    function startRepaymentCycle(uint256 totalCrowdfunded)\n        public\n        onlyController\n        onlyBeforeRepaymentCycle\n        returns (uint256 startTimestamp)\n    {\n        uint256 principalDisbursed;\n        /** NOTE: prevents over-debt through unauthorized transfers (e.g. native token transfers) into crowdloan */\n        if (totalCrowdfunded > loanParams.principalRequested) {\n            principalDisbursed = loanParams.principalRequested;\n        } else {\n            principalDisbursed = totalCrowdfunded;\n        }\n        startTimestamp = now;\n        loanParams.principalDisbursed = principalDisbursed;\n        loanParams.loanStartTimestamp = startTimestamp;\n        _setLoanStatus(TermsContractLib.LoanStatus.REPAYMENT_CYCLE);\n    }\n\n    /**\n     * @dev Overloaded function. `now` will be the block's timestamp as reported by the miner\n     */\n    function getExpectedRepaymentValue() public view returns (uint256 total) {}\n\n    /**\n     * @dev returns the expected repayment value for a given timestamp for the loan's scheduled payments\n     * @dev future developments will allow this to be more dynamic (e.g. delinquent fees, penalties)\n     * @param timestamp uint256\n     * @return uint256 total number of currencyTokens expected to be repaid\n     */\n    function getExpectedRepaymentValue(uint256 timestamp) public view returns (uint256 total) {}\n\n    /**\n     * @dev Calculates the scheduled payment for a given period\n     * Note Uses simple principal calculation for a balloon loan. Will change for future loan types\n     */\n    function _calcScheduledPayment(uint256 period, uint256 principal)\n        internal\n        view\n        returns (uint256 principalPayment, uint256 interestPayment, uint256 totalPayment)\n    {}\n\n    /**\n     * @dev calculates monthly interest payment\n     * @dev Note 10000 divisor is because of basis points (100) * percentage (100)\n     */\n    function _calcMonthlyInterest(uint256 principal, uint256 interestRate)\n        public\n        pure\n        returns (uint256 result)\n    {}\n\n    /**\n     * @dev internal method to set the loanStatus of the loan\n     */\n    function _setLoanStatus(TermsContractLib.LoanStatus _loanStatus) private {\n        if (loanParams.loanStatus != _loanStatus) {\n            loanParams.loanStatus = _loanStatus;\n            emit LoanStatusUpdated(_loanStatus);\n        }\n    }\n}\n",
  "sourcePath": "contracts/debt-contracts/TermsContract.sol",
  "compiler": {
    "name": "solc",
    "version": "0.5.11+commit.c082d0b4.Emscripten.clang"
  },
  "schemaVersion": "3.0.11",
  "updatedAt": "2019-09-13T10:05:56.857Z",
  "devdoc": {
    "methods": {
      "_calcMonthlyInterest(uint256,uint256)": {
        "details": "calculates monthly interest paymentNote 10000 divisor is because of basis points (100) * percentage (100)"
      },
      "getExpectedRepaymentValue()": {
        "details": "Overloaded function. `now` will be the block's timestamp as reported by the miner"
      },
      "getExpectedRepaymentValue(uint256)": {
        "details": "returns the expected repayment value for a given timestamp for the loan's scheduled paymentsfuture developments will allow this to be more dynamic (e.g. delinquent fees, penalties)",
        "params": {
          "timestamp": "uint256"
        },
        "return": "uint256 total number of currencyTokens expected to be repaid"
      },
      "getLoanParams()": {
        "details": "gets loanParams as a tuple"
      },
      "getRequestedScheduledPayment(uint256)": {
        "details": "Gets proposed payment schedule based on principalRequested NOTE This should only be used during crowdfund period"
      },
      "getScheduledPayment(uint256)": {
        "details": "Gets finalized payment schedule based on principalDisbursed NOTE This should only be used when repaymentSchedule has started"
      },
      "startRepaymentCycle(uint256)": {
        "details": "Begins loan and writes timestamps to the payment table"
      }
    }
  },
  "userdoc": {
    "methods": {
      "getBorrower()": {
        "notice": "Public view functions"
      }
    }
  }
}