{
  "contractName": "TermsContract",
  "abi": [
    {
      "constant": true,
      "inputs": [],
      "name": "loanParams",
      "outputs": [
        {
          "name": "borrower",
          "type": "address"
        },
        {
          "name": "principalToken",
          "type": "address"
        },
        {
          "name": "principalRequested",
          "type": "uint256"
        },
        {
          "name": "loanStatus",
          "type": "uint8"
        },
        {
          "name": "loanPeriod",
          "type": "uint256"
        },
        {
          "name": "interestRate",
          "type": "uint256"
        },
        {
          "name": "minimumRepayment",
          "type": "uint256"
        },
        {
          "name": "maximumRepayment",
          "type": "uint256"
        },
        {
          "name": "principalDisbursed",
          "type": "uint256"
        },
        {
          "name": "loanStartTimestamp",
          "type": "uint256"
        }
      ],
      "payable": false,
      "stateMutability": "view",
      "type": "function"
    },
    {
      "constant": true,
      "inputs": [
        {
          "name": "account",
          "type": "address"
        }
      ],
      "name": "isController",
      "outputs": [
        {
          "name": "",
          "type": "bool"
        }
      ],
      "payable": false,
      "stateMutability": "view",
      "type": "function"
    },
    {
      "anonymous": false,
      "inputs": [
        {
          "indexed": true,
          "name": "account",
          "type": "address"
        }
      ],
      "name": "ControllerAdded",
      "type": "event"
    },
    {
      "anonymous": false,
      "inputs": [
        {
          "indexed": true,
          "name": "account",
          "type": "address"
        }
      ],
      "name": "ControllerRemoved",
      "type": "event"
    },
    {
      "anonymous": false,
      "inputs": [
        {
          "indexed": false,
          "name": "account",
          "type": "address"
        }
      ],
      "name": "LogAccess",
      "type": "event"
    },
    {
      "anonymous": false,
      "inputs": [
        {
          "indexed": false,
          "name": "status",
          "type": "uint8"
        }
      ],
      "name": "LoanStatusUpdated",
      "type": "event"
    },
    {
      "constant": false,
      "inputs": [
        {
          "name": "_controllers",
          "type": "address[]"
        }
      ],
      "name": "initialize",
      "outputs": [],
      "payable": false,
      "stateMutability": "nonpayable",
      "type": "function"
    },
    {
      "constant": false,
      "inputs": [
        {
          "name": "borrower",
          "type": "address"
        },
        {
          "name": "principalToken",
          "type": "address"
        },
        {
          "name": "principalRequested",
          "type": "uint256"
        },
        {
          "name": "loanPeriod",
          "type": "uint256"
        },
        {
          "name": "interestRate",
          "type": "uint256"
        },
        {
          "name": "minimumRepayment",
          "type": "uint256"
        },
        {
          "name": "maximumRepayment",
          "type": "uint256"
        },
        {
          "name": "_controllers",
          "type": "address[]"
        }
      ],
      "name": "initialize",
      "outputs": [],
      "payable": false,
      "stateMutability": "nonpayable",
      "type": "function"
    },
    {
      "constant": false,
      "inputs": [
        {
          "name": "_status",
          "type": "uint8"
        }
      ],
      "name": "setLoanStatus",
      "outputs": [],
      "payable": false,
      "stateMutability": "nonpayable",
      "type": "function"
    },
    {
      "constant": true,
      "inputs": [],
      "name": "getBorrower",
      "outputs": [
        {
          "name": "",
          "type": "address"
        }
      ],
      "payable": false,
      "stateMutability": "view",
      "type": "function"
    },
    {
      "constant": true,
      "inputs": [],
      "name": "getInterestRate",
      "outputs": [
        {
          "name": "",
          "type": "uint256"
        }
      ],
      "payable": false,
      "stateMutability": "view",
      "type": "function"
    },
    {
      "constant": true,
      "inputs": [],
      "name": "getLoanStatus",
      "outputs": [
        {
          "name": "loanStatus",
          "type": "uint8"
        }
      ],
      "payable": false,
      "stateMutability": "view",
      "type": "function"
    },
    {
      "constant": true,
      "inputs": [],
      "name": "getLoanStartTimestamp",
      "outputs": [
        {
          "name": "",
          "type": "uint256"
        }
      ],
      "payable": false,
      "stateMutability": "view",
      "type": "function"
    },
    {
      "constant": true,
      "inputs": [],
      "name": "getNumScheduledPayments",
      "outputs": [
        {
          "name": "",
          "type": "uint256"
        }
      ],
      "payable": false,
      "stateMutability": "view",
      "type": "function"
    },
    {
      "constant": true,
      "inputs": [],
      "name": "getPrincipalRequested",
      "outputs": [
        {
          "name": "",
          "type": "uint256"
        }
      ],
      "payable": false,
      "stateMutability": "view",
      "type": "function"
    },
    {
      "constant": true,
      "inputs": [],
      "name": "getPrincipalDisbursed",
      "outputs": [
        {
          "name": "",
          "type": "uint256"
        }
      ],
      "payable": false,
      "stateMutability": "view",
      "type": "function"
    },
    {
      "constant": true,
      "inputs": [],
      "name": "getPrincipalToken",
      "outputs": [
        {
          "name": "",
          "type": "address"
        }
      ],
      "payable": false,
      "stateMutability": "view",
      "type": "function"
    },
    {
      "constant": true,
      "inputs": [],
      "name": "getMinimumRepayment",
      "outputs": [
        {
          "name": "",
          "type": "uint256"
        }
      ],
      "payable": false,
      "stateMutability": "view",
      "type": "function"
    },
    {
      "constant": true,
      "inputs": [],
      "name": "getMaximumRepayment",
      "outputs": [
        {
          "name": "",
          "type": "uint256"
        }
      ],
      "payable": false,
      "stateMutability": "view",
      "type": "function"
    },
    {
      "constant": true,
      "inputs": [],
      "name": "getLoanEndTimestamp",
      "outputs": [
        {
          "name": "end",
          "type": "uint256"
        }
      ],
      "payable": false,
      "stateMutability": "view",
      "type": "function"
    },
    {
      "constant": true,
      "inputs": [],
      "name": "getLoanParams",
      "outputs": [
        {
          "name": "borrower",
          "type": "address"
        },
        {
          "name": "principalToken",
          "type": "address"
        },
        {
          "name": "principalRequested",
          "type": "uint256"
        },
        {
          "name": "loanStatus",
          "type": "uint256"
        },
        {
          "name": "loanPeriod",
          "type": "uint256"
        },
        {
          "name": "interestRate",
          "type": "uint256"
        },
        {
          "name": "minimumRepayment",
          "type": "uint256"
        },
        {
          "name": "maximumRepayment",
          "type": "uint256"
        },
        {
          "name": "principalDisbursed",
          "type": "uint256"
        },
        {
          "name": "loanStartTimestamp",
          "type": "uint256"
        }
      ],
      "payable": false,
      "stateMutability": "view",
      "type": "function"
    },
    {
      "constant": true,
      "inputs": [
        {
          "name": "period",
          "type": "uint256"
        }
      ],
      "name": "getRequestedScheduledPayment",
      "outputs": [
        {
          "name": "principalPayment",
          "type": "uint256"
        },
        {
          "name": "interestPayment",
          "type": "uint256"
        },
        {
          "name": "totalPayment",
          "type": "uint256"
        }
      ],
      "payable": false,
      "stateMutability": "view",
      "type": "function"
    },
    {
      "constant": true,
      "inputs": [
        {
          "name": "period",
          "type": "uint256"
        }
      ],
      "name": "getScheduledPayment",
      "outputs": [
        {
          "name": "dueTimestamp",
          "type": "uint256"
        },
        {
          "name": "principalPayment",
          "type": "uint256"
        },
        {
          "name": "interestPayment",
          "type": "uint256"
        },
        {
          "name": "totalPayment",
          "type": "uint256"
        }
      ],
      "payable": false,
      "stateMutability": "view",
      "type": "function"
    },
    {
      "constant": false,
      "inputs": [
        {
          "name": "totalCrowdfunded",
          "type": "uint256"
        }
      ],
      "name": "startRepaymentCycle",
      "outputs": [
        {
          "name": "startTimestamp",
          "type": "uint256"
        }
      ],
      "payable": false,
      "stateMutability": "nonpayable",
      "type": "function"
    },
    {
      "constant": true,
      "inputs": [],
      "name": "getExpectedRepaymentValue",
      "outputs": [
        {
          "name": "total",
          "type": "uint256"
        }
      ],
      "payable": false,
      "stateMutability": "view",
      "type": "function"
    },
    {
      "constant": true,
      "inputs": [
        {
          "name": "timestamp",
          "type": "uint256"
        }
      ],
      "name": "getExpectedRepaymentValue",
      "outputs": [
        {
          "name": "total",
          "type": "uint256"
        }
      ],
      "payable": false,
      "stateMutability": "view",
      "type": "function"
    },
    {
      "constant": true,
      "inputs": [
        {
          "name": "principal",
          "type": "uint256"
        },
        {
          "name": "interestRate",
          "type": "uint256"
        }
      ],
      "name": "_calcMonthlyInterest",
      "outputs": [
        {
          "name": "result",
          "type": "uint256"
        }
      ],
      "payable": false,
      "stateMutability": "pure",
      "type": "function"
    }
  ],
  "bytecode": "0x608060405234801561001057600080fd5b50611aec806100206000396000f3fe608060405234801561001057600080fd5b506004361061016a576000357c01000000000000000000000000000000000000000000000000000000009004806389026b6a116100e0578063b429afeb11610099578063b429afeb1461074f578063d5a3e232146107ab578063e2d71238146107ed578063e38be0c21461082f578063e7b6afc214610860578063f209b9701461087e5761016a565b806389026b6a146105675780638e24ed8b14610585578063a224cee7146105d5578063acc1ab131461068d578063adb724bf146106b9578063adf89a03146107035761016a565b80634e04bf61116101325780634e04bf611461036d5780635257b5661461038b5780636bca7c7e146103a95780637340435b146103c757806378ee5893146103e557806384f4d98c1461043c5761016a565b806309e94d981461016f578063170d7dc5146102325780631cb0c3e71461025057806320600a371461029a578063494b383c1461034f575b600080fd5b61017761089c565b604051808b73ffffffffffffffffffffffffffffffffffffffff1673ffffffffffffffffffffffffffffffffffffffff1681526020018a73ffffffffffffffffffffffffffffffffffffffff1673ffffffffffffffffffffffffffffffffffffffff1681526020018981526020018860058111156101f157fe5b60ff1681526020018781526020018681526020018581526020018481526020018381526020018281526020019a505050505050505050505060405180910390f35b61023a61092b565b6040518082815260200191505060405180910390f35b610258610938565b604051808273ffffffffffffffffffffffffffffffffffffffff1673ffffffffffffffffffffffffffffffffffffffff16815260200191505060405180910390f35b6102a2610965565b604051808b73ffffffffffffffffffffffffffffffffffffffff1673ffffffffffffffffffffffffffffffffffffffff1681526020018a73ffffffffffffffffffffffffffffffffffffffff1673ffffffffffffffffffffffffffffffffffffffff1681526020018981526020018881526020018781526020018681526020018581526020018481526020018381526020018281526020019a505050505050505050505060405180910390f35b610357610a28565b6040518082815260200191505060405180910390f35b610375610a35565b6040518082815260200191505060405180910390f35b610393610acd565b6040518082815260200191505060405180910390f35b6103b1610ada565b6040518082815260200191505060405180910390f35b6103cf610adf565b6040518082815260200191505060405180910390f35b610411600480360360208110156103fb57600080fd5b8101908080359060200190929190505050610aec565b6040518085815260200184815260200183815260200182815260200194505050505060405180910390f35b610565600480360361010081101561045357600080fd5b81019080803573ffffffffffffffffffffffffffffffffffffffff169060200190929190803573ffffffffffffffffffffffffffffffffffffffff1690602001909291908035906020019092919080359060200190929190803590602001909291908035906020019092919080359060200190929190803590602001906401000000008111156104e257600080fd5b8201836020820111156104f457600080fd5b8035906020019184602083028401116401000000008311171561051657600080fd5b919080806020026020016040519081016040528093929190818152602001838360200280828437600081840152601f19601f820116905080830192505050505050509192919290505050610af9565b005b61056f610f86565b6040518082815260200191505060405180910390f35b6105b16004803603602081101561059b57600080fd5b8101908080359060200190929190505050610f93565b60405180848152602001838152602001828152602001935050505060405180910390f35b61068b600480360360208110156105eb57600080fd5b810190808035906020019064010000000081111561060857600080fd5b82018360208201111561061a57600080fd5b8035906020019184602083028401116401000000008311171561063c57600080fd5b919080806020026020016040519081016040528093929190818152602001838360200280828437600081840152601f19601f820116905080830192505050505050509192919290505050610f9f565b005b6106956110de565b604051808260058111156106a557fe5b60ff16815260200191505060405180910390f35b6106c16110f8565b604051808273ffffffffffffffffffffffffffffffffffffffff1673ffffffffffffffffffffffffffffffffffffffff16815260200191505060405180910390f35b6107396004803603604081101561071957600080fd5b810190808035906020019092919080359060200190929190505050611125565b6040518082815260200191505060405180910390f35b6107916004803603602081101561076557600080fd5b81019080803573ffffffffffffffffffffffffffffffffffffffff16906020019092919050505061112d565b604051808215151515815260200191505060405180910390f35b6107d7600480360360208110156107c157600080fd5b810190808035906020019092919050505061114a565b6040518082815260200191505060405180910390f35b6108196004803603602081101561080357600080fd5b81019080803590602001909291905050506112f6565b6040518082815260200191505060405180910390f35b61085e6004803603602081101561084557600080fd5b81019080803560ff1690602001909291905050506112fd565b005b6108686113e9565b6040518082815260200191505060405180910390f35b6108866113f6565b6040518082815260200191505060405180910390f35b60668060000160009054906101000a900473ffffffffffffffffffffffffffffffffffffffff16908060010160009054906101000a900473ffffffffffffffffffffffffffffffffffffffff16908060020154908060030160009054906101000a900460ff1690806004015490806005015490806006015490806007015490806008015490806009015490508a565b6000606660040154905090565b6000606660000160009054906101000a900473ffffffffffffffffffffffffffffffffffffffff16905090565b600080600080600080600080600080606660000160009054906101000a900473ffffffffffffffffffffffffffffffffffffffff16606660010160009054906101000a900473ffffffffffffffffffffffffffffffffffffffff16606660020154606660030160009054906101000a900460ff1660058111156109e457fe5b606660040154606660050154606660060154606660070154606660080154606660090154995099509950995099509950995099509950995090919293949596979899565b6000606660070154905090565b60008060666009015414151515610ab4576040517f08c379a000000000000000000000000000000000000000000000000000000000815260040180806020018281038252601c8152602001807f4c6f616e206861736e2774206265656e2073746172746564207965740000000081525060200191505060405180910390fd5b610ac8606660090154606660040154611403565b905090565b6000606660050154905090565b600090565b6000606660020154905090565b6000806000809193509193565b600060019054906101000a900460ff1680610b185750610b176114af565b5b80610b2f57506000809054906101000a900460ff16155b1515610b86576040517f08c379a000000000000000000000000000000000000000000000000000000000815260040180806020018281038252602e815260200180611a12602e913960400191505060405180910390fd5b60008060019054906101000a900460ff161590508015610bd6576001600060016101000a81548160ff02191690831515021790555060016000806101000a81548160ff0219169083151502179055505b600073ffffffffffffffffffffffffffffffffffffffff168873ffffffffffffffffffffffffffffffffffffffff1614151515610c5e576040517f08c379a00000000000000000000000000000000000000000000000000000000081526004018080602001828103825260238152602001806119c06023913960400191505060405180910390fd5b60008714151515610cba576040517f08c379a00000000000000000000000000000000000000000000000000000000081526004018080602001828103825260298152602001806119976029913960400191505060405180910390fd5b600086111515610d15576040517f08c379a00000000000000000000000000000000000000000000000000000000081526004018080602001828103825260218152602001806119766021913960400191505060405180910390fd5b600985111515610d70576040517f08c379a0000000000000000000000000000000000000000000000000000000008152600401808060200182810382526045815260200180611a7c6045913960600191505060405180910390fd5b61271085101515610dcc576040517f08c379a000000000000000000000000000000000000000000000000000000000815260040180806020018281038252603c815260200180611a40603c913960400191505060405180910390fd5b610dd582610f9f565b610140604051908101604052808a73ffffffffffffffffffffffffffffffffffffffff1681526020018973ffffffffffffffffffffffffffffffffffffffff16815260200188815260200160006005811115610e2d57fe5b8152602001878152602001868152602001858152602001848152602001600081526020016000815250606660008201518160000160006101000a81548173ffffffffffffffffffffffffffffffffffffffff021916908373ffffffffffffffffffffffffffffffffffffffff16021790555060208201518160010160006101000a81548173ffffffffffffffffffffffffffffffffffffffff021916908373ffffffffffffffffffffffffffffffffffffffff1602179055506040820151816002015560608201518160030160006101000a81548160ff02191690836005811115610f1457fe5b02179055506080820151816004015560a0820151816005015560c0820151816006015560e08201518160070155610100820151816008015561012082015181600901559050508015610f7b5760008060016101000a81548160ff0219169083151502179055505b505050505050505050565b6000606660080154905090565b60008060009193909250565b600060019054906101000a900460ff1680610fbe5750610fbd6114af565b5b80610fd557506000809054906101000a900460ff16155b151561102c576040517f08c379a000000000000000000000000000000000000000000000000000000000815260040180806020018281038252602e815260200180611a12602e913960400191505060405180910390fd5b60008060019054906101000a900460ff16159050801561107c576001600060016101000a81548160ff02191690831515021790555060016000806101000a81548160ff0219169083151502179055505b60008090505b82518110156110b8576110ab838281518110151561109c57fe5b906020019060200201516114c0565b8080600101915050611082565b5080156110da5760008060016101000a81548160ff0219169083151502179055505b5050565b6000606660030160009054906101000a900460ff16905090565b6000606660010160009054906101000a900473ffffffffffffffffffffffffffffffffffffffff16905090565b600092915050565b600061114382603361151a90919063ffffffff16565b9050919050565b60007ffca6d4e226ce530cdba35a2c75a702b253c239a7068eefc5b041b2519083d2c933604051808273ffffffffffffffffffffffffffffffffffffffff1673ffffffffffffffffffffffffffffffffffffffff16815260200191505060405180910390a16111b83361112d565b151561122c576040517f08c379a00000000000000000000000000000000000000000000000000000000081526004018080602001828103825260118152602001807f5065726d697373696f6e2064656e69656400000000000000000000000000000081525060200191505060405180910390fd5b6004600581111561123957fe5b606660030160009054906101000a900460ff16600581111561125757fe5b1015156112af576040517f08c379a000000000000000000000000000000000000000000000000000000000815260040180806020018281038252602f8152602001806119e3602f913960400191505060405180910390fd5b60006066600201548311156112cb5760666002015490506112cf565b8290505b42915080606660080181905550816066600901819055506112f060046115ae565b50919050565b6000919050565b7ffca6d4e226ce530cdba35a2c75a702b253c239a7068eefc5b041b2519083d2c933604051808273ffffffffffffffffffffffffffffffffffffffff1673ffffffffffffffffffffffffffffffffffffffff16815260200191505060405180910390a16113693361112d565b15156113dd576040517f08c379a00000000000000000000000000000000000000000000000000000000081526004018080602001828103825260118152602001807f5065726d697373696f6e2064656e69656400000000000000000000000000000081525060200191505060405180910390fd5b6113e6816115ae565b50565b6000606660060154905090565b6000606660090154905090565b600080600080611420620151808781151561141a57fe5b0461164e565b8093508194508295505050508482019150600c6001830381151561144057fe5b04830192506001600c6001840381151561145657fe5b0601915060006114668484611730565b905080821115611474578091505b620151808781151561148257fe5b06620151806114928686866117bd565b020194508685101515156114a557600080fd5b5050505092915050565b600080303b90506000811491505090565b6114d481603361187c90919063ffffffff16565b8073ffffffffffffffffffffffffffffffffffffffff167f0a8bb31534c0ed46f380cb867bd5c803a189ced9a764e30b3a4991a9901d747460405160405180910390a250565b60008073ffffffffffffffffffffffffffffffffffffffff168273ffffffffffffffffffffffffffffffffffffffff161415151561155757600080fd5b8260000160008373ffffffffffffffffffffffffffffffffffffffff1673ffffffffffffffffffffffffffffffffffffffff16815260200190815260200160002060009054906101000a900460ff16905092915050565b8060058111156115ba57fe5b606660030160009054906101000a900460ff1660058111156115d857fe5b14151561164b5780606660030160006101000a81548160ff0219169083600581111561160057fe5b02179055507fc081d24eb45b93b7f218e30cf674c5e115ed10644b1d3f03f482bc5d5f528e39816040518082600581111561163757fe5b60ff16815260200191505060405180910390a15b50565b600080600080849050600062253d8c62010bd98301019050600062023ab18260040281151561167957fe5b059050600460038262023ab1020181151561169057fe5b0582039150600062164b0960018401610fa0028115156116ac57fe5b059050601f6004826105b5028115156116c157fe5b058403019250600061098f846050028115156116d957fe5b059050600060508261098f028115156116ee57fe5b0585039050600b828115156116ff57fe5b05945084600c0260028301039150848360318603606402010192508298508197508096505050505050509193909250565b600060018214806117415750600382145b8061174c5750600582145b806117575750600782145b806117625750600882145b8061176d5750600a82145b806117785750600c82145b1561178657601f90506117b7565b60028214151561179957601e90506117b6565b6117a28361192c565b6117ad57601c6117b0565b601d5b60ff1690505b5b92915050565b60006107b284101515156117d057600080fd5b600084905060008490506000849050600062253d8c60046064600c600e87038115156117f857fe5b0561132488010181151561180857fe5b0560030281151561181557fe5b05600c80600c600e880381151561182857fe5b0502600287030361016f0281151561183c57fe5b056004600c600e880381151561184e57fe5b056112c08901016105b50281151561186257fe5b05617d4b8603010103039050809450505050509392505050565b600073ffffffffffffffffffffffffffffffffffffffff168173ffffffffffffffffffffffffffffffffffffffff16141515156118b857600080fd5b6118c2828261151a565b1515156118ce57600080fd5b60018260000160008373ffffffffffffffffffffffffffffffffffffffff1673ffffffffffffffffffffffffffffffffffffffff16815260200190815260200160002060006101000a81548160ff0219169083151502179055505050565b60008060048381151561193b57fe5b061480156119565750600060648381151561195257fe5b0614155b8061196e575060006101908381151561196b57fe5b06145b905091905056fe4c6f616e20706572696f64206d75737420626520686967686572207468616e20305072696e636970616c526571756573746564206d7573742062652067726561746572207468616e20304c6f616e656420746f6b656e206d75737420626520616e20455243323020746f6b656e5265717569726573206c6f616e53746174757320746f206265206265666f72652052657061796d656e744379636c65436f6e747261637420696e7374616e63652068617320616c7265616479206265656e20696e697469616c697a6564496e746572657374207261746520626520696e20626173697320706f696e747320616e64206c657373207468616e2031302c30303020283130302529496e74657265737420726174652073686f756c6420626520696e20626173697320706f696e747320616e642068617665206d696e696d756d206f662031302028302e312529a165627a7a72305820ddc476875cc37063cd92c92a1b32b8dbec840ddfdb32fd6b95d76c39cedbd4f70029",
  "source": "pragma solidity ^0.5.2;\n\nimport \"openzeppelin-eth/contracts/math/SafeMath.sol\";\nimport \"openzeppelin-eth/contracts/token/ERC20/IERC20.sol\";\nimport \"zos-lib/contracts/Initializable.sol\";\nimport \"../interface/ITermsContract.sol\";\nimport \"../access/ControllerRole.sol\";\nimport \"../utils/BokkyPooBahsDateTimeLibrary.sol\";\nimport \"./TermsContractLib.sol\";\n\ncontract TermsContract is Initializable, ITermsContract, ControllerRole {\n    using SafeMath for uint256;\n\n    using TermsContractLib for TermsContractLib.LoanParams;\n    using TermsContractLib for TermsContractLib.LoanStatus;\n\n    TermsContractLib.LoanParams public loanParams;\n    uint256 private constant MONTHSINYEAR = 12;\n    uint256 private constant TENTHOUSAND = 10000;\n\n    modifier onlyBeforeRepaymentCycle() {\n        require(\n            loanParams.loanStatus < TermsContractLib.LoanStatus.REPAYMENT_CYCLE,\n            \"Requires loanStatus to be before RepaymentCycle\"\n        );\n        _;\n    }\n\n    function initialize(\n        address borrower,\n        address principalToken,\n        uint256 principalRequested,\n        uint256 loanPeriod,\n        uint256 interestRate,\n        uint256 minimumRepayment,\n        uint256 maximumRepayment,\n        address[] memory _controllers\n    ) public initializer {\n        require(principalToken != address(0), \"Loaned token must be an ERC20 token\"); //TODO(Dan): More rigorous way of testing ERC20?\n        require(principalRequested != 0, \"PrincipalRequested must be greater than 0\");\n        require(loanPeriod > 0, \"Loan period must be higher than 0\");\n        require(\n            interestRate > 9,\n            \"Interest rate should be in basis points and have minimum of 10 (0.1%)\"\n        );\n        require(\n            interestRate < 10000,\n            \"Interest rate be in basis points and less than 10,000 (100%)\"\n        );\n\n        ControllerRole.initialize(_controllers);\n        loanParams = TermsContractLib.LoanParams({\n            borrower: borrower,\n            principalToken: principalToken,\n            principalRequested: principalRequested,\n            loanStatus: TermsContractLib.LoanStatus.NOT_STARTED,\n            loanPeriod: loanPeriod,\n            interestRate: interestRate,\n            minimumRepayment: minimumRepayment,\n            maximumRepayment: maximumRepayment,\n            principalDisbursed: 0,\n            loanStartTimestamp: 0\n        });\n    }\n\n    function setLoanStatus(TermsContractLib.LoanStatus _status) public onlyController {\n        _setLoanStatus(_status);\n    }\n\n    /** Public view functions\n     */\n    function getBorrower() public view returns (address) {\n        return loanParams.borrower;\n    }\n\n    function getInterestRate() public view returns (uint256) {\n        return loanParams.interestRate;\n    }\n\n    function getLoanStatus() public view returns (TermsContractLib.LoanStatus loanStatus) {\n        return loanParams.loanStatus;\n    }\n\n    function getLoanStartTimestamp() public view returns (uint256) {\n        return loanParams.loanStartTimestamp;\n    }\n\n    function getNumScheduledPayments() public view returns (uint256) {\n        return loanParams.loanPeriod;\n    }\n\n    function getPrincipalRequested() public view returns (uint256) {\n        return loanParams.principalRequested;\n    }\n\n    function getPrincipalDisbursed() public view returns (uint256) {\n        return loanParams.principalDisbursed;\n    }\n\n    function getPrincipalToken() public view returns (address) {\n        return loanParams.principalToken;\n    }\n\n    function getMinimumRepayment() public view returns (uint256) {\n        return loanParams.minimumRepayment;\n    }\n\n    function getMaximumRepayment() public view returns (uint256) {\n        return loanParams.maximumRepayment;\n    }\n\n    function getLoanEndTimestamp() public view returns (uint256 end) {\n        require(loanParams.loanStartTimestamp != 0, \"Loan hasn't been started yet\");\n        end = BokkyPooBahsDateTimeLibrary.addMonths(\n            loanParams.loanStartTimestamp,\n            loanParams.loanPeriod\n        );\n    }\n\n    /**\n     * @dev gets loanParams as a tuple\n     */\n    function getLoanParams()\n        public\n        view\n        returns (\n            address borrower,\n            address principalToken,\n            uint256 principalRequested,\n            uint256 loanStatus,\n            uint256 loanPeriod,\n            uint256 interestRate,\n            uint256 minimumRepayment,\n            uint256 maximumRepayment,\n            uint256 principalDisbursed,\n            uint256 loanStartTimestamp\n        )\n    {\n        return (\n            loanParams.borrower,\n            loanParams.principalToken,\n            loanParams.principalRequested,\n            uint256(loanParams.loanStatus),\n            loanParams.loanPeriod,\n            loanParams.interestRate,\n            loanParams.minimumRepayment,\n            loanParams.maximumRepayment,\n            loanParams.principalDisbursed,\n            loanParams.loanStartTimestamp\n        );\n    }\n\n    /**\n     * @dev Gets proposed payment schedule based on principalRequested\n     * NOTE This should only be used during crowdfund period\n     */\n    function getRequestedScheduledPayment(uint256 period)\n        public\n        view\n        returns (uint256 principalPayment, uint256 interestPayment, uint256 totalPayment)\n    {}\n\n    /**\n     * @dev Gets finalized payment schedule based on principalDisbursed\n     * NOTE This should only be used when repaymentSchedule has started\n     */\n    function getScheduledPayment(uint256 period)\n        public\n        view\n        returns (\n            uint256 dueTimestamp,\n            uint256 principalPayment,\n            uint256 interestPayment,\n            uint256 totalPayment\n        )\n    {}\n\n    /**\n     * @dev Begins loan and writes timestamps to the payment table\n     */\n    function startRepaymentCycle(uint256 totalCrowdfunded)\n        public\n        onlyController\n        onlyBeforeRepaymentCycle\n        returns (uint256 startTimestamp)\n    {\n        uint256 principalDisbursed;\n        /** NOTE: prevents over-debt through unauthorized transfers (e.g. native token transfers) into crowdloan */\n        if (totalCrowdfunded > loanParams.principalRequested) {\n            principalDisbursed = loanParams.principalRequested;\n        } else {\n            principalDisbursed = totalCrowdfunded;\n        }\n        startTimestamp = now;\n        loanParams.principalDisbursed = principalDisbursed;\n        loanParams.loanStartTimestamp = startTimestamp;\n        _setLoanStatus(TermsContractLib.LoanStatus.REPAYMENT_CYCLE);\n    }\n\n    /**\n     * @dev Overloaded function. `now` will be the block's timestamp as reported by the miner\n     */\n    function getExpectedRepaymentValue() public view returns (uint256 total) {}\n\n    /**\n     * @dev returns the expected repayment value for a given timestamp for the loan's scheduled payments\n     * @dev future developments will allow this to be more dynamic (e.g. delinquent fees, penalties)\n     * @param timestamp uint256\n     * @return uint256 total number of currencyTokens expected to be repaid\n     */\n    function getExpectedRepaymentValue(uint256 timestamp) public view returns (uint256 total) {}\n\n    /**\n     * @dev Calculates the scheduled payment for a given period\n     * Note Uses simple principal calculation for a balloon loan. Will change for future loan types\n     */\n    function _calcScheduledPayment(uint256 period, uint256 principal)\n        internal\n        view\n        returns (uint256 principalPayment, uint256 interestPayment, uint256 totalPayment)\n    {}\n\n    /**\n     * @dev calculates monthly interest payment\n     * @dev Note 10000 divisor is because of basis points (100) * percentage (100)\n     */\n    function _calcMonthlyInterest(uint256 principal, uint256 interestRate)\n        public\n        pure\n        returns (uint256 result)\n    {}\n\n    /**\n     * @dev internal method to set the loanStatus of the loan\n     */\n    function _setLoanStatus(TermsContractLib.LoanStatus _loanStatus) private {\n        if (loanParams.loanStatus != _loanStatus) {\n            loanParams.loanStatus = _loanStatus;\n            emit LoanStatusUpdated(_loanStatus);\n        }\n    }\n}\n",
  "sourcePath": "/Users/thomas/Code/client/enable/test/enable-contracts/contracts/debt-contracts/TermsContract.sol",
  "compiler": {
    "name": "solc",
    "version": "0.5.2+commit.1df8f40c.Emscripten.clang"
  },
  "schemaVersion": "3.0.11",
  "updatedAt": "2019-09-11T09:56:23.971Z",
  "devdoc": {
    "methods": {
      "_calcMonthlyInterest(uint256,uint256)": {
        "details": "calculates monthly interest paymentNote 10000 divisor is because of basis points (100) * percentage (100)"
      },
      "getExpectedRepaymentValue()": {
        "details": "Overloaded function. `now` will be the block's timestamp as reported by the miner"
      },
      "getExpectedRepaymentValue(uint256)": {
        "details": "returns the expected repayment value for a given timestamp for the loan's scheduled paymentsfuture developments will allow this to be more dynamic (e.g. delinquent fees, penalties)",
        "params": {
          "timestamp": "uint256"
        },
        "return": "uint256 total number of currencyTokens expected to be repaid"
      },
      "getLoanParams()": {
        "details": "gets loanParams as a tuple"
      },
      "getRequestedScheduledPayment(uint256)": {
        "details": "Gets proposed payment schedule based on principalRequested NOTE This should only be used during crowdfund period"
      },
      "getScheduledPayment(uint256)": {
        "details": "Gets finalized payment schedule based on principalDisbursed NOTE This should only be used when repaymentSchedule has started"
      },
      "startRepaymentCycle(uint256)": {
        "details": "Begins loan and writes timestamps to the payment table"
      }
    }
  },
  "userdoc": {
    "methods": {
      "getBorrower()": {
        "notice": "Public view functions"
      }
    }
  }
}