{
  "contractName": "TermsContract",
  "abi": [
    {
      "constant": true,
      "inputs": [],
      "name": "loanParams",
      "outputs": [
        {
          "name": "principalToken",
          "type": "address"
        },
        {
          "name": "principalRequested",
          "type": "uint256"
        },
        {
          "name": "loanStatus",
          "type": "uint8"
        },
        {
          "name": "loanPeriod",
          "type": "uint256"
        },
        {
          "name": "interestRate",
          "type": "uint256"
        },
        {
          "name": "principalDisbursed",
          "type": "uint256"
        },
        {
          "name": "loanStartTimestamp",
          "type": "uint256"
        }
      ],
      "payable": false,
      "stateMutability": "view",
      "type": "function"
    },
    {
      "constant": true,
      "inputs": [
        {
          "name": "account",
          "type": "address"
        }
      ],
      "name": "isController",
      "outputs": [
        {
          "name": "",
          "type": "bool"
        }
      ],
      "payable": false,
      "stateMutability": "view",
      "type": "function"
    },
    {
      "anonymous": false,
      "inputs": [
        {
          "indexed": true,
          "name": "account",
          "type": "address"
        }
      ],
      "name": "ControllerAdded",
      "type": "event"
    },
    {
      "anonymous": false,
      "inputs": [
        {
          "indexed": true,
          "name": "account",
          "type": "address"
        }
      ],
      "name": "ControllerRemoved",
      "type": "event"
    },
    {
      "anonymous": false,
      "inputs": [
        {
          "indexed": false,
          "name": "account",
          "type": "address"
        }
      ],
      "name": "LogAccess",
      "type": "event"
    },
    {
      "anonymous": false,
      "inputs": [
        {
          "indexed": false,
          "name": "status",
          "type": "uint8"
        }
      ],
      "name": "LoanStatusUpdated",
      "type": "event"
    },
    {
      "constant": false,
      "inputs": [
        {
          "name": "borrower_",
          "type": "address"
        },
        {
          "name": "_principalTokenAddr",
          "type": "address"
        },
        {
          "name": "_principalRequested",
          "type": "uint256"
        },
        {
          "name": "_loanPeriod",
          "type": "uint256"
        },
        {
          "name": "_interestRate",
          "type": "uint256"
        },
        {
          "name": "_controllers",
          "type": "address[]"
        }
      ],
      "name": "initialize",
      "outputs": [],
      "payable": false,
      "stateMutability": "nonpayable",
      "type": "function"
    },
    {
      "constant": false,
      "inputs": [
        {
          "name": "_controllers",
          "type": "address[]"
        }
      ],
      "name": "initialize",
      "outputs": [],
      "payable": false,
      "stateMutability": "nonpayable",
      "type": "function"
    },
    {
      "constant": false,
      "inputs": [
        {
          "name": "_status",
          "type": "uint8"
        }
      ],
      "name": "setLoanStatus",
      "outputs": [],
      "payable": false,
      "stateMutability": "nonpayable",
      "type": "function"
    },
    {
      "constant": true,
      "inputs": [],
      "name": "borrower",
      "outputs": [
        {
          "name": "",
          "type": "address"
        }
      ],
      "payable": false,
      "stateMutability": "view",
      "type": "function"
    },
    {
      "constant": true,
      "inputs": [],
      "name": "getLoanStatus",
      "outputs": [
        {
          "name": "loanStatus",
          "type": "uint8"
        }
      ],
      "payable": false,
      "stateMutability": "view",
      "type": "function"
    },
    {
      "constant": true,
      "inputs": [],
      "name": "getNumScheduledPayments",
      "outputs": [
        {
          "name": "",
          "type": "uint256"
        }
      ],
      "payable": false,
      "stateMutability": "view",
      "type": "function"
    },
    {
      "constant": true,
      "inputs": [],
      "name": "getPrincipalRequested",
      "outputs": [
        {
          "name": "",
          "type": "uint256"
        }
      ],
      "payable": false,
      "stateMutability": "view",
      "type": "function"
    },
    {
      "constant": true,
      "inputs": [],
      "name": "getPrincipalDisbursed",
      "outputs": [
        {
          "name": "",
          "type": "uint256"
        }
      ],
      "payable": false,
      "stateMutability": "view",
      "type": "function"
    },
    {
      "constant": true,
      "inputs": [],
      "name": "getPrincipalToken",
      "outputs": [
        {
          "name": "",
          "type": "address"
        }
      ],
      "payable": false,
      "stateMutability": "view",
      "type": "function"
    },
    {
      "constant": true,
      "inputs": [],
      "name": "getLoanEndTimestamp",
      "outputs": [
        {
          "name": "end",
          "type": "uint256"
        }
      ],
      "payable": false,
      "stateMutability": "view",
      "type": "function"
    },
    {
      "constant": true,
      "inputs": [],
      "name": "getLoanParams",
      "outputs": [
        {
          "name": "",
          "type": "address"
        },
        {
          "name": "principalToken",
          "type": "address"
        },
        {
          "name": "principalRequested",
          "type": "uint256"
        },
        {
          "name": "loanStatus",
          "type": "uint256"
        },
        {
          "name": "loanPeriod",
          "type": "uint256"
        },
        {
          "name": "interestRate",
          "type": "uint256"
        },
        {
          "name": "principalDisbursed",
          "type": "uint256"
        },
        {
          "name": "loanStartTimestamp",
          "type": "uint256"
        }
      ],
      "payable": false,
      "stateMutability": "view",
      "type": "function"
    },
    {
      "constant": true,
      "inputs": [
        {
          "name": "period",
          "type": "uint256"
        }
      ],
      "name": "getRequestedScheduledPayment",
      "outputs": [
        {
          "name": "principalPayment",
          "type": "uint256"
        },
        {
          "name": "interestPayment",
          "type": "uint256"
        },
        {
          "name": "totalPayment",
          "type": "uint256"
        }
      ],
      "payable": false,
      "stateMutability": "view",
      "type": "function"
    },
    {
      "constant": true,
      "inputs": [
        {
          "name": "period",
          "type": "uint256"
        }
      ],
      "name": "getScheduledPayment",
      "outputs": [
        {
          "name": "dueTimestamp",
          "type": "uint256"
        },
        {
          "name": "principalPayment",
          "type": "uint256"
        },
        {
          "name": "interestPayment",
          "type": "uint256"
        },
        {
          "name": "totalPayment",
          "type": "uint256"
        }
      ],
      "payable": false,
      "stateMutability": "view",
      "type": "function"
    },
    {
      "constant": false,
      "inputs": [
        {
          "name": "totalCrowdfunded",
          "type": "uint256"
        }
      ],
      "name": "startRepaymentCycle",
      "outputs": [
        {
          "name": "startTimestamp",
          "type": "uint256"
        }
      ],
      "payable": false,
      "stateMutability": "nonpayable",
      "type": "function"
    },
    {
      "constant": true,
      "inputs": [
        {
          "name": "timestamp",
          "type": "uint256"
        }
      ],
      "name": "getExpectedRepaymentValue",
      "outputs": [
        {
          "name": "total",
          "type": "uint256"
        }
      ],
      "payable": false,
      "stateMutability": "view",
      "type": "function"
    },
    {
      "constant": true,
      "inputs": [],
      "name": "getExpectedRepaymentValue",
      "outputs": [
        {
          "name": "total",
          "type": "uint256"
        }
      ],
      "payable": false,
      "stateMutability": "view",
      "type": "function"
    },
    {
      "constant": true,
      "inputs": [
        {
          "name": "principal",
          "type": "uint256"
        },
        {
          "name": "interestRate",
          "type": "uint256"
        }
      ],
      "name": "_calcMonthlyInterest",
      "outputs": [
        {
          "name": "result",
          "type": "uint256"
        }
      ],
      "payable": false,
      "stateMutability": "pure",
      "type": "function"
    }
  ],
  "bytecode": "0x608060405234801561001057600080fd5b50611b5c806100206000396000f3fe608060405234801561001057600080fd5b506004361061013e576000357c0100000000000000000000000000000000000000000000000000000000900480638de87cd2116100ca578063adf89a031161008e578063adf89a0314610637578063b429afeb14610683578063d5a3e232146106df578063e2d7123814610721578063e38be0c2146107635761013e565b80638de87cd2146103a35780638e24ed8b146104b9578063a224cee714610509578063acc1ab13146105c1578063adb724bf146105ed5761013e565b80636bca7c7e116101115780636bca7c7e146102a85780637340435b146102c657806378ee5893146102e45780637df1f1b91461033b57806389026b6a146103855761013e565b806309e94d9814610143578063170d7dc5146101c557806320600a37146101e35780634e04bf611461028a575b600080fd5b61014b610794565b604051808873ffffffffffffffffffffffffffffffffffffffff1673ffffffffffffffffffffffffffffffffffffffff16815260200187815260200186600581111561019357fe5b60ff16815260200185815260200184815260200183815260200182815260200197505050505050505060405180910390f35b6101cd6107f1565b6040518082815260200191505060405180910390f35b6101eb6107fe565b604051808973ffffffffffffffffffffffffffffffffffffffff1673ffffffffffffffffffffffffffffffffffffffff1681526020018873ffffffffffffffffffffffffffffffffffffffff1673ffffffffffffffffffffffffffffffffffffffff1681526020018781526020018681526020018581526020018481526020018381526020018281526020019850505050505050505060405180910390f35b6102926108a9565b6040518082815260200191505060405180910390f35b6102b0610941565b6040518082815260200191505060405180910390f35b6102ce610951565b6040518082815260200191505060405180910390f35b610310600480360360208110156102fa57600080fd5b810190808035906020019092919050505061095e565b6040518085815260200184815260200183815260200182815260200194505050505060405180910390f35b610343610997565b604051808273ffffffffffffffffffffffffffffffffffffffff1673ffffffffffffffffffffffffffffffffffffffff16815260200191505060405180910390f35b61038d6109c1565b6040518082815260200191505060405180910390f35b6104b7600480360360c08110156103b957600080fd5b81019080803573ffffffffffffffffffffffffffffffffffffffff169060200190929190803573ffffffffffffffffffffffffffffffffffffffff1690602001909291908035906020019092919080359060200190929190803590602001909291908035906020019064010000000081111561043457600080fd5b82018360208201111561044657600080fd5b8035906020019184602083028401116401000000008311171561046857600080fd5b919080806020026020016040519081016040528093929190818152602001838360200280828437600081840152601f19601f8201169050808301925050505050505091929192905050506109ce565b005b6104e5600480360360208110156104cf57600080fd5b8101908080359060200190929190505050610e14565b60405180848152602001838152602001828152602001935050505060405180910390f35b6105bf6004803603602081101561051f57600080fd5b810190808035906020019064010000000081111561053c57600080fd5b82018360208201111561054e57600080fd5b8035906020019184602083028401116401000000008311171561057057600080fd5b919080806020026020016040519081016040528093929190818152602001838360200280828437600081840152601f19601f820116905080830192505050505050509192919290505050610e3b565b005b6105c9610f7a565b604051808260058111156105d957fe5b60ff16815260200191505060405180910390f35b6105f5610f94565b604051808273ffffffffffffffffffffffffffffffffffffffff1673ffffffffffffffffffffffffffffffffffffffff16815260200191505060405180910390f35b61066d6004803603604081101561064d57600080fd5b810190808035906020019092919080359060200190929190505050610fc1565b6040518082815260200191505060405180910390f35b6106c56004803603602081101561069957600080fd5b81019080803573ffffffffffffffffffffffffffffffffffffffff169060200190929190505050610ff2565b604051808215151515815260200191505060405180910390f35b61070b600480360360208110156106f557600080fd5b810190808035906020019092919050505061100f565b6040518082815260200191505060405180910390f35b61074d6004803603602081101561073757600080fd5b81019080803590602001909291905050506111bb565b6040518082815260200191505060405180910390f35b6107926004803603602081101561077957600080fd5b81019080803560ff16906020019092919050505061121c565b005b60668060000160009054906101000a900473ffffffffffffffffffffffffffffffffffffffff16908060010154908060020160009054906101000a900460ff16908060030154908060040154908060050154908060060154905087565b6000606660030154905090565b600080600080600080600080606d60009054906101000a900473ffffffffffffffffffffffffffffffffffffffff16606660000160009054906101000a900473ffffffffffffffffffffffffffffffffffffffff16606660010154606660020160009054906101000a900460ff16600581111561087757fe5b606660030154606660040154606660050154606660060154975097509750975097509750975097509091929394959697565b60008060666006015414151515610928576040517f08c379a000000000000000000000000000000000000000000000000000000000815260040180806020018281038252601c8152602001807f4c6f616e206861736e2774206265656e2073746172746564207965740000000081525060200191505060405180910390fd5b61093c606660060154606660030154611308565b905090565b600061094c426111bb565b905090565b6000606660010154905090565b600080600080610973856066600501546113b4565b80935081945082955050505061098e60666006015486611308565b93509193509193565b6000606d60009054906101000a900473ffffffffffffffffffffffffffffffffffffffff16905090565b6000606660050154905090565b600060019054906101000a900460ff16806109ed57506109ec61146b565b5b80610a0457506000809054906101000a900460ff16155b1515610a5b576040517f08c379a000000000000000000000000000000000000000000000000000000000815260040180806020018281038252602e815260200180611a57602e913960400191505060405180910390fd5b60008060019054906101000a900460ff161590508015610aab576001600060016101000a81548160ff02191690831515021790555060016000806101000a81548160ff0219169083151502179055505b600073ffffffffffffffffffffffffffffffffffffffff168673ffffffffffffffffffffffffffffffffffffffff1614151515610b33576040517f08c379a0000000000000000000000000000000000000000000000000000000008152600401808060200182810382526023815260200180611a056023913960400191505060405180910390fd5b60008514151515610b8f576040517f08c379a00000000000000000000000000000000000000000000000000000000081526004018080602001828103825260298152602001806119dc6029913960400191505060405180910390fd5b600084111515610bea576040517f08c379a00000000000000000000000000000000000000000000000000000000081526004018080602001828103825260218152602001806119bb6021913960400191505060405180910390fd5b600983111515610c45576040517f08c379a0000000000000000000000000000000000000000000000000000000008152600401808060200182810382526045815260200180611ac16045913960600191505060405180910390fd5b61271083101515610ca1576040517f08c379a000000000000000000000000000000000000000000000000000000000815260040180806020018281038252603c815260200180611a85603c913960400191505060405180910390fd5b86606d60006101000a81548173ffffffffffffffffffffffffffffffffffffffff021916908373ffffffffffffffffffffffffffffffffffffffff160217905550610ceb82610e3b565b60e0604051908101604052808773ffffffffffffffffffffffffffffffffffffffff16815260200186815260200160006005811115610d2657fe5b8152602001858152602001848152602001600081526020016000815250606660008201518160000160006101000a81548173ffffffffffffffffffffffffffffffffffffffff021916908373ffffffffffffffffffffffffffffffffffffffff1602179055506020820151816001015560408201518160020160006101000a81548160ff02191690836005811115610dba57fe5b0217905550606082015181600301556080820151816004015560a0820151816005015560c082015181600601559050508015610e0b5760008060016101000a81548160ff0219169083151502179055505b50505050505050565b6000806000610e28846066600101546113b4565b8093508194508295505050509193909250565b600060019054906101000a900460ff1680610e5a5750610e5961146b565b5b80610e7157506000809054906101000a900460ff16155b1515610ec8576040517f08c379a000000000000000000000000000000000000000000000000000000000815260040180806020018281038252602e815260200180611a57602e913960400191505060405180910390fd5b60008060019054906101000a900460ff161590508015610f18576001600060016101000a81548160ff02191690831515021790555060016000806101000a81548160ff0219169083151502179055505b60008090505b8251811015610f5457610f478382815181101515610f3857fe5b9060200190602002015161147c565b8080600101915050610f1e565b508015610f765760008060016101000a81548160ff0219169083151502179055505b5050565b6000606660020160009054906101000a900460ff16905090565b6000606660000160009054906101000a900473ffffffffffffffffffffffffffffffffffffffff16905090565b6000610fea612710610fdc84866114d690919063ffffffff16565b61151490919063ffffffff16565b905092915050565b600061100882603361153e90919063ffffffff16565b9050919050565b60007ffca6d4e226ce530cdba35a2c75a702b253c239a7068eefc5b041b2519083d2c933604051808273ffffffffffffffffffffffffffffffffffffffff1673ffffffffffffffffffffffffffffffffffffffff16815260200191505060405180910390a161107d33610ff2565b15156110f1576040517f08c379a00000000000000000000000000000000000000000000000000000000081526004018080602001828103825260118152602001807f5065726d697373696f6e2064656e69656400000000000000000000000000000081525060200191505060405180910390fd5b600460058111156110fe57fe5b606660020160009054906101000a900460ff16600581111561111c57fe5b101515611174576040517f08c379a000000000000000000000000000000000000000000000000000000000815260040180806020018281038252602f815260200180611a28602f913960400191505060405180910390fd5b6000606660010154831115611190576066600101549050611194565b8290505b42915080606660050181905550816066600601819055506111b560046115d2565b50919050565b600080905060008090505b606660030154811015611216576000806111e26001840161095e565b935050509150848211151561120757611204818561167290919063ffffffff16565b93505b505080806001019150506111c6565b50919050565b7ffca6d4e226ce530cdba35a2c75a702b253c239a7068eefc5b041b2519083d2c933604051808273ffffffffffffffffffffffffffffffffffffffff1673ffffffffffffffffffffffffffffffffffffffff16815260200191505060405180910390a161128833610ff2565b15156112fc576040517f08c379a00000000000000000000000000000000000000000000000000000000081526004018080602001828103825260118152602001807f5065726d697373696f6e2064656e69656400000000000000000000000000000081525060200191505060405180910390fd5b611305816115d2565b50565b600080600080611325620151808781151561131f57fe5b04611693565b8093508194508295505050508482019150600c6001830381151561134557fe5b04830192506001600c6001840381151561135b57fe5b06019150600061136b8484611775565b905080821115611379578091505b620151808781151561138757fe5b0662015180611397868686611802565b020194508685101515156113aa57600080fd5b5050505092915050565b600080600080851180156113cd57506066600301548511155b1515611424576040517f08c379a000000000000000000000000000000000000000000000000000000000815260040180806020018281038252602b815260200180611b06602b913960400191505060405180910390fd5b61143384606660040154610fc1565b915060666003015485141561144a5783925061144f565b600092505b611462838361167290919063ffffffff16565b90509250925092565b600080303b90506000811491505090565b6114908160336118c190919063ffffffff16565b8073ffffffffffffffffffffffffffffffffffffffff167f0a8bb31534c0ed46f380cb867bd5c803a189ced9a764e30b3a4991a9901d747460405160405180910390a250565b6000808314156114e9576000905061150e565b600082840290508284828115156114fc57fe5b0414151561150957600080fd5b809150505b92915050565b6000808211151561152457600080fd5b6000828481151561153157fe5b0490508091505092915050565b60008073ffffffffffffffffffffffffffffffffffffffff168273ffffffffffffffffffffffffffffffffffffffff161415151561157b57600080fd5b8260000160008373ffffffffffffffffffffffffffffffffffffffff1673ffffffffffffffffffffffffffffffffffffffff16815260200190815260200160002060009054906101000a900460ff16905092915050565b8060058111156115de57fe5b606660020160009054906101000a900460ff1660058111156115fc57fe5b14151561166f5780606660020160006101000a81548160ff0219169083600581111561162457fe5b02179055507fc081d24eb45b93b7f218e30cf674c5e115ed10644b1d3f03f482bc5d5f528e39816040518082600581111561165b57fe5b60ff16815260200191505060405180910390a15b50565b600080828401905083811015151561168957600080fd5b8091505092915050565b600080600080849050600062253d8c62010bd98301019050600062023ab1826004028115156116be57fe5b059050600460038262023ab102018115156116d557fe5b0582039150600062164b0960018401610fa0028115156116f157fe5b059050601f6004826105b50281151561170657fe5b058403019250600061098f8460500281151561171e57fe5b059050600060508261098f0281151561173357fe5b0585039050600b8281151561174457fe5b05945084600c0260028301039150848360318603606402010192508298508197508096505050505050509193909250565b600060018214806117865750600382145b806117915750600582145b8061179c5750600782145b806117a75750600882145b806117b25750600a82145b806117bd5750600c82145b156117cb57601f90506117fc565b6002821415156117de57601e90506117fb565b6117e783611971565b6117f257601c6117f5565b601d5b60ff1690505b5b92915050565b60006107b2841015151561181557600080fd5b600084905060008490506000849050600062253d8c60046064600c600e870381151561183d57fe5b0561132488010181151561184d57fe5b0560030281151561185a57fe5b05600c80600c600e880381151561186d57fe5b0502600287030361016f0281151561188157fe5b056004600c600e880381151561189357fe5b056112c08901016105b5028115156118a757fe5b05617d4b8603010103039050809450505050509392505050565b600073ffffffffffffffffffffffffffffffffffffffff168173ffffffffffffffffffffffffffffffffffffffff16141515156118fd57600080fd5b611907828261153e565b15151561191357600080fd5b60018260000160008373ffffffffffffffffffffffffffffffffffffffff1673ffffffffffffffffffffffffffffffffffffffff16815260200190815260200160002060006101000a81548160ff0219169083151502179055505050565b60008060048381151561198057fe5b0614801561199b5750600060648381151561199757fe5b0614155b806119b357506000610190838115156119b057fe5b06145b905091905056fe4c6f616e20706572696f64206d75737420626520686967686572207468616e20305072696e636970616c526571756573746564206d7573742062652067726561746572207468616e20304c6f616e656420746f6b656e206d75737420626520616e20455243323020746f6b656e5265717569726573206c6f616e53746174757320746f206265206265666f72652052657061796d656e744379636c65436f6e747261637420696e7374616e63652068617320616c7265616479206265656e20696e697469616c697a6564496e746572657374207261746520626520696e20626173697320706f696e747320616e64206c657373207468616e2031302c30303020283130302529496e74657265737420726174652073686f756c6420626520696e20626173697320706f696e747320616e642068617665206d696e696d756d206f662031302028302e3125295468652072657175657374656420706572696f64206973206f757473696465206c6f616e20706572696f64a165627a7a7230582015d181e942f43dad09a9d70a6e7d76b77c44983448d95d95e063e9945ebfbc1c0029",
  "source": "pragma solidity ^0.5.2;\n\nimport \"openzeppelin-eth/contracts/math/SafeMath.sol\";\nimport \"openzeppelin-eth/contracts/token/ERC20/IERC20.sol\";\nimport \"zos-lib/contracts/Initializable.sol\";\nimport \"../interface/ITermsContract.sol\";\nimport \"../access/ControllerRole.sol\";\nimport \"../utils/BokkyPooBahsDateTimeLibrary.sol\";\nimport \"./TermsContractLib.sol\";\n\ncontract TermsContract is Initializable, ITermsContract, ControllerRole {\n    using SafeMath for uint256;\n\n    using TermsContractLib for TermsContractLib.LoanParams;\n    using TermsContractLib for TermsContractLib.LoanStatus;\n\n    TermsContractLib.LoanParams public loanParams;\n\n    address private _borrower;\n\n    modifier onlyBeforeRepaymentCycle() {\n        require(\n            loanParams.loanStatus < TermsContractLib.LoanStatus.REPAYMENT_CYCLE,\n            \"Requires loanStatus to be before RepaymentCycle\"\n        );\n        _;\n    }\n\n    function initialize(\n        address borrower_,\n        address _principalTokenAddr,\n        uint256 _principalRequested,\n        uint256 _loanPeriod,\n        uint256 _interestRate,\n        address[] memory _controllers\n    ) public initializer {\n        require(_principalTokenAddr != address(0), \"Loaned token must be an ERC20 token\"); //TODO(Dan): More rigorous way of testing ERC20?\n        require(_principalRequested != 0, \"PrincipalRequested must be greater than 0\");\n        require(_loanPeriod > 0, \"Loan period must be higher than 0\");\n        require(\n            _interestRate > 9,\n            \"Interest rate should be in basis points and have minimum of 10 (0.1%)\"\n        );\n        require(\n            _interestRate < 10000,\n            \"Interest rate be in basis points and less than 10,000 (100%)\"\n        );\n        _borrower = borrower_;\n        ControllerRole.initialize(_controllers);\n        loanParams = TermsContractLib.LoanParams({\n            principalToken: _principalTokenAddr,\n            principalRequested: _principalRequested,\n            loanStatus: TermsContractLib.LoanStatus.NOT_STARTED,\n            loanPeriod: _loanPeriod,\n            interestRate: _interestRate,\n            principalDisbursed: 0,\n            loanStartTimestamp: 0\n        });\n    }\n\n    function setLoanStatus(TermsContractLib.LoanStatus _status) public onlyController {\n        _setLoanStatus(_status);\n    }\n\n    /** Public view functions\n     */\n    function borrower() public view returns (address) {\n        return _borrower;\n    }\n    function getLoanStatus() public view returns (TermsContractLib.LoanStatus loanStatus) {\n        return loanParams.loanStatus;\n    }\n\n    function getNumScheduledPayments() public view returns (uint256) {\n        return loanParams.loanPeriod;\n    }\n\n    function getPrincipalRequested() public view returns (uint256) {\n        return loanParams.principalRequested;\n    }\n\n    function getPrincipalDisbursed() public view returns (uint256) {\n        return loanParams.principalDisbursed;\n    }\n\n    function getPrincipalToken() public view returns (address) {\n        return loanParams.principalToken;\n    }\n\n    function getLoanEndTimestamp() public view returns (uint256 end) {\n        require(loanParams.loanStartTimestamp != 0, \"Loan hasn't been started yet\");\n        end = BokkyPooBahsDateTimeLibrary.addMonths(\n            loanParams.loanStartTimestamp,\n            loanParams.loanPeriod\n        );\n    }\n\n    /**\n     * @dev gets loanParams as a tuple\n     */\n    function getLoanParams()\n        public\n        view\n        returns (\n            address,\n            address principalToken,\n            uint256 principalRequested,\n            uint256 loanStatus,\n            uint256 loanPeriod,\n            uint256 interestRate,\n            uint256 principalDisbursed,\n            uint256 loanStartTimestamp\n        )\n    {\n        return (\n            _borrower,\n            address(loanParams.principalToken),\n            loanParams.principalRequested,\n            uint256(loanParams.loanStatus),\n            loanParams.loanPeriod,\n            loanParams.interestRate,\n            loanParams.principalDisbursed,\n            loanParams.loanStartTimestamp\n        );\n    }\n\n    /**\n     * @dev Gets proposed payment schedule based on principalRequested\n     * NOTE This should only be used during crowdfund period\n     */\n    function getRequestedScheduledPayment(uint256 period)\n        public\n        view\n        returns (uint256 principalPayment, uint256 interestPayment, uint256 totalPayment)\n    {\n        (principalPayment, interestPayment, totalPayment) = _calcScheduledPayment(\n            period,\n            loanParams.principalRequested\n        );\n    }\n\n    /**\n     * @dev Gets finalized payment schedule based on principalDisbursed\n     * NOTE This should only be used when repaymentSchedule has started\n     */\n    function getScheduledPayment(uint256 period)\n        public\n        view\n        returns (\n            uint256 dueTimestamp,\n            uint256 principalPayment,\n            uint256 interestPayment,\n            uint256 totalPayment\n        )\n    {\n        (principalPayment, interestPayment, totalPayment) = _calcScheduledPayment(\n            period,\n            loanParams.principalDisbursed\n        );\n        dueTimestamp = BokkyPooBahsDateTimeLibrary.addMonths(loanParams.loanStartTimestamp, period);\n    }\n\n    /**\n     * @dev Begins loan and writes timestamps to the payment table\n     */\n    function startRepaymentCycle(uint256 totalCrowdfunded)\n        public\n        onlyController\n        onlyBeforeRepaymentCycle\n        returns (uint256 startTimestamp)\n    {\n        uint256 principalDisbursed;\n        /** NOTE: prevents over-debt through unauthorized transfers (e.g. native token transfers) into crowdloan */\n        if (totalCrowdfunded > loanParams.principalRequested) {\n            principalDisbursed = loanParams.principalRequested;\n        } else {\n            principalDisbursed = totalCrowdfunded;\n        }\n        startTimestamp = now;\n        loanParams.principalDisbursed = principalDisbursed;\n        loanParams.loanStartTimestamp = startTimestamp;\n        _setLoanStatus(TermsContractLib.LoanStatus.REPAYMENT_CYCLE);\n    }\n\n    /**\n     * @dev Overloaded function. `now` will be the block's timestamp as reported by the miner\n     */\n    function getExpectedRepaymentValue() public view returns (uint256 total) {\n        total = getExpectedRepaymentValue(now);\n    }\n\n    /**\n     * @dev returns the expected repayment value for a given timestamp for the loan's scheduled payments\n     * @dev future developments will allow this to be more dynamic (e.g. delinquent fees, penalties)\n     * @param timestamp uint256\n     * @return uint256 total number of currencyTokens expected to be repaid\n     */\n    function getExpectedRepaymentValue(uint256 timestamp) public view returns (uint256 total) {\n        total = 0;\n        for (uint256 i = 0; i < loanParams.loanPeriod; i++) {\n            (uint256 due, , , uint256 amount) = getScheduledPayment(i + 1);\n            if (due <= timestamp) {\n                total = total.add(amount);\n            }\n        }\n    }\n\n    /**\n     * @dev Calculates the scheduled payment for a given period\n     * Note Uses simple principal calculation for a balloon loan. Will change for future loan types\n     */\n    function _calcScheduledPayment(uint256 period, uint256 principal)\n        internal\n        view\n        returns (uint256 principalPayment, uint256 interestPayment, uint256 totalPayment)\n    {\n        require(\n            period > 0 && period <= loanParams.loanPeriod,\n            \"The requested period is outside loan period\"\n        );\n        interestPayment = _calcMonthlyInterest(principal, loanParams.interestRate);\n        /** Principal is only paid during the last period */\n        if (period == loanParams.loanPeriod) {\n            principalPayment = principal;\n        } else {\n            principalPayment = 0;\n        }\n        totalPayment = interestPayment.add(principalPayment);\n    }\n\n    /**\n     * @dev calculates monthly interest payment\n     * @dev Note 10000 divisor is because of basis points (100) * percentage (100)\n     */\n    function _calcMonthlyInterest(uint256 principal, uint256 interestRate)\n        public\n        pure\n        returns (uint256 result)\n    {\n        result = principal.mul(interestRate).div(10000);\n    }\n\n    /**\n     * @dev internal method to set the loanStatus of the loan\n     */\n    function _setLoanStatus(TermsContractLib.LoanStatus _loanStatus) private {\n        if (loanParams.loanStatus != _loanStatus) {\n            loanParams.loanStatus = _loanStatus;\n            emit LoanStatusUpdated(_loanStatus);\n        }\n    }\n}\n",
  "sourcePath": "/Users/thomas/Code/client/enable/enable-contracts/contracts/debt-contracts/TermsContract.sol",
  "compiler": {
    "name": "solc",
    "version": "0.5.2+commit.1df8f40c.Emscripten.clang"
  },
  "schemaVersion": "3.0.11",
  "updatedAt": "2019-07-31T17:23:40.204Z",
  "devdoc": {
    "methods": {
      "_calcMonthlyInterest(uint256,uint256)": {
        "details": "calculates monthly interest paymentNote 10000 divisor is because of basis points (100) * percentage (100)"
      },
      "getExpectedRepaymentValue()": {
        "details": "Overloaded function. `now` will be the block's timestamp as reported by the miner"
      },
      "getExpectedRepaymentValue(uint256)": {
        "details": "returns the expected repayment value for a given timestamp for the loan's scheduled paymentsfuture developments will allow this to be more dynamic (e.g. delinquent fees, penalties)",
        "params": {
          "timestamp": "uint256"
        },
        "return": "uint256 total number of currencyTokens expected to be repaid"
      },
      "getLoanParams()": {
        "details": "gets loanParams as a tuple"
      },
      "getRequestedScheduledPayment(uint256)": {
        "details": "Gets proposed payment schedule based on principalRequested NOTE This should only be used during crowdfund period"
      },
      "getScheduledPayment(uint256)": {
        "details": "Gets finalized payment schedule based on principalDisbursed NOTE This should only be used when repaymentSchedule has started"
      },
      "startRepaymentCycle(uint256)": {
        "details": "Begins loan and writes timestamps to the payment table"
      }
    }
  },
  "userdoc": {
    "methods": {
      "borrower()": {
        "notice": "Public view functions"
      }
    }
  }
}