{
  "contractName": "TermsContract",
  "abi": [
    {
      "constant": true,
      "inputs": [],
      "name": "loanParams",
      "outputs": [
        {
          "name": "principalToken",
          "type": "address"
        },
        {
          "name": "principalRequested",
          "type": "uint256"
        },
        {
          "name": "loanStatus",
          "type": "uint8"
        },
        {
          "name": "loanPeriod",
          "type": "uint256"
        },
        {
          "name": "interestRate",
          "type": "uint256"
        },
        {
          "name": "principalDisbursed",
          "type": "uint256"
        },
        {
          "name": "loanStartTimestamp",
          "type": "uint256"
        }
      ],
      "payable": false,
      "stateMutability": "view",
      "type": "function"
    },
    {
      "constant": true,
      "inputs": [
        {
          "name": "account",
          "type": "address"
        }
      ],
      "name": "isController",
      "outputs": [
        {
          "name": "",
          "type": "bool"
        }
      ],
      "payable": false,
      "stateMutability": "view",
      "type": "function"
    },
    {
      "anonymous": false,
      "inputs": [
        {
          "indexed": true,
          "name": "account",
          "type": "address"
        }
      ],
      "name": "ControllerAdded",
      "type": "event"
    },
    {
      "anonymous": false,
      "inputs": [
        {
          "indexed": true,
          "name": "account",
          "type": "address"
        }
      ],
      "name": "ControllerRemoved",
      "type": "event"
    },
    {
      "anonymous": false,
      "inputs": [
        {
          "indexed": false,
          "name": "account",
          "type": "address"
        }
      ],
      "name": "LogAccess",
      "type": "event"
    },
    {
      "anonymous": false,
      "inputs": [
        {
          "indexed": false,
          "name": "status",
          "type": "uint8"
        }
      ],
      "name": "LoanStatusUpdated",
      "type": "event"
    },
    {
      "constant": false,
      "inputs": [
        {
          "name": "borrower_",
          "type": "address"
        },
        {
          "name": "_principalTokenAddr",
          "type": "address"
        },
        {
          "name": "_principalRequested",
          "type": "uint256"
        },
        {
          "name": "_loanPeriod",
          "type": "uint256"
        },
        {
          "name": "_interestRate",
          "type": "uint256"
        },
        {
          "name": "_controllers",
          "type": "address[]"
        }
      ],
      "name": "initialize",
      "outputs": [],
      "payable": false,
      "stateMutability": "nonpayable",
      "type": "function"
    },
    {
      "constant": false,
      "inputs": [
        {
          "name": "_controllers",
          "type": "address[]"
        }
      ],
      "name": "initialize",
      "outputs": [],
      "payable": false,
      "stateMutability": "nonpayable",
      "type": "function"
    },
    {
      "constant": false,
      "inputs": [
        {
          "name": "_status",
          "type": "uint8"
        }
      ],
      "name": "setLoanStatus",
      "outputs": [],
      "payable": false,
      "stateMutability": "nonpayable",
      "type": "function"
    },
    {
      "constant": true,
      "inputs": [],
      "name": "borrower",
      "outputs": [
        {
          "name": "",
          "type": "address"
        }
      ],
      "payable": false,
      "stateMutability": "view",
      "type": "function"
    },
    {
      "constant": true,
      "inputs": [],
      "name": "getInterestRate",
      "outputs": [
        {
          "name": "",
          "type": "uint256"
        }
      ],
      "payable": false,
      "stateMutability": "view",
      "type": "function"
    },
    {
      "constant": true,
      "inputs": [],
      "name": "getLoanStatus",
      "outputs": [
        {
          "name": "loanStatus",
          "type": "uint8"
        }
      ],
      "payable": false,
      "stateMutability": "view",
      "type": "function"
    },
    {
      "constant": true,
      "inputs": [],
      "name": "getLoanStartTimestamp",
      "outputs": [
        {
          "name": "",
          "type": "uint256"
        }
      ],
      "payable": false,
      "stateMutability": "view",
      "type": "function"
    },
    {
      "constant": true,
      "inputs": [],
      "name": "getNumScheduledPayments",
      "outputs": [
        {
          "name": "",
          "type": "uint256"
        }
      ],
      "payable": false,
      "stateMutability": "view",
      "type": "function"
    },
    {
      "constant": true,
      "inputs": [],
      "name": "getPrincipalRequested",
      "outputs": [
        {
          "name": "",
          "type": "uint256"
        }
      ],
      "payable": false,
      "stateMutability": "view",
      "type": "function"
    },
    {
      "constant": true,
      "inputs": [],
      "name": "getPrincipalDisbursed",
      "outputs": [
        {
          "name": "",
          "type": "uint256"
        }
      ],
      "payable": false,
      "stateMutability": "view",
      "type": "function"
    },
    {
      "constant": true,
      "inputs": [],
      "name": "getPrincipalToken",
      "outputs": [
        {
          "name": "",
          "type": "address"
        }
      ],
      "payable": false,
      "stateMutability": "view",
      "type": "function"
    },
    {
      "constant": true,
      "inputs": [],
      "name": "getLoanEndTimestamp",
      "outputs": [
        {
          "name": "end",
          "type": "uint256"
        }
      ],
      "payable": false,
      "stateMutability": "view",
      "type": "function"
    },
    {
      "constant": true,
      "inputs": [],
      "name": "getLoanParams",
      "outputs": [
        {
          "name": "",
          "type": "address"
        },
        {
          "name": "principalToken",
          "type": "address"
        },
        {
          "name": "principalRequested",
          "type": "uint256"
        },
        {
          "name": "loanStatus",
          "type": "uint256"
        },
        {
          "name": "loanPeriod",
          "type": "uint256"
        },
        {
          "name": "interestRate",
          "type": "uint256"
        },
        {
          "name": "principalDisbursed",
          "type": "uint256"
        },
        {
          "name": "loanStartTimestamp",
          "type": "uint256"
        }
      ],
      "payable": false,
      "stateMutability": "view",
      "type": "function"
    },
    {
      "constant": true,
      "inputs": [
        {
          "name": "period",
          "type": "uint256"
        }
      ],
      "name": "getRequestedScheduledPayment",
      "outputs": [
        {
          "name": "principalPayment",
          "type": "uint256"
        },
        {
          "name": "interestPayment",
          "type": "uint256"
        },
        {
          "name": "totalPayment",
          "type": "uint256"
        }
      ],
      "payable": false,
      "stateMutability": "view",
      "type": "function"
    },
    {
      "constant": true,
      "inputs": [
        {
          "name": "period",
          "type": "uint256"
        }
      ],
      "name": "getScheduledPayment",
      "outputs": [
        {
          "name": "dueTimestamp",
          "type": "uint256"
        },
        {
          "name": "principalPayment",
          "type": "uint256"
        },
        {
          "name": "interestPayment",
          "type": "uint256"
        },
        {
          "name": "totalPayment",
          "type": "uint256"
        }
      ],
      "payable": false,
      "stateMutability": "view",
      "type": "function"
    },
    {
      "constant": false,
      "inputs": [
        {
          "name": "totalCrowdfunded",
          "type": "uint256"
        }
      ],
      "name": "startRepaymentCycle",
      "outputs": [
        {
          "name": "startTimestamp",
          "type": "uint256"
        }
      ],
      "payable": false,
      "stateMutability": "nonpayable",
      "type": "function"
    },
    {
      "constant": true,
      "inputs": [],
      "name": "getExpectedRepaymentValue",
      "outputs": [
        {
          "name": "total",
          "type": "uint256"
        }
      ],
      "payable": false,
      "stateMutability": "view",
      "type": "function"
    },
    {
      "constant": true,
      "inputs": [
        {
          "name": "timestamp",
          "type": "uint256"
        }
      ],
      "name": "getExpectedRepaymentValue",
      "outputs": [
        {
          "name": "total",
          "type": "uint256"
        }
      ],
      "payable": false,
      "stateMutability": "view",
      "type": "function"
    },
    {
      "constant": true,
      "inputs": [
        {
          "name": "principal",
          "type": "uint256"
        },
        {
          "name": "interestRate",
          "type": "uint256"
        }
      ],
      "name": "_calcMonthlyInterest",
      "outputs": [
        {
          "name": "result",
          "type": "uint256"
        }
      ],
      "payable": false,
      "stateMutability": "pure",
      "type": "function"
    }
  ],
  "bytecode": "0x608060405234801561001057600080fd5b50611bdb806100206000396000f3fe608060405234801561001057600080fd5b5060043610610154576000357c0100000000000000000000000000000000000000000000000000000000900480638de87cd2116100d5578063adf89a0311610099578063adf89a031461066b578063b429afeb146106b7578063d5a3e23214610713578063e2d7123814610755578063e38be0c214610797578063f209b970146107c857610154565b80638de87cd2146103d75780638e24ed8b146104ed578063a224cee71461053d578063acc1ab13146105f5578063adb724bf1461062157610154565b80636bca7c7e1161011c5780636bca7c7e146102dc5780637340435b146102fa57806378ee5893146103185780637df1f1b91461036f57806389026b6a146103b957610154565b806309e94d9814610159578063170d7dc5146101db57806320600a37146101f95780634e04bf61146102a05780635257b566146102be575b600080fd5b6101616107e6565b604051808873ffffffffffffffffffffffffffffffffffffffff1673ffffffffffffffffffffffffffffffffffffffff1681526020018781526020018660058111156101a957fe5b60ff16815260200185815260200184815260200183815260200182815260200197505050505050505060405180910390f35b6101e3610843565b6040518082815260200191505060405180910390f35b610201610850565b604051808973ffffffffffffffffffffffffffffffffffffffff1673ffffffffffffffffffffffffffffffffffffffff1681526020018873ffffffffffffffffffffffffffffffffffffffff1673ffffffffffffffffffffffffffffffffffffffff1681526020018781526020018681526020018581526020018481526020018381526020018281526020019850505050505050505060405180910390f35b6102a86108fb565b6040518082815260200191505060405180910390f35b6102c6610993565b6040518082815260200191505060405180910390f35b6102e46109a0565b6040518082815260200191505060405180910390f35b6103026109b0565b6040518082815260200191505060405180910390f35b6103446004803603602081101561032e57600080fd5b81019080803590602001909291905050506109bd565b6040518085815260200184815260200183815260200182815260200194505050505060405180910390f35b6103776109f6565b604051808273ffffffffffffffffffffffffffffffffffffffff1673ffffffffffffffffffffffffffffffffffffffff16815260200191505060405180910390f35b6103c1610a20565b6040518082815260200191505060405180910390f35b6104eb600480360360c08110156103ed57600080fd5b81019080803573ffffffffffffffffffffffffffffffffffffffff169060200190929190803573ffffffffffffffffffffffffffffffffffffffff1690602001909291908035906020019092919080359060200190929190803590602001909291908035906020019064010000000081111561046857600080fd5b82018360208201111561047a57600080fd5b8035906020019184602083028401116401000000008311171561049c57600080fd5b919080806020026020016040519081016040528093929190818152602001838360200280828437600081840152601f19601f820116905080830192505050505050509192919290505050610a2d565b005b6105196004803603602081101561050357600080fd5b8101908080359060200190929190505050610e73565b60405180848152602001838152602001828152602001935050505060405180910390f35b6105f36004803603602081101561055357600080fd5b810190808035906020019064010000000081111561057057600080fd5b82018360208201111561058257600080fd5b803590602001918460208302840111640100000000831117156105a457600080fd5b919080806020026020016040519081016040528093929190818152602001838360200280828437600081840152601f19601f820116905080830192505050505050509192919290505050610e9a565b005b6105fd610fd9565b6040518082600581111561060d57fe5b60ff16815260200191505060405180910390f35b610629610ff3565b604051808273ffffffffffffffffffffffffffffffffffffffff1673ffffffffffffffffffffffffffffffffffffffff16815260200191505060405180910390f35b6106a16004803603604081101561068157600080fd5b810190808035906020019092919080359060200190929190505050611020565b6040518082815260200191505060405180910390f35b6106f9600480360360208110156106cd57600080fd5b81019080803573ffffffffffffffffffffffffffffffffffffffff169060200190929190505050611064565b604051808215151515815260200191505060405180910390f35b61073f6004803603602081101561072957600080fd5b8101908080359060200190929190505050611081565b6040518082815260200191505060405180910390f35b6107816004803603602081101561076b57600080fd5b810190808035906020019092919050505061122d565b6040518082815260200191505060405180910390f35b6107c6600480360360208110156107ad57600080fd5b81019080803560ff16906020019092919050505061128e565b005b6107d061137a565b6040518082815260200191505060405180910390f35b60668060000160009054906101000a900473ffffffffffffffffffffffffffffffffffffffff16908060010154908060020160009054906101000a900460ff16908060030154908060040154908060050154908060060154905087565b6000606660030154905090565b600080600080600080600080606d60009054906101000a900473ffffffffffffffffffffffffffffffffffffffff16606660000160009054906101000a900473ffffffffffffffffffffffffffffffffffffffff16606660010154606660020160009054906101000a900460ff1660058111156108c957fe5b606660030154606660040154606660050154606660060154975097509750975097509750975097509091929394959697565b6000806066600601541415151561097a576040517f08c379a000000000000000000000000000000000000000000000000000000000815260040180806020018281038252601c8152602001807f4c6f616e206861736e2774206265656e2073746172746564207965740000000081525060200191505060405180910390fd5b61098e606660060154606660030154611387565b905090565b6000606660040154905090565b60006109ab4261122d565b905090565b6000606660010154905090565b6000806000806109d285606660050154611433565b8093508194508295505050506109ed60666006015486611387565b93509193509193565b6000606d60009054906101000a900473ffffffffffffffffffffffffffffffffffffffff16905090565b6000606660050154905090565b600060019054906101000a900460ff1680610a4c5750610a4b6114ea565b5b80610a6357506000809054906101000a900460ff16155b1515610aba576040517f08c379a000000000000000000000000000000000000000000000000000000000815260040180806020018281038252602e815260200180611ad6602e913960400191505060405180910390fd5b60008060019054906101000a900460ff161590508015610b0a576001600060016101000a81548160ff02191690831515021790555060016000806101000a81548160ff0219169083151502179055505b600073ffffffffffffffffffffffffffffffffffffffff168673ffffffffffffffffffffffffffffffffffffffff1614151515610b92576040517f08c379a0000000000000000000000000000000000000000000000000000000008152600401808060200182810382526023815260200180611a846023913960400191505060405180910390fd5b60008514151515610bee576040517f08c379a0000000000000000000000000000000000000000000000000000000008152600401808060200182810382526029815260200180611a5b6029913960400191505060405180910390fd5b600084111515610c49576040517f08c379a0000000000000000000000000000000000000000000000000000000008152600401808060200182810382526021815260200180611a3a6021913960400191505060405180910390fd5b600983111515610ca4576040517f08c379a0000000000000000000000000000000000000000000000000000000008152600401808060200182810382526045815260200180611b406045913960600191505060405180910390fd5b61271083101515610d00576040517f08c379a000000000000000000000000000000000000000000000000000000000815260040180806020018281038252603c815260200180611b04603c913960400191505060405180910390fd5b86606d60006101000a81548173ffffffffffffffffffffffffffffffffffffffff021916908373ffffffffffffffffffffffffffffffffffffffff160217905550610d4a82610e9a565b60e0604051908101604052808773ffffffffffffffffffffffffffffffffffffffff16815260200186815260200160006005811115610d8557fe5b8152602001858152602001848152602001600081526020016000815250606660008201518160000160006101000a81548173ffffffffffffffffffffffffffffffffffffffff021916908373ffffffffffffffffffffffffffffffffffffffff1602179055506020820151816001015560408201518160020160006101000a81548160ff02191690836005811115610e1957fe5b0217905550606082015181600301556080820151816004015560a0820151816005015560c082015181600601559050508015610e6a5760008060016101000a81548160ff0219169083151502179055505b50505050505050565b6000806000610e8784606660010154611433565b8093508194508295505050509193909250565b600060019054906101000a900460ff1680610eb95750610eb86114ea565b5b80610ed057506000809054906101000a900460ff16155b1515610f27576040517f08c379a000000000000000000000000000000000000000000000000000000000815260040180806020018281038252602e815260200180611ad6602e913960400191505060405180910390fd5b60008060019054906101000a900460ff161590508015610f77576001600060016101000a81548160ff02191690831515021790555060016000806101000a81548160ff0219169083151502179055505b60008090505b8251811015610fb357610fa68382815181101515610f9757fe5b906020019060200201516114fb565b8080600101915050610f7d565b508015610fd55760008060016101000a81548160ff0219169083151502179055505b5050565b6000606660020160009054906101000a900460ff16905090565b6000606660000160009054906101000a900473ffffffffffffffffffffffffffffffffffffffff16905090565b600061105c61271061104e600c611040868861155590919063ffffffff16565b61159390919063ffffffff16565b61159390919063ffffffff16565b905092915050565b600061107a8260336115bd90919063ffffffff16565b9050919050565b60007ffca6d4e226ce530cdba35a2c75a702b253c239a7068eefc5b041b2519083d2c933604051808273ffffffffffffffffffffffffffffffffffffffff1673ffffffffffffffffffffffffffffffffffffffff16815260200191505060405180910390a16110ef33611064565b1515611163576040517f08c379a00000000000000000000000000000000000000000000000000000000081526004018080602001828103825260118152602001807f5065726d697373696f6e2064656e69656400000000000000000000000000000081525060200191505060405180910390fd5b6004600581111561117057fe5b606660020160009054906101000a900460ff16600581111561118e57fe5b1015156111e6576040517f08c379a000000000000000000000000000000000000000000000000000000000815260040180806020018281038252602f815260200180611aa7602f913960400191505060405180910390fd5b6000606660010154831115611202576066600101549050611206565b8290505b42915080606660050181905550816066600601819055506112276004611651565b50919050565b600080905060008090505b60666003015481101561128857600080611254600184016109bd565b93505050915084821115156112795761127681856116f190919063ffffffff16565b93505b50508080600101915050611238565b50919050565b7ffca6d4e226ce530cdba35a2c75a702b253c239a7068eefc5b041b2519083d2c933604051808273ffffffffffffffffffffffffffffffffffffffff1673ffffffffffffffffffffffffffffffffffffffff16815260200191505060405180910390a16112fa33611064565b151561136e576040517f08c379a00000000000000000000000000000000000000000000000000000000081526004018080602001828103825260118152602001807f5065726d697373696f6e2064656e69656400000000000000000000000000000081525060200191505060405180910390fd5b61137781611651565b50565b6000606660060154905090565b6000806000806113a4620151808781151561139e57fe5b04611712565b8093508194508295505050508482019150600c600183038115156113c457fe5b04830192506001600c600184038115156113da57fe5b0601915060006113ea84846117f4565b9050808211156113f8578091505b620151808781151561140657fe5b0662015180611416868686611881565b0201945086851015151561142957600080fd5b5050505092915050565b6000806000808511801561144c57506066600301548511155b15156114a3576040517f08c379a000000000000000000000000000000000000000000000000000000000815260040180806020018281038252602b815260200180611b85602b913960400191505060405180910390fd5b6114b284606660040154611020565b91506066600301548514156114c9578392506114ce565b600092505b6114e183836116f190919063ffffffff16565b90509250925092565b600080303b90506000811491505090565b61150f81603361194090919063ffffffff16565b8073ffffffffffffffffffffffffffffffffffffffff167f0a8bb31534c0ed46f380cb867bd5c803a189ced9a764e30b3a4991a9901d747460405160405180910390a250565b600080831415611568576000905061158d565b6000828402905082848281151561157b57fe5b0414151561158857600080fd5b809150505b92915050565b600080821115156115a357600080fd5b600082848115156115b057fe5b0490508091505092915050565b60008073ffffffffffffffffffffffffffffffffffffffff168273ffffffffffffffffffffffffffffffffffffffff16141515156115fa57600080fd5b8260000160008373ffffffffffffffffffffffffffffffffffffffff1673ffffffffffffffffffffffffffffffffffffffff16815260200190815260200160002060009054906101000a900460ff16905092915050565b80600581111561165d57fe5b606660020160009054906101000a900460ff16600581111561167b57fe5b1415156116ee5780606660020160006101000a81548160ff021916908360058111156116a357fe5b02179055507fc081d24eb45b93b7f218e30cf674c5e115ed10644b1d3f03f482bc5d5f528e3981604051808260058111156116da57fe5b60ff16815260200191505060405180910390a15b50565b600080828401905083811015151561170857600080fd5b8091505092915050565b600080600080849050600062253d8c62010bd98301019050600062023ab18260040281151561173d57fe5b059050600460038262023ab1020181151561175457fe5b0582039150600062164b0960018401610fa00281151561177057fe5b059050601f6004826105b50281151561178557fe5b058403019250600061098f8460500281151561179d57fe5b059050600060508261098f028115156117b257fe5b0585039050600b828115156117c357fe5b05945084600c0260028301039150848360318603606402010192508298508197508096505050505050509193909250565b600060018214806118055750600382145b806118105750600582145b8061181b5750600782145b806118265750600882145b806118315750600a82145b8061183c5750600c82145b1561184a57601f905061187b565b60028214151561185d57601e905061187a565b611866836119f0565b61187157601c611874565b601d5b60ff1690505b5b92915050565b60006107b2841015151561189457600080fd5b600084905060008490506000849050600062253d8c60046064600c600e87038115156118bc57fe5b056113248801018115156118cc57fe5b056003028115156118d957fe5b05600c80600c600e88038115156118ec57fe5b0502600287030361016f0281151561190057fe5b056004600c600e880381151561191257fe5b056112c08901016105b50281151561192657fe5b05617d4b8603010103039050809450505050509392505050565b600073ffffffffffffffffffffffffffffffffffffffff168173ffffffffffffffffffffffffffffffffffffffff161415151561197c57600080fd5b61198682826115bd565b15151561199257600080fd5b60018260000160008373ffffffffffffffffffffffffffffffffffffffff1673ffffffffffffffffffffffffffffffffffffffff16815260200190815260200160002060006101000a81548160ff0219169083151502179055505050565b6000806004838115156119ff57fe5b06148015611a1a57506000606483811515611a1657fe5b0614155b80611a325750600061019083811515611a2f57fe5b06145b905091905056fe4c6f616e20706572696f64206d75737420626520686967686572207468616e20305072696e636970616c526571756573746564206d7573742062652067726561746572207468616e20304c6f616e656420746f6b656e206d75737420626520616e20455243323020746f6b656e5265717569726573206c6f616e53746174757320746f206265206265666f72652052657061796d656e744379636c65436f6e747261637420696e7374616e63652068617320616c7265616479206265656e20696e697469616c697a6564496e746572657374207261746520626520696e20626173697320706f696e747320616e64206c657373207468616e2031302c30303020283130302529496e74657265737420726174652073686f756c6420626520696e20626173697320706f696e747320616e642068617665206d696e696d756d206f662031302028302e3125295468652072657175657374656420706572696f64206973206f757473696465206c6f616e20706572696f64a165627a7a72305820c9d3385647e533c4a6831afb0985bc678485717fdefc9f4d46456204b05306d90029",
  "source": "pragma solidity ^0.5.2;\n\nimport \"openzeppelin-eth/contracts/math/SafeMath.sol\";\nimport \"openzeppelin-eth/contracts/token/ERC20/IERC20.sol\";\nimport \"zos-lib/contracts/Initializable.sol\";\nimport \"../interface/ITermsContract.sol\";\nimport \"../access/ControllerRole.sol\";\nimport \"../utils/BokkyPooBahsDateTimeLibrary.sol\";\nimport \"./TermsContractLib.sol\";\n\ncontract TermsContract is Initializable, ITermsContract, ControllerRole {\n    using SafeMath for uint256;\n\n    using TermsContractLib for TermsContractLib.LoanParams;\n    using TermsContractLib for TermsContractLib.LoanStatus;\n\n    TermsContractLib.LoanParams public loanParams;\n    uint256 constant private MONTHSINYEAR = 12;\n    uint256 constant private TENTHOUSAND = 10000;\n\n    address private _borrower;\n\n    modifier onlyBeforeRepaymentCycle() {\n        require(\n            loanParams.loanStatus < TermsContractLib.LoanStatus.REPAYMENT_CYCLE,\n            \"Requires loanStatus to be before RepaymentCycle\"\n        );\n        _;\n    }\n\n    function initialize(\n        address borrower_,\n        address _principalTokenAddr,\n        uint256 _principalRequested,\n        uint256 _loanPeriod,\n        uint256 _interestRate,\n        address[] memory _controllers\n    ) public initializer {\n        require(_principalTokenAddr != address(0), \"Loaned token must be an ERC20 token\"); //TODO(Dan): More rigorous way of testing ERC20?\n        require(_principalRequested != 0, \"PrincipalRequested must be greater than 0\");\n        require(_loanPeriod > 0, \"Loan period must be higher than 0\");\n        require(\n            _interestRate > 9,\n            \"Interest rate should be in basis points and have minimum of 10 (0.1%)\"\n        );\n        require(\n            _interestRate < 10000,\n            \"Interest rate be in basis points and less than 10,000 (100%)\"\n        );\n        _borrower = borrower_;\n        ControllerRole.initialize(_controllers);\n        loanParams = TermsContractLib.LoanParams({\n            principalToken: _principalTokenAddr,\n            principalRequested: _principalRequested,\n            loanStatus: TermsContractLib.LoanStatus.NOT_STARTED,\n            loanPeriod: _loanPeriod,\n            interestRate: _interestRate,\n            principalDisbursed: 0,\n            loanStartTimestamp: 0\n        });\n    }\n\n    function setLoanStatus(TermsContractLib.LoanStatus _status) public onlyController {\n        _setLoanStatus(_status);\n    }\n\n    /** Public view functions\n     */\n    function borrower() public view returns (address) {\n        return _borrower;\n    }\n\n    function getInterestRate() public view returns (uint256) {\n        return loanParams.interestRate;\n    }\n\n    function getLoanStatus() public view returns (TermsContractLib.LoanStatus loanStatus) {\n        return loanParams.loanStatus;\n    }\n\n    function getLoanStartTimestamp() public view returns (uint256) {\n        return loanParams.loanStartTimestamp;\n    }\n\n    function getNumScheduledPayments() public view returns (uint256) {\n        return loanParams.loanPeriod;\n    }\n\n    function getPrincipalRequested() public view returns (uint256) {\n        return loanParams.principalRequested;\n    }\n\n    function getPrincipalDisbursed() public view returns (uint256) {\n        return loanParams.principalDisbursed;\n    }\n\n    function getPrincipalToken() public view returns (address) {\n        return loanParams.principalToken;\n    }\n\n    function getLoanEndTimestamp() public view returns (uint256 end) {\n        require(loanParams.loanStartTimestamp != 0, \"Loan hasn't been started yet\");\n        end = BokkyPooBahsDateTimeLibrary.addMonths(\n            loanParams.loanStartTimestamp,\n            loanParams.loanPeriod\n        );\n    }\n\n    /**\n     * @dev gets loanParams as a tuple\n     */\n    function getLoanParams()\n        public\n        view\n        returns (\n            address,\n            address principalToken,\n            uint256 principalRequested,\n            uint256 loanStatus,\n            uint256 loanPeriod,\n            uint256 interestRate,\n            uint256 principalDisbursed,\n            uint256 loanStartTimestamp\n        )\n    {\n        return (\n            _borrower,\n            address(loanParams.principalToken),\n            loanParams.principalRequested,\n            uint256(loanParams.loanStatus),\n            loanParams.loanPeriod,\n            loanParams.interestRate,\n            loanParams.principalDisbursed,\n            loanParams.loanStartTimestamp\n        );\n    }\n\n    /**\n     * @dev Gets proposed payment schedule based on principalRequested\n     * NOTE This should only be used during crowdfund period\n     */\n    function getRequestedScheduledPayment(uint256 period)\n        public\n        view\n        returns (uint256 principalPayment, uint256 interestPayment, uint256 totalPayment)\n    {\n        (principalPayment, interestPayment, totalPayment) = _calcScheduledPayment(\n            period,\n            loanParams.principalRequested\n        );\n    }\n\n    /**\n     * @dev Gets finalized payment schedule based on principalDisbursed\n     * NOTE This should only be used when repaymentSchedule has started\n     */\n    function getScheduledPayment(uint256 period)\n        public\n        view\n        returns (\n            uint256 dueTimestamp,\n            uint256 principalPayment,\n            uint256 interestPayment,\n            uint256 totalPayment\n        )\n    {\n        (principalPayment, interestPayment, totalPayment) = _calcScheduledPayment(\n            period,\n            loanParams.principalDisbursed\n        );\n        dueTimestamp = BokkyPooBahsDateTimeLibrary.addMonths(loanParams.loanStartTimestamp, period);\n    }\n\n    /**\n     * @dev Begins loan and writes timestamps to the payment table\n     */\n    function startRepaymentCycle(uint256 totalCrowdfunded)\n        public\n        onlyController\n        onlyBeforeRepaymentCycle\n        returns (uint256 startTimestamp)\n    {\n        uint256 principalDisbursed;\n        /** NOTE: prevents over-debt through unauthorized transfers (e.g. native token transfers) into crowdloan */\n        if (totalCrowdfunded > loanParams.principalRequested) {\n            principalDisbursed = loanParams.principalRequested;\n        } else {\n            principalDisbursed = totalCrowdfunded;\n        }\n        startTimestamp = now;\n        loanParams.principalDisbursed = principalDisbursed;\n        loanParams.loanStartTimestamp = startTimestamp;\n        _setLoanStatus(TermsContractLib.LoanStatus.REPAYMENT_CYCLE);\n    }\n\n    /**\n     * @dev Overloaded function. `now` will be the block's timestamp as reported by the miner\n     */\n    function getExpectedRepaymentValue() public view returns (uint256 total) {\n        total = getExpectedRepaymentValue(now);\n    }\n\n    /**\n     * @dev returns the expected repayment value for a given timestamp for the loan's scheduled payments\n     * @dev future developments will allow this to be more dynamic (e.g. delinquent fees, penalties)\n     * @param timestamp uint256\n     * @return uint256 total number of currencyTokens expected to be repaid\n     */\n    function getExpectedRepaymentValue(uint256 timestamp) public view returns (uint256 total) {\n        total = 0;\n        for (uint256 i = 0; i < loanParams.loanPeriod; i++) {\n            (uint256 due, , , uint256 amount) = getScheduledPayment(i + 1);\n            if (due <= timestamp) {\n                total = total.add(amount);\n            }\n        }\n    }\n\n    /**\n     * @dev Calculates the scheduled payment for a given period\n     * Note Uses simple principal calculation for a balloon loan. Will change for future loan types\n     */\n    function _calcScheduledPayment(uint256 period, uint256 principal)\n        internal\n        view\n        returns (uint256 principalPayment, uint256 interestPayment, uint256 totalPayment)\n    {\n        require(\n            period > 0 && period <= loanParams.loanPeriod,\n            \"The requested period is outside loan period\"\n        );\n        interestPayment = _calcMonthlyInterest(principal, loanParams.interestRate);\n        /** Principal is only paid during the last period */\n        if (period == loanParams.loanPeriod) {\n            principalPayment = principal;\n        } else {\n            principalPayment = 0;\n        }\n        totalPayment = interestPayment.add(principalPayment);\n    }\n\n    /**\n     * @dev calculates monthly interest payment\n     * @dev Note 10000 divisor is because of basis points (100) * percentage (100)\n     */\n    function _calcMonthlyInterest(uint256 principal, uint256 interestRate)\n        public\n        pure\n        returns (uint256 result)\n    {\n        result = principal.mul(interestRate).div(MONTHSINYEAR).div(TENTHOUSAND);\n    }\n\n    /**\n     * @dev internal method to set the loanStatus of the loan\n     */\n    function _setLoanStatus(TermsContractLib.LoanStatus _loanStatus) private {\n        if (loanParams.loanStatus != _loanStatus) {\n            loanParams.loanStatus = _loanStatus;\n            emit LoanStatusUpdated(_loanStatus);\n        }\n    }\n}\n",
  "sourcePath": "/media/brvhrt/Vault/Store/New-folder/ebc/contracts/debt-contracts/TermsContract.sol",
  "compiler": {
    "name": "solc",
    "version": "0.5.2+commit.1df8f40c.Emscripten.clang"
  },
  "schemaVersion": "3.0.11",
  "updatedAt": "2019-08-21T20:07:14.320Z",
  "devdoc": {
    "methods": {
      "_calcMonthlyInterest(uint256,uint256)": {
        "details": "calculates monthly interest paymentNote 10000 divisor is because of basis points (100) * percentage (100)"
      },
      "getExpectedRepaymentValue()": {
        "details": "Overloaded function. `now` will be the block's timestamp as reported by the miner"
      },
      "getExpectedRepaymentValue(uint256)": {
        "details": "returns the expected repayment value for a given timestamp for the loan's scheduled paymentsfuture developments will allow this to be more dynamic (e.g. delinquent fees, penalties)",
        "params": {
          "timestamp": "uint256"
        },
        "return": "uint256 total number of currencyTokens expected to be repaid"
      },
      "getLoanParams()": {
        "details": "gets loanParams as a tuple"
      },
      "getRequestedScheduledPayment(uint256)": {
        "details": "Gets proposed payment schedule based on principalRequested NOTE This should only be used during crowdfund period"
      },
      "getScheduledPayment(uint256)": {
        "details": "Gets finalized payment schedule based on principalDisbursed NOTE This should only be used when repaymentSchedule has started"
      },
      "startRepaymentCycle(uint256)": {
        "details": "Begins loan and writes timestamps to the payment table"
      }
    }
  },
  "userdoc": {
    "methods": {
      "borrower()": {
        "notice": "Public view functions"
      }
    }
  }
}