{"fileName":"TermsContract.sol","contractName":"TermsContract","source":"pragma solidity ^0.5.2;\n\nimport \"openzeppelin-eth/contracts/math/SafeMath.sol\";\nimport \"openzeppelin-eth/contracts/token/ERC20/IERC20.sol\";\nimport \"zos-lib/contracts/Initializable.sol\";\nimport \"../interface/ITermsContract.sol\";\nimport \"../access/ControllerRole.sol\";\nimport \"../utils/BokkyPooBahsDateTimeLibrary.sol\";\nimport \"./TermsContractLib.sol\";\n\ncontract TermsContract is Initializable, ITermsContract, ControllerRole {\n    using SafeMath for uint256;\n\n    using TermsContractLib for TermsContractLib.LoanParams;\n    using TermsContractLib for TermsContractLib.LoanStatus;\n\n    TermsContractLib.LoanParams public loanParams;\n\n    address private _borrower;\n\n    modifier onlyBeforeRepaymentCycle() {\n        require(\n            loanParams.loanStatus < TermsContractLib.LoanStatus.REPAYMENT_CYCLE,\n            \"Requires loanStatus to be before RepaymentCycle\"\n        );\n        _;\n    }\n\n    function initialize(\n        address borrower_,\n        address _principalTokenAddr,\n        uint256 _principalRequested,\n        uint256 _loanPeriod,\n        uint256 _interestRate,\n        address[] memory _controllers\n    ) public initializer {\n        require(_principalTokenAddr != address(0), \"Loaned token must be an ERC20 token\"); //TODO(Dan): More rigorous way of testing ERC20?\n        require(_principalRequested != 0, \"PrincipalRequested must be greater than 0\");\n        require(_loanPeriod > 0, \"Loan period must be higher than 0\");\n        require(\n            _interestRate > 9,\n            \"Interest rate should be in basis points and have minimum of 10 (0.1%)\"\n        );\n        require(\n            _interestRate < 10000,\n            \"Interest rate be in basis points and less than 10,000 (100%)\"\n        );\n        _borrower = borrower_;\n        ControllerRole.initialize(_controllers);\n        loanParams = TermsContractLib.LoanParams({\n            principalToken: _principalTokenAddr,\n            principalRequested: _principalRequested,\n            loanStatus: TermsContractLib.LoanStatus.NOT_STARTED,\n            loanPeriod: _loanPeriod,\n            interestRate: _interestRate,\n            principalDisbursed: 0,\n            loanStartTimestamp: 0\n        });\n    }\n\n    function setLoanStatus(TermsContractLib.LoanStatus _status) public onlyController {\n        _setLoanStatus(_status);\n    }\n\n    /** Public view functions\n     */\n    function borrower() public view returns (address) {\n        return _borrower;\n    }\n    function getLoanStatus() public view returns (TermsContractLib.LoanStatus loanStatus) {\n        return loanParams.loanStatus;\n    }\n\n    function getNumScheduledPayments() public view returns (uint256) {\n        return loanParams.loanPeriod;\n    }\n\n    function getPrincipalRequested() public view returns (uint256) {\n        return loanParams.principalRequested;\n    }\n\n    function getPrincipalDisbursed() public view returns (uint256) {\n        return loanParams.principalDisbursed;\n    }\n\n    function getPrincipalToken() public view returns (address) {\n        return loanParams.principalToken;\n    }\n\n    function getLoanEndTimestamp() public view returns (uint256 end) {\n        require(loanParams.loanStartTimestamp != 0, \"Loan hasn't been started yet\");\n        end = BokkyPooBahsDateTimeLibrary.addMonths(\n            loanParams.loanStartTimestamp,\n            loanParams.loanPeriod\n        );\n    }\n\n    /**\n     * @dev gets loanParams as a tuple\n     */\n    function getLoanParams()\n        public\n        view\n        returns (\n            address,\n            address principalToken,\n            uint256 principalRequested,\n            uint256 loanStatus,\n            uint256 loanPeriod,\n            uint256 interestRate,\n            uint256 principalDisbursed,\n            uint256 loanStartTimestamp\n        )\n    {\n        return (\n            _borrower,\n            address(loanParams.principalToken),\n            loanParams.principalRequested,\n            uint256(loanParams.loanStatus),\n            loanParams.loanPeriod,\n            loanParams.interestRate,\n            loanParams.principalDisbursed,\n            loanParams.loanStartTimestamp\n        );\n    }\n\n    /**\n     * @dev Gets proposed payment schedule based on principalRequested\n     * NOTE This should only be used during crowdfund period\n     */\n    function getRequestedScheduledPayment(uint256 period)\n        public\n        view\n        returns (uint256 principalPayment, uint256 interestPayment, uint256 totalPayment)\n    {\n        (principalPayment, interestPayment, totalPayment) = _calcScheduledPayment(\n            period,\n            loanParams.principalRequested\n        );\n    }\n\n    /**\n     * @dev Gets finalized payment schedule based on principalDisbursed\n     * NOTE This should only be used when repaymentSchedule has started\n     */\n    function getScheduledPayment(uint256 period)\n        public\n        view\n        returns (\n            uint256 dueTimestamp,\n            uint256 principalPayment,\n            uint256 interestPayment,\n            uint256 totalPayment\n        )\n    {\n        (principalPayment, interestPayment, totalPayment) = _calcScheduledPayment(\n            period,\n            loanParams.principalDisbursed\n        );\n        dueTimestamp = BokkyPooBahsDateTimeLibrary.addMonths(loanParams.loanStartTimestamp, period);\n    }\n\n    /**\n     * @dev Begins loan and writes timestamps to the payment table\n     */\n    function startRepaymentCycle(uint256 totalCrowdfunded)\n        public\n        onlyController\n        onlyBeforeRepaymentCycle\n        returns (uint256 startTimestamp)\n    {\n        uint256 principalDisbursed;\n        /** NOTE: prevents over-debt through unauthorized transfers (e.g. native token transfers) into crowdloan */\n        if (totalCrowdfunded > loanParams.principalRequested) {\n            principalDisbursed = loanParams.principalRequested;\n        } else {\n            principalDisbursed = totalCrowdfunded;\n        }\n        startTimestamp = now;\n        loanParams.principalDisbursed = principalDisbursed;\n        loanParams.loanStartTimestamp = startTimestamp;\n        _setLoanStatus(TermsContractLib.LoanStatus.REPAYMENT_CYCLE);\n    }\n\n    /**\n     * @dev Overloaded function. `now` will be the block's timestamp as reported by the miner\n     */\n    function getExpectedRepaymentValue() public view returns (uint256 total) {\n        total = getExpectedRepaymentValue(now);\n    }\n\n    /**\n     * @dev returns the expected repayment value for a given timestamp for the loan's scheduled payments\n     * @dev future developments will allow this to be more dynamic (e.g. delinquent fees, penalties)\n     * @param timestamp uint256\n     * @return uint256 total number of currencyTokens expected to be repaid\n     */\n    function getExpectedRepaymentValue(uint256 timestamp) public view returns (uint256 total) {\n        total = 0;\n        for (uint256 i = 0; i < loanParams.loanPeriod; i++) {\n            (uint256 due, , , uint256 amount) = getScheduledPayment(i + 1);\n            if (due <= timestamp) {\n                total = total.add(amount);\n            }\n        }\n    }\n\n    /**\n     * @dev Calculates the scheduled payment for a given period\n     * Note Uses simple principal calculation for a balloon loan. Will change for future loan types\n     */\n    function _calcScheduledPayment(uint256 period, uint256 principal)\n        internal\n        view\n        returns (uint256 principalPayment, uint256 interestPayment, uint256 totalPayment)\n    {\n        require(\n            period > 0 && period <= loanParams.loanPeriod,\n            \"The requested period is outside loan period\"\n        );\n        interestPayment = _calcMonthlyInterest(principal, loanParams.interestRate);\n        /** Principal is only paid during the last period */\n        if (period == loanParams.loanPeriod) {\n            principalPayment = principal;\n        } else {\n            principalPayment = 0;\n        }\n        totalPayment = interestPayment.add(principalPayment);\n    }\n\n    /**\n     * @dev calculates monthly interest payment\n     * @dev Note 10000 divisor is because of basis points (100) * percentage (100)\n     */\n    function _calcMonthlyInterest(uint256 principal, uint256 interestRate)\n        public\n        pure\n        returns (uint256 result)\n    {\n        result = principal.mul(interestRate).div(10000);\n    }\n\n    /**\n     * @dev internal method to set the loanStatus of the loan\n     */\n    function _setLoanStatus(TermsContractLib.LoanStatus _loanStatus) private {\n        if (loanParams.loanStatus != _loanStatus) {\n            loanParams.loanStatus = _loanStatus;\n            emit LoanStatusUpdated(_loanStatus);\n        }\n    }\n}\n","sourcePath":"contracts/debt-contracts/TermsContract.sol","abi":[{"constant":true,"inputs":[],"name":"loanParams","outputs":[{"name":"principalToken","type":"address"},{"name":"principalRequested","type":"uint256"},{"name":"loanStatus","type":"uint8"},{"name":"loanPeriod","type":"uint256"},{"name":"interestRate","type":"uint256"},{"name":"principalDisbursed","type":"uint256"},{"name":"loanStartTimestamp","type":"uint256"}],"payable":false,"stateMutability":"view","type":"function"},{"constant":true,"inputs":[],"name":"getNumScheduledPayments","outputs":[{"name":"","type":"uint256"}],"payable":false,"stateMutability":"view","type":"function"},{"constant":true,"inputs":[],"name":"getLoanParams","outputs":[{"name":"","type":"address"},{"name":"principalToken","type":"address"},{"name":"principalRequested","type":"uint256"},{"name":"loanStatus","type":"uint256"},{"name":"loanPeriod","type":"uint256"},{"name":"interestRate","type":"uint256"},{"name":"principalDisbursed","type":"uint256"},{"name":"loanStartTimestamp","type":"uint256"}],"payable":false,"stateMutability":"view","type":"function"},{"constant":true,"inputs":[],"name":"getLoanEndTimestamp","outputs":[{"name":"end","type":"uint256"}],"payable":false,"stateMutability":"view","type":"function"},{"constant":true,"inputs":[],"name":"getExpectedRepaymentValue","outputs":[{"name":"total","type":"uint256"}],"payable":false,"stateMutability":"view","type":"function"},{"constant":true,"inputs":[],"name":"getPrincipalRequested","outputs":[{"name":"","type":"uint256"}],"payable":false,"stateMutability":"view","type":"function"},{"constant":true,"inputs":[{"name":"period","type":"uint256"}],"name":"getScheduledPayment","outputs":[{"name":"dueTimestamp","type":"uint256"},{"name":"principalPayment","type":"uint256"},{"name":"interestPayment","type":"uint256"},{"name":"totalPayment","type":"uint256"}],"payable":false,"stateMutability":"view","type":"function"},{"constant":true,"inputs":[],"name":"borrower","outputs":[{"name":"","type":"address"}],"payable":false,"stateMutability":"view","type":"function"},{"constant":true,"inputs":[],"name":"getPrincipalDisbursed","outputs":[{"name":"","type":"uint256"}],"payable":false,"stateMutability":"view","type":"function"},{"constant":false,"inputs":[{"name":"borrower_","type":"address"},{"name":"_principalTokenAddr","type":"address"},{"name":"_principalRequested","type":"uint256"},{"name":"_loanPeriod","type":"uint256"},{"name":"_interestRate","type":"uint256"},{"name":"_controllers","type":"address[]"}],"name":"initialize","outputs":[],"payable":false,"stateMutability":"nonpayable","type":"function"},{"constant":true,"inputs":[{"name":"period","type":"uint256"}],"name":"getRequestedScheduledPayment","outputs":[{"name":"principalPayment","type":"uint256"},{"name":"interestPayment","type":"uint256"},{"name":"totalPayment","type":"uint256"}],"payable":false,"stateMutability":"view","type":"function"},{"constant":false,"inputs":[{"name":"_controllers","type":"address[]"}],"name":"initialize","outputs":[],"payable":false,"stateMutability":"nonpayable","type":"function"},{"constant":true,"inputs":[],"name":"getLoanStatus","outputs":[{"name":"loanStatus","type":"uint8"}],"payable":false,"stateMutability":"view","type":"function"},{"constant":true,"inputs":[],"name":"getPrincipalToken","outputs":[{"name":"","type":"address"}],"payable":false,"stateMutability":"view","type":"function"},{"constant":true,"inputs":[{"name":"principal","type":"uint256"},{"name":"interestRate","type":"uint256"}],"name":"_calcMonthlyInterest","outputs":[{"name":"result","type":"uint256"}],"payable":false,"stateMutability":"pure","type":"function"},{"constant":true,"inputs":[{"name":"account","type":"address"}],"name":"isController","outputs":[{"name":"","type":"bool"}],"payable":false,"stateMutability":"view","type":"function"},{"constant":false,"inputs":[{"name":"totalCrowdfunded","type":"uint256"}],"name":"startRepaymentCycle","outputs":[{"name":"startTimestamp","type":"uint256"}],"payable":false,"stateMutability":"nonpayable","type":"function"},{"constant":true,"inputs":[{"name":"timestamp","type":"uint256"}],"name":"getExpectedRepaymentValue","outputs":[{"name":"total","type":"uint256"}],"payable":false,"stateMutability":"view","type":"function"},{"constant":false,"inputs":[{"name":"_status","type":"uint8"}],"name":"setLoanStatus","outputs":[],"payable":false,"stateMutability":"nonpayable","type":"function"},{"anonymous":false,"inputs":[{"indexed":true,"name":"account","type":"address"}],"name":"ControllerAdded","type":"event"},{"anonymous":false,"inputs":[{"indexed":true,"name":"account","type":"address"}],"name":"ControllerRemoved","type":"event"},{"anonymous":false,"inputs":[{"indexed":false,"name":"account","type":"address"}],"name":"LogAccess","type":"event"},{"anonymous":false,"inputs":[{"indexed":false,"name":"status","type":"uint8"}],"name":"LoanStatusUpdated","type":"event"}],"bytecode":"0x60806040523480156100115760006000fd5b50610017565b611d82806100266000396000f3fe60806040523480156100115760006000fd5b50600436106101265760003560e01c80638de87cd2116100ae578063adf89a0311610072578063adf89a0314610632578063b429afeb1461067f578063d5a3e232146106dc578063e2d712381461071f578063e38be0c21461076257610126565b80638de87cd21461038d5780638e24ed8b146104ab578063a224cee7146104fc578063acc1ab13146105bc578063adb724bf146105e857610126565b80636bca7c7e116100f55780636bca7c7e146102915780637340435b146102af57806378ee5893146102cd5780637df1f1b91461032557806389026b6a1461036f57610126565b806309e94d981461012c578063170d7dc5146101ae57806320600a37146101cc5780634e04bf611461027357610126565b60006000fd5b610134610794565b604051808873ffffffffffffffffffffffffffffffffffffffff1673ffffffffffffffffffffffffffffffffffffffff16815260200187815260200186600581111561017c57fe5b60ff16815260200185815260200184815260200183815260200182815260200197505050505050505060405180910390f35b6101b6610803565b6040518082815260200191505060405180910390f35b6101d461081b565b604051808973ffffffffffffffffffffffffffffffffffffffff1673ffffffffffffffffffffffffffffffffffffffff1681526020018873ffffffffffffffffffffffffffffffffffffffff1673ffffffffffffffffffffffffffffffffffffffff1681526020018781526020018681526020018581526020018481526020018381526020018281526020019850505050505050505060405180910390f35b61027b6108f3565b6040518082815260200191505060405180910390f35b6102996109aa565b6040518082815260200191505060405180910390f35b6102b76109c3565b6040518082815260200191505060405180910390f35b6102fa600480360360208110156102e45760006000fd5b81019080803590602001909291905050506109db565b6040518085815260200184815260200183815260200182815260200194505050505060405180910390f35b61032d610a31565b604051808273ffffffffffffffffffffffffffffffffffffffff1673ffffffffffffffffffffffffffffffffffffffff16815260200191505060405180910390f35b610377610a60565b6040518082815260200191505060405180910390f35b6104a9600480360360c08110156103a45760006000fd5b81019080803573ffffffffffffffffffffffffffffffffffffffff169060200190929190803573ffffffffffffffffffffffffffffffffffffffff169060200190929190803590602001909291908035906020019092919080359060200190929190803590602001906401000000008111156104205760006000fd5b8201836020820111156104335760006000fd5b803590602001918460208302840111640100000000831117156104565760006000fd5b919080806020026020016040519081016040528093929190818152602001838360200280828437600081840152601f19601f82011690508083019250505050505050909091929090919290505050610a78565b005b6104d8600480360360208110156104c25760006000fd5b8101908080359060200190929190505050610eee565b60405180848152602001838152602001828152602001935050505060405180910390f35b6105ba600480360360208110156105135760006000fd5b81019080803590602001906401000000008111156105315760006000fd5b8201836020820111156105445760006000fd5b803590602001918460208302840111640100000000831117156105675760006000fd5b919080806020026020016040519081016040528093929190818152602001838360200280828437600081840152601f19601f82011690508083019250505050505050909091929090919290505050610f23565b005b6105c4611074565b604051808260058111156105d457fe5b60ff16815260200191505060405180910390f35b6105f0611096565b604051808273ffffffffffffffffffffffffffffffffffffffff1673ffffffffffffffffffffffffffffffffffffffff16815260200191505060405180910390f35b610669600480360360408110156106495760006000fd5b8101908080359060200190929190803590602001909291905050506110cb565b6040518082815260200191505060405180910390f35b6106c2600480360360208110156106965760006000fd5b81019080803573ffffffffffffffffffffffffffffffffffffffff1690602001909291905050506110ff565b604051808215151515815260200191505060405180910390f35b610709600480360360208110156106f35760006000fd5b8101908080359060200190929190505050611124565b6040518082815260200191505060405180910390f35b61074c600480360360208110156107365760006000fd5b8101908080359060200190929190505050611307565b6040518082815260200191505060405180910390f35b610792600480360360208110156107795760006000fd5b81019080803560ff16906020019092919050505061137d565b005b60666000508060000160009054906101000a900473ffffffffffffffffffffffffffffffffffffffff16908060010160005054908060020160009054906101000a900460ff16908060030160005054908060040160005054908060050160005054908060060160005054905087565b60006066600050600301600050549050610818565b90565b60006000600060006000600060006000606d60009054906101000a900473ffffffffffffffffffffffffffffffffffffffff16606660005060000160009054906101000a900473ffffffffffffffffffffffffffffffffffffffff16606660005060010160005054606660005060020160009054906101000a900460ff1660058111156108a457fe5b606660005060030160005054606660005060040160005054606660005060050160005054606660005060060160005054975097509750975097509750975097506108e9565b9091929394959697565b600060006066600050600601600050541415151561097c576040517f08c379a000000000000000000000000000000000000000000000000000000000815260040180806020018281038252601c8152602001807f4c6f616e206861736e2774206265656e2073746172746564207965740000000081526020015060200191505060405180910390fd5b6109a260666000506006016000505460666000506003016000505461147a63ffffffff16565b905080505b90565b60006109bb4261130763ffffffff16565b905080505b90565b600060666000506001016000505490506109d8565b90565b60006000600060006109fe8560666000506005016000505461154663ffffffff16565b809350819450829550505050610a256066600050600601600050548661147a63ffffffff16565b935083505b9193509193565b6000606d60009054906101000a900473ffffffffffffffffffffffffffffffffffffffff169050610a5d565b90565b60006066600050600501600050549050610a75565b90565b600060019054906101000a900460ff1680610a9d5750610a9c61162063ffffffff16565b5b80610ab55750600060009054906101000a900460ff16155b1515610b0c576040517f08c379a000000000000000000000000000000000000000000000000000000000815260040180806020018281038252602e815260200180611c74602e913960400191505060405180910390fd5b6000600060019054906101000a900460ff161590508015610b5e576001600060016101000a81548160ff0219169083151502179055506001600060006101000a81548160ff0219169083151502179055505b600073ffffffffffffffffffffffffffffffffffffffff168673ffffffffffffffffffffffffffffffffffffffff1614151515610be6576040517f08c379a0000000000000000000000000000000000000000000000000000000008152600401808060200182810382526023815260200180611c226023913960400191505060405180910390fd5b60008514151515610c42576040517f08c379a0000000000000000000000000000000000000000000000000000000008152600401808060200182810382526029815260200180611bf96029913960400191505060405180910390fd5b600084111515610c9d576040517f08c379a0000000000000000000000000000000000000000000000000000000008152600401808060200182810382526021815260200180611bd86021913960400191505060405180910390fd5b600983111515610cf8576040517f08c379a0000000000000000000000000000000000000000000000000000000008152600401808060200182810382526045815260200180611cde6045913960600191505060405180910390fd5b61271083101515610d54576040517f08c379a000000000000000000000000000000000000000000000000000000000815260040180806020018281038252603c815260200180611ca2603c913960400191505060405180910390fd5b86606d60006101000a81548173ffffffffffffffffffffffffffffffffffffffff021916908373ffffffffffffffffffffffffffffffffffffffff160217905550610da482610f2363ffffffff16565b6040518060e001604052808773ffffffffffffffffffffffffffffffffffffffff16815260200186815260200160006005811115610dde57fe5b8152602001858152602001848152602001600081526020016000815260200150606660005060008201518160000160006101000a81548173ffffffffffffffffffffffffffffffffffffffff021916908373ffffffffffffffffffffffffffffffffffffffff16021790555060208201518160010160005090905560408201518160020160006101000a81548160ff02191690836005811115610e7d57fe5b021790555060608201518160030160005090905560808201518160040160005090905560a08201518160050160005090905560c0820151816006016000509090559050505b8015610ee4576000600060016101000a81548160ff0219169083151502179055505b505b505050505050565b600060006000610f0f8460666000506001016000505461154663ffffffff16565b8093508194508295505050505b9193909250565b600060019054906101000a900460ff1680610f485750610f4761162063ffffffff16565b5b80610f605750600060009054906101000a900460ff16155b1515610fb7576040517f08c379a000000000000000000000000000000000000000000000000000000000815260040180806020018281038252602e815260200180611c74602e913960400191505060405180910390fd5b6000600060019054906101000a900460ff161590508015611009576001600060016101000a81548160ff0219169083151502179055506001600060006101000a81548160ff0219169083151502179055505b6000600090505b825181101561104b5761103d838281518110151561102a57fe5b602002602001015161163863ffffffff16565b5b8080600101915050611010565b505b801561106f576000600060016101000a81548160ff0219169083151502179055505b505b50565b6000606660005060020160009054906101000a900460ff169050611093565b90565b6000606660005060000160009054906101000a900473ffffffffffffffffffffffffffffffffffffffff1690506110c8565b90565b60006110f46127106110e6848661169690919063ffffffff16565b6116db90919063ffffffff16565b905080505b92915050565b600061111882603360005061170d90919063ffffffff16565b905061111f565b919050565b60007ffca6d4e226ce530cdba35a2c75a702b253c239a7068eefc5b041b2519083d2c933604051808273ffffffffffffffffffffffffffffffffffffffff1673ffffffffffffffffffffffffffffffffffffffff16815260200191505060405180910390a1611198336110ff63ffffffff16565b151561120f576040517f08c379a00000000000000000000000000000000000000000000000000000000081526004018080602001828103825260118152602001807f5065726d697373696f6e2064656e69656400000000000000000000000000000081526020015060200191505060405180910390fd5b6004600581111561121c57fe5b606660005060020160009054906101000a900460ff16600581111561123d57fe5b101515611295576040517f08c379a000000000000000000000000000000000000000000000000000000000815260040180806020018281038252602f815260200180611c45602f913960400191505060405180910390fd5b60006066600050600101600050548311156112bf57606660005060010160005054905080506112c5565b82905080505b42915081508060666000506005016000508190909055508160666000506006016000508190909055506112fe60046117ab63ffffffff16565b505b5b5b919050565b60006000905080506000600090505b606660005060030160005054811015611376576000600061133f600184016109db63ffffffff16565b935050509150848211151561136657611361818561185290919063ffffffff16565b935083505b50505b8080600101915050611316565b505b919050565b7ffca6d4e226ce530cdba35a2c75a702b253c239a7068eefc5b041b2519083d2c933604051808273ffffffffffffffffffffffffffffffffffffffff1673ffffffffffffffffffffffffffffffffffffffff16815260200191505060405180910390a16113ef336110ff63ffffffff16565b1515611466576040517f08c379a00000000000000000000000000000000000000000000000000000000081526004018080602001828103825260118152602001807f5065726d697373696f6e2064656e69656400000000000000000000000000000081526020015060200191505060405180910390fd5b611475816117ab63ffffffff16565b5b5b50565b600060006000600061149f620151808781151561149357fe5b0461187b63ffffffff16565b80935081945082955050505084820191508150600c600183038115156114c157fe5b048301925082506001600c600184038115156114d957fe5b06019150815060006114f1848461197063ffffffff16565b9050808211156115015780915081505b620151808781151561150f57fe5b0662015180611525868686611a0a63ffffffff16565b02019450845086851015151561153b5760006000fd5b505050505b92915050565b60006000600060008511801561156757506066600050600301600050548511155b15156115be576040517f08c379a000000000000000000000000000000000000000000000000000000000815260040180806020018281038252602b815260200180611d23602b913960400191505060405180910390fd5b6115d9846066600050600401600050546110cb63ffffffff16565b915081506066600050600301600050548514156115fa578392508250611601565b6000925082505b611614838361185290919063ffffffff16565b905080505b9250925092565b60006000303b90506000811491505061163556505b90565b61164f816033600050611ace90919063ffffffff16565b8073ffffffffffffffffffffffffffffffffffffffff167f0a8bb31534c0ed46f380cb867bd5c803a189ced9a764e30b3a4991a9901d747460405160405180910390a25b50565b600060008314156116aa57600090506116d5565b600082840290508284828115156116bd57fe5b041415156116cb5760006000fd5b809150506116d556505b92915050565b60006000821115156116ed5760006000fd5b600082848115156116fa57fe5b0490508091505061170756505b92915050565b6000600073ffffffffffffffffffffffffffffffffffffffff168273ffffffffffffffffffffffffffffffffffffffff161415151561174c5760006000fd5b8260000160005060008373ffffffffffffffffffffffffffffffffffffffff1673ffffffffffffffffffffffffffffffffffffffff16815260200190815260200160002060009054906101000a900460ff1690506117a5565b92915050565b8060058111156117b757fe5b606660005060020160009054906101000a900460ff1660058111156117d857fe5b14151561184e5780606660005060020160006101000a81548160ff0219169083600581111561180357fe5b02179055507fc081d24eb45b93b7f218e30cf674c5e115ed10644b1d3f03f482bc5d5f528e39816040518082600581111561183a57fe5b60ff16815260200191505060405180910390a15b5b50565b60006000828401905083811015151561186b5760006000fd5b8091505061187556505b92915050565b6000600060006000849050600062253d8c62010bd98301019050600062023ab1826004028115156118a857fe5b059050600460038262023ab102018115156118bf57fe5b05820391508150600062164b0960018401610fa0028115156118dd57fe5b059050601f6004826105b5028115156118f257fe5b0584030192508250600061098f8460500281151561190c57fe5b059050600060508261098f0281151561192157fe5b0585039050600b8281151561193257fe5b059450845084600c026002830103915081508483603186036064020101925082508298508850819750875080965086505050505050505b9193909250565b600060018214806119815750600382145b8061198c5750600582145b806119975750600782145b806119a25750600882145b806119ad5750600a82145b806119b85750600c82145b156119c857601f90508050611a03565b6002821415156119dd57601e90508050611a02565b6119ec83611b8a63ffffffff16565b6119f757601c6119fa565b601d5b60ff16905080505b5b5b92915050565b60006107b28410151515611a1e5760006000fd5b600084905060008490506000849050600062253d8c60046064600c600e8703811515611a4657fe5b05611324880101811515611a5657fe5b05600302811515611a6357fe5b05600c600c600c600e8803811515611a7757fe5b0502600287030361016f02811515611a8b57fe5b056004600c600e8803811515611a9d57fe5b056112c08901016105b502811515611ab157fe5b05617d4b86030101030390508094508450505050505b9392505050565b600073ffffffffffffffffffffffffffffffffffffffff168173ffffffffffffffffffffffffffffffffffffffff1614151515611b0b5760006000fd5b611b1b828261170d63ffffffff16565b151515611b285760006000fd5b60018260000160005060008373ffffffffffffffffffffffffffffffffffffffff1673ffffffffffffffffffffffffffffffffffffffff16815260200190815260200160002060006101000a81548160ff0219169083151502179055505b5050565b60006000600483811515611b9a57fe5b06148015611bb557506000606483811515611bb157fe5b0614155b80611bcd5750600061019083811515611bca57fe5b06145b905080505b91905056fe4c6f616e20706572696f64206d75737420626520686967686572207468616e20305072696e636970616c526571756573746564206d7573742062652067726561746572207468616e20304c6f616e656420746f6b656e206d75737420626520616e20455243323020746f6b656e5265717569726573206c6f616e53746174757320746f206265206265666f72652052657061796d656e744379636c65436f6e747261637420696e7374616e63652068617320616c7265616479206265656e20696e697469616c697a6564496e746572657374207261746520626520696e20626173697320706f696e747320616e64206c657373207468616e2031302c30303020283130302529496e74657265737420726174652073686f756c6420626520696e20626173697320706f696e747320616e642068617665206d696e696d756d206f662031302028302e3125295468652072657175657374656420706572696f64206973206f757473696465206c6f616e20706572696f64a265627a7a723058201384880b40365ba076b8b01da3e5cea2d85f11c57249d2e27bd778acbd34fa5664736f6c634300050a0032","compiler":{"name":"solc","version":"0.5.10+commit.5a6ea5b1.Emscripten.clang","optimizer":{},"evmVersion":"constantinople"}}