{"fileName":"TermsContract.sol","contractName":"TermsContract","source":"pragma solidity ^0.5.2;\n\nimport \"openzeppelin-eth/contracts/math/SafeMath.sol\";\nimport \"openzeppelin-eth/contracts/token/ERC20/IERC20.sol\";\nimport \"zos-lib/contracts/Initializable.sol\";\nimport \"../interface/ITermsContract.sol\";\nimport \"../access/ControllerRole.sol\";\nimport \"../utils/BokkyPooBahsDateTimeLibrary.sol\";\nimport \"./TermsContractLib.sol\";\n\ncontract TermsContract is Initializable, ITermsContract, ControllerRole {\n    using SafeMath for uint256;\n\n    using TermsContractLib for TermsContractLib.LoanParams;\n    using TermsContractLib for TermsContractLib.LoanStatus;\n\n    TermsContractLib.LoanParams public loanParams;\n    uint256 private constant MONTHSINYEAR = 12;\n    uint256 private constant TENTHOUSAND = 10000;\n\n    address private _borrower;\n\n    modifier onlyBeforeRepaymentCycle() {\n        require(\n            loanParams.loanStatus < TermsContractLib.LoanStatus.REPAYMENT_CYCLE,\n            \"Requires loanStatus to be before RepaymentCycle\"\n        );\n        _;\n    }\n\n    function initialize(\n        address borrower_,\n        address _principalTokenAddr,\n        uint256 _principalRequested,\n        uint256 _loanPeriod,\n        uint256 _interestRate,\n        address[] memory _controllers\n    ) public initializer {\n        require(_principalTokenAddr != address(0), \"Loaned token must be an ERC20 token\"); //TODO(Dan): More rigorous way of testing ERC20?\n        require(_principalRequested != 0, \"PrincipalRequested must be greater than 0\");\n        require(_loanPeriod > 0, \"Loan period must be higher than 0\");\n        require(\n            _interestRate > 9,\n            \"Interest rate should be in basis points and have minimum of 10 (0.1%)\"\n        );\n        require(\n            _interestRate < 10000,\n            \"Interest rate be in basis points and less than 10,000 (100%)\"\n        );\n        _borrower = borrower_;\n        ControllerRole.initialize(_controllers);\n        loanParams = TermsContractLib.LoanParams({\n            principalToken: _principalTokenAddr,\n            principalRequested: _principalRequested,\n            loanStatus: TermsContractLib.LoanStatus.NOT_STARTED,\n            loanPeriod: _loanPeriod,\n            interestRate: _interestRate,\n            principalDisbursed: 0,\n            loanStartTimestamp: 0\n        });\n    }\n\n    function setLoanStatus(TermsContractLib.LoanStatus _status) public onlyController {\n        _setLoanStatus(_status);\n    }\n\n    /** Public view functions\n     */\n    function borrower() public view returns (address) {\n        return _borrower;\n    }\n\n    function getInterestRate() public view returns (uint256) {\n        return loanParams.interestRate;\n    }\n\n    function getLoanStatus() public view returns (TermsContractLib.LoanStatus loanStatus) {\n        return loanParams.loanStatus;\n    }\n\n    function getLoanStartTimestamp() public view returns (uint256) {\n        return loanParams.loanStartTimestamp;\n    }\n\n    function getNumScheduledPayments() public view returns (uint256) {\n        return loanParams.loanPeriod;\n    }\n\n    function getPrincipalRequested() public view returns (uint256) {\n        return loanParams.principalRequested;\n    }\n\n    function getPrincipalDisbursed() public view returns (uint256) {\n        return loanParams.principalDisbursed;\n    }\n\n    function getPrincipalToken() public view returns (address) {\n        return loanParams.principalToken;\n    }\n\n    function getLoanEndTimestamp() public view returns (uint256 end) {\n        require(loanParams.loanStartTimestamp != 0, \"Loan hasn't been started yet\");\n        end = BokkyPooBahsDateTimeLibrary.addMonths(\n            loanParams.loanStartTimestamp,\n            loanParams.loanPeriod\n        );\n    }\n\n    /**\n     * @dev gets loanParams as a tuple\n     */\n    function getLoanParams()\n        public\n        view\n        returns (\n            address,\n            address principalToken,\n            uint256 principalRequested,\n            uint256 loanStatus,\n            uint256 loanPeriod,\n            uint256 interestRate,\n            uint256 principalDisbursed,\n            uint256 loanStartTimestamp\n        )\n    {\n        return (\n            _borrower,\n            address(loanParams.principalToken),\n            loanParams.principalRequested,\n            uint256(loanParams.loanStatus),\n            loanParams.loanPeriod,\n            loanParams.interestRate,\n            loanParams.principalDisbursed,\n            loanParams.loanStartTimestamp\n        );\n    }\n\n    /**\n     * @dev Begins loan and writes timestamps to the payment table\n     */\n    function startLoan(uint256 totalCrowdfunded)\n        public\n        onlyController\n        onlyBeforeRepaymentCycle\n        returns (uint256 startTimestamp)\n    {\n        uint256 principalDisbursed;\n        /** NOTE: prevents over-debt through unauthorized transfers (e.g. native token transfers) into crowdloan */\n        if (totalCrowdfunded > loanParams.principalRequested) {\n            principalDisbursed = loanParams.principalRequested;\n        } else {\n            principalDisbursed = totalCrowdfunded;\n        }\n        startTimestamp = now;\n        loanParams.principalDisbursed = principalDisbursed;\n        loanParams.loanStartTimestamp = startTimestamp;\n        _setLoanStatus(TermsContractLib.LoanStatus.REPAYMENT_CYCLE);\n    }\n\n    /**\n     * @dev internal method to set the loanStatus of the loan\n     */\n    function _setLoanStatus(TermsContractLib.LoanStatus _loanStatus) internal {\n        loanParams.loanStatus = _loanStatus;\n        emit LoanStatusUpdated(_loanStatus);\n    }\n}\n","sourcePath":"contracts/debt-contracts/TermsContract.sol","abi":[{"constant":true,"inputs":[],"name":"loanParams","outputs":[{"name":"principalToken","type":"address"},{"name":"principalRequested","type":"uint256"},{"name":"loanStatus","type":"uint8"},{"name":"loanPeriod","type":"uint256"},{"name":"interestRate","type":"uint256"},{"name":"principalDisbursed","type":"uint256"},{"name":"loanStartTimestamp","type":"uint256"}],"payable":false,"stateMutability":"view","type":"function"},{"constant":true,"inputs":[],"name":"getNumScheduledPayments","outputs":[{"name":"","type":"uint256"}],"payable":false,"stateMutability":"view","type":"function"},{"constant":true,"inputs":[],"name":"getLoanParams","outputs":[{"name":"","type":"address"},{"name":"principalToken","type":"address"},{"name":"principalRequested","type":"uint256"},{"name":"loanStatus","type":"uint256"},{"name":"loanPeriod","type":"uint256"},{"name":"interestRate","type":"uint256"},{"name":"principalDisbursed","type":"uint256"},{"name":"loanStartTimestamp","type":"uint256"}],"payable":false,"stateMutability":"view","type":"function"},{"constant":true,"inputs":[],"name":"getLoanEndTimestamp","outputs":[{"name":"end","type":"uint256"}],"payable":false,"stateMutability":"view","type":"function"},{"constant":true,"inputs":[],"name":"getInterestRate","outputs":[{"name":"","type":"uint256"}],"payable":false,"stateMutability":"view","type":"function"},{"constant":true,"inputs":[],"name":"getPrincipalRequested","outputs":[{"name":"","type":"uint256"}],"payable":false,"stateMutability":"view","type":"function"},{"constant":true,"inputs":[],"name":"borrower","outputs":[{"name":"","type":"address"}],"payable":false,"stateMutability":"view","type":"function"},{"constant":true,"inputs":[],"name":"getPrincipalDisbursed","outputs":[{"name":"","type":"uint256"}],"payable":false,"stateMutability":"view","type":"function"},{"constant":false,"inputs":[{"name":"borrower_","type":"address"},{"name":"_principalTokenAddr","type":"address"},{"name":"_principalRequested","type":"uint256"},{"name":"_loanPeriod","type":"uint256"},{"name":"_interestRate","type":"uint256"},{"name":"_controllers","type":"address[]"}],"name":"initialize","outputs":[],"payable":false,"stateMutability":"nonpayable","type":"function"},{"constant":false,"inputs":[{"name":"_controllers","type":"address[]"}],"name":"initialize","outputs":[],"payable":false,"stateMutability":"nonpayable","type":"function"},{"constant":true,"inputs":[],"name":"getLoanStatus","outputs":[{"name":"loanStatus","type":"uint8"}],"payable":false,"stateMutability":"view","type":"function"},{"constant":true,"inputs":[],"name":"getPrincipalToken","outputs":[{"name":"","type":"address"}],"payable":false,"stateMutability":"view","type":"function"},{"constant":false,"inputs":[{"name":"totalCrowdfunded","type":"uint256"}],"name":"startLoan","outputs":[{"name":"startTimestamp","type":"uint256"}],"payable":false,"stateMutability":"nonpayable","type":"function"},{"constant":true,"inputs":[{"name":"account","type":"address"}],"name":"isController","outputs":[{"name":"","type":"bool"}],"payable":false,"stateMutability":"view","type":"function"},{"constant":false,"inputs":[{"name":"_status","type":"uint8"}],"name":"setLoanStatus","outputs":[],"payable":false,"stateMutability":"nonpayable","type":"function"},{"constant":true,"inputs":[],"name":"getLoanStartTimestamp","outputs":[{"name":"","type":"uint256"}],"payable":false,"stateMutability":"view","type":"function"},{"anonymous":false,"inputs":[{"indexed":true,"name":"account","type":"address"}],"name":"ControllerAdded","type":"event"},{"anonymous":false,"inputs":[{"indexed":true,"name":"account","type":"address"}],"name":"ControllerRemoved","type":"event"},{"anonymous":false,"inputs":[{"indexed":false,"name":"account","type":"address"}],"name":"LogAccess","type":"event"},{"anonymous":false,"inputs":[{"indexed":false,"name":"status","type":"uint8"}],"name":"LoanStatusUpdated","type":"event"}],"bytecode":"0x60806040523480156100115760006000fd5b50610017565b61194e806100266000396000f3fe60806040523480156100115760006000fd5b50600436106101055760003560e01c80638de87cd211610098578063b2f5db0111610067578063b2f5db0114610568578063b429afeb146105ab578063e38be0c214610608578063f209b9701461063a57610105565b80638de87cd214610314578063a224cee714610432578063acc1ab13146104f2578063adb724bf1461051e57610105565b80635257b566116100d45780635257b566146102705780637340435b1461028e5780637df1f1b9146102ac57806389026b6a146102f657610105565b806309e94d981461010b578063170d7dc51461018d57806320600a37146101ab5780634e04bf611461025257610105565b60006000fd5b610113610658565b604051808873ffffffffffffffffffffffffffffffffffffffff1673ffffffffffffffffffffffffffffffffffffffff16815260200187815260200186600581111561015b57fe5b60ff16815260200185815260200184815260200183815260200182815260200197505050505050505060405180910390f35b6101956106c7565b6040518082815260200191505060405180910390f35b6101b36106df565b604051808973ffffffffffffffffffffffffffffffffffffffff1673ffffffffffffffffffffffffffffffffffffffff1681526020018873ffffffffffffffffffffffffffffffffffffffff1673ffffffffffffffffffffffffffffffffffffffff1681526020018781526020018681526020018581526020018481526020018381526020018281526020019850505050505050505060405180910390f35b61025a6107b7565b6040518082815260200191505060405180910390f35b61027861086e565b6040518082815260200191505060405180910390f35b610296610886565b6040518082815260200191505060405180910390f35b6102b461089e565b604051808273ffffffffffffffffffffffffffffffffffffffff1673ffffffffffffffffffffffffffffffffffffffff16815260200191505060405180910390f35b6102fe6108cd565b6040518082815260200191505060405180910390f35b610430600480360360c081101561032b5760006000fd5b81019080803573ffffffffffffffffffffffffffffffffffffffff169060200190929190803573ffffffffffffffffffffffffffffffffffffffff169060200190929190803590602001909291908035906020019092919080359060200190929190803590602001906401000000008111156103a75760006000fd5b8201836020820111156103ba5760006000fd5b803590602001918460208302840111640100000000831117156103dd5760006000fd5b919080806020026020016040519081016040528093929190818152602001838360200280828437600081840152601f19601f820116905080830192505050505050509090919290909192905050506108e5565b005b6104f0600480360360208110156104495760006000fd5b81019080803590602001906401000000008111156104675760006000fd5b82018360208201111561047a5760006000fd5b8035906020019184602083028401116401000000008311171561049d5760006000fd5b919080806020026020016040519081016040528093929190818152602001838360200280828437600081840152601f19601f82011690508083019250505050505050909091929090919290505050610d5b565b005b6104fa610eac565b6040518082600581111561050a57fe5b60ff16815260200191505060405180910390f35b610526610ece565b604051808273ffffffffffffffffffffffffffffffffffffffff1673ffffffffffffffffffffffffffffffffffffffff16815260200191505060405180910390f35b6105956004803603602081101561057f5760006000fd5b8101908080359060200190929190505050610f03565b6040518082815260200191505060405180910390f35b6105ee600480360360208110156105c25760006000fd5b81019080803573ffffffffffffffffffffffffffffffffffffffff1690602001909291905050506110e6565b604051808215151515815260200191505060405180910390f35b6106386004803603602081101561061f5760006000fd5b81019080803560ff16906020019092919050505061110b565b005b610642611208565b6040518082815260200191505060405180910390f35b60666000508060000160009054906101000a900473ffffffffffffffffffffffffffffffffffffffff16908060010160005054908060020160009054906101000a900460ff16908060030160005054908060040160005054908060050160005054908060060160005054905087565b600060666000506003016000505490506106dc565b90565b60006000600060006000600060006000606d60009054906101000a900473ffffffffffffffffffffffffffffffffffffffff16606660005060000160009054906101000a900473ffffffffffffffffffffffffffffffffffffffff16606660005060010160005054606660005060020160009054906101000a900460ff16600581111561076857fe5b606660005060030160005054606660005060040160005054606660005060050160005054606660005060060160005054975097509750975097509750975097506107ad565b9091929394959697565b6000600060666000506006016000505414151515610840576040517f08c379a000000000000000000000000000000000000000000000000000000000815260040180806020018281038252601c8152602001807f4c6f616e206861736e2774206265656e2073746172746564207965740000000081526020015060200191505060405180910390fd5b61086660666000506006016000505460666000506003016000505461122063ffffffff16565b905080505b90565b60006066600050600401600050549050610883565b90565b6000606660005060010160005054905061089b565b90565b6000606d60009054906101000a900473ffffffffffffffffffffffffffffffffffffffff1690506108ca565b90565b600060666000506005016000505490506108e2565b90565b600060019054906101000a900460ff168061090a57506109096112ec63ffffffff16565b5b806109225750600060009054906101000a900460ff16155b1515610979576040517f08c379a000000000000000000000000000000000000000000000000000000000815260040180806020018281038252602e81526020018061186b602e913960400191505060405180910390fd5b6000600060019054906101000a900460ff1615905080156109cb576001600060016101000a81548160ff0219169083151502179055506001600060006101000a81548160ff0219169083151502179055505b600073ffffffffffffffffffffffffffffffffffffffff168673ffffffffffffffffffffffffffffffffffffffff1614151515610a53576040517f08c379a00000000000000000000000000000000000000000000000000000000081526004018080602001828103825260238152602001806118196023913960400191505060405180910390fd5b60008514151515610aaf576040517f08c379a00000000000000000000000000000000000000000000000000000000081526004018080602001828103825260298152602001806117f06029913960400191505060405180910390fd5b600084111515610b0a576040517f08c379a00000000000000000000000000000000000000000000000000000000081526004018080602001828103825260218152602001806117cf6021913960400191505060405180910390fd5b600983111515610b65576040517f08c379a00000000000000000000000000000000000000000000000000000000081526004018080602001828103825260458152602001806118d56045913960600191505060405180910390fd5b61271083101515610bc1576040517f08c379a000000000000000000000000000000000000000000000000000000000815260040180806020018281038252603c815260200180611899603c913960400191505060405180910390fd5b86606d60006101000a81548173ffffffffffffffffffffffffffffffffffffffff021916908373ffffffffffffffffffffffffffffffffffffffff160217905550610c1182610d5b63ffffffff16565b6040518060e001604052808773ffffffffffffffffffffffffffffffffffffffff16815260200186815260200160006005811115610c4b57fe5b8152602001858152602001848152602001600081526020016000815260200150606660005060008201518160000160006101000a81548173ffffffffffffffffffffffffffffffffffffffff021916908373ffffffffffffffffffffffffffffffffffffffff16021790555060208201518160010160005090905560408201518160020160006101000a81548160ff02191690836005811115610cea57fe5b021790555060608201518160030160005090905560808201518160040160005090905560a08201518160050160005090905560c0820151816006016000509090559050505b8015610d51576000600060016101000a81548160ff0219169083151502179055505b505b505050505050565b600060019054906101000a900460ff1680610d805750610d7f6112ec63ffffffff16565b5b80610d985750600060009054906101000a900460ff16155b1515610def576040517f08c379a000000000000000000000000000000000000000000000000000000000815260040180806020018281038252602e81526020018061186b602e913960400191505060405180910390fd5b6000600060019054906101000a900460ff161590508015610e41576001600060016101000a81548160ff0219169083151502179055506001600060006101000a81548160ff0219169083151502179055505b6000600090505b8251811015610e8357610e758382815181101515610e6257fe5b602002602001015161130463ffffffff16565b5b8080600101915050610e48565b505b8015610ea7576000600060016101000a81548160ff0219169083151502179055505b505b50565b6000606660005060020160009054906101000a900460ff169050610ecb565b90565b6000606660005060000160009054906101000a900473ffffffffffffffffffffffffffffffffffffffff169050610f00565b90565b60007ffca6d4e226ce530cdba35a2c75a702b253c239a7068eefc5b041b2519083d2c933604051808273ffffffffffffffffffffffffffffffffffffffff1673ffffffffffffffffffffffffffffffffffffffff16815260200191505060405180910390a1610f77336110e663ffffffff16565b1515610fee576040517f08c379a00000000000000000000000000000000000000000000000000000000081526004018080602001828103825260118152602001807f5065726d697373696f6e2064656e69656400000000000000000000000000000081526020015060200191505060405180910390fd5b60046005811115610ffb57fe5b606660005060020160009054906101000a900460ff16600581111561101c57fe5b101515611074576040517f08c379a000000000000000000000000000000000000000000000000000000000815260040180806020018281038252602f81526020018061183c602f913960400191505060405180910390fd5b600060666000506001016000505483111561109e57606660005060010160005054905080506110a4565b82905080505b42915081508060666000506005016000508190909055508160666000506006016000508190909055506110dd600461136263ffffffff16565b505b5b5b919050565b60006110ff8260336000506113d490919063ffffffff16565b9050611106565b919050565b7ffca6d4e226ce530cdba35a2c75a702b253c239a7068eefc5b041b2519083d2c933604051808273ffffffffffffffffffffffffffffffffffffffff1673ffffffffffffffffffffffffffffffffffffffff16815260200191505060405180910390a161117d336110e663ffffffff16565b15156111f4576040517f08c379a00000000000000000000000000000000000000000000000000000000081526004018080602001828103825260118152602001807f5065726d697373696f6e2064656e69656400000000000000000000000000000081526020015060200191505060405180910390fd5b6112038161136263ffffffff16565b5b5b50565b6000606660005060060160005054905061121d565b90565b6000600060006000611245620151808781151561123957fe5b0461147263ffffffff16565b80935081945082955050505084820191508150600c6001830381151561126757fe5b048301925082506001600c6001840381151561127f57fe5b0601915081506000611297848461156763ffffffff16565b9050808211156112a75780915081505b62015180878115156112b557fe5b06620151806112cb86868661160163ffffffff16565b0201945084508685101515156112e15760006000fd5b505050505b92915050565b60006000303b90506000811491505061130156505b90565b61131b8160336000506116c590919063ffffffff16565b8073ffffffffffffffffffffffffffffffffffffffff167f0a8bb31534c0ed46f380cb867bd5c803a189ced9a764e30b3a4991a9901d747460405160405180910390a25b50565b80606660005060020160006101000a81548160ff0219169083600581111561138657fe5b02179055507fc081d24eb45b93b7f218e30cf674c5e115ed10644b1d3f03f482bc5d5f528e3981604051808260058111156113bd57fe5b60ff16815260200191505060405180910390a15b50565b6000600073ffffffffffffffffffffffffffffffffffffffff168273ffffffffffffffffffffffffffffffffffffffff16141515156114135760006000fd5b8260000160005060008373ffffffffffffffffffffffffffffffffffffffff1673ffffffffffffffffffffffffffffffffffffffff16815260200190815260200160002060009054906101000a900460ff16905061146c565b92915050565b6000600060006000849050600062253d8c62010bd98301019050600062023ab18260040281151561149f57fe5b059050600460038262023ab102018115156114b657fe5b05820391508150600062164b0960018401610fa0028115156114d457fe5b059050601f6004826105b5028115156114e957fe5b0584030192508250600061098f8460500281151561150357fe5b059050600060508261098f0281151561151857fe5b0585039050600b8281151561152957fe5b059450845084600c026002830103915081508483603186036064020101925082508298508850819750875080965086505050505050505b9193909250565b600060018214806115785750600382145b806115835750600582145b8061158e5750600782145b806115995750600882145b806115a45750600a82145b806115af5750600c82145b156115bf57601f905080506115fa565b6002821415156115d457601e905080506115f9565b6115e38361178163ffffffff16565b6115ee57601c6115f1565b601d5b60ff16905080505b5b5b92915050565b60006107b284101515156116155760006000fd5b600084905060008490506000849050600062253d8c60046064600c600e870381151561163d57fe5b0561132488010181151561164d57fe5b0560030281151561165a57fe5b05600c600c600c600e880381151561166e57fe5b0502600287030361016f0281151561168257fe5b056004600c600e880381151561169457fe5b056112c08901016105b5028115156116a857fe5b05617d4b86030101030390508094508450505050505b9392505050565b600073ffffffffffffffffffffffffffffffffffffffff168173ffffffffffffffffffffffffffffffffffffffff16141515156117025760006000fd5b61171282826113d463ffffffff16565b15151561171f5760006000fd5b60018260000160005060008373ffffffffffffffffffffffffffffffffffffffff1673ffffffffffffffffffffffffffffffffffffffff16815260200190815260200160002060006101000a81548160ff0219169083151502179055505b5050565b6000600060048381151561179157fe5b061480156117ac575060006064838115156117a857fe5b0614155b806117c457506000610190838115156117c157fe5b06145b905080505b91905056fe4c6f616e20706572696f64206d75737420626520686967686572207468616e20305072696e636970616c526571756573746564206d7573742062652067726561746572207468616e20304c6f616e656420746f6b656e206d75737420626520616e20455243323020746f6b656e5265717569726573206c6f616e53746174757320746f206265206265666f72652052657061796d656e744379636c65436f6e747261637420696e7374616e63652068617320616c7265616479206265656e20696e697469616c697a6564496e746572657374207261746520626520696e20626173697320706f696e747320616e64206c657373207468616e2031302c30303020283130302529496e74657265737420726174652073686f756c6420626520696e20626173697320706f696e747320616e642068617665206d696e696d756d206f662031302028302e312529a265627a7a723058203a65f9d1c5980b0bc8eef325114f319dcfe6de831875c111ef16e1df47e1e99064736f6c634300050a0032","compiler":{"name":"solc","version":"0.5.10+commit.5a6ea5b1.Emscripten.clang","optimizer":{},"evmVersion":"constantinople"}}