{"fileName":"TokenFaucet.sol","contractName":"TokenFaucet","source":"pragma solidity 0.5.11;\n\nimport \"openzeppelin-eth/contracts/math/SafeMath.sol\";\nimport \"openzeppelin-eth/contracts/ownership/Ownable.sol\";\nimport \"openzeppelin-eth/contracts/token/ERC20/ERC20Detailed.sol\";\n\ncontract TokenFaucet is Ownable {\n    using SafeMath for uint256;\n\n    uint256 private _allowance = 1000;\n    uint256 private TEN = 10;\n\n    function allowance() public view returns (uint256) {\n        return _allowance;\n    }\n\n    function balanceAt(address _token) public view returns (uint256) {\n        return ERC20Detailed(_token).balanceOf(address(this));\n    }\n\n    function request(address _token) public {\n        ERC20Detailed token = ERC20Detailed(_token);\n\n        uint256 decimals = token.decimals();\n        uint256 balance = token.balanceOf(address(this));\n        uint256 parsedAllowance = _allowance.mul(TEN ** decimals);\n\n        if (balance < parsedAllowance) {\n            _transferTo(token, msg.sender, balance);\n        } else {\n            _transferTo(token, msg.sender, parsedAllowance);\n        }\n    }\n\n    function setAllowance(uint256 amount) public onlyOwner {\n        _allowance = amount;\n    }\n\n    function _transferTo(ERC20Detailed _token, address _recipient, uint256 _amount) internal {\n        _token.transfer(_recipient, _amount);\n    }\n\n    function() external {\n        revert(\"function: request(address)\");\n    }\n}\n","sourcePath":"contracts/misc/TokenFaucet.sol","abi":[{"constant":false,"inputs":[{"internalType":"address","name":"_token","type":"address"}],"name":"request","outputs":[],"payable":false,"stateMutability":"nonpayable","type":"function"},{"constant":false,"inputs":[{"internalType":"uint256","name":"amount","type":"uint256"}],"name":"setAllowance","outputs":[],"payable":false,"stateMutability":"nonpayable","type":"function"},{"constant":true,"inputs":[{"internalType":"address","name":"_token","type":"address"}],"name":"balanceAt","outputs":[{"internalType":"uint256","name":"","type":"uint256"}],"payable":false,"stateMutability":"view","type":"function"},{"constant":false,"inputs":[],"name":"renounceOwnership","outputs":[],"payable":false,"stateMutability":"nonpayable","type":"function"},{"constant":true,"inputs":[],"name":"owner","outputs":[{"internalType":"address","name":"","type":"address"}],"payable":false,"stateMutability":"view","type":"function"},{"constant":true,"inputs":[],"name":"isOwner","outputs":[{"internalType":"bool","name":"","type":"bool"}],"payable":false,"stateMutability":"view","type":"function"},{"constant":false,"inputs":[{"internalType":"address","name":"sender","type":"address"}],"name":"initialize","outputs":[],"payable":false,"stateMutability":"nonpayable","type":"function"},{"constant":true,"inputs":[],"name":"allowance","outputs":[{"internalType":"uint256","name":"","type":"uint256"}],"payable":false,"stateMutability":"view","type":"function"},{"constant":false,"inputs":[{"internalType":"address","name":"newOwner","type":"address"}],"name":"transferOwnership","outputs":[],"payable":false,"stateMutability":"nonpayable","type":"function"},{"payable":false,"stateMutability":"nonpayable","type":"fallback"},{"anonymous":false,"inputs":[{"indexed":true,"internalType":"address","name":"previousOwner","type":"address"},{"indexed":true,"internalType":"address","name":"newOwner","type":"address"}],"name":"OwnershipTransferred","type":"event"}],"bytecode":"0x60806040526103e86066600050909055600a60676000509090553480156100265760006000fd5b5061002c565b610b948061003b6000396000f3fe60806040523480156100115760006000fd5b50600436106100985760003560e01c80638da5cb5b116100675780638da5cb5b146101e35780638f32d59b1461022d578063c4d66de81461024f578063de242ff414610294578063f2fde38b146102b257610098565b806327c78c421461010c5780633ba93f2614610151578063499b78a614610180578063715018a6146101d957610098565b5b6040517f08c379a000000000000000000000000000000000000000000000000000000000815260040180806020018281038252601a8152602001807f66756e6374696f6e3a207265717565737428616464726573732900000000000081526020015060200191505060405180910390fd5b005b61014f600480360360208110156101235760006000fd5b81019080803573ffffffffffffffffffffffffffffffffffffffff1690602001909291905050506102f7565b005b61017e600480360360208110156101685760006000fd5b81019080803590602001909291905050506104a1565b005b6101c3600480360360208110156101975760006000fd5b81019080803573ffffffffffffffffffffffffffffffffffffffff1690602001909291905050506104cc565b6040518082815260200191505060405180910390f35b6101e1610595565b005b6101eb610672565b604051808273ffffffffffffffffffffffffffffffffffffffff1673ffffffffffffffffffffffffffffffffffffffff16815260200191505060405180910390f35b6102356106a1565b604051808215151515815260200191505060405180910390f35b610292600480360360208110156102665760006000fd5b81019080803573ffffffffffffffffffffffffffffffffffffffff1690602001909291905050506106fe565b005b61029c6108ca565b6040518082815260200191505060405180910390f35b6102f5600480360360208110156102c95760006000fd5b81019080803573ffffffffffffffffffffffffffffffffffffffff1690602001909291905050506108dc565b005b600081905060008173ffffffffffffffffffffffffffffffffffffffff1663313ce5676040518163ffffffff1660e01b815260040160206040518083038186803b1580156103455760006000fd5b505afa15801561035a573d600060003e3d6000fd5b505050506040513d60208110156103715760006000fd5b810190808051906020019092919050505060ff16905060008273ffffffffffffffffffffffffffffffffffffffff166370a08231306040518263ffffffff1660e01b8152600401808273ffffffffffffffffffffffffffffffffffffffff1673ffffffffffffffffffffffffffffffffffffffff16815260200191505060206040518083038186803b1580156104075760006000fd5b505afa15801561041c573d600060003e3d6000fd5b505050506040513d60208110156104335760006000fd5b810190808051906020019092919050505090506000610467836067600050540a60666000505461090a90919063ffffffff16565b9050808210156104875761048284338461094f63ffffffff16565b610499565b61049884338361094f63ffffffff16565b5b505050505b50565b6104af6106a163ffffffff16565b15156104bb5760006000fd5b8060666000508190909055505b5b50565b60008173ffffffffffffffffffffffffffffffffffffffff166370a08231306040518263ffffffff1660e01b8152600401808273ffffffffffffffffffffffffffffffffffffffff1673ffffffffffffffffffffffffffffffffffffffff16815260200191505060206040518083038186803b15801561054c5760006000fd5b505afa158015610561573d600060003e3d6000fd5b505050506040513d60208110156105785760006000fd5b81019080805190602001909291905050509050610590565b919050565b6105a36106a163ffffffff16565b15156105af5760006000fd5b600073ffffffffffffffffffffffffffffffffffffffff16603360009054906101000a900473ffffffffffffffffffffffffffffffffffffffff1673ffffffffffffffffffffffffffffffffffffffff167f8be0079c531659141344cd1fd0a4f28419497f9722a3daafe3b4186f6b6457e060405160405180910390a36000603360006101000a81548173ffffffffffffffffffffffffffffffffffffffff021916908373ffffffffffffffffffffffffffffffffffffffff1602179055505b5b565b6000603360009054906101000a900473ffffffffffffffffffffffffffffffffffffffff16905061069e565b90565b6000603360009054906101000a900473ffffffffffffffffffffffffffffffffffffffff1673ffffffffffffffffffffffffffffffffffffffff163373ffffffffffffffffffffffffffffffffffffffff161490506106fb565b90565b600060019054906101000a900460ff16806107235750610722610a1b63ffffffff16565b5b8061073b5750600060009054906101000a900460ff16155b1515610792576040517f08c379a000000000000000000000000000000000000000000000000000000000815260040180806020018281038252602e815260200180610b32602e913960400191505060405180910390fd5b6000600060019054906101000a900460ff1615905080156107e4576001600060016101000a81548160ff0219169083151502179055506001600060006101000a81548160ff0219169083151502179055505b81603360006101000a81548173ffffffffffffffffffffffffffffffffffffffff021916908373ffffffffffffffffffffffffffffffffffffffff160217905550603360009054906101000a900473ffffffffffffffffffffffffffffffffffffffff1673ffffffffffffffffffffffffffffffffffffffff16600073ffffffffffffffffffffffffffffffffffffffff167f8be0079c531659141344cd1fd0a4f28419497f9722a3daafe3b4186f6b6457e060405160405180910390a35b80156108c5576000600060016101000a81548160ff0219169083151502179055505b505b50565b600060666000505490506108d9565b90565b6108ea6106a163ffffffff16565b15156108f65760006000fd5b61090581610a3363ffffffff16565b5b5b50565b6000600083141561091e5760009050610949565b6000828402905082848281151561093157fe5b0414151561093f5760006000fd5b8091505061094956505b92915050565b8273ffffffffffffffffffffffffffffffffffffffff1663a9059cbb83836040518363ffffffff1660e01b8152600401808373ffffffffffffffffffffffffffffffffffffffff1673ffffffffffffffffffffffffffffffffffffffff16815260200182815260200192505050602060405180830381600087803b1580156109d75760006000fd5b505af11580156109ec573d600060003e3d6000fd5b505050506040513d6020811015610a035760006000fd5b8101908080519060200190929190505050505b505050565b60006000303b905060008114915050610a3056505b90565b600073ffffffffffffffffffffffffffffffffffffffff168173ffffffffffffffffffffffffffffffffffffffff1614151515610a705760006000fd5b8073ffffffffffffffffffffffffffffffffffffffff16603360009054906101000a900473ffffffffffffffffffffffffffffffffffffffff1673ffffffffffffffffffffffffffffffffffffffff167f8be0079c531659141344cd1fd0a4f28419497f9722a3daafe3b4186f6b6457e060405160405180910390a380603360006101000a81548173ffffffffffffffffffffffffffffffffffffffff021916908373ffffffffffffffffffffffffffffffffffffffff1602179055505b5056fe436f6e747261637420696e7374616e63652068617320616c7265616479206265656e20696e697469616c697a6564a265627a7a7231582015ec9f2e3bff3a5cc985fc1f6e7d5afe93ab381f9dd56380dadead22db554a0664736f6c634300050b0032","compiler":{"name":"solc","version":"0.5.11+commit.c082d0b4.Emscripten.clang","optimizer":{},"evmVersion":"constantinople"}}