{
  "contractName": "TokenFaucet",
  "abi": [
    {
      "constant": false,
      "inputs": [],
      "name": "renounceOwnership",
      "outputs": [],
      "payable": false,
      "stateMutability": "nonpayable",
      "type": "function"
    },
    {
      "constant": true,
      "inputs": [],
      "name": "owner",
      "outputs": [
        {
          "name": "",
          "type": "address"
        }
      ],
      "payable": false,
      "stateMutability": "view",
      "type": "function"
    },
    {
      "constant": true,
      "inputs": [],
      "name": "isOwner",
      "outputs": [
        {
          "name": "",
          "type": "bool"
        }
      ],
      "payable": false,
      "stateMutability": "view",
      "type": "function"
    },
    {
      "constant": false,
      "inputs": [
        {
          "name": "sender",
          "type": "address"
        }
      ],
      "name": "initialize",
      "outputs": [],
      "payable": false,
      "stateMutability": "nonpayable",
      "type": "function"
    },
    {
      "constant": false,
      "inputs": [
        {
          "name": "newOwner",
          "type": "address"
        }
      ],
      "name": "transferOwnership",
      "outputs": [],
      "payable": false,
      "stateMutability": "nonpayable",
      "type": "function"
    },
    {
      "payable": false,
      "stateMutability": "nonpayable",
      "type": "fallback"
    },
    {
      "anonymous": false,
      "inputs": [
        {
          "indexed": true,
          "name": "previousOwner",
          "type": "address"
        },
        {
          "indexed": true,
          "name": "newOwner",
          "type": "address"
        }
      ],
      "name": "OwnershipTransferred",
      "type": "event"
    },
    {
      "constant": true,
      "inputs": [],
      "name": "allowance",
      "outputs": [
        {
          "name": "",
          "type": "uint256"
        }
      ],
      "payable": false,
      "stateMutability": "view",
      "type": "function"
    },
    {
      "constant": true,
      "inputs": [
        {
          "name": "_token",
          "type": "address"
        }
      ],
      "name": "balanceAt",
      "outputs": [
        {
          "name": "",
          "type": "uint256"
        }
      ],
      "payable": false,
      "stateMutability": "view",
      "type": "function"
    },
    {
      "constant": false,
      "inputs": [
        {
          "name": "_token",
          "type": "address"
        }
      ],
      "name": "request",
      "outputs": [],
      "payable": false,
      "stateMutability": "nonpayable",
      "type": "function"
    },
    {
      "constant": false,
      "inputs": [
        {
          "name": "amount",
          "type": "uint256"
        }
      ],
      "name": "setAllowance",
      "outputs": [],
      "payable": false,
      "stateMutability": "nonpayable",
      "type": "function"
    }
  ],
  "bytecode": "0x60806040526103e8606655600a60675534801561001b57600080fd5b50610b8f8061002b6000396000f3fe608060405234801561001057600080fd5b50600436106100b0576000357c0100000000000000000000000000000000000000000000000000000000900480638da5cb5b116100835780638da5cb5b146101f25780638f32d59b1461023c578063c4d66de81461025e578063de242ff4146102a2578063f2fde38b146102c0576100b0565b806327c78c421461011e5780633ba93f2614610162578063499b78a614610190578063715018a6146101e8575b6040517f08c379a000000000000000000000000000000000000000000000000000000000815260040180806020018281038252601a8152602001807f66756e6374696f6e3a207265717565737428616464726573732900000000000081525060200191505060405180910390fd5b6101606004803603602081101561013457600080fd5b81019080803573ffffffffffffffffffffffffffffffffffffffff169060200190929190505050610304565b005b61018e6004803603602081101561017857600080fd5b81019080803590602001909291905050506104cd565b005b6101d2600480360360208110156101a657600080fd5b81019080803573ffffffffffffffffffffffffffffffffffffffff1690602001909291905050506104ea565b6040518082815260200191505060405180910390f35b6101f06105c7565b005b6101fa61069b565b604051808273ffffffffffffffffffffffffffffffffffffffff1673ffffffffffffffffffffffffffffffffffffffff16815260200191505060405180910390f35b6102446106c5565b604051808215151515815260200191505060405180910390f35b6102a06004803603602081101561027457600080fd5b81019080803573ffffffffffffffffffffffffffffffffffffffff16906020019092919050505061071d565b005b6102aa6108dd565b6040518082815260200191505060405180910390f35b610302600480360360208110156102d657600080fd5b81019080803573ffffffffffffffffffffffffffffffffffffffff1690602001909291905050506108e7565b005b600081905060008173ffffffffffffffffffffffffffffffffffffffff1663313ce5676040518163ffffffff167c010000000000000000000000000000000000000000000000000000000002815260040160206040518083038186803b15801561036d57600080fd5b505afa158015610381573d6000803e3d6000fd5b505050506040513d602081101561039757600080fd5b810190808051906020019092919050505060ff16905060008273ffffffffffffffffffffffffffffffffffffffff166370a08231306040518263ffffffff167c0100000000000000000000000000000000000000000000000000000000028152600401808273ffffffffffffffffffffffffffffffffffffffff1673ffffffffffffffffffffffffffffffffffffffff16815260200191505060206040518083038186803b15801561044857600080fd5b505afa15801561045c573d6000803e3d6000fd5b505050506040513d602081101561047257600080fd5b8101908080519060200190929190505050905060006104a0836067540a60665461090690919063ffffffff16565b9050808210156104ba576104b5843384610944565b6104c6565b6104c5843383610944565b5b5050505050565b6104d56106c5565b15156104e057600080fd5b8060668190555050565b60008173ffffffffffffffffffffffffffffffffffffffff166370a08231306040518263ffffffff167c0100000000000000000000000000000000000000000000000000000000028152600401808273ffffffffffffffffffffffffffffffffffffffff1673ffffffffffffffffffffffffffffffffffffffff16815260200191505060206040518083038186803b15801561058557600080fd5b505afa158015610599573d6000803e3d6000fd5b505050506040513d60208110156105af57600080fd5b81019080805190602001909291905050509050919050565b6105cf6106c5565b15156105da57600080fd5b600073ffffffffffffffffffffffffffffffffffffffff16603360009054906101000a900473ffffffffffffffffffffffffffffffffffffffff1673ffffffffffffffffffffffffffffffffffffffff167f8be0079c531659141344cd1fd0a4f28419497f9722a3daafe3b4186f6b6457e060405160405180910390a36000603360006101000a81548173ffffffffffffffffffffffffffffffffffffffff021916908373ffffffffffffffffffffffffffffffffffffffff160217905550565b6000603360009054906101000a900473ffffffffffffffffffffffffffffffffffffffff16905090565b6000603360009054906101000a900473ffffffffffffffffffffffffffffffffffffffff1673ffffffffffffffffffffffffffffffffffffffff163373ffffffffffffffffffffffffffffffffffffffff1614905090565b600060019054906101000a900460ff168061073c575061073b610a28565b5b8061075357506000809054906101000a900460ff16155b15156107aa576040517f08c379a000000000000000000000000000000000000000000000000000000000815260040180806020018281038252602e815260200180610b36602e913960400191505060405180910390fd5b60008060019054906101000a900460ff1615905080156107fa576001600060016101000a81548160ff02191690831515021790555060016000806101000a81548160ff0219169083151502179055505b81603360006101000a81548173ffffffffffffffffffffffffffffffffffffffff021916908373ffffffffffffffffffffffffffffffffffffffff160217905550603360009054906101000a900473ffffffffffffffffffffffffffffffffffffffff1673ffffffffffffffffffffffffffffffffffffffff16600073ffffffffffffffffffffffffffffffffffffffff167f8be0079c531659141344cd1fd0a4f28419497f9722a3daafe3b4186f6b6457e060405160405180910390a380156108d95760008060016101000a81548160ff0219169083151502179055505b5050565b6000606654905090565b6108ef6106c5565b15156108fa57600080fd5b61090381610a39565b50565b600080831415610919576000905061093e565b6000828402905082848281151561092c57fe5b0414151561093957600080fd5b809150505b92915050565b8273ffffffffffffffffffffffffffffffffffffffff1663a9059cbb83836040518363ffffffff167c0100000000000000000000000000000000000000000000000000000000028152600401808373ffffffffffffffffffffffffffffffffffffffff1673ffffffffffffffffffffffffffffffffffffffff16815260200182815260200192505050602060405180830381600087803b1580156109e757600080fd5b505af11580156109fb573d6000803e3d6000fd5b505050506040513d6020811015610a1157600080fd5b810190808051906020019092919050505050505050565b600080303b90506000811491505090565b600073ffffffffffffffffffffffffffffffffffffffff168173ffffffffffffffffffffffffffffffffffffffff1614151515610a7557600080fd5b8073ffffffffffffffffffffffffffffffffffffffff16603360009054906101000a900473ffffffffffffffffffffffffffffffffffffffff1673ffffffffffffffffffffffffffffffffffffffff167f8be0079c531659141344cd1fd0a4f28419497f9722a3daafe3b4186f6b6457e060405160405180910390a380603360006101000a81548173ffffffffffffffffffffffffffffffffffffffff021916908373ffffffffffffffffffffffffffffffffffffffff1602179055505056fe436f6e747261637420696e7374616e63652068617320616c7265616479206265656e20696e697469616c697a6564a165627a7a723058207fb125d576b01edbb2ffd58d62c48411781616799d218e21b80dc2de11c5f2b40029",
  "source": "pragma solidity ^0.5.2;\n\nimport \"openzeppelin-eth/contracts/math/SafeMath.sol\";\nimport \"openzeppelin-eth/contracts/ownership/Ownable.sol\";\nimport \"openzeppelin-eth/contracts/token/ERC20/ERC20Detailed.sol\";\n\ncontract TokenFaucet is Ownable {\n  using SafeMath for uint256;\n\n  uint256 private _allowance = 1000;\n  uint256 private TEN = 10;\n\n  function allowance () public view returns (uint256) {\n    return _allowance;\n  }\n\n  function balanceAt (address _token) public view returns (uint256) {\n    return ERC20Detailed(_token).balanceOf(address(this));\n  }\n\n  function request (address _token) public {\n    ERC20Detailed token = ERC20Detailed(_token);\n\n    uint256 decimals = token.decimals();\n    uint256 balance = token.balanceOf(address(this));\n    uint256 parsedAllowance = _allowance.mul(TEN**decimals);\n\n    if (balance < parsedAllowance) {\n      _transferTo(token, msg.sender, balance);\n    } else {\n      _transferTo(token, msg.sender, parsedAllowance);\n    }\n  }\n\n  function setAllowance (uint256 amount) public onlyOwner {\n    _allowance = amount;\n  }\n\n  function _transferTo (ERC20Detailed _token, address _recipient, uint256 _amount) internal {\n    _token.transfer(_recipient, _amount);\n  }\n\n  function() external {\n    revert('function: request(address)');\n  }\n}\n",
  "sourcePath": "/media/brvhrt/Vault/Store/New-folder/ebc/contracts/misc/TokenFaucet.sol",
  "compiler": {
    "name": "solc",
    "version": "0.5.2+commit.1df8f40c.Emscripten.clang"
  },
  "schemaVersion": "3.0.11",
  "updatedAt": "2019-08-21T20:07:14.389Z",
  "devdoc": {
    "methods": {
      "initialize(address)": {
        "details": "The Ownable constructor sets the original `owner` of the contract to the sender account."
      },
      "isOwner()": {
        "return": "true if `msg.sender` is the owner of the contract."
      },
      "owner()": {
        "return": "the address of the owner."
      },
      "renounceOwnership()": {
        "details": "Allows the current owner to relinquish control of the contract. It will not be possible to call the functions with the `onlyOwner` modifier anymore."
      },
      "transferOwnership(address)": {
        "details": "Allows the current owner to transfer control of the contract to a newOwner.",
        "params": {
          "newOwner": "The address to transfer ownership to."
        }
      }
    }
  },
  "userdoc": {
    "methods": {
      "renounceOwnership()": {
        "notice": "Renouncing ownership will leave the contract without an owner, thereby removing any functionality that is only available to the owner."
      }
    }
  }
}